:100000000C9464000C9481000C9481000C94810089
:100010000C9481000C9481000C9481000C9481005C
:100020000C9481000C9481000C9481000C94FE00CF
:100030000C9481000C9481000C9481000C9481003C
:100040000C94B8000C9481000C9481000C948100F5
:100050000C9481000C9481000C9481000C9481001C
:100060000C9481000C9481000C9400000C9400000E
:100070000C9400000C9400000000000025002800F3
:100080002B002E0000000000240027002A002D0075
:10009000040404040404040402020202020203032E
:1000A000030303030505050505050503010204080F
:1000B00010204080010204081020010204081020D2
:1000C000020801041040204011241FBECFEFD8E0E9
:1000D000DEBFCDBF12E0A0E0B1E0ECE3F8E002C08B
:1000E00005900D92A638B107D9F724E0A6E8B2E052
:1000F00001C01D92A831B207E1F70E94A6010C943D
:100100001C040C9400003FB7F89480911404909163
:100110001504A0911604B091170426B5A89B05C03C
:100120002F3F19F00196A11DB11D3FBFBA2FA92F76
:10013000982F8827BC01CD01620F711D811D911D73
:10014000660F771F881F991F0895AC01579FC00144
:1001500030E82227469F310D821F921F569F300D97
:10016000811D921F479F300D811D921F11240895FC
:100170001F920F920FB60F9211242F933F938F93DC
:100180009F93AF93BF938091100490911104A0911D
:100190001204B091130430910F0420E4230F2D3783
:1001A00028F023EC230F0196A11DB11D20930F040D
:1001B0008093100490931104A0931204B09313043D
:1001C0008091140490911504A0911604B091170425
:1001D0000196A11DB11D8093140490931504A09362
:1001E0001604B0931704BF91AF919F918F913F91E7
:1001F0002F910F900FBE0F901F9018951F920F9286
:100200000FB60F9211241F932F933F934F935F9339
:100210006F937F938F939F93AF93BF93CF93DF930E
:10022000EF93FF9320918B0230918C02220F331FAA
:10023000220F331F132F107CC901880F991F8E7F47
:100240009F7736FF06C020E030E8A901481B590B14
:10025000CA01BC010E94A500EC01CC0FDD1F2D2FAF
:1002600033274AE0429FC001439F900D11246EEC5A
:100270007BE3681B790BCE010E94A50020E030E8EB
:10028000B901681B790BC9018C1B9D0B0E94A5004D
:10029000103411F0103819F49195819591098093DB
:1002A000A10080918B02E0918A0291E09E0F9093D1
:1002B0008A02F0E0E157FD4F819580838091010132
:1002C000981710F010928A02E0918A02F0E0E1574C
:1002D000FD4F208130E04091880250918902BA019F
:1002E00000908D0202C0759567950A94E2F77093AD
:1002F0008C0260938B028091860290918702959583
:100300008795F901F595E7958E0F9F1F461B570BB3
:10031000840F951F909389028093880230938702FF
:1003200020938602FF91EF91DF91CF91BF91AF9122
:100330009F918F917F916F915F914F913F912F91FD
:100340001F910F900FBE0F901F9018958091F20093
:1003500080618EBB80E88093F2009EB39093F200A0
:100360008093610091E0909361009091F2009F79F9
:100370009EBB8093F2009EB39093F2009091F200A6
:100380009B7F9EBB8093F2009EB39093F20080937C
:10039000610010926100789484B5826084BD84B558
:1003A000816084BD85B5826085BD85B5816085BD70
:1003B00080916E00816080936E0010928100809128
:1003C00081008260809381008091810081608093B0
:1003D0008100809180008160809380008091B100D5
:1003E00084608093B1008091B00081608093B00000
:1003F0008091910082608093910080919100816052
:100400008093910080919000816080939000809112
:100410007A00846080937A0080917A008D7F809347
:100420007A0080917A008E7F80937A0080917A00A2
:10043000806880937A001092C100E9EBF0E024918B
:10044000EDE9F0E08491882399F090E0880F991FFE
:10045000FC01EC57FF4FA591B491FC01E858FF4F08
:10046000859194918FB7F894EC91E22BEC938FBF28
:1004700081E0809300018091AD008F7B8093AD007F
:10048000809100018111ADC08091A0008C708160CD
:100490008093A0008091F00081FF0AC08091F0005D
:1004A0008D7F8EBB80E88093F0008EB38093F00048
:1004B000809100018295880F880F807C80937C005A
:1004C000E0EBF0E0E491E4E9F0E084919091A000A9
:1004D0009C609093A000882369F090E0880F991F9A
:1004E000FC01EC57FF4F25913491FC01E858FF4F78
:1004F00085919491F89480918100877E88608093A3
:100500008100809180008C7F8093800080918100A9
:10051000887F81608093810085ED92E090938900CF
:100520008093880080916F00826080936F00789440
:1005300090E2392E06E812E025E0422E512C612C83
:10054000712CC0E0D0E085B1832585B9E6E0F1E00B
:10055000AFE8B2E081918D930E171F07D9F70E9483
:10056000610320E731E040E050E00E94B903605FA2
:100570007F4F8F4F9F4F609301010E946103A30142
:1005800092010E94B90370938E0260938D020E94C3
:1005900083004B015C0186EAC82ED12CE12CF12CA2
:1005A0000E948300681979098A099B09683E734093
:1005B00081059105A8F321E0C21AD108E108F108EC
:1005C00088EE880E83E0981EA11CB11CC114D104D2
:1005D000E104F10429F7209709F4B5CF0E94000047
:1005E000B2CF813031F48091A0008C708093A00054
:1005F0005FCF8091A0008C7082608093A00080917A
:100600000001823029F48091CE008093C80050CF41
:10061000843041F48091AD0080648093AD0080917E
:10062000CC00F3CF8091CD00F0CF8F929F92AF920C
:10063000BF92CF92DF92EF92FF92CF93DF93EC01C4
:10064000688179818A819B81611571058105910598
:1006500021F464E279ED8BE597E02DE133EF41E0A1
:1006600050E00E94B90349015A019B01AC01A7EA7D
:10067000B1E40E94D8036B017C01ACEEB4EFA5019C
:1006800094010E94E603C60ED71EE81EF91EF7FE6F
:1006900006C081E0C81AD108E10880E8F80AC882DB
:1006A000D982EA82FB82C701B6019F77DF91CF91A1
:1006B000FF90EF90DF90CF90BF90AF909F908F9082
:1006C00008958F929F92AF92BF92CF92DF92EF9256
:1006D000FF92609102017091030180910401909159
:1006E0000501611571058105910521F464E279ED3B
:1006F0008BE597E02DE133EF41E050E00E94B90334
:1007000049015A019B01AC01A7EAB1E40E94D80358
:100710006B017C01ACEEB4EFA50194010E94E603ED
:10072000C60ED71EE81EF91EF7FE06C081E0C81AE5
:10073000D108E10880E8F80AC0920201D0920301D2
:10074000E0920401F0920501C701B6019F77FF9086
:10075000EF90DF90CF90BF90AF909F908F900895D3
:10076000609302017093030180930401909305014B
:100770000895052E97FB1EF400940E94D00357FDA8
:1007800007D00E94EB0307FC03D04EF40C94D00377
:1007900050954095309521953F4F4F4F5F4F0895AD
:1007A00090958095709561957F4F8F4F9F4F0895DD
:1007B0000E940D04A59F900DB49F900DA49F800DE5
:1007C000911D11240895B7FF0C94D8030E94D803FB
:1007D000821B930B0895A1E21A2EAA1BBB1BFD01DD
:1007E0000DC0AA1FBB1FEE1FFF1FA217B307E40710
:1007F000F50720F0A21BB30BE40BF50B661F771F68
:10080000881F991F1A9469F7609570958095909547
:100810009B01AC01BD01CF010895A29FB001B39F20
:10082000C001A39F700D811D1124911DB29F700DF9
:0C083000811D1124911D0895F894FFCF44
:10083C0001800100000020409C084024008001E061
:10084C001981C81861F86487086067999E73984984
:10085C00F2642702601F8799F2787FFE4FC3E04F46
:10086C00939CF33843F0E40F00E004E04984C8485B
:10087C0064F924930920739C9F33C84CF3243303ED
:10088C002010E10990C90870FC24C30C2040E40935
:10089C00C0CC08403C02400C0020004801E0108015
:1008AC006604E07204081861261F84386484C870DA
:1008BC0084021819219E64266793E739039849240A
:1008CC009F24326424C27024009807207E1C21E6E9
:1008DC00739F2702787C9FFF0FE4F33F0F00F81300
:1008EC00213E4C24E733CF33033843243F0C30E410
:1008FC000CC0F00C0038010804E040812610E132F5
:10090C0010084864264F90392490C9309002481C36
:10091C0021CE702727C3F33C03C84C24CF3033249B
:10092C0030C3303000C8040810E100842640E432A3
:10093C0040090870270FC03C24C0CC30C0030810FD
:10094C000840E400902700F033000C08400900F048
:10095C0000C024003003000000080018001801201B
:10096C0000601E0048042000606601E04E00481C38
:10097C008042040800186181984980787E04E10E59
:10098C0000486481C84C80421C20408402000660F0
:10099C0061864860667984990980799E1F93E04E40
:1009AC007384390380126121924920727C84C90CB2
:0609BC0080426421C24CE0
:00000001FF
