:100000000C9464000C9481000C9481000C94810089
:100010000C9481000C9481000C9481000C940B01D1
:100020000C9481000C9481000C9481000C9481004C
:100030000C9481000C94BE020C9481000C948100FD
:100040000C94C5000C9481000C9481000C948100E8
:100050000C9481000C9481000C9481000C9481001C
:100060000C9481000C9481000C9400000C9400000E
:100070000C9400000C9400000000000025002800F3
:100080002B002E0000000000240027002A002D0075
:10009000040404040404040402020202020203032E
:1000A000030303030505050505050503010204080F
:1000B00010204080010204081020010204081020D2
:1000C000020801041040204011241FBECFEFD8E0E9
:1000D000DEBFCDBF11E0A0E0B1E0EAE5FBE002C089
:1000E00005900D92A634B107D9F721E0A6E4B1E05E
:1000F00001C01D92AF3AB207E1F70E94CE020C9404
:10010000AB050C9400003FB7F8948091AB0190913F
:10011000AC01A091AD01B091AE0126B5A89B05C080
:100120002F3F19F00196A11DB11D3FBFBA2FA92F76
:10013000982F8827BC01CD01620F711D811D911D73
:10014000660F771F881F991F0895FC01272F30E045
:10015000972F548155FF02C040E8470F54FF05C058
:1001600027FD9095990F40E8490F56FF0CC08281FA
:10017000938144E0969587954A95E1F741E8821787
:10018000930708F44FE7842F08951F920F920FB63C
:100190000F9211242F933F938F939F93AF93BF930D
:1001A0008091A7019091A801A091A901B091AA0105
:1001B0003091A60120E4230F2D3728F023EC230FE4
:1001C0000196A11DB11D2093A6018093A7019093D4
:1001D000A801A093A901B093AA018091AB019091CD
:1001E000AC01A091AD01B091AE010196A11DB11D70
:1001F0008093AB019093AC01A093AD01B093AE019D
:10020000BF91AF919F918F913F912F910F900FBE12
:100210000F901F9018951F920F920FB60F921124F6
:100220006F927F928F929F92AF92BF92CF92DF9206
:10023000EF92FF920F931F932F933F934F935F93F0
:100240006F937F938F939F93AF93BF93EF93FF939E
:10025000CF93DF9300D01F92CDB7DEB78091B3006C
:1002600083588093B3002091000130910101C901AE
:10027000817099279195819591098827947B36956E
:100280002795822793279093010180930001992E4F
:10029000109257015EE0852E07E010915701133050
:1002A00008F084C066246A94610E111102C032E025
:1002B000632E812F90E07C01EE0CFF1CF701EF5ABA
:1002C000FE4F60817181889E9001899E300D1124BE
:1002D000A9014A585E4F6A01DA01AD90BC901197AE
:1002E000A60EB71E089FF001099FF00D1124E75AD2
:1002F000FE4F848187FF18C06A257B2576FF0BC0DF
:10030000F701E55BFE4F12962C91492D42039001B7
:10031000112431832083F701EF5AFE4FB182A0826E
:100320001F5F10935701B9CF82FF30C012967C90A7
:10033000C72CD12C109FC0011124875A9E4F0E94B8
:10034000A500282F082E000C330BE62DF0E0EE0F51
:10035000FF1FEF5AFE4F40815181F701E55BFE4FD1
:1003600057FF0CC088279927821B930B8C9D900107
:100370008D9D300D9C9D300D1124CBCF272D382F16
:100380003203C001112491838083C5CF81FDC3CF87
:10039000109FC0011124875A9E4F0E94A500F701AB
:1003A000E55BFE4FD60112962C91E9CF10924A01DF
:1003B00010924901109248011092470180917001FA
:1003C00020914B0130914C0180FF67C03093480170
:1003D0002093470140914D0150914E0181FF62C031
:1003E0002091470130914801240F351F3093480177
:1003F0002093470182FF61C080914701909148019D
:1004000020914F0130915001820F931F909348012A
:100410008093470180914A01909148019695969565
:10042000890F8058809346018091580191E0980F80
:10043000909358018F3108F45FC08091030190912F
:100440000401A091050189839A83AB83AE014F5FBC
:100450005F4F6A01E6E7F1E09E012C5F3F4F11E03C
:1004600045E555E5D6018D916D0190E0875A9E4F87
:10047000DC018C9180FF72C084859585618566233F
:1004800009F45CC063817481860F971F8635B5E5DA
:100490009B0730F59587848726C030934A012093C7
:1004A000490198CF2091490130914A01240F351F0D
:1004B00030934A01209349019DCF8091710187FDBE
:1004C000A9CF8091490190914A0120914F0130912B
:1004D0005001820F931F90934A01809349019ACF54
:1004E000558744871186858582833E962C153D0568
:1004F00009F0B8CF109258010F900F900F90DF9134
:10050000CF91FF91EF91BF91AF919F918F917F918B
:100510006F915F914F913F912F911F910F91FF909C
:10052000EF90DF90CF90BF90AF909F908F907F9093
:100530006F900F900FBE0F901F9018956285738576
:100540006817790784F6E580F6808E199F0986176B
:1005500097070CF09FCF75876487C5CF1187848577
:100560009585181619060CF0BECF67817085861B1D
:10057000970B97FF8FCF15861486B5CF1F920F92DA
:100580000FB60F9211248F93809146018093A100A2
:100590008F910F900FBE0F901F9018958091F200D1
:1005A00080618EBB80E88093F2009EB39093F2004E
:1005B0008093610091E0909361009091F2009F79A7
:1005C0009EBB8093F2009EB39093F2009091F20054
:1005D0009B7F9EBB8093F2009EB39093F20080932A
:1005E000610010926100789484B5826084BD84B506
:1005F000816084BD85B5826085BD85B5816085BD1E
:1006000080916E00816080936E00109281008091D5
:10061000810082608093810080918100816080935D
:100620008100809180008160809380008091B10082
:1006300084608093B1008091B00081608093B000AD
:1006400080919100826080939100809191008160FF
:1006500080939100809190008160809390008091C0
:100660007A00846080937A0080917A008D7F8093F5
:100670007A0080917A008E7F80937A0080917A0050
:10068000806880937A001092C100E9EBF0E0249139
:10069000EDE9F0E08491882399F090E0880F991FAC
:1006A000FC01EC57FF4FA591B491FC01E858FF4FB6
:1006B000859194918FB7F894EC91E22BEC938FBFD6
:1006C00081E0809302018091AD008F7B8093AD002B
:1006D000809102018111D6C18091A0008C7081604F
:1006E0008093A0008091F00081FF0AC08091F0000B
:1006F0008D7F8EBB80E88093F0008EB38093F000F6
:10070000809102018295880F880F807C80937C0005
:10071000E0EBF0E0E491E4E9F0E084919091A00056
:100720009C609093A000882369F090E0880F991F47
:10073000FC01EC57FF4F25913491FC01E858FF4F25
:100740008591949181E88093800089E08093810075
:100750001092B00082E08093B1009DE79093B300C7
:100760008093700081E080936F0080EF80935F0141
:100770008093660180936D0126E731E0C9E5D1E001
:10078000BB24B3947EE0A72EE0EBCE2EE5E0DE2E78
:10079000F5E5EF2EFE2CF901B186E1E0F1E0C0367F
:1007A000DF0731F0E0E061E0C736D60709F4E2E0A8
:1007B000AE9EF0011124EA58FE4FB1864E81842F7F
:1007C00090E014E0959587951A95E1F78C9D80014E
:1007D0008D9D100D9C9D100D1124138702879D8007
:1007E000A92DB0E084E0B595A7958A95E1F7AA0F09
:1007F000BB1FAA5DBE4F6D917C91C7010E9475051C
:10080000748363830C9DC0010D9D900D1C9D900D04
:100810001124B701681B790BCB01A92DAF70B0E093
:10082000AA0FBB1FAA5FBE4F6D917C910E947505F8
:10083000768365834F70A42FB0E0AA0FBB1FAA5F19
:10084000BE4F6D917C91C8010E94750570876783CA
:10085000F90115861486225F3F4F2796F1E0203A72
:100860003F0709F098CF6091A4017091A50190E035
:1008700080E0CB0177276627C12CFDE7DF2EE12C36
:10088000F12CA70196010E948905F8943093770115
:1008900020937601789480915D0100E012E010933E
:1008A0005C0100935B018E70806480935D01109207
:1008B0007E0110927D01C0E0DDE7D0938301C093FB
:1008C00082016091A2017091A30190E080E0CB01D0
:1008D00077276627A70196010E948905F89430932F
:1008E00085012093840178948091640110936301C1
:1008F000009362018E7080648093640110928C0179
:1009000010928B01D0939101C09390016091A0014E
:100910007091A10190E080E0CB0177276627A701C5
:1009200096010E948905F8943093930120939201D7
:10093000789480916B0110936A01009369018E7025
:10094000806480936B0110929A0110929901D09368
:100950009F01C0939E01C0E23C2E00E010E0CCED70
:10096000D0E08091A4019091A5010196813D27E0FE
:1009700092070CF0ABC09093A5018093A4018091E5
:10098000A2019091A3010496813D67E096070CF0C7
:10099000A2C09093A3018093A2018091A0019091A5
:1009A000A1010896813D77E097070CF099C09093DC
:1009B000A1018093A0016091A4017091A50190E034
:1009C00080E0CB0177276627A70196010E94890561
:1009D000F894309377012093760178946091A20186
:1009E0007091A30190E080E0CB0177276627A701F3
:1009F00096010E948905F894309385012093840123
:100A000078946091A0017091A10190E080E0CB0109
:100A100077276627A70196010E948905F8943093ED
:100A200093012093920178940E9483002B013C0152
:100A30005AE0852E912CA12CB12C0E9483006419C0
:100A4000750986099709683E734081059105A8F3E9
:100A500081E0881A9108A108B108E8EE4E0EE3E0A3
:100A60005E1E611C711C81149104A104B10429F75C
:100A700085B1832585B90115110509F472CF0E944E
:100A800000006FCF813031F48091A0008C70809392
:100A9000A00036CE8091A0008C7082608093A00070
:100AA00080910201823029F48091CE008093C800A9
:100AB00027CE843041F48091AD0080648093AD00F6
:100AC0008091CC00F3CF8091CD00F0CFD093A501E1
:100AD000C093A40154CFD093A301C093A2015DCFD2
:100AE000D093A101C093A00166CFAA1BBB1B51E10B
:100AF00007C0AA1FBB1FA617B70710F0A61BB70B8E
:100B0000881F991F5A95A9F780959095BC01CD0132
:100B10000895A1E21A2EAA1BBB1BFD010DC0AA1F3E
:100B2000BB1FEE1FFF1FA217B307E407F50720F056
:100B3000A21BB30BE40BF50B661F771F881F991FD1
:100B40001A9469F760957095809590959B01AC011A
:0A0B5000BD01CF010895F894FFCF16
:100B5A00E1AC01040B1206001800300048007200D4
:100B6A00A800CC00F0002C01EE02DC056009B80BED
:100B7A002823983AC05D02000400100018002600DD
:100B8A003A00440050006400FA00F4012003E8032C
:060B9A00B80B8813401F98
:00000001FF
