:100000000C9464000C9481000C9481000C94810089
:100010000C9481000C9481000C9481000C942502B6
:100020000C9481000C9481000C9481000C9481004C
:100030000C9481000C94D8030C9481000C948100E2
:100040000C94DF010C9481000C9481000C948100CD
:100050000C9481000C9481000C9481000C9481001C
:100060000C9481000C9481000C9400000C9400000E
:100070000C9400000C9400000000000025002800F3
:100080002B002E0000000000240027002A002D0075
:10009000040404040404040402020202020203032E
:1000A000030303030505050505050503010204080F
:1000B00010204080010204081020010204081020D2
:1000C000020801041040204011241FBECFEFD8E0E9
:1000D000DEBFCDBF11E0A0E0B1E0EEEBFCE002C07E
:1000E00005900D92A635B107D9F721E0A6E5B1E05C
:1000F00001C01D92A93BB207E1F70E94E8030C94EE
:100100005D060C940000EF92FF920F931F93CF9324
:10011000DF93E1E021E0833A920731F0E2E041E051
:100120008A3A940709F0E0E05EE0E59FF0011124CF
:10013000EE58FE4F21E02187DC0116962C91169790
:10014000422F50E084E0559547958A95E1F700EB02
:1001500015E0409FE001419FD00D509FD00D11242C
:10016000D387C28715963C91A32FB0E094E0B59554
:10017000A7959A95E1F7AA0FBB1FAB5CBE4F55E55B
:10018000E52EFE2C6D917C91C7010E942F06748391
:100190006383C09FC001C19F900DD09F900D11241B
:1001A000A701481B590BCA013F70A32FB0E0AA0F4B
:1001B000BB1FAB5EBE4F6D917C910E942F06768374
:1001C00065832F70A22FB0E0AA0FBB1FAB5EBE4F9E
:1001D0006D917C91CE010E942F0670876783DF911D
:1001E000CF911F910F91FF90EF900895E82FF0E0CD
:1001F000E456FE4F60838150843108F02DC0E82F13
:10020000F0E0EB5FFE4F0C94570619012C012C0116
:100210002C012E012E012C0133012C012C012C016B
:10022000470147012C014A012C012C012C015E01E0
:100230005E0180919D01282F30E0322F222780918E
:100240009C01820F932F911D969587959695879582
:10025000909373018093720181E008958CE991E09D
:100260000E948300F9CF8091A401282F30E0322F23
:1002700022278091A301820F932F911D9695879538
:10028000969587959093810180938001E5CF83EACD
:1002900091E0E6CF8091AB01282F30E0322F22276A
:1002A0008091AA01820F932F911D9695879596951F
:1002B000879590938F0180938E01CECF8AEA91E04B
:1002C000CFCF3FB7F89480916E0190916F01A091CC
:1002D0007001B091710126B5A89B05C02F3F19F0A0
:1002E0000196A11DB11D3FBFBA2FA92F982F8827B6
:1002F000BC01CD01620F711D811D911D660F771F1D
:10030000881F991F08950F931F93CF93DF93CDB745
:10031000DEB72B970FB6F894DEBF0FBECDBF082F08
:100320008BE0E7E0F1E0DE01119601900D928A95F5
:10033000E1F710E0212F30E0E1E0F0E0EC0FFD1FED
:10034000E20FF31F80818F3F79F0800F8D3150F4E1
:1003500042E050E04C0F5D1F240F351FF901608112
:100360000E94F6001E5FE6CF2B960FB6F894DEBF14
:100370000FBECDBFDF91CF911F910F910895FC016A
:10038000272F30E0972F548155FF02C040E8470FD8
:1003900054FF05C027FD9095990F40E8490F56FF7F
:1003A0000CC08281938144E0969587954A95E1F748
:1003B00041E88217930708F44FE7842F08951F92AE
:1003C0000F920FB60F9211242F933F938F939F9309
:1003D000AF93BF9380916A0190916B01A0916C01E2
:1003E000B0916D013091690120E4230F2D3728F081
:1003F00023EC230F0196A11DB11D20936901809369
:100400006A0190936B01A0936C01B0936D01809190
:100410006E0190916F01A0917001B09171010196F0
:10042000A11DB11D80936E0190936F01A093700187
:10043000B0937101BF91AF919F918F913F912F9197
:100440000F900FBE0F901F9018951F920F920FB62E
:100450000F9211246F927F928F929F92AF92BF92D0
:10046000CF92DF92EF92FF920F931F932F933F93C0
:100470004F935F936F937F938F939F93AF93BF93AC
:10048000EF93FF93CF93DF9300D01F92CDB7DEB7EA
:100490008091B30083588093B30020910001309184
:1004A0000101C9018170992791958195910988274A
:1004B000947B36952795822793279093010180930B
:1004C0000001992E109267015EE0852E07E01091E1
:1004D0006701133008F084C066246A94610E11111C
:1004E00002C032E0632E812F90E07C01EE0CFF1CF5
:1004F000F701EF59FE4F60817181889E9001899EBE
:10050000300D1124A9014E585E4F6A01DA01AD90F9
:10051000BC901197A60EB71E089FF001099FF00D21
:100520001124E456FE4F848187FF18C06A257B257D
:1005300076FF0BC0F701E55AFE4F12962C91492D1C
:1005400042039001112431832083F701EF59FE4FBC
:10055000B182A0821F5F10936701B9CF82FF30C0C4
:1005600012967C90C72CD12C109FC0011124845668
:100570009E4F0E94BF01282F082E000C330BE62D42
:10058000F0E0EE0FFF1FEF59FE4F40815181F70160
:10059000E55AFE4F57FF0CC088279927821B930B03
:1005A0008C9D90018D9D300D9C9D300D1124CBCFE5
:1005B000272D382F3203C001112491838083C5CFAA
:1005C00081FDC3CF109FC001112484569E4F0E940D
:1005D000BF01F701E55AFE4FD60112962C91E9CFE3
:1005E00010925A011092590110925801109257011D
:1005F0008091B30120915B0130915C0180FF67C065
:10060000309358012093570140915D0150915E0154
:1006100081FF62C02091570130915801240F351F8E
:10062000309358012093570182FF61C08091570198
:100630009091580120915F0130916001820F931FCA
:10064000909358018093570180915A0190915801DD
:1006500096959695890F80588093560180916801F0
:1006600091E0980F909368018F3108F45FC08091FA
:10067000120190911301A091140189839A83AB8395
:10068000AE014F5F5F4F6A01E2E7F1E09E012C5F30
:100690003F4F11E045E555E5D6018D916D0190E0A4
:1006A00084569E4FDC018C9180FF72C084859585B5
:1006B0006185662309F45CC063817481860F971F8E
:1006C0008635B5E59B0730F59587848726C030933E
:1006D0005A012093590198CF2091590130915A0124
:1006E000240F351F30935A01209359019DCF8091DB
:1006F000B40187FDA9CF8091590190915A012091B1
:100700005F0130916001820F931F90935A01809393
:1007100059019ACF558744871186858582833E96F5
:100720002C153D0509F0B8CF109268010F900F907D
:100730000F90DF91CF91FF91EF91BF91AF919F917A
:100740008F917F916F915F914F913F912F911F9169
:100750000F91FF90EF90DF90CF90BF90AF909F9060
:100760008F907F906F900F900FBE0F901F901895F5
:10077000628573856817790784F6E580F6808E199F
:100780009F09861797070CF09FCF75876487C5CFA1
:10079000118784859585181619060CF0BECF6781E0
:1007A0007085861B970B97FF8FCF15861486B5CF64
:1007B0001F920F920FB60F9211248F9380915601C2
:1007C0008093A1008F910F900FBE0F901F901895EE
:1007D0008091F20080618EBB80E88093F2009EB32E
:1007E0009093F2008093610091E09093610090916A
:1007F000F2009F799EBB8093F2009EB39093F2002B
:100800009091F2009B7F9EBB8093F2009EB39093E9
:10081000F2008093610010926100789484B5826048
:1008200084BD84B5816084BD85B5826085BD85B594
:10083000816085BD80916E00816080936E00109212
:10084000810080918100826080938100809181008D
:10085000816080938100809180008160809380001E
:100860008091B10084608093B1008091B00081607C
:100870008093B0008091910082608093910080917C
:1008800091008160809391008091900081608093BD
:10089000900080917A00846080937A0080917A0041
:1008A0008D7F80937A0080917A008E7F80937A008A
:1008B00080917A00806880937A001092C100E9EB01
:1008C000F0E02491EDE9F0E08491882399F090E044
:1008D000880F991FFC01EC57FF4FA591B491FC01C3
:1008E000E858FF4F859194918FB7F894EC91E22BE3
:1008F000EC938FBF81E0809302018091AD008F7BEC
:100900008093AD00809102018111C6C08091A0004A
:100910008C7081608093A0008091F00081FF0AC0FC
:100920008091F0008D7F8EBB80E88093F0008EB3C5
:100930008093F000809102018295880F880F807C5F
:1009400080937C00E0EBF0E0E491E4E9F0E0849156
:100950009091A0009C609093A000882369F090E0A3
:10096000880F991FFC01EC57FF4F25913491FC0132
:10097000E858FF4F8591949181E88093800089E049
:10098000809381001092B00082E08093B1009DE7D7
:100990009093B30080937000C1E0C0936F0080EF2C
:1009A0008093A2018093A9018093B001C0937B0141
:1009B0008CE991E00E94830010927F0110927E01E9
:1009C000C093890183EA91E00E94830010928D0117
:1009D00010928C01C09397018AEA91E00E948300F3
:1009E00010929B0110929A01C0EADFE000E41FE13F
:1009F00090E2D92E20E0E22E20E0F22E80E00E944C
:100A0000830187E00E9483010E94BC05BE010E9411
:100A1000430680579E4F80939C01692F81E00E947E
:100A2000F6000E94BC05B8010E94430680579E4F05
:100A30008093A301692F88E00E94F60085B18D257F
:100A400085B90E9461012B013C0188E7882E912C19
:100A5000A12CB12C0E9461016419750986099709BE
:100A6000683E734081059105A8F321E0821A910840
:100A7000A108B10888EE480E83E0581E611C711C65
:100A800081149104A104B10429F7E114F10409F4DB
:100A9000B5CF0E940000B2CF813031F48091A00028
:100AA0008C708093A00046CF8091A0008C708260F3
:100AB0008093A00080910201823029F48091CE00C1
:100AC0008093C80037CF843041F48091AD008064BA
:100AD0008093AD008091CC00F3CF8091CD00F0CF1A
:100AE0008F929F92AF92BF92CF92DF92EF92FF923E
:100AF000CF93DF93EC01688179818A819B816115B5
:100B000071058105910521F464E279ED8BE597E0AB
:100B10002DE133EF41E050E00E94CC0549015A013C
:100B20009B01AC01A7EAB1E40E94EB056B017C01DB
:100B3000ACEEB4EFA50194010E94F905DC01CB01F4
:100B40008C0D9D1DAE1DBF1DB7FF03C00197A109F0
:100B5000B04888839983AA83BB839F77DF91CF9125
:100B6000FF90EF90DF90CF90BF90AF909F908F90CD
:100B700008950E947005089583E091E00E94700539
:100B80000895B0E0A0E08093030190930401A09346
:100B90000501B09306010895052E97FB1EF40094FD
:100BA0000E94E30557FD07D00E94FE0507FC03D015
:100BB0004EF40C94E30550954095309521953F4FA8
:100BC0004F4F5F4F089590958095709561957F4F39
:100BD0008F4F9F4F08950E942006A59F900DB49FB0
:100BE000900DA49F800D911D11240895B7FF0C94C2
:100BF000EB050E94EB05821B930B0895A1E21A2ED0
:100C0000AA1BBB1BFD010DC0AA1FBB1FEE1FFF1FB0
:100C1000A217B307E407F50720F0A21BB30BE40B00
:100C2000F50B661F771F881F991F1A9469F7609547
:100C30007095809590959B01AC01BD01CF01089501
:100C4000A29FB001B39FC001A39F700D811D11240D
:100C5000911DB29F700D811D1124911D0895AA1B35
:100C6000BB1B51E107C0AA1FBB1FA617B70710F097
:100C7000A61BB70B881F991F5A95A9F780959095C9
:100C8000BC01CD01089597FB072E16F4009407D000
:100C900077FD09D00E942F0607FC05D03EF4909501
:100CA00081959F4F0895709561957F4F0895EE0F40
:0E0CB000FF1F0590F491E02D0994F894FFCFFA
:100CBE00E1AC0101000000041105BB06AA01110000
:100CCE0025FF040B1206001800300048007200A821
:100CDE0000CC00F0002C01EE02DC056009B80B28F8
:100CEE0023983AC05D020004001000180026003A56
:100CFE0000440050006400FA00F4012003E803B839
:060D0E000B8813401F00DA
:00000001FF
