:100000000C9464000C9481000C9481000C94810089
:100010000C9481000C9481000C9481000C9481005C
:100020000C9481000C9481000C9481000C94C90004
:100030000C9481000C9481000C9481000C9481003C
:100040000C9483000C9481000C9481000C9481002A
:100050000C9481000C9481000C9481000C9481001C
:100060000C9481000C9481000C9400000C9400000E
:100070000C9400000C9400000000000025002800F3
:100080002B002E0000000000240027002A002D0075
:10009000040404040404040402020202020203032E
:1000A000030303030505050505050503010204080F
:1000B00010204080010204081020010204081020D2
:1000C000020801041040204011241FBECFEFD8E0E9
:1000D000DEBFCDBF11E0A0E0B1E0ECE4F7E002C08C
:1000E00005900D92A630B107D9F721E0A6E0B1E066
:1000F00001C01D92AD31B207E1F70E94A0010C943E
:10010000A4030C9400001F920F920FB60F921124BB
:100110002F933F938F939F93AF93BF938091190138
:1001200090911A01A0911B01B0911C01309118010E
:1001300020E4230F2D3728F023EC230F0196A11D77
:10014000B11D209318018093190190931A01A09377
:100150001B01B0931C018091140190911501A09195
:100160001601B09117010196A11DB11D80931401D4
:1001700090931501A0931601B0931701BF91AF9111
:100180009F918F913F912F910F900FBE0F901F90D5
:1001900018951F920F920FB60F921124EF92FF92B3
:1001A0000F931F932F933F934F935F936F937F937F
:1001B0008F939F93AF93BF93CF93DF93EF93FF936F
:1001C0000E94090390931301809312012091100162
:1001D000309111012115310509F4A1C021503109D7
:1001E000309311012093100120910C0130910D01E9
:1001F000E0910A01F0910B0180910E0190910F01A5
:1002000065E070E00E947C03C90137FD0F96B4E001
:1002100095958795BA95E1F7681B790B6E1B7F0B57
:1002200077FF02C06F5F7F4F75956795260F371F69
:1002300030930D0120930C01C90137FD019695956E
:1002400087958E0F9F1F90930B0180930A01E09179
:100250001201F0911301E0900801F0900901CF0123
:100260008E199F0965E070E00E947C03EB01CF01CD
:1002700068E270E00E947C03C60FD71FCE0DDF1D21
:10028000D0930901C0930801009106011091070164
:10029000CF01F7FD03969595879595958795801BDA
:1002A000910B69E070E00E947C03600F711F7093F6
:1002B00007016093060177FF02C06F5F7F4FFB016C
:1002C000F595E795C90163E070E00E947C03E60FB5
:1002D000F71FCE0164E170E00E947C03CF01860F1E
:1002E000971F60E370E00E947C0360586093A10058
:1002F000FF91EF91DF91CF91BF91AF919F918F913E
:100300007F916F915F914F913F912F911F910F912D
:10031000FF90EF900F900FBE0F901F9018959C01CB
:10032000317024543D4F309311012093100190936C
:100330000F0180930E0185B190E2892785B954CFD2
:100340008091F20080618EBB80E88093F2009EB3C2
:100350009093F2008093610091E0909361009091FE
:10036000F2009F799EBB8093F2009EB39093F200BF
:100370009091F2009B7F9EBB8093F2009EB390937E
:10038000F2008093610010926100789484B58260DD
:1003900084BD84B5816084BD85B5826085BD85B529
:1003A000816085BD80916E00816080936E001092A7
:1003B0008100809181008260809381008091810022
:1003C00081608093810080918000816080938000B3
:1003D0008091B10084608093B1008091B000816011
:1003E0008093B00080919100826080939100809111
:1003F0009100816080939100809190008160809352
:10040000900080917A00846080937A0080917A00D5
:100410008D7F80937A0080917A008E7F80937A001E
:1004200080917A00806880937A001092C100E9EB95
:10043000F0E02491EDE9F0E08491882399F090E0D8
:10044000880F991FFC01EC57FF4FA591B491FC0157
:10045000E858FF4F859194918FB7F894EC91E22B77
:10046000EC938FBF81E0809300018091AD008F7B82
:100470008093AD008091000181115BC08091A0004C
:100480008C7081608093A0008091F00081FF0AC091
:100490008091F0008D7F8EBB80E88093F0008EB35A
:1004A0008093F000809100018295880F880F807CF6
:1004B00080937C00E0EBF0E0E491E4E9F0E08491EB
:1004C0009091A0009C609093A000882369F090E038
:1004D000880F991FFC01EC57FF4F25913491FC01C7
:1004E000E858FF4F85919491F89480918100877E20
:1004F000886080938100809180008C7F8093800051
:1005000080918100887F81608093810085ED92E0F9
:10051000909389008093880080916F00826080931F
:100520006F007894C0E0D0E02097F1F30E940000C3
:10053000FBCF813031F48091A0008C708093A000BB
:10054000B1CF8091A0008C7082608093A0008091D8
:100550000001823029F48091CE008093C800A2CFA0
:10056000843041F48091AD0080648093AD0080912F
:10057000CC00F3CF8091CD00F0CF8F929F92AF92BD
:10058000BF92CF92DF92EF92FF92CF93DF93EC0175
:10059000688179818A819B81611571058105910549
:1005A00021F464E279ED8BE597E02DE133EF41E052
:1005B00050E00E94190349015A019B01AC01A7EACE
:1005C000B1E40E9438036B017C01ACEEB4EFA501ED
:1005D00094010E944603DC01CB018C0D9D1DAE1DD4
:1005E000BF1DB7FF03C00197A109B0488883998355
:1005F000AA83BB839F77DF91CF91FF90EF90DF902D
:10060000CF90BF90AF909F908F9008950E94BD02B1
:10061000089581E091E00E94BD020895B0E0A0E05D
:100620008093010190930201A0930301B093040110
:100630000895052E97FB1EF400940E94300357FD89
:1006400007D00E944B0307FC03D04EF40C943003F8
:1006500050954095309521953F4F4F4F5F4F0895EE
:1006600090958095709561957F4F8F4F9F4F08951E
:100670000E946D03A59F900DB49F900DA49F800DC7
:10068000911D11240895B7FF0C9438030E9438037C
:10069000821B930B0895A1E21A2EAA1BBB1BFD011E
:1006A0000DC0AA1FBB1FEE1FFF1FA217B307E40751
:1006B000F50720F0A21BB30BE40BF50B661F771FA9
:1006C000881F991F1A9469F7609570958095909589
:1006D0009B01AC01BD01CF010895A29FB001B39F62
:1006E000C001A39F700D811D1124911DB29F700D3B
:1006F000811D1124911D089597FB072E16F4009477
:1007000007D077FD09D00E94900307FC05D03EF486
:10071000909581959F4F0895709561957F4F0895AD
:10072000AA1BBB1B51E107C0AA1FBB1FA617B70717
:1007300010F0A61BB70B881F991F5A95A9F7809533
:0C0740009095BC01CD010895F894FFCF06
:06074C00010100000000A5
:00000001FF
