:100000000C9464000C9481000C9481000C94810089
:100010000C9481000C9481000C9481000C9481005C
:100020000C9481000C9481000C9481000C94EB00E2
:100030000C9481000C9481000C9481000C9481003C
:100040000C94A5000C9481000C9481000C94810008
:100050000C9481000C9481000C9481000C9481001C
:100060000C9481000C9481000C9400000C9400000E
:100070000C9400000C9400000000000025002800F3
:100080002B002E0000000000240027002A002D0075
:10009000040404040404040402020202020203032E
:1000A000030303030505050505050503010204080F
:1000B00010204080010204081020010204081020D2
:1000C000020801041040204011241FBECFEFD8E0E9
:1000D000DEBFCDBF11E0A0E0B1E0EEE4FAE002C087
:1000E00005900D92A630B107D9F722E0A6E0B1E065
:1000F00001C01D92A831B207E1F70E94BD010C9426
:1001000025050C9400003FB7F8948091140290915B
:100110001502A0911602B091170226B5A89B05C042
:100120002F3F19F00196A11DB11D3FBFBA2FA92F76
:10013000982F8827BC01CD01620F711D811D911D73
:10014000660F771F881F991F08951F920F920FB691
:100150000F9211242F933F938F939F93AF93BF934D
:100160008091100290911102A0911202B09113029D
:1001700030910F0220E4230F2D3728F023EC230FBA
:100180000196A11DB11D20930F0280931002909340
:100190001102A0931202B093130280911402909165
:1001A0001502A0911602B09117020196A11DB11D72
:1001B0008093140290931502A0931602B093170235
:1001C000BF91AF919F918F913F912F910F900FBE53
:1001D0000F901F9018951F920F920FB60F92112437
:1001E000CF92DF92EF92FF922F933F934F935F93C3
:1001F0006F937F938F939F93AF93BF93EF93FF93EF
:1002000060910D0170910E0180910B0190910C0194
:10021000680F791F660F672F661F770B23E0660F45
:10022000771F2A95E1F7072E000C880B990B0E9487
:1002300070046B017C0120E030E040E852E40E9451
:10024000F80418160CF492C020E030E040E852ECBC
:10025000C701B6010E94330487FF06C0C12CD12C10
:1002600080E8E82E82ECF82EC701B6010E9438041F
:1002700060586093A100E0910A0181E08E0F8093A5
:100280000A01F0E0EE0FFF1FE15FFE4F2091080131
:10029000309109013183208360910101861710F0AC
:1002A00010920A01E0910A01F0E0EE0FFF1FE15FFA
:1002B000FE4F208131818091060190910701959533
:1002C0008795A90155954795840F951F909309012E
:1002D000809308013093070120930601E0910B0100
:1002E000F0910C0120910D0130910E0197FD0396C4
:1002F0009595879595958795AF01F7FF02C0415F6A
:100300005F4F74E0559547957A95E1F7841B950BFF
:10031000821B930B70E00E94FD046E0F7F1F709391
:100320000C0160930B0177FF02C06D5F7F4F7595E5
:10033000679575956795620F731F70930E016093B3
:100340000D01FF91EF91BF91AF919F918F917F919F
:100350006F915F914F913F912F91FF90EF90DF90C0
:10036000CF900F900FBE0F901F901895C12CD12CDD
:10037000B0E8EB2EB2E4FB2E77CF8091F2008061E3
:100380008EBB80E88093F2009EB39093F20080933E
:10039000610091E0909361009091F2009F799EBB83
:1003A0008093F2009EB39093F2009091F2009B7FB5
:1003B0009EBB8093F2009EB39093F2008093610005
:1003C00010926100789484B5826084BD84B58160A8
:1003D00084BD85B5826085BD85B5816085BD809110
:1003E0006E00816080936E00109281008091810088
:1003F0008260809381008091810081608093810080
:10040000809180008160809380008091B100846041
:100410008093B1008091B00081608093B0008091A2
:10042000910082608093910080919100816080931F
:1004300091008091900081608093900080917A007B
:10044000846080937A0080917A008D7F80937A0017
:1004500080917A008E7F80937A0080917A00806804
:1004600080937A001092C100E9EBF0E02491EDE96D
:10047000F0E08491882399F090E0880F991FFC01A7
:10048000EC57FF4FA591B491FC01E858FF4F8591BF
:1004900094918FB7F894EC91E22BEC938FBF81E0AD
:1004A000809300018091AD008F7B8093AD0080919F
:1004B00000018111ADC08091A0008C70816080939B
:1004C000A0008091F00081FF0AC08091F0008D7F34
:1004D0008EBB80E88093F0008EB38093F000809113
:1004E00000018295880F880F807C80937C00E0EB70
:1004F000F0E0E491E4E9F0E084919091A0009C6048
:100500009093A000882369F090E0880F991FFC0168
:10051000EC57FF4F25913491FC01E858FF4F85912E
:100520009491F89480918100877E88608093810007
:10053000809180008C7F8093800080918100887FF3
:100540008160809381008BEA95E09093890080938D
:10055000880080916F00826080936F0078949FE0A4
:10056000292E92E0392E2EE7422E512C612C712C2F
:1005700000E010E085B120E2822785B9CFE0D1E02C
:100580000E9478032EEF3FEF40E050E00E94D0033E
:100590006F5F7F4781099109699379932C163D0616
:1005A00079F70E947803A30192010E94D0036E5F45
:1005B0007F4F8F4F9F4F609301010E9483006B011B
:1005C0007C018AEF882E912CA12CB12C0E948300F3
:1005D0006C197D098E099F09683E7340810591055C
:1005E000A8F381E0881A9108A108B10898EEC90E15
:1005F00093E0D91EE11CF11C81149104A104B10403
:1006000029F70115110509F4B5CF0E940000B2CFFA
:10061000813031F48091A0008C708093A0005FCF76
:100620008091A0008C7082608093A0008091000176
:10063000823029F48091CE008093C80050CF84305E
:1006400041F48091AD0080648093AD008091CC0036
:10065000F3CF8091CD00F0CF8F929F92AF92BF9257
:10066000CF92DF92EF92FF92CF93DF93EC016881FC
:1006700079818A819B81611571058105910521F43C
:1006800064E279ED8BE597E02DE133EF41E050E056
:100690000E94D00349015A019B01AC01A7EAB1E4D1
:1006A0000E94EF036B017C01ACEEB4EFA501940155
:1006B0000E94FD03C60ED71EE81EF91EF7FE06C0F7
:1006C00081E0C81AD108E10880E8F80AC882D98216
:1006D000EA82FB82C701B6019F77DF91CF91FF903D
:1006E000EF90DF90CF90BF90AF909F908F90089544
:1006F0008F929F92AF92BF92CF92DF92EF92FF9232
:1007000060910201709103018091040190910501B3
:10071000611571058105910521F464E279ED8BE5A0
:1007200097E02DE133EF41E050E00E94D003490112
:100730005A019B01AC01A7EAB1E40E94EF036B01EF
:100740007C01ACEEB4EFA50194010E94FD03C60E3E
:10075000D71EE81EF91EF7FE06C081E0C81AD108B0
:10076000E10880E8F80AC0920201D0920301E09209
:100770000401F0920501C701B6019F77FF90EF9049
:10078000DF90CF90BF90AF909F908F90089560932F
:100790000201709303018093040190930501089571
:1007A000052E97FB1EF400940E94E70357FD07D027
:1007B0000E94020407FC03D04EF40C94E70350950A
:1007C0004095309521953F4F4F4F5F4F089590953D
:1007D0008095709561957F4F8F4F9F4F08950E9430
:1007E0002404A59F900DB49F900DA49F800D911D92
:1007F00011240895B7FF0C94EF030E94EF03821BAE
:10080000930B0895A1E21A2EAA1BBB1BFD010DC07C
:10081000AA1FBB1FEE1FFF1FA217B307E407F507B0
:1008200020F0A21BB30BE40BF50B661F771F881F8C
:10083000991F1A9469F760957095809590959B0122
:10084000AC01BD01CF010895A29FB001B39FC001CB
:10085000A39F700D811D1124911DB29F700D811DEC
:100860001124911D08950E94AB0408F481E00895BD
:100870000E943F046894B1110C94F20408950E9400
:10088000D70488F09F5798F0B92F9927B751B0F047
:10089000E1F0660F771F881F991F1AF0BA95C9F704
:1008A00014C0B13091F00E94F104B1E008950C94AD
:1008B000F104672F782F8827B85F39F0B93FCCF360
:1008C000869577956795B395D9F73EF49095809581
:1008D000709561957F4F8F4F9F4F0895E89409C0A1
:1008E00097FB3EF490958095709561957F4F8F4F63
:1008F0009F4F9923A9F0F92F96E9BB279395F69579
:10090000879577956795B795F111F8CFFAF4BB0FF6
:1009100011F460FF1BC06F5F7F4F8F4F9F4F16C05A
:10092000882311F096E911C0772321F09EE8872FE4
:10093000762F05C0662371F096E8862F70E060E0A0
:100940002AF09A95660F771F881FDAF7880F969519
:10095000879597F90895990F0008550FAA0BE0E8BD
:10096000FEEF16161706E807F907C0F01216130671
:10097000E407F50798F0621B730B840B950B39F4B1
:100980000A2661F0232B242B252B21F408950A2617
:1009900009F4A140A6958FEF811D811D089557FD93
:1009A0009058440F551F59F05F3F71F04795880FDD
:1009B00097FB991F61F09F3F79F087950895121674
:1009C00013061406551FF2CF4695F1DF08C0161620
:1009D00017061806991FF1CF8695710561050894D1
:1009E0000895E894BB2766277727CB0197F90895E8
:1009F0000E94AB0408F48FEF089597FB072E16F4BE
:100A0000009407D077FD09D00E94110507FC05D09E
:100A10003EF4909581959F4F0895709561957F4F15
:100A20000895AA1BBB1B51E107C0AA1FBB1FA61735
:100A3000B70710F0A61BB70B881F991F5A95A9F787
:0E0A400080959095BC01CD010895F894FFCFEC
:060A4E0001800100000020
:00000001FF
