:100000000C94D41B0C94F11B0C94F11B0C94F11B5D
:100010000C94F11B0C94F11B0C94F11B0C94F11B30
:100020000C94F11B0C94F11B0C94F11B0C945B1CB5
:100030000C94F11B0C94F11B0C94F11B0C94F11B10
:100040000C94151C0C94F11B0C94F11B0C94F11BDB
:100050000C94F11B0C94F11B0C94F11B0C94F11BF0
:100060000C94F11B0C94F11B0C9400000C940000F8
:100070000C9400000C940000817F817F817E827E41
:10008000837D837C85798A672947667556A4C3E09A
:10009000D3DACCB8996D411F332834266B51A27343
:1000A0005F8C81B797B1BED8CADAC5D6B1BDAE6490
:1000B000A0495650283D28382A394AA75E8FBD46A8
:1000C000717BCEC598BCC0DA9DB2D6A6C197B86A7E
:1000D0002C363D456C6F4377464C2F3A5F5049892B
:1000E000B2ABB6C0CDBFCBBBCBB59387709E7334DC
:1000F0003C3E49334D5C4A335E8E7DA184B8C29A42
:10010000BDC1C2A0BDC1B391613F43665A8AA77801
:10011000635041444444538FAF919A6879A8ABC46B
:10012000B2C3ABBF988F936D6D757A797B5D583B89
:10013000585D454A48515D7F98A5B7B7B8B3BC979D
:100140009C9F86888492728A865C51524E5150518F
:1001500092836D7C81775795A394A79C9C9A878402
:100160007E8F9697B1A8938171615E524C5561550F
:100170007573848D7691899B74809199AC93A8A1B5
:10018000987E808D78736D717B635F706553779116
:100190008B8B7C84818B838684868A7F9B898091EC
:1001A000958D727E776B767E7874897A7A70787C9A
:1001B0006E77728383838F908D8E958E918C8F79DD
:1001C0006D82757567657279848C8C887A76787D96
:1001D0007C808781828A867B878A96847A767C78FF
:1001E0007682878C8A8B787C6F67708077818E7F30
:1001F0007178858194928C7E8683797E85867A83D8
:100200008083817E827C7875727176757B8B878A1C
:100210008B868E877F838273797F807E86898283B7
:100220007D7E797B788386837D7172788185868BEC
:1002300085837E77837D83818D8D848079827E7BAB
:100240007A7875777B7F7E8387818485837F7F77CC
:100250008288818681827D82877D7C7F7C7A7B809B
:100260007F767C838281838585857D7A7F7C78819A
:10027000858387828186827F807D7A7D7F7F7D7F77
:10028000817E7F7F7F817C797C7F84878783848563
:10029000807E8481827C7E7F7A767B7E7D8684846C
:1002A00081817D7D7D7D7F81817F8182818083864B
:1002B000857E7C7D7B7A818384807F837E807F7E48
:1002C0007A7E817D7D7D818282828382828380822B
:1002D000807E7D7B7D82818081827F7F7E7A7B7F35
:1002E0007F81858181808282818281807B7B7F7F0B
:1002F00080828482807F7E7E7E7F80827F807B7C06
:10030000807F8183838383807E7C7F7E80838383E1
:10031000817F7E807F7E7E7B7B7E807F81838381E9
:100320008081827F7E81807F8080818180817E7FCD
:100330007F7E7F7F7F807E7D7E81828182828481BD
:100340007E7D7D7B7E8184838381807F80807F7FB3
:100350007E7F7D7B7F7F8082828280807F7E7F81A7
:1003600082818082817F808081807F7E807F7C7B94
:100370007F8181828282808081817F7E7E80808079
:100380008281818080807F7F7F7F7F7F7F7E808171
:10039000818181807F7F7E8080808080818180805C
:1003A00081808080827F7D7C7D7E7F808282808153
:1003B00081807F7F8080808081808080807F80803E
:1003C0007F7E7F7F7E7F7F8281818080807F7F8034
:1003D0008180807F7F7F80818281818081807E7E1D
:1003E0007E7E7F808181818080807F7F7E7F818013
:1003F0008080818180808180807F7F7F7F7E7E8002
:1004000080808182807F7F80818180807F7E7F80ED
:1004100081818181817F7F7E7E7F808081818180DB
:100420007F80807F7F8080807F7F808181818181CC
:100430008080807F7F7F807F7F7F818180807F80C1
:10044000808081807F7F8080808181818181807EAA
:100450007E7F7F7F8081818080808080808080809F
:10046000807F7F808080818181807F7F7F8080808E
:1004700080808080808080808081807F7F7F7F7F80
:10048000808181818181807F7F8080808080808069
:10049000808080808080807F7F8080807F8080815E
:1004A0008080807F8080808080807F80808080804E
:1004B000818180807F7F7E7F808080818181807F3D
:1004C0007F7F808080808080808080808181807F2D
:1004D0007F80807F7F80808180808080808080801E
:1004E00080807F8080808080818180807F7F7F7F0F
:1004F0008080808080808080807F808080808080FD
:100500008080808081818080807F7F8080808080EB
:1005100080808080808080808080808080808080DB
:1005200080808180807F7F7F8080808080808080CD
:1005300080808080808080807F7F808080808080BD
:1005400080807F80808080808080808080808080AC
:1005500080808080808080808080808080807F7F9D
:100560007F8080808080808080808080808080808C
:100570007F7F80808080808080808080808080807D
:100580008080808080808080808080807F8080806C
:1005900080808080808080807F808080808080805C
:1005A000808080808080808080808080808080804B
:1005B000808080808080808080808080808080803B
:1005C000808080808080808080808080808080802B
:1005D000808080808080808080808080808080801B
:1005E000808080808080808080808080808080800B
:1005F00080808080808080808080808080808080FB
:1006000080808080808080808080808080808080EA
:1006100080808080808080808080808080808080DA
:1006200080808080808080808080808080808080CA
:1006300080808080808080808080808080808080BA
:10064000808080807F817E827D84789E8D7CBAB11F
:100650006B5AAE601F512607323F3F91CBD3F2F960
:10066000F7F6F7E0AA7F522B0E06090909183F6931
:100670008FAAC2D1D8E6E1CCBAA78C7362503D2DC7
:1006800030323D55637597B1CBDEDDDDDCCCB79EF6
:10069000774724130A0919395779A6C7DCF4F9EC0E
:1006A000E0CFB3946E4830261B111822314B65847D
:1006B000A1BDDBE6EBEBDFCBAF8A674E3217101440
:1006C0001C324F6E96BBD5E6F0F4E9D5BC9F7C5B3F
:1006D0003B25170E15223146617B9AB3C7DEE8E34E
:1006E000DDCFBBA48969483322181B26364E70968D
:1006F000B7D3E5E9E6D8C2A78866462B18111420BF
:1007000035537195B9D4E4F1F0E2D2BA9F80603EDE
:1007100021110E111C314A6E95B5D5EFF3F1EAD6D1
:10072000BD9E77553B1F0E1016253E567495B3CBD4
:10073000DAE2E4D9CABAA3896E543B251B1D2330E3
:10074000445C7B99B7D2E4E9E5D8C3A88662422B22
:100750001E171D2D3F5A7993B5D2DEE2DFD5C2AA0E
:10076000947E68503A2E2B2D30394D627794AFC469
:10077000D3D4D2CFBFAB8F6B4A331F1C232A405C2C
:100780007EA4C2DDEAE8E6D9C5A78B6B48301C170A
:1007900019203047607E9FB4C7D9DDDAD4C4AE9B40
:1007A0007F634931282A2B374C5F7993ADC7D7DA5D
:1007B000D8CEBEAA90765D46342C30343D52667950
:1007C00092ADC2CFD5D5CEBFA991775A3F2C242266
:1007D0002732476287AAC5DEE3E0DBCDB4927452CC
:1007E00035231F1E263B506889A6C0D3D8DFDAC840
:1007F000B9A89078624C392F29293340506785A3D6
:10080000BDCED9DAD4C8B59D8165462F25212737BD
:10081000475F7F9DB7CBD8DDDACFBFA9917658402F
:1008200032292830394B637B96AEC2D0D6CFC9BDB2
:10083000A98F765C40312B282E3E536B89A5BCD105
:10084000D8D5D0C4AD95785D432C28282C3C526572
:100850007D99AEC0D1D9D7D0C3B39B7D654F382B1E
:100860002A2B3041576B85A4BCCCD5D6CFC3AF96CD
:100870007F63493A302A303D495E7892AABECDD492
:10088000D1C8BEAA947D65523F3432343F4C5E736A
:100890008DA4B6C6CECEC8BCA890755944352F2EAF
:1008A000364659718DA6BAC8CFCFC9BAAA977F6A02
:1008B00057453C36373E48556A8297ADBDC7CCCACE
:1008C000C1B2A0896D53403532343B495C728DA56D
:1008D000BAC9D0CEC8BEAC97806753463B37393FC4
:1008E0004C5B6D849AAAB8BFC1BFB8AC9D897461D6
:1008F0004F423C3B404B5D7087A0B2BFC6C7C2B7FA
:10090000A58E755E4B3F3939414D5D70869AACBA04
:10091000C2C4C0B8AA9B8A756353463F3D40475442
:1009200064778FA3B2BEC4C3BEB3A38E765E4D41BF
:100930003B3A404C5B71889DAFBBC1C2BEB6A89824
:10094000857362544A4241454D5867798C9FB0B9CE
:10095000BFBFB9B0A28E7A6655463F3E424D5E7229
:10096000889BABB8BDBDB9AFA08E7A68594C4645DF
:1009700049515D6A7B8C9DABB5B9BAB7AFA3948280
:100980006D5C4E454243485262768DA0AFB9BEBE03
:10099000B8AD9F8C77645449444448515E6E80934F
:1009A000A2AEB6B8B7B2AA9D8F7E6C5D534A4749D6
:1009B0004E576576899BAAB4B9BAB6AEA08D786554
:1009C000564A46464A556475899BA8B1B5B4B0A845
:1009D0009C8E7E6E6056504D4F545C68758495A316
:1009E000ADB4B6B3ADA395836F5F524A48494E5933
:1009F000697B8FA0ACB2B6B4AEA59989796A5D5413
:100A00004F4F5156606B798895A1AAAFB1AFAAA19B
:100A10009685756658504D4D525B67778999A6B09B
:100A2000B3B2AEA4978776675C545152575F69762C
:100A300084919DA5A9ABA8A39C9185786B5F575421
:100A400053565C657181919FAAB0B2B0AA9F918103
:100A5000716258504E50555E6B798998A3AAADAD1E
:100A6000A9A2998E8275685F575555585F68748141
:100A70008F9AA4AAACACA79F938575665B5551521B
:100A800058616D7C8B98A2AAACABA69D9286786CBF
:100A9000645E5B5B5D626A737D89939DA3A6A6A37A
:100AA0009C93887B6F635B5655575E687583929EF7
:100AB000A7ACACA8A1978B7E71665E5958595E654C
:100AC0006F7A85919AA1A4A5A4A0999085796E6565
:100AD0005D5A595B616975818D98A0A5A7A5A098FD
:100AE0008D81756B625D5B5D6269727C8690989D9D
:100AF000A0A09D9790887E766E68646263666B7234
:100B00007B858F979DA0A09D9890877C7269625E7F
:100B10005D5F656D78838E979DA0A19E9A938A8173
:100B200078706964626265696F77808991979B9E2E
:100B30009E9B9790877D736B64606062666D778122
:100B40008B949A9D9E9C98928A8178726C68676754
:100B50006A6E737A81878E93969796948F89827B3B
:100B6000746E6A6767696D747C848C93979A9997A1
:100B7000928C857D76706B69686A6D727980868CDF
:100B80009194959492908B857F78736E6B6A6B6D60
:100B900072777D848A8F93969695918C857E7772F5
:100BA0006E6B6A6B6E73787F858B8F929393918D4A
:100BB00089847E7A7672706F707275797E83888B85
:100BC0008E90908F8C88837E7974716F6F7174783A
:100BD0007D82878B8D8E8F8E8B8884807C797574D7
:100BE00073737476797D808487898B8C8C8B8985EF
:100BF000817D79767473737476797D8185888B8C29
:100C00008D8C8A8784807C7A7876757576787A7D03
:100C100080838688898989888684817E7C7A7877B2
:100C20007777787B7E8083858788888887858380AF
:100C30007D7B79787878797B7D7F818385868787CE
:100C400087868482807E7C7A7979797A7B7C7E80C3
:100C5000838485868686858482807D7C7A7A797A8B
:100C60007A7C7D7F81838485868685848382807E6D
:100C70007D7C7B7B7B7B7C7D7E8082838484858581
:100C8000848382807F7D7C7B7B8080807F807F806F
:100C90007F817B6F6685848A9F7D8B9A767A977237
:100CA00052878863A57C7B78957E63A94588886C8C
:100CB00089868665AD7E54BA6F919B6F8B62984B27
:100CC000888652B07889787C8B64A2738AA47C9ED3
:100CD000858975808F639B837590828A718D6C7610
:100CE000847286777F7D8B7F83836D86798088860B
:100CF0007A859A888C8F7D797C857F737F7A8C83C7
:100D0000928B7C737F7E6C846A79898FA1988F73B4
:100D1000888C5D8A6E63888A9C7C9B8A77997185B2
:100D20006A777066906F7F8D7583807D7C6C95800F
:100D30008C9A8F94848E7E747F6778777B83728E93
:100D4000798B927B907A857E8181658D6C7F8873AB
:100D50008E7E90809098709F797D82748A5C8D657C
:100D60007794659867897E75A35B9070868B76A76C
:100D7000608D897891679F6582956DA26A926D7E7C
:100D8000925D995E748D73956AA5737B9C678D6D7A
:100D900084727A9D67947E7D8B7389668D6D838A5C
:100DA000738C7D8677857665876E82808282779662
:100DB0007096848083748E749182758A6A95757C2E
:100DC00079658374947C828E718C8C7B747B816A50
:100DD000968273817F7D798D78768F7B84857C7810
:100DE0007C816D8282747C82828383877E887C7E14
:100DF0007C70857F6A80738D80868E6F8F738D8106
:100E000070906E86767B875796648387749C6D9FFF
:100E1000758E965FAA687E786C8153A2607894691B
:100E20009C7D967281A156AB72737E7291539862CB
:100E3000698F5B9E738D7F7BA25FA27682817496A1
:100E40005B90766E8B5E986689887B996D9A7E82C0
:100E5000887D896E75836B856E7F717B7E768A78DF
:100E6000888381878A8A797C85787B7879667C819A
:100E7000877C878480928A8C7D7A8272847676736E
:100E800075847495757E7E847C84876F85847C8070
:100E90008A81788D7D7684777B7B80737F89718C66
:100EA0007D78827F8B7B9072858C768478766D7965
:100EB0007D6689767E8F87927F967594886E88701E
:100EC0007F667E785E906A97817E91729879928231
:100ED0006A997488836F7B6187658B7C6796798A52
:100EE000868F856CA474838B6D806A8F6B85836A13
:100EF000937287877E88739C738889728B747F78DE
:100F00007D7B7388747686758A7A9283808B768FE0
:100F1000777C806E847C8D7C798676897A807C74FF
:100F20007E858D7D7E897C858884727C7E788180BB
:100F3000777A867889867D7D86857C8C82758886A1
:100F40007D7C7B7A76837D7D7F7A89847F837C85B7
:100F5000838B877B7B7880777C7575817D888684A1
:100F60007D87878187857B7B8578787B7F797E8687
:100F700077868380878285758F847789787974876F
:100F80007E728A718889858D748A738B8171886974
:100F9000867F82916D93768D887393598C71808B47
:100FA000699A6F8F83799B609578858D70965F9332
:100FB00077778B6793718C85729C65948481867337
:100FC00096638E856D856E8A7885876C976F92841F
:100FD0007F867292788D83757C728B7C7A7E738229
:100FE0007B8E7E7F84888988897E7F7C7B7E7C73F4
:100FF00076857C7E87808485948187817D88777CD7
:101000007B757A7F90787F837985838777878186E0
:10101000907E7B7A82797B896B827E89817F8E73D9
:101020008E7C897D718D738B7D81897694718A76B2
:10103000738A778D738E7E739C7787748481759F96
:1010400068897C7B8C798F688B807398718B728BAD
:1010500088709E69917A78966D94658A816B99699A
:101060008C768B8A759F738B8B79906A8B6B80845F
:10107000699571887E8E8A708C7A838A7D8A738C5A
:10108000807E87777B72827C82877A85898E87844F
:10109000886D7F828377817E7F838A7D7982718C60
:1010A000808582818D7D8F826B917182797C827146
:1010B000947C8A8478927A89787E846B95797F7C17
:1010C0007C8976917D7890748F83817B79876C8C15
:1010D0007D7D7E898B818A7E817C7C80757E778810
:1010E00080808D798D8285867B84778B7B778772F4
:1010F000877A877A7A8A75898287877F8B7E897BD0
:101100007582748179897C7E8C798C79887F798CE1
:10111000758E79858A7289768678788B6C8B7A86DB
:101120008C7A97768D7F788B748277827D789475B0
:101130008182818A7C8F7B8282788F777F7A7985A2
:101140007C8D788380808A808080817D8289787A96
:10115000847C7F848375857F7E85837B8389817E84
:1011600085787B887B80857C828786817D85768C6F
:101170007D7A847A7C81867F798F7781897A8B7575
:10118000847B8583788A7C7A827B8677867E7E895B
:10119000818F7D80817F787F7F767981838286854C
:1011A0007D897C878977807E8677828475877A833C
:1011B0008378897A8B7B8586788F7683787D857531
:1011C0008B738387798C7D857C8488738D79817D11
:1011D0008086729175878179887589778386719108
:1011E00078887E788D6F8F7C848272907187847608
:1011F0008673927D8382758E76828679837A8A7FE2
:101200007E85788C798481807F7F887A7B867E80DA
:1012100085807B80857F827E7C7E807F847C7B78DE
:10122000868280887E81818588798276827D7C8BAA
:10123000728A7A828380867C8B7E7C8B78857A7EAC
:1012400079789072897E788A7A8C7D85827892739B
:1012500089797A81798C7680807E867D8480817F91
:10126000808974847B837C8187758A7B867F7A877B
:1012700079887C8681748A76887C7A86748B798A70
:1012800085729175867C8282728E74878380897A5A
:10129000847E827F80807F827D857989739273923C
:1012A0008496A650887E33C695656F749D1DC86070
:1012B0006E8562AB7F777482789F557E789C5A8763
:1012C0009C458E80934F8E7F8A4A63B67E565AC065
:1012D0005080B14765A9609D7D6C5F9AB341A06D58
:1012E0007D78996778B263877169967F658093A2EC
:1012F000666E8A897769928B79738D81627CA07C16
:1013000068717A87838C658B7874826D987A707A2D
:10131000729B7670984D93A06087806F7D7B889AD2
:101320006C638C9A62729482896476A1737A7B6909
:10133000A27E757881807C95797167A2836F8575AF
:101340008282886A8D7D6DAB6C757F81847C8F63B2
:101350009B73888970916E9095647B917F8568926C
:101360007B718E8C84627EA170867E6B9C7572858B
:101370008B8A78649A837C8272907C857980916F65
:101380008983699968769E7B757F8087727A94716C
:10139000966E738C7B9A6F827A79807C966A8A7F4C
:1013A00076966C7C917C8877739987618A9D6D7C39
:1013B000956E7F957F7F6196956785916D72998E09
:1013C0006A8A8A768C8D737694728A828378877F14
:1013D0006B9188906775977B778B7880767F8D7E11
:1013E00083867A729187827182898C7C6E8D817FEF
:1013F00088837D876B8A966A8B846E8E89708385DD
:101400007C7B877F7588828273917F718F7E8873E2
:101410007F8E876D7D95807A6F839485698D866FC9
:101420008686887C7C7A88818089728A7F858573AC
:1014300083867F82877C89718B827B8D6E907D7C99
:10144000838382768D81777F82828A82777D847C96
:10145000897E7C8480827D837F7E81847F7D7F887E
:1014600077867F847E7B867D8B718981817A788C7B
:101470008B7C77857A867F887C817F7E8974848562
:101480007C8481827D7E83827E81847A827D858454
:10149000817C7F8382857A817C8186847B7F837F48
:1014A000867D7E8381807D81877E7D818480817E33
:1014B0007F877F807F817E85817D8080857E7F7E26
:1014C000847E82838180798582807F82847F7D7D16
:1014D00085857E7F80827D82828082807F80847D00
:1014E0007F81827F818181837C8082808282817CF6
:1014F0007F837F8380837F807F808281817F7F7FE6
:10150000847E818180827F817E83807D83827F7FD4
:10151000827F82817E8081837F7F808180808280C4
:1015200080807F818182817E81818180807F8181B5
:101530008081808081827E7E82837F7E82827F7EA8
:10154000818281807E8181827F7E81808181818094
:101550007F808281827F7E80828080808081808087
:101560008081807F80818080808181808080818077
:10157000808081817F7F8181818080808081817F67
:1015800080818180808080808082817F8080818056
:101590008181808080817F80818080808081808047
:1015A0007F8080808180808080808180808080803A
:1015B0008080808081818080808081808180808027
:1015C0008081818080808180817F80808080808117
:1015D0007F80818180807F8081808080808080800A
:1015E00080808180808081808080808080808080F9
:1015F00080808081808080808080818080808080E9
:1016000080808080808080808080808080808080DA
:1016100080808080808080808080808080808080CA
:1016200080808080808080808080808080808080BA
:1016300080808080808080808080808080808080AA
:101830008080808080808080837D817F7F827B86A6
:10184000778B72916B9D65A464A071808F569752BF
:101850009055855A7E5F7866736D6F716F766E7A7C
:101860006F7D707E717F7480757F777F797F7B7FDE
:101870007D7F7E7F7F7F817F827F82808280838267
:101880008482838283838483848285828581858127
:1018900085828683858385848486828781887F8903
:1018A0007E8A7D8B7C8B7C8B7C8B7C8B7D897F88FF
:1018B000838488808E7B9276976D9A699D68A167F4
:1018C000A26A9D6C95738D7F828E729B61AB56BBB5
:1018D00048C13FC541C348B657A470888B67AD481F
:1018E000CA2BE21AED14EB21D63DB168809C4ECE96
:1018F0001FF303FF00FE13DA44A18060C224F4004A
:10190000FF00F71FC55E7DA935E708FF01F028B687
:101910007068C021F600FD13CF577EAC2BEF00FF9F
:1019200010D1577AB424F600FB1FBE765CD30EFFAD
:1019300002E04384AA26F801F92EA49035EA00FDBE
:1019400025B18A3BE800FC27AB8F32EF00F83391DA
:10195000A622FF02DF4F6ED109FC14BC8836F002CC
:10196000ED4276CB0BFC18B39329FD04D66458E105
:1019700000F73C78CD06FA2A95B118FD17AF9B20E9
:10198000FF0CBC9226FF09BF9027FF0ABD9224FFDF
:101990000DB49C1DFC1C9DB211FA2F83CE03F3479E
:1019A00061E301DB703CF90CB69F16FC2983D1037F
:1019B000E75E45F50AB5A213FA376DDF02D3832639
:1019C000FB2385D302DD762EFB2189D102DB7D2826
:1019D000FA2C78DD04CA9517F74556F110A3BF0716
:1019E000E07729F93468E90CACB808E07925F73ECE
:1019F00058F01494D007C99F12EA6B2FF73B58F1A7
:101A00001B8ADC0BB2B807D29317EB6D2AF44B4854
:101A1000F73164EC1D84E0109DCD0CB5B909C8A761
:101A20000DD59416E1821CE97423EE692BEF603129
:101A3000F15937F1543AF2533CF1523CF15439F137
:101A40005835EF5F31EE682AE97223E3801CDC90A1
:101A500016D2A012C3B310B1C5139BD51C82E429C2
:101A600068EC3D4DEE5834E67820D79A14BDBB158E
:101A70009AD62373E73D4CEB632CDD8F18BEBA1862
:101A800092DB2C61E95436DF871BBEBA1A8BDE3637
:101A900054E76929D0A41A9ED32C62E65F2FD29F07
:101AA0001B9DD3315CE36A29C8AE1F89DB4445DC4A
:101AB0008920AAC92E62E06B2ABFB62577DE5A3488
:101AC000C9A72383DA523BCCA22586D8533CCAA5AA
:101AD0002781D95B36C2AE2B74D96B2FB3BD375E6D
:101AE000D5832A9ACC4C46C7A32D78D56C31ABC090
:101AF0004252CB972F7FD16A35A9C0474FC59F333C
:101B000074CF793398C75942B5B4415AC6993675DE
:101B1000CC7D3690C8653DA7BD504BB7AD445BC189
:101B20009C3C6BC78C387CC87D3A89C6723C94C299
:101B300068409CBE6143A1BB5C47A5B75949A8B5A5
:101B4000584BA8B4584BA8B5594BA5B65D49A1B898
:101B500061499CBA684694BD6F458ABE7A4381BD8F
:101B6000864375BA944668B4A14D5DAAAD59529C9E
:101B7000B669498CB97F457BB5944868ACA8555780
:101B80009CB46B4A89B6864773AEA0515E9EB2691B
:101B90004D88B5894A70ABA5585995B4764C7CB040
:101BA0009951629DB06D4F81B19350659EAE6B505F
:101BB00081AF9452649BAE70507DAC9A575E93B0E7
:101BC0007C4F72A5A4615786AE8E536698AE75524F
:101BD00076A5A3625985AD92566392AE7F536E9DF2
:101BE000A96F5579A5A0645982AA965C5F8AAC8DCD
:101BF000586590AC84576A94AB7D576D98AA785716
:101C0000709BA77558729BA67358729BA6745871E7
:101C10009BA6765A7098A77A5A6D95A87F5B6A90B2
:101C2000A9865D678AA78E606283A596665F7CA1A0
:101C30009E6F5D7499A47A5D6C8FA688606484A49D
:101C400096695F789CA1775E6D8FA588626481A19B
:101C5000996E5F7395A381616885A3956C61759793
:101C6000A280626885A1966E617293A38564657F88
:101C70009E9B75616D8BA28F6B627696A182656665
:101C80007F9D9B78626B87A0947063708EA18C6B34
:101C9000647593A086686579969E8267677D999C36
:101CA0007F67687E9A9B7D67687F9A9B7D67697F67
:101CB000999B7F67687D989B8168687A969B866A06
:101CC0006776929C8A6D66728D9D8F73656F859D18
:101CD000937B666C7D999884696976909C8B73661A
:101CE00072859D927E666E799798896E6873889DDD
:101CF0008F7D656F799896896E6972879C908067F1
:101D00006E7693988C7568717E9993876D6B7388E6
:101D10009A9080696E758F988D7B68707893968C99
:101D20007669717B95948A736A727E969389736BD8
:101D3000727F959289736C737E949289746B727CB6
:101D400093938A776B727A90938B7B6D72778C9377
:101D50008D806E717586938E857270747F918F8978
:101D6000796F74798B918B8172737683908D87787C
:101D700071757B8B8F8A81737477828E8C887A726F
:101D80007579888F8B847573767D8B8D898074755A
:101D900077808C8B887D747678838C8A867B747749
:101DA00079848B89867B75777A848B89857B767835
:101DB0007A848A89857C77787A828988867E777822
:101DC0007A808888868078787A7E868886827A7813
:101DD000797C848887847D79797B80868785807A01
:101DE000797A7D848685837D7A7A7C8085868581F3
:101DF0007B7A7B7D828685847F7B7B7C7F838584E9
:101E0000827E7B7B7C7F848584827D7C7C7D8083DD
:101E10008483817E7C7D7E80838382817E7D7D7EC6
:101E200080828282817F7E7E7E7F818281817F7EB1
:101E30007E7F7F80818181807F7F7F7F80818180A5
:101E4000807F7F7F7F8080808080807F7F7F808099
:101E50008080808080808080808080808080808082
:101E60008080808080808080808080808080808072
:101E70008080808080808080808080808080808062
:101E80008080808080808080808080808080808052
:101E90008080808080808080808080808080808042
:101EA0008080808080808080808080808080808032
:101EB0008080808080808080808080808080808022
:101EC0008080808080808080808080808080808012
:101ED0008080808080808080808080808080808002
:101EE00080808080808080808080808080808080F2
:101EF00080808080808080808080808080808080E2
:101F000080808080808080808080808080808080D1
:101F100080808080808080808080808080808080C1
:101F200080808080808080808080808080808080B1
:101F300080808080808080808080808080808080A1
:101F4000807F807F8080808080807F817F817D8096
:101F50007D757E788A917AA8A770587E8AA89C831E
:101F60006F87A874AB86314DB15459BCAFAC8C7936
:101F700072684A6C75899A958482868A878A806D90
:101F80006268827A687C857595A19E7C798D7B6D6F
:101F90007C776B717F7E8A997EA49D907061796A4F
:101FA0006F5A678F909BA9958872657870757B775B
:101FB000858798959276717472847978777A7E8C19
:101FC0008D95927F747F857F6969667B8F818D7D1A
:101FD000899E91888F6B55627A828D8B94907E69F1
:101FE00085B443A4B362997B6C7C927D7798724BE5
:101FF000AA985E878E71807285897095908C8465B1
:1020000076815BA3677AA0799273746F858B9A72DD
:102010006A83A79A817E445A6A82AF998B8B8376B2
:1020200063636F979F86616A7A969F979A5E5C8ECC
:102030009C5B668C6B828F9A926C61728F8F999C7D
:102040008662646170948389888A838181747F7FCA
:1020500088927E656C818F9F89786C5B89938361A0
:10206000829D728B7F7C947982765D8F8D7B787771
:1020700083838595816571968A848D734D6C927189
:10208000A6A9735987948786736C7D9374768E6046
:102090007CA37556AFA64EAC7650A99B2E75A46353
:1020A000A2AC5D5A9CA4867686706A657D807CA809
:1020B000B381506F9D9C6D63706F79989E897A6C27
:1020C0007D7D7B928B75827B5E81988E918F6D5F1B
:1020D0007D8F917C8C7D7A6B5E7B7DB896827E4B0A
:1020E0005E99B36B669982706C95A273817E596E0E
:1020F00082818588AA977A615D8A7B7085828C96B9
:10210000877C898C6A5872A0806F97887A907166F4
:102110009C9C7A586B7C7D91999B816C8C716785B6
:1021200070987D5BA4857D9A667587956D5884ABA4
:102130009C5B93A66A6B4D75A76998905B809E9295
:102140008E7B5E6C778F9FAC8461676273979D64B2
:10215000607C9DA7735370A0AB8C7A7D597C887C82
:102160008B937C5C75848C98926D7E857B886E5891
:1021700074A2A08E87635E5E879F9E8E608C926C39
:10218000628294736D8CA6826A566B9E9E9D816559
:102190005A89A888576D8583867287A2A47159676A
:1021A00088A39A754C5376BCB2766781A46C647B25
:1021B000827B889676728F93688B8E647A92726730
:1021C000AAA1635C76918D8E8485905C6788885F18
:1021D00080C678589497557599929A5F61869879D8
:1021E000696E6DBB9F706B6D9C755586BB9C6B5704
:1021F0005A82839D916C81A67966A77946898A5A0D
:1022000081A49C7074828D9F764178928E9884818F
:102210006479777F7B859B8E84727B9F64378CABE0
:10222000888B846483997E678076727F9DB2935D8C
:102230003E7CC297525A83969D915D5B839D959992
:102240007E5F4E7DA9887D999064706A6F9BB075A2
:10225000637F72799BA784565886999294804567CC
:10226000C49B4C679F9D6874767099986A629E9D26
:1022700073668196756D807C8A7F84978376718D75
:1022800083846751959C7F91916D71737390A08742
:10229000757A6967829894906D668A997B5B7A8774
:1022A00091A38F576B9971839364708D8990868306
:1022B00084806A4F89B3A6776E6F55728CB3A87409
:1022C000497AB18E5D5290939884696B8E8B6F8F33
:1022D0009280696F87A5825668A4AA705E747C8B11
:1022E00097877D6B808B7F84806E6182988E8D73E3
:1022F0006A8F9E7E5B6E9085827D948B6E776984FB
:10230000937E7580788B8F7F7A93805579819A9DA3
:1023100078577DA477658D8B729296577AA67C63E9
:102320007593857B819F7857899E735D77B3AC6287
:10233000538098967C4C829C94836A63A1A24977CF
:10234000A07D7D8D80777174839BA46D567B76868E
:10235000B690427AAE7465888F726B7DA6AC6B5670
:10236000757383938280AC753E91A7726886767A86
:1023700092947B76788093815874A88D6E6AA69724
:10238000485C8E949491687591797D827B7E797595
:10239000A597666C77948D6877A784697087A38604
:1023A000616D838986768D847489978A625B7B9C54
:1023B000A07D6575798E8F859868777057A5B57FF4
:1023C00073695896B28667547FBF9153656886B12A
:1023D0008B84826E776679A197947F50767D5FAB10
:1023E000BD6B506A7DBBA85160937E889C554F9D04
:1023F000CC80457497778290768288728E845B85D4
:102400008C7A7C848BA16E65786F87A47F6F7E84C5
:102410009B6D677C9A99695E939B76799D71597DD6
:10242000929578886980937CA17B5675768EA99267
:102430006D748B855970AB7A7C877D877271A96DBD
:1024400063AF7D685F6FB9986588797F9371588FA6
:10245000A18A6B7C815A90A07F687C8582B07C4089
:102460007D8E97876F8D877281507CAD92A9546065
:102470008D50A3BA536C7D9682768C6E708391805A
:1024800084828C8B745869B99858738FA8855A5C6C
:102490007FA59882636D8B7068CAA255695C959917
:1024A0009286677D6B7483A29462708A8A89857E26
:1024B000715699957996877169726D94BEB2602C48
:1024C0005C9FAD9878716C758684986E79917A94DA
:1024D000865870948386827C857E817D6789AB581F
:1024E00046ACBF70596A74929CA075577F8B8583E8
:1024F0006F738F9E896F6E7F9C6F5C8890969D78BE
:1025000042668A99A38E7465587AA795995750A701
:102510009573787C8883947E7781856971AF8F6F9E
:10252000677768A2BD7943709F80758B8573847CC3
:1025300078819282887F785D91A065879088696EA6
:102540007A7DA0827A8D806771A08174807C8F856E
:1025500062759196776899886C74809A8376748591
:102560008964829B7F7A7C7083907E688E99717D6E
:102570008075878B7F7580857F857B81827C7D835D
:1025800081807F7F807C8080807F81808080808050
:10259000808080808080808080808080808080803B
:1025A000808080808080808080808080808080802B
:1025B000808080808080808080808080808080801B
:1025C000808080808080808080808080808080800B
:1028C0008080808080808080808080808080808206
:1028D0007D837D8380817889788F70966D879F0E48
:1028E000BE7C68979E6C936CA2C952A6674D4B86BE
:1028F000439D557BB783BFA9AE8C9A5DA335594FD5
:1029000037676A8E91B97BE19CAAB48470533960B1
:102910005E28965487A7ABB6BF8FAAA84695573FA7
:102920004B53598E7495BC86B6B4A188885D6A46AF
:102930005C714C727F9798AAA1B08594906A755D7E
:102940005D575F72986D93A48FA798919176628B73
:10295000526574607481889C9B7DAB8B87917F7678
:102960006C5E717564877B838A95988E8891857576
:10297000817274676C7D7A7C93867B938A92897F5F
:10298000847E667E806682767E867E8B907B8C924D
:102990007F857B7C74727884767A81808584928846
:1029A0008383887A7B7A797B707F847A7B8B7D8A3C
:1029B00089868D797D857776857678777C88808223
:1029C0008D88808B8381797A7F76777F7D7782850A
:1029D0008B84868B807B82807A79767E777A8783F8
:1029E0007F898786867D867B777F7D777C7B7E83EC
:1029F0007F8C868284857E817D7D7B737F7D7D7DDE
:102A00008681888588867984807B7B7F7A7C7682C4
:102A1000857E86878380868185797F81777B7F7EAF
:102A20007B818188808286827E85827F7D788176A7
:102A30007D827F7F8282848581897F8081807A7C8C
:102A40007B7B7E7D84808082878286848380788081
:102A50007B7A7C7F7B807F86847F87858180827B79
:102A60007D78807E7B828180808684867E84807B68
:102A70007E7F7D7C7E7E847D848380818482807E57
:102A80007D81798081807D817F828182867D818048
:102A9000807D7F7F807C7F837D8080848082818435
:102AA0007E7D827F7E7F817C7D7D83807F8283812E
:102AB000808480817D827E7D7F7F7E7D8181827F1B
:102AC0008481808083817F807D7F7B7F7F7E7F820A
:102AD00082818283847F82817F7C7E7C7C7D7F83F8
:102AE0007E828384818483837D7D7F7B7C7C7F7DEC
:102AF000818185818385838280817C7C7A7E7C7ED6
:102B00008081818285838481847E7E7C7D7B7B7EC7
:102B10007F8080858283838582807F7E7C7A7E7DB4
:102B20007E7E8281828284838183807F7C7E7E7DA3
:102B30007D81807F818183818283827E807F7D7E93
:102B40007E7F7E7F81817F8183828281817F7E7F84
:102B50007F7D7F807F7F7F82828182837F807F7F76
:102B60007F7E7F807E7F827F818182828080817E66
:102B70007E807F7F7F808080808281808180807E58
:102B8000807F7F7E81807F808081808181807F8047
:102B9000807F7F80807F8080807F81808080808137
:102BA0007F7F80807F8080807F7F80807F80817F2B
:102BB000808181808080807F7F807F7F8081808016
:102BC000818180808180807F807F7E80807F808106
:102BD00081808081818080807F7F7F7F7F7F8181F6
:102BE00080808181808081807E7F7F7F7F808080E8
:102BF000808181808081807F807F7F7F7F808080D7
:102C00008181808080807F80807F7F8080808080C5
:102C100081808080807F8080808080817F7F8080B5
:102C20007F808080807F81808080817F80808080A5
:102C30007F80807F7F808080808080808080808097
:102C400081807F7F80807F80818080808080808085
:102C5000808080807F7F8080808080808080808076
:102C6000808080807F808080808081808080808064
:102C70008080807F8080807F808080808080808056
:102C800080808080807F7F80808080808080808145
:102C900080808080807F80807F8080808080808135
:102CA000808081807F80807F7F8080808080808026
:102CB000808080808080807F808080808080808015
:102CC000818080808080808080807F808080808004
:102CD00080808080807F80807F80808080808080F6
:102CE00080808080808080808080808080808080E4
:102CF00080808080808080808080808080808080D4
:102D000080808080808080808080808080808080C3
:102D100080808080808080808080808080808080B3
:103200008080807F807F817F8175707D8C93849D9D
:10321000ADADBFB6C0C0B4C0A393917566594F455C
:103220002F2D2D251B23251D312D273C465378940A
:103230009D999EB6C3C8CDCCD2D9D3C7C8C5B2AAB2
:10324000A3A0988E92988D818587847C726F6F6C15
:10325000656469686361656A6D6E72777B7E808480
:1032600086898D8B8D9394969DA2A6AEB4BDC3C165
:10327000BEBDBFC6CCC8C0BEB8B2B1B1B0A99E94E5
:103280008A7B6D5E4F4133271F18120D090A0D10FE
:103290001316191B1D1F1F20212120222324272B39
:1032A0002E32383E4143464A50585D616A77818AE2
:1032B00097A5B1BCC7D5E2E8ECF5F8F4EFEAE6E291
:1032C000DEDBD9D7D5D4D4D3D3D3D3D3D3D2D2D2B0
:1032D000D2D3D3D5D7D9DBDEE0E3E5E7E8E8E5DF15
:1032E000D7CEC5BBB1A69C938A80776F665C5249E6
:1032F0003F352C231C150E09070606080A0C0F1172
:1033000013151618191B1C1D1F20212324262829DC
:103310002A2C2D2E2F30303234383C41474C535814
:103320005E62676B6E7072737474747475757677A1
:10333000797B7E8184878A8D90939597999B9C9EBB
:103340009FA1A3A4A7A9ABAEB1B4B7BABDC0C3C671
:10335000C9CCCFD2D5D7DADBDDDFE0E0E1E1E1E1D6
:10336000E0DFDEDCDBD9D7D5D3D2D0CECCCAC9C81A
:10337000C6C5C4C4C3C3C3C3C3C3C3C2C2C1BFBE23
:10338000BCBAB7B5B2AFABA8A5A29E9B9895918EDB
:103390008B8784807C7875706C6864605B57534E53
:1033A0004945403C37332F2B27242221202021223E
:1033B000232527292B2D2F3133343638393B3C3DFB
:1033C0003E404142434444454546464646474746BB
:1033D0004646464545444343424242424345474AA6
:1033E0004D51565A5F646A6F74797E83888D9297C7
:1033F0009CA1A6ABB0B5B9BEC3C7CBCED1D2D4D4F5
:10340000D4D3D2D1CFCDCBC9C7C6C4C3C1C0BFBD31
:10341000BCBBBAB9B8B7B7B6B5B5B4B4B4B4B4B345
:10342000B3B3B3B3B3B3B3B3B3B3B4B4B5B5B5B661
:10343000B6B7B7B6B5B3B0ACA8A39E99938D878144
:103440007C76716C67635F5A5753504D49474441CE
:103450003F3D3B393838383838393A3B3D3E4041BA
:1034600042434546474848494A4A4B4B4C4C4C4CD2
:103470004D4D4D4D4D4D4D4D4D4D4D4D4D4D4D4E7B
:103480004E4E4E4E4F4F4F4F505050515151515242
:1034900052535556585B5E6165696D71757A7E82CF
:1034A000868A8E9295989B9D9FA2A4A5A7A9ABAD55
:1034B000AFB0B2B4B6B7B8B8B9B9B8B8B7B6B5B5B1
:1034C000B4B3B2B1B1B0B0B0B0AFAFAFAFAFAFAFF8
:1034D000B0B0B0B0B0B0B0B0B0B0B0AFAEADABA9FE
:1034E000A7A5A3A09E9B999694918F8C8A88868489
:1034F00082807F7D7C7B7979787776767575757536
:103500007575757575757575757576767676767665
:103510007676767575757474737372727171707076
:10352000706F6F6E6E6D6D6C6C6C6B6B6B6A6A6AD4
:103530006A69696969696969696969696A6A6A6AF6
:103540006A6B6B6B6B6C6C6C6C6D6D6D6D6D6D6DBA
:103550006D6D6D6D6E6E6E6E6E6E6E6E6E6E6E6E8F
:103560006E6E6E6E6E6E6E6F6F6F6F6F6F6F707070
:103570007070707070707070707071717172727242
:1035800073737474747575767677777878797979DA
:103590007A7A7B7B7C7D7D7E7F7F80818283848540
:1035A000868788898B8C8D8E8E8F9091929394953F
:1035B00095969797989899999A9A9B9B9B9B9B9C79
:1035C0009C9C9B9B9B9B9B9A9A9A9999989897975E
:1035D00096969595959494939393929291919090B9
:1035E000908F8F8E8E8D8D8D8C8C8B8B8A8A898916
:1035F00088888787868585848383828180807F7E93
:103600007E7D7C7B7B7A7979787777767575747433
:10361000737272717170706F6F6E6E6E6D6D6D6CB6
:103620006C6C6C6B6B6B6B6B6B6A6A6A6A6A6A6AEE
:103630006A6A6A6A6A6A6A6A6B6B6B6B6C6C6C6DDD
:103640006D6E6E6F6F707071727273747475757663
:1036500077777879797A7B7B7C7D7D7E7E7F7F80B2
:10366000808081818282828383848484858586862A
:10367000868787878888888889898989898A8A8AC4
:103680008A8A8B8B8B8B8B8B8C8C8C8C8C8D8D8D81
:103690008D8D8D8D8D8D8D8D8D8D8D8D8D8D8D8D5A
:1036A0008D8C8C8C8C8C8C8B8B8B8B8B8A8A8A8A66
:1036B0008989898989888888878787878686868691
:1036C00085858585858484848483838382828281C1
:1036D0008181808080807F7F7F7E7E7E7D7D7D7DFD
:1036E0007C7C7C7C7B7B7B7B7A7A7A7A7A7A7A7A2E
:1036F0007A7A7A7A7A7A7A7A7A7A7A7A7A7B7B7B27
:103700007B7B7B7B7B7B7C7C7C7C7C7C7C7C7C7DFE
:103710007D7D7D7D7D7D7D7D7D7D7D7D7D7D7D7DD9
:103720007D7D7D7D7D7D7D7D7D7D7D7E7E7E7E7EC4
:103730007E7E7E7E7E7E7E7E7E7E7E7E7E7E7E7FA8
:103740007F7F7F7F7F7F7F7F7F7F7F7F7F7F7F7F89
:103750007F7F7F7F7F7F7F7F000000002500280024
:103760002B002E0000000000240027002A002D005E
:103770000404040404040404020202020202030317
:1037800003030303050505050505050301020408F8
:1037900010204080010204081020010204081020BB
:1037A000020801041040204011241FBECFEFD8E0D2
:1037B000DEBFCDBF11E0A0E0B1E0E0E0FFE302C07A
:1037C00005900D92A630B107D9F721E0A6E0B1E04F
:1037D00001C01D92A731B207E1F70E94201D0C9491
:1037E0007E1F0C9400003FB7F894809113019091D4
:1037F0001401A0911501B091160126B5A89B05C032
:103800002F3F19F00196A11DB11D3FBFBA2FA92F5F
:10381000982F8827BC01CD01620F711D811D911D5C
:10382000660F771F881F991F08951F920F920FB67A
:103830000F9211242F933F938F939F93AF93BF9336
:1038400080910F0190911001A0911101B09112018E
:1038500030910E0120E4230F2D3728F023EC230FA5
:103860000196A11DB11D20930E0180930F0190932D
:103870001001A0931101B093120180911301909156
:103880001401A0911501B09116010196A11DB11D61
:103890008093130190931401A0931501B093160126
:1038A000BF91AF919F918F913F912F910F900FBE3C
:1038B0000F901F9018951F920F920FB60F92112420
:1038C0002F933F938F939F93EF93FF9380910A01E0
:1038D0008093A10080910B0190910C010097F1F46D
:1038E000E0910801F0910901E650FE4CE491E0936B
:1038F0000A012EE535E0309307012093060185305B
:10390000910569F5E0910801F0910901E757F34F3E
:10391000E491E0930A0188E096E05FC08130910570
:1039200061F4E0910801F0910901E153F74DE49150
:10393000E0930A012BE239E0DECF82309105F1F409
:10394000E0910801F0910901E05CF04EE491E09310
:103950000A012FE839E030930701209306018630F1
:103960009105F1F4E0910801F0910901EF5BF94F45
:10397000E491E0930A0188E496E02FC0833091053A
:10398000E9F4E0910801F0910901E85CF74EE49157
:10399000E0930A0128E037E0309307012093060105
:1039A0000797F9F4E0910801F0910901E858FF4FF9
:1039B000E491E0930A0189EC95E00FC08430910511
:1039C00009F09DCFE0910801F0910901EF56FD4EFD
:1039D000E491E0930A0187EA95E0909307018093D0
:1039E000060180910A018695805880930A01809192
:1039F0000D01882331F010920D01109209011092EF
:103A000008018091080190910901209106013091EF
:103A100007018217930724F010920D0110920A01FA
:103A200001969093090180930801FF91EF919F9176
:103A30008F913F912F910F900FBE0F901F9018956F
:103A40008091F20080618EBB80E88093F2009EB38B
:103A50009093F2008093610091E0909361009091C7
:103A6000F2009F799EBB8093F2009EB39093F20088
:103A70009091F2009B7F9EBB8093F2009EB3909347
:103A8000F2008093610010926100789484B58260A6
:103A900084BD84B5816084BD85B5826085BD85B5F2
:103AA000816085BD80916E00816080936E00109270
:103AB00081008091810082608093810080918100EB
:103AC000816080938100809180008160809380007C
:103AD0008091B10084608093B1008091B0008160DA
:103AE0008093B000809191008260809391008091DA
:103AF000910081608093910080919000816080931B
:103B0000900080917A00846080937A0080917A009E
:103B10008D7F80937A0080917A008E7F80937A00E7
:103B200080917A00806880937A001092C100E9E960
:103B3000F7E32491EDE7F7E38491882399F090E08F
:103B4000880F991FFC01EC59F84CA591B491FC0128
:103B5000E85AF84C859194918FB7F894EC91E22B48
:103B6000EC938FBF81E0809300018091AD008F7B4B
:103B70008093AD0080910001811195C08091A000DB
:103B80008C7081608093A0008091F00081FF0AC05A
:103B90008091F0008D7F8EBB80E88093F0008EB323
:103BA0008093F000809100018295880F880F807CBF
:103BB00080937C00E0E9F7E3E491E4E7F7E38491A4
:103BC0009091A0009C609093A000882369F090E001
:103BD000880F991FFC01EC59F84C25913491FC0198
:103BE000E85AF84C85919491F89480918100877EF1
:103BF000886080938100809180008C7F809380001A
:103C000080918100887F81608093810080ED97E0C2
:103C1000909389008093880080916F0082608093E8
:103C20006F00789410E201E098E0492E512C612C4D
:103C3000712CC0E0D0E085B1812785B900930D01DA
:103C40000E94C31EA30192010E941B1F70930C01CE
:103C500060930B010E94F31B4B015C0186EAC82EA6
:103C6000D12CE12CF12C0E94F31B681979098A09E7
:103C70009B09683E734081059105A8F321E0C21AB3
:103C8000D108E108F10888EE880E83E0981EA11C97
:103C9000B11CC114D104E104F10429F7209759F2B1
:103CA0000E940000C8CF813031F48091A0008C7058
:103CB0008093A00077CF8091A0008C708260809369
:103CC000A00080910001823029F48091CE00809381
:103CD000C80068CF843041F48091AD008064809347
:103CE000AD008091CC00F3CF8091CD00F0CF8F92CA
:103CF0009F92AF92BF92CF92DF92EF92FF92CF93BB
:103D0000DF93EC01688179818A819B81611571055E
:103D10008105910521F464E279ED8BE597E02DE1D1
:103D200033EF41E050E00E941B1F49015A019B0103
:103D3000AC01A7EAB1E40E943A1F6B017C01ACEE32
:103D4000B4EFA50194010E94481FC60ED71EE81EBD
:103D5000F91EF7FE06C081E0C81AD108E10880E824
:103D6000F80AC882D982EA82FB82C701B6019F772E
:103D7000DF91CF91FF90EF90DF90CF90BF90AF9009
:103D80009F908F9008958F929F92AF92BF92CF9203
:103D9000DF92EF92FF926091010170910201809198
:103DA000030190910401611571058105910521F4CC
:103DB00064E279ED8BE597E02DE133EF41E050E0EF
:103DC0000E941B1F49015A019B01AC01A7EAB1E403
:103DD0000E943A1F6B017C01ACEEB4EFA501940187
:103DE0000E94481FC60ED71EE81EF91EF7FE06C029
:103DF00081E0C81AD108E10880E8F80AC092010100
:103E0000D0920201E0920301F0920401C701B601D1
:103E10009F77FF90EF90DF90CF90BF90AF909F90F3
:103E20008F900895609301017093020180930301C4
:103E3000909304010895052E97FB1EF400940E94B0
:103E4000321F57FD07D00E944D1F07FC03D04EF4D0
:103E50000C94321F50954095309521953F4F4F4F10
:103E60005F4F089590958095709561957F4F8F4F26
:103E70009F4F08950E946F1FA59F900DB49F900DB6
:103E8000A49F800D911D11240895B7FF0C943A1F33
:103E90000E943A1F821B930B0895A1E21A2EAA1BBF
:103EA000BB1BFD010DC0AA1FBB1FEE1FFF1FA217EA
:103EB000B307E407F50720F0A21BB30BE40BF50BE7
:103EC000661F771F881F991F1A9469F76095709570
:103ED000809590959B01AC01BD01CF010895A29FF3
:103EE000B001B39FC001A39F700D811D1124911DCE
:103EF000B29F700D811D1124911D0895F894FFCF7C
:063F0000010100000000B9
:00000001FF
