:100000000C9464000C9481000C9481000C94810089
:100010000C9481000C9481000C9481000C9481005C
:100020000C9481000C9481000C9481000C94EB00E2
:100030000C9481000C9481000C9481000C9481003C
:100040000C94A5000C9481000C9481000C94810008
:100050000C9481000C9481000C9481000C9481001C
:100060000C9481000C9481000C9400000C9400000E
:100070000C9400000C9400000000000025002800F3
:100080002B002E0000000000240027002A002D0075
:10009000040404040404040402020202020203032E
:1000A000030303030505050505050503010204080F
:1000B00010204080010204081020010204081020D2
:1000C000020801041040204011241FBECFEFD8E0E9
:1000D000DEBFCDBF11E0A0E0B1E0E4E4F8E002C093
:1000E00005900D92AA30B107D9F722E0AAE0B1E05D
:1000F00001C01D92AD31B207E1F70E944D010C9491
:1001000020040C9400003FB7F8948091190290915C
:100110001A02A0911B02B0911C0226B5A89B05C033
:100120002F3F19F00196A11DB11D3FBFBA2FA92F76
:10013000982F8827BC01CD01620F711D811D911D73
:10014000660F771F881F991F08951F920F920FB691
:100150000F9211242F933F938F939F93AF93BF934D
:100160008091150290911602A0911702B091180289
:100170003091140220E4230F2D3728F023EC230FB5
:100180000196A11DB11D2093140280931502909336
:100190001602A0931702B093180280911902909151
:1001A0001A02A0911B02B0911C020196A11DB11D63
:1001B0008093190290931A02A0931B02B0931C0221
:1001C000BF91AF919F918F913F912F910F900FBE53
:1001D0000F901F9018951F920F920FB60F92112437
:1001E0002F933F934F935F936F937F938F939F933F
:1001F000EF93FF9380910F018093A10090910F01E5
:10020000E0910E0181E08E0F80930E01F0E0EC5E34
:10021000FE4F908390911301891710F010920E01F8
:10022000E0910E01F0E0EC5EFE4F208130E0409165
:100230000C0150910D01BA010090110102C0759599
:1002400067950A94E2F77093100160930F01809113
:100250000A0190910B0195958795F901F595E79520
:100260008E0F9F1F461B570B840F951F90930D01F8
:1002700080930C0130930B0120930A01FF91EF91C1
:100280009F918F917F916F915F914F913F912F91AE
:100290000F900FBE0F901F9018958091F200806113
:1002A0008EBB80E88093F2009EB39093F20080931F
:1002B000610091E0909361009091F2009F799EBB64
:1002C0008093F2009EB39093F2009091F2009B7F96
:1002D0009EBB8093F2009EB39093F20080936100E6
:1002E00010926100789484B5826084BD84B5816089
:1002F00084BD85B5826085BD85B5816085BD8091F1
:100300006E00816080936E00109281008091810068
:100310008260809381008091810081608093810060
:10032000809180008160809380008091B100846022
:100330008093B1008091B00081608093B000809183
:100340009100826080939100809191008160809300
:1003500091008091900081608093900080917A005C
:10036000846080937A0080917A008D7F80937A00F8
:1003700080917A008E7F80937A0080917A008068E5
:1003800080937A001092C100E9EBF0E02491EDE94E
:10039000F0E08491882399F090E0880F991FFC0188
:1003A000EC57FF4FA591B491FC01E858FF4F8591A0
:1003B00094918FB7F894EC91E22BEC938FBF81E08E
:1003C000809300018091AD008F7B8093AD00809180
:1003D00000018111AEC08091A0008C70816080937B
:1003E000A0008091F00081FF0AC08091F0008D7F15
:1003F0008EBB80E88093F0008EB38093F0008091F4
:1004000000018295880F880F807C80937C00E0EB50
:10041000F0E0E491E4E9F0E084919091A0009C6028
:100420009093A000882369F090E0880F991FFC0149
:10043000EC57FF4F25913491FC01E858FF4F85910F
:100440009491F89480918100877E886080938100E8
:10045000809180008C7F8093800080918100887FD4
:100460008160809381008BEA95E09093890080936E
:10047000880080916F00826080936F00789494E18F
:10048000292E92E0392E22E0422E512C612C712C23
:1004900000E010E085B120E2822785B9C4E1D1E017
:1004A0000E94090389932C163D06D1F70E9465032B
:1004B00020EF30E040E050E00E94BD03605F7F4FDE
:1004C0008F4F9F4F609313010E946503A301920118
:1004D0000E94BD0370931201609311010E9483007A
:1004E0004B015C018AEFC82ED12CE12CF12C0E942B
:1004F0008300681979098A099B09683E7340810560
:100500009105A8F381E0C81AD108E108F10898EE36
:10051000890E93E0991EA11CB11CC114D104E10401
:10052000F10429F70115110509F4B4CF0E94000068
:10053000B1CF813031F48091A0008C708093A00005
:100540005ECF8091A0008C7082608093A00080912B
:100550000001823029F48091CE008093C8004FCFF3
:10056000843041F48091AD0080648093AD0080912F
:10057000CC00F3CF8091CD00F0CF8F929F92AF92BD
:10058000BF92CF92DF92EF92FF92CF93DF93EC0175
:10059000688179818A819B81611571058105910549
:1005A00021F464E279ED8BE597E02DE133EF41E052
:1005B00050E00E94BD0349015A019B01AC01A7EA2A
:1005C000B1E40E94DC036B017C01ACEEB4EFA50149
:1005D00094010E94EA03DC01CB018C0D9D1DAE1D30
:1005E000BF1DB7FF03C00197A109B0488883998355
:1005F000AA83BB839F77DF91CF91FF90EF90DF902D
:10060000CF90BF90AF909F908F9008950E94BD02B1
:10061000089581E091E00E94BD020895B0E0A0E05D
:100620008093010190930201A0930301B093040110
:1006300008958F929F92AF92BF92CF92DF92EF92E6
:10064000FF92CF93DF93EC01688179818A819B814E
:10065000611571058105910521F464E279ED8BE561
:1006600097E02DE133EF41E050E00E94BD034901E6
:100670005A019B01AC01A7EAB1E40E94DC036B01C3
:100680007C01ACEEB4EFA50194010E94EA03C60E12
:10069000D71EE81EF91EF7FE06C081E0C81AD10871
:1006A000E10880E8F80AC882D982EA82FB82C701A1
:1006B000B6019F77DF91CF91FF90EF90DF90CF90C1
:1006C000BF90AF909F908F9008958F929F92AF921E
:1006D000BF92CF92DF92EF92FF92609105017091ED
:1006E000060180910701909108016115710581054E
:1006F000910521F464E279ED8BE597E02DE133EF8C
:1007000041E050E00E94BD0349015A019B01AC0148
:10071000A7EAB1E40E94DC036B017C01ACEEB4EF0C
:10072000A50194010E94EA03C60ED71EE81EF91E19
:10073000F7FE06C081E0C81AD108E10880E8F80A8F
:10074000C0920501D0920601E0920701F0920801E3
:10075000C701B6019F77FF90EF90DF90CF90BF90D9
:10076000AF909F908F90089560930501709306015C
:1007700080930701909308010895052E97FB1EF4BE
:1007800000940E94D40357FD07D00E94EF0307FC9A
:1007900003D04EF40C94D403509540953095219598
:1007A0003F4F4F4F5F4F089590958095709561959D
:1007B0007F4F8F4F9F4F08950E941104A59F900D6A
:1007C000B49F900DA49F800D911D11240895B7FF33
:1007D0000C94DC030E94DC03821B930B0895A1E2BE
:1007E0001A2EAA1BBB1BFD010DC0AA1FBB1FEE1FAB
:1007F000FF1FA217B307E407F50720F0A21BB30BF6
:10080000E40BF50B661F771F881F991F1A9469F771
:1008100060957095809590959B01AC01BD01CF01CD
:100820000895A29FB001B39FC001A39F700D811DC9
:100830001124911DB29F700D811D1124911D0895E9
:04084000F894FFCF5A
:0A08440001010000000100000000A7
:00000001FF
