:100000000C9464000C9481000C9481000C94810089
:100010000C9481000C9481000C9481000C9481005C
:100020000C9481000C9481000C9481000C94EB00E2
:100030000C9481000C9481000C9481000C9481003C
:100040000C94A5000C9481000C9481000C94810008
:100050000C9481000C9481000C9481000C9481001C
:100060000C9481000C9481000C9400000C9400000E
:100070000C9400000C9400000000000025002800F3
:100080002B002E0000000000240027002A002D0075
:10009000040404040404040402020202020203032E
:1000A000030303030505050505050503010204080F
:1000B00010204080010204081020010204081020D2
:1000C000020801041040204011241FBECFEFD8E0E9
:1000D000DEBFCDBF12E0A0E0B1E0E6E0F9E002C093
:1000E00005900D92AA38B107D9F724E0AAE8B2E04A
:1000F00001C01D92A838B207E1F70E949A010C9442
:1001000081040C9400003FB7F8948091840490918E
:100110008504A0918604B091870426B5A89B05C0EC
:100120002F3F19F00196A11DB11D3FBFBA2FA92F76
:10013000982F8827BC01CD01620F711D811D911D73
:10014000660F771F881F991F08951F920F920FB691
:100150000F9211242F933F938F939F93AF93BF934D
:100160008091800490918104A0918204B0918304D5
:1001700030917F0420E4230F2D3728F023EC230F48
:100180000196A11DB11D20937F048093800490935C
:100190008104A0938204B09383048091840490919D
:1001A0008504A0918604B09187040196A11DB11D1C
:1001B0008093840490938504A0938604B09387046D
:1001C000BF91AF919F918F913F912F910F900FBE53
:1001D0000F901F9018951F920F920FB60F92112437
:1001E0002F933F934F935F936F937F938F939F933F
:1001F000EF93FF934091F8022091F1023091F202C7
:100200002F5F3F4F3093F2022093F1028091FB0267
:100210009091FC028217930724F41092F20210923C
:10022000F1022091F1023091F2028217930721F43A
:100230001092F0021092EF0226573D4FF9014083D1
:100240002091EF023091F0022F5F3F4F821793070A
:100250000CF465C03093F0022093EF022091EF027E
:100260003091F0024091FA0241115EC026573D4F95
:10027000F9018081082E000C990B8093A1008091D8
:10028000F802E091F70291E09E0F9093F702F0E000
:10029000E150FD4F8195808380910101981710F006
:1002A0001092F702E091F702F0E0E150FD4F20815B
:1002B00030E04091F5025091F602BA010090FD0243
:1002C00002C0759567950A94E2F77093F9026093FE
:1002D000F8028091F3029091F40295958795F901C7
:1002E000F595E7958E0F9F1F461B570B840F951FA3
:1002F0009093F6028093F5023093F4022093F30278
:10030000FF91EF919F918F917F916F915F914F91AD
:100310003F912F910F900FBE0F901F901895109244
:10032000F0021092EF029ACF821B930BFC01E6576A
:10033000FD4F9FCF8091F20080618EBB80E880935B
:10034000F2009EB39093F2008093610091E090934D
:1003500061009091F2009F799EBB8093F2009EB362
:100360009093F2009091F2009B7F9EBB8093F200ED
:100370009EB39093F2008093610010926100789494
:1003800084B5826084BD84B5816084BD85B582609A
:1003900085BD85B5816085BD80916E00816080934B
:1003A0006E001092810080918100826080938100B4
:1003B00080918100816080938100809180008160C4
:1003C000809380008091B10084608093B10080911F
:1003D000B00081608093B000809191008260809332
:1003E00091008091910081608093910080919000B4
:1003F00081608093900080917A00846080937A007D
:1004000080917A008D7F80937A0080917A008E7F30
:1004100080937A0080917A00806880937A001092AD
:10042000C100E9EBF0E02491EDE9F0E0849188234C
:1004300099F090E0880F991FFC01EC57FF4FA591B0
:10044000B491FC01E858FF4F859194918FB7F894CF
:10045000EC91E22BEC938FBF81E0809300018091BF
:10046000AD008F7B8093AD00809100018111C2C0EF
:100470008091A0008C7081608093A0008091F0003A
:1004800081FF0AC08091F0008D7F8EBB80E8809351
:10049000F0008EB38093F000809100018295880F68
:1004A000880F807C80937C00E0EBF0E0E491E4E94D
:1004B000F0E084919091A0009C609093A00088232C
:1004C00069F090E0880F991FFC01EC57FF4F2591D0
:1004D0003491FC01E858FF4F85919491F8948091F4
:1004E0008100877E886080938100809180008C7F6E
:1004F0008093800080918100887F8160809381005B
:100500008BEA95E0909389008093880080916F003A
:10051000826080936F00789490E2392E0AE812E0AE
:1005200023E6422E512C612C712CC0E0D0E085B125
:10053000832585B9EAE0F1E0AFEFB2E081918D93D8
:100540000E171F07D9F70E94C60320E731E040E0ED
:1005500050E00E941E04605F7F4F8F4F9F4F60935B
:1005600001010E94C60324E030E040E050E00E9418
:100570001E047093FE026093FD020E94C603A30155
:1005800092010E941E046F5F7F4F8F4F9F4F7093A9
:10059000FC026093FB020E946A0381708093FA025E
:1005A0000E9483004B015C0186EAC82ED12CE12C0D
:1005B000F12C0E948300681979098A099B09683E19
:1005C000734081059105A8F321E0C21AD108E10822
:1005D000F10888EE880E83E0981EA11CB11CC1149E
:1005E000D104E104F10429F7209709F4A0CF0E9477
:1005F00000009DCF813031F48091A0008C708093F9
:10060000A0004ACF8091A0008C7082608093A000EF
:1006100080910001823029F48091CE008093C8003F
:100620003BCF843041F48091AD0080648093AD0075
:100630008091CC00F3CF8091CD00F0CF8F929F922C
:10064000AF92BF92CF92DF92EF92FF92CF93DF9360
:10065000EC01688179818A819B8161157105810531
:10066000910521F464E279ED8BE597E02DE133EF1C
:1006700041E050E00E941E0449015A019B01AC0177
:10068000A7EAB1E40E943D046B017C01ACEEB4EF3B
:10069000A50194010E944B04DC01CB018C0D9D1D32
:1006A000AE1DBF1DB7FF03C00197A109B0488883E5
:1006B0009983AA83BB839F77DF91CF91FF90EF90BF
:1006C000DF90CF90BF90AF909F908F9008950E9441
:1006D0001E03089582E091E00E941E030895B0E099
:1006E000A0E08093020190930301A0930401B093D2
:1006F000050108958F929F92AF92BF92CF92DF92A1
:10070000EF92FF92CF93DF93EC01688179818A8128
:100710009B81611571058105910521F464E279EDF4
:100720008BE597E02DE133EF41E050E00E941E049D
:1007300049015A019B01AC01A7EAB1E40E943D04C2
:100740006B017C01ACEEB4EFA50194010E944B0457
:10075000C60ED71EE81EF91EF7FE06C081E0C81AB5
:10076000D108E10880E8F80AC882D982EA82FB82CF
:10077000C701B6019F77DF91CF91FF90EF90DF9097
:10078000CF90BF90AF909F908F9008958F929F923F
:10079000AF92BF92CF92DF92EF92FF9260910601EB
:1007A000709107018091080190910901611571050F
:1007B0008105910521F464E279ED8BE597E02DE167
:1007C00033EF41E050E00E941E0449015A019B01B1
:1007D000AC01A7EAB1E40E943D046B017C01ACEEE0
:1007E000B4EFA50194010E944B04C60ED71EE81E6B
:1007F000F91EF7FE06C081E0C81AD108E10880E8BA
:10080000F80AC0920601D0920701E0920801F09226
:100810000901C701B6019F77FF90EF90DF90CF905D
:10082000BF90AF909F908F90089560930601709352
:10083000070180930801909309010895052E97FB05
:100840001EF400940E94350457FD07D00E94500406
:1008500007FC03D04EF40C94350450954095309528
:1008600021953F4F4F4F5F4F08959095809570951C
:1008700061957F4F8F4F9F4F08950E947204A59FEF
:10088000900DB49F900DA49F800D911D112408958B
:10089000B7FF0C943D040E943D04821B930B089506
:1008A000A1E21A2EAA1BBB1BFD010DC0AA1FBB1F74
:1008B000EE1FFF1FA217B307E407F50720F0A21BE6
:1008C000B30BE40BF50B661F771F881F991F1A9453
:1008D00069F760957095809590959B01AC01BD017D
:1008E000CF010895A29FB001B39FC001A39F700DD7
:1008F000811D1124911DB29F700D811D1124911D28
:060900000895F894FFCFFA
:100906000180010000000100000020409C084024F6
:10091600008001E01981C81861F86487086067994A
:100926009E739849F2642702601F8799F2787FFECA
:100936004FC3E04F939CF33843F0E40F00E004E02C
:100946004984C84864F924930920739C9F33C84C92
:10095600F32433032010E10990C90870FC24C30C6A
:100966002040E409C0CC08403C02400C002000486E
:1009760001E010806604E07204081861261F8438BE
:100986006484C87084021819219E64266793E73927
:10099600039849249F24326424C2702400980720B7
:1009A6007E1C21E6739F2702787C9FFF0FE4F33FAE
:1009B6000F00F813213E4C24E733CF33033843248A
:1009C6003F0C30E40CC0F00C0038010804E0408114
:1009D6002610E13210084864264F90392490C93019
:1009E6009002481C21CE702727C3F33C03C84C2431
:1009F600CF30332430C3303000C8040810E10084FF
:100A06002640E43240090870270FC03C24C0CC3091
:100A1600C00308100840E400902700F033000C08DB
:100A2600400900F000C02400300300000008001850
:100A36000018012000601E0048042000606601E0E6
:100A46004E00481C8042040800186181984980784D
:100A56007E04E10E00486481C84C80421C2040841C
:100A66000200066061864860667984990980799EED
:100A76001F93E04E738439038012612192492072DC
:0A0A86007C84C90C80426421C24C3C
:00000001FF
