:100000000C9464000C9481000C9481000C94810089
:100010000C9481000C9481000C9481000C9481005C
:100020000C9481000C9481000C9481000C94C90004
:100030000C9481000C9481000C9481000C9481003C
:100040000C9483000C9481000C9481000C9481002A
:100050000C9481000C9481000C9481000C9481001C
:100060000C9481000C9481000C9400000C9400000E
:100070000C9400000C9400000000000025002800F3
:100080002B002E0000000000240027002A002D0075
:10009000040404040404040402020202020203032E
:1000A000030303030505050505050503010204080F
:1000B00010204080010204081020010204081020D2
:1000C000020801041040204011241FBECFEFD8E0E9
:1000D000DEBFCDBF11E0A0E0B1E0E2E9F8E002C090
:1000E00005900D92A630B107D9F721E0A6E0B1E066
:1000F00001C01D92AF30B207E1F70E94C7010C9416
:1001000047040C9400001F920F920FB60F92112417
:100110002F933F938F939F93AF93BF9380910B0146
:1001200090910C01A0910D01B0910E0130910A0146
:1001300020E4230F2D3728F023EC230F0196A11D77
:10014000B11D20930A0180930B0190930C01A093A1
:100150000D01B0930E018091060190910701A091CD
:100160000801B09109010196A11DB11D80930601FE
:1001700090930701A0930801B0930901BF91AF913B
:100180009F918F913F912F910F900FBE0F901F90D5
:1001900018951F920F920FB60F9211244F925F92F3
:1001A0006F927F928F929F92AF92BF92CF92DF9287
:1001B000EF92FF922F933F934F935F936F937F93B1
:1001C0008F939F93AF93BF93EF93FF938090000122
:1001D00090900101A0900201B0900301A50194014B
:1001E000C501B4010E94B6036B017C012BEA3AEA17
:1001F0004AE25EE3C501B4010E94B603A70196017D
:100200000E94B6032B013C01AC019B01C501B40166
:100210000E94C4024B015C012DEC3CEC4CE45DE31C
:10022000C301B2010E94B6039B01AC01C701B60134
:100230000E94B6032B013C01AC019B01C501B40136
:100240000E94C5024B015C0121E33CE043EC5CE30E
:10025000C301B2010E94B6039B01AC01C701B60104
:100260000E94B6032B013C01AC019B01C501B40106
:100270000E94C4024B015C0129E33EE843E65CE3D3
:10028000C301B2010E94B6039B01AC01C701B601D4
:100290000E94B6032B013C01AC019B01C501B401D6
:1002A0000E94C5024B015C0129E032EF44E15CE3AE
:1002B000C301B2010E94B6039B01AC01C701B601A4
:1002C0000E94B6039B01AC01C501B4010E94C402A7
:1002D00020E030E04EEF52E40E94B60320E030E030
:1002E00040E053E40E94C5020E9431036093A100E4
:1002F0002BED3FE049E450E4609100017091010171
:1003000080910201909103010E94B103181664F4D8
:100310008BED9FE0A9E4B0EC809300019093010184
:10032000A0930201B09303012DEC3CEC4CEC5DE397
:10033000609100017091010180910201909103018F
:100340000E94C50260930001709301018093020135
:1003500090930301FF91EF91BF91AF919F918F9186
:100360007F916F915F914F913F912F91FF90EF900F
:10037000DF90CF90BF90AF909F908F907F906F90C5
:100380005F904F900F900FBE0F901F901895809127
:10039000F20080618EBB80E88093F2009EB3909360
:1003A000F2008093610021E0209361009091F200BF
:1003B0009F799EBB8093F2009EB39093F200909140
:1003C000F2009B7F9EBB8093F2009EB39093F2005D
:1003D0008093610010926100789494B5926094BD0E
:1003E00094B5916094BD95B5926095BD95B59160B9
:1003F00095BD90916E00916090936E001092810077
:100400009091810092609093810090918100916021
:1004100090938100909180009160909380009091E2
:10042000B10094609093B1009091B000916090936E
:10043000B000909191009260909391009091910002
:1004400091609093910090919000916090939000B2
:1004500090917A00946090937A0090917A009D7FB9
:1004600090937A0090917A009E7F90937A00909179
:100470007A00906890937A001092C1002093040152
:100480009091AD009F7B9093AD00909104019111EC
:100490005AC09091A0009C7091609093A0009091A0
:1004A000F00091FF09C09091F0009D7F9EBB80936A
:1004B000F0008EB38093F000809104018295880F44
:1004C000880F807C80937C00E0EBF0E0E491E4E92D
:1004D000F0E084919091A0009C609093A00088230C
:1004E00069F090E0880F991FFC01EC57FF4F2591B0
:1004F0003491FC01E858FF4F85919491F8948091D4
:100500008100877E886080938100809180008C7F4D
:100510008093800080918100887F8160809381003A
:1005200085ED92E0909389008093880080916F0020
:10053000826080936F007894C0E0D0E02097F1F360
:100540000E940000FBCF8091A0008C70913019F4C4
:100550008093A000B1CF82608093A00080910401BD
:10056000823029F48091CE008093C800A5CF8430DA
:1005700041F48091AD0080648093AD008091CC0007
:10058000F3CF8091CD00F0CF5058BB27AA270E940F
:10059000DC020C9477030E94690338F00E94700318
:1005A00020F039F49F3F19F426F40C9466030EF4FE
:1005B000E095E7FB0C946003E92F0E94880358F351
:1005C000BA17620773078407950720F079F4A6F538
:1005D0000C94AA030EF4E0950B2EBA2FA02D0B015C
:1005E000B90190010C01CA01A0011124FF27591B78
:1005F00099F0593F50F4503E68F11A16F040A22F7E
:10060000232F342F4427585FF3CF469537952795EE
:10061000A795F0405395C9F77EF41F16BA0B620BED
:10062000730B840BBAF09150A1F0FF0FBB1F661F34
:10063000771F881FC2F70EC0BA0F621F731F841F77
:1006400048F4879577956795B795F7959E3F08F09D
:10065000B0CF9395880F08F09927EE0F979587955F
:1006600008950E94900388F09F5798F0B92F99271A
:10067000B751B0F0E1F0660F771F881F991F1AF08D
:10068000BA95C9F714C0B13091F00E94AA03B1E045
:1006900008950C94AA03672F782F8827B85F39F044
:1006A000B93FCCF3869577956795B395D9F73EF426
:1006B00090958095709561957F4F8F4F9F4F0895CE
:1006C00097F99F6780E870E060E008959FEF80EC05
:1006D000089500240A9416161706180609060895A8
:1006E00000240A9412161306140605060895092E0E
:1006F0000394000C11F4882352F0BB0F40F4BF2B7D
:1007000011F460FF04C06F5F7F4F8F4F9F4F0895BC
:1007100057FD9058440F551F59F05F3F71F04795B2
:10072000880F97FB991F61F09F3F79F08795089597
:10073000121613061406551FF2CF4695F1DF08C0B6
:10074000161617061806991FF1CF869571056105D3
:1007500008940895E894BB2766277727CB0197F97B
:1007600008950E94230408F48FEF08950E94C9039E
:100770000C9477030E94690338F00E94700320F004
:10078000952311F00C9460030C94660311240C94CF
:10079000AB030E94880370F3959FC1F3950F50E05F
:1007A000551F629FF001729FBB27F00DB11D639F23
:1007B000AA27F00DB11DAA1F649F6627B00DA11DC9
:1007C000661F829F2227B00DA11D621F739FB00D6F
:1007D000A11D621F839FA00D611D221F749F3327DF
:1007E000A00D611D231F849F600D211D822F762F78
:1007F0006A2F11249F5750409AF0F1F088234AF055
:10080000EE0FFF1FBB1F661F771F881F91505040C0
:10081000A9F79E3F510580F00C9460030C94AB0344
:100820005F3FE4F3983ED4F3869577956795B79547
:10083000F795E7959F5FC1F7FE2B880F911D969561
:10084000879597F90895990F0008550FAA0BE0E8CE
:10085000FEEF16161706E807F907C0F01216130682
:10086000E407F50798F0621B730B840B950B39F4C2
:100870000A2661F0232B242B252B21F408950A2628
:1008800009F4A140A6958FEF811D811D0895F8946C
:02089000FFCF98
:06089200DB0F49C001006C
:00000001FF
