:100000000C9429040C9451040C9451040C94510444
:100010000C9451040C9451040C9451040C9451040C
:100020000C9451040C9451040C9451040C94080544
:100030000C9451040C9451040C9451040C945104EC
:100040000C94C2040C9451040C9451040C9451046B
:100050000C9451040C9451040C9451040C945104CC
:100060000C9451040C9451040C9400000C94000066
:100070000C9400000C9400000000000025002800F3
:100080002B002E0000000000240027002A002D0075
:10009000040404040404040402020202020203032E
:1000A000030303030505050505050503010204080F
:1000B00010204080010204081020010204081020D2
:1000C0000208010410402040000306090C0F12151D
:1000D000181B1E2124272A2D303336393B3E41433D
:1000E00046494B4E50525557595B5E606264666795
:1000F000696B6C6E7071727475767778797A7B7BC8
:100100007C7D7D7E7E7E7E7E7F7E7E7E7E7E7D7D14
:100110007C7B7B7A7978777675747271706E6C6B94
:100120006967666462605E5B59575552504E4B4931
:100130004643413E3B393633302D2A2724211E1BAE
:100140001815120F0C09060300FDFAF7F4F1EEEB97
:10015000E8E5E2DFDCD9D6D3D0CDCAC7C5C2BFBD82
:10016000BAB7B5B2B0AEABA9A7A5A2A09E9C9A990A
:1001700097959492908F8E8C8B8A898887868585B7
:10018000848383828282828281828282828283834A
:10019000848585868788898A8B8C8E8F90929495AA
:1001A00097999A9C9EA0A2A5A7A9ABAEB0B2B5B7ED
:1001B000BABDBFC2C5C7CACDD0D3D6D9DCDFE2E550
:1001C000E8EBEEF1F4F7FAFCC2B8A49E629960A7DE
:1001D000E3C962F88A0D0BFF4CF88C3321ABD5F0E4
:1001E0008ED1C18F6DD981C50076463E3655337AA2
:1001F0003C1E82E747AEF540A1927F25F2C733FC53
:10020000D1B06E078B5941C632EB218FEA6FD26CA9
:1002100070C79135EBEA81EEF75F5863EFFD4A0254
:100220007BE135F95BB00F90720E8DC9165F153505
:1002300097BDE7190D3A87C267576D26B1C4F0BC68
:10024000A55A709D7657C3DCD8D9E222539CD58E2F
:10025000CAF8DCCC4716DF74097218A5D096FEE107
:100260006715752C73C535617C4278D439A0E82EAA
:10027000206FC8852EF561BAF4A7AF18E3E94D2ABF
:10028000D8089EDDEB743DD77442A8165FE128CDF7
:10029000B21C037C5C51E54E41F08CB78237B44E02
:1002A000112B42E875DAB4F6DBD1C8215ED86B2495
:1002B00098F5E5E969A044E7074306BB46F60A0559
:1002C0002A78B986AA717077807F7E7D7C7B7A7967
:1002D0007877767574737271706F6E6D6C6B6A6916
:1002E0006867666564636261605F5E5D5C5B5A5906
:1002F0005857565554535251504F4E4D4C4B4A49F6
:100300004847464544434241403F3E3D3C3B3A39E5
:100310003837363534333231302F2E2D2C2B2A29D5
:100320002827262524232221201F1E1D1C1B1A19C5
:100330001817161514131211100F0E0D0C0B0A09B5
:1003400008070605040302010000FFFEFDFCFBFA9E
:10035000F9F8F7F6F5F4F3F2F1F0EFEEEDECEBEA85
:10036000E9E8E7E6E5E4E3E2E1E0DFDEDDDCDBDA75
:10037000D9D8D7D6D5D4D3D2D1D0CFCECDCCCBCA65
:10038000C9C8C7C6C5C4C3C2C1C0BFBEBDBCBBBA55
:10039000B9B8B7B6B5B4B3B2B1B0AFAEADACABAA45
:1003A000A9A8A7A6A5A4A3A2A1A09F9E9D9C9B9A35
:1003B000999897969594939291908F8E8D8C8B8A25
:1003C00089888786858483810001030507090B0DD1
:1003D0000F11131517191B1D1F21232527292B2D3D
:1003E0002F31333537393B3D3F41434547494B4D2D
:1003F0004F51535557595B5D5F61636567696B6D1D
:100400006F71737577797B7D7F7D7B79777573717C
:100410006F6D6B69676563615F5D5B5957555351DC
:100420004F4D4B49474543413F3D3B3937353331CC
:100430002F2D2B29272523211F1D1B1917151311BC
:100440000F0D0B090705030100FFFDFBF9F7F5F39D
:10045000F1EFEDEBE9E7E5E3E1DFDDDBD9D7D5D37C
:10046000D1CFCDCBC9C7C5C3C1BFBDBBB9B7B5B36C
:10047000B1AFADABA9A7A5A3A19F9D9B999795935C
:10048000918F8D8B8987858381838587898B8D8FDC
:1004900091939597999B9D9FA1A3A5A7A9ABADAF5C
:1004A000B1B3B5B7B9BBBDBFC1C3C5C7C9CBCDCF4C
:1004B000D1D3D5D7D9DBDDDFE1E3E5E7E9EBEDEF3C
:1004C000F1F3F5F7F9FBFDFE1A001C001E001F00FA
:1004D00021002300250028002A002D002F003200D3
:1004E000350038003C003F00430047004B005000FF
:1004F00055005A005F0065006B00710078007F00B6
:1005000087008F009700A000AA00B400BE00CA00B8
:10051000D600E300F000FE000E011E012F01410194
:10052000540168017D019401AC01C601E101FD01A6
:100530001C023C025E028202A802D002FB022903D6
:1005400059038C03C203FB0338047804BC0404057C
:100550005005A105F7055206B20618078407F607ED
:100560007008F0087809080AA10A430BEF0BA40CE5
:10057000650D310E090FED0FE010E111F1121114AC
:1005800043158716DE174919CA1A621C121EDB1F93
:10059000C021C223E3252328862A0E2DBC2F9232A8
:1005A0009435C438243CB73F81438547C64B4750F8
:1005B0000D551C5A785F2565296B887148786F7FC7
:1005C00003870A8F8C978FA0FFFEFEFEFDFDFDFCCA
:1005D000FCFCFBFBFBFAFAFAF9F9F7F4F2F0EDEBAD
:1005E000E9E6DBC8B4A08D7966523E3A35312D2854
:1005F000241F1B1918181717161615151414131382
:10060000131212111110100F0F0E0E0D0D0C0C0BFA
:100610000B0A0A0A0909080808070706060606065B
:100620000505050505050505050404040404040382
:1006300003030202020101010101000000000000A9
:100640000000000000000000000000FFF2E5D8CC30
:10065000BFB2A5998E867D756C645B534A47444151
:100660003E3B383532302E2C2A28262422201F1ECD
:100670001D1C1C1B1A1919181817171616151514F6
:10068000141313131212111110100F0F0E0E0D0D63
:100690000C0C0B0B0A0A0A090908080807070606CA
:1006A00006060605050505050505050504040404FB
:1006B000040403030302020201010101010000001E
:1006C0000000000000000000000000000000FFFE2D
:1006D000FEFEFDFDFDFCFCFBFBFAF9F8F8F7F6F574
:1006E000F1EDE8E4DFDBD7D2CDC8C3BDB8B3ADA828
:1006F000A39D97918B857F79736E6965605B565278
:100700004D4845413E3A36332F2C292624211F1CC3
:100710001A17141312110F0E0D0C0A0909090808F3
:100720000707060606060505050505050505050472
:100730000404040404030303020202010101010191
:1007400000000000000000000000000000000000A9
:10075000710340031103E502BB0294026F024C02D5
:100760002B020C02EE01D301B801A0018801720135
:100770005D014A013701260115010601F700E90074
:10078000DC00D000C400B900AE00A5009B009300BF
:100790008A0083007B0074006E00680062005C00C9
:1007A000570052004D004900450041003D003A000D
:1007B0003700340031002E002B00290026002400D1
:1007C000220020001E001D001B001A001800170048
:1007D0001500140013001200110010000F000E008D
:1007E0000D000D000C000B000A000A0009000900B2
:1007F00008000800070007000600060006000500C4
:1008000005000500040004000400040003000300C8
:1008100003000300030002000200020002000200C5
:1008200002000200010001000100010001000100BE
:1008300001000100010001000100010000000000B2
:1008400000000000000000000000000000000000A8
:10085000C60811241FBECFEFD8E0DEBFCDBF11E028
:10086000A0E0B1E0E6E8F3E102C005900D92A2330A
:10087000B107D9F721E0A2E3B1E001C01D92A13692
:10088000B207E1F714E0C9E2D4E004C02197FE0109
:100890000E94BB09C832D107C9F70E94AD060C946B
:1008A000C1090C9400003FB7F89480915D019091CC
:1008B0005E01A0915F01B091600126B5A89B05C0C3
:1008C0002F3F19F00196A11DB11D3FBFBA2FA92FCF
:1008D000982F8827BC01CD01620F711D811D911DCC
:1008E000660F771F881F991F0895CF93DF9390E0BD
:1008F000E62FF0E0EE0FFF1FE853FB4F25913491F8
:10090000880F991FFC01EA5EFE4F31832083EC01C2
:10091000C35FDE4F19821882A081B181608171812D
:10092000488159818A5D9E4FFC01C081D181E0914F
:100930000C01F0E086E0769567958A95E1F796E000
:10094000569547959A95E1F7649F9001659F300D04
:10095000749F300D1124220F232F221F330B31954A
:100960002C9FC0012D9F900D3C9F900D11248A0F4C
:100970009B1FEE0FFF1FEC5FFE4F91838083DF9183
:10098000CF9108951F920F920FB60F9211242F93BB
:100990003F938F939F93AF93BF9380915901909111
:1009A0005A01A0915B01B0915C013091580120E4A3
:1009B000230F2D3728F023EC230F0196A11DB11D25
:1009C000209358018093590190935A01A0935B01A1
:1009D000B0935C0180915D0190915E01A0915F01F7
:1009E000B09160010196A11DB11D80935D019093AE
:1009F0005E01A0935F01B0936001BF91AF919F91A1
:100A00008F913F912F910F900FBE0F901F901895CF
:100A10001F920F920FB60F921124CF92DF92EF9296
:100A2000FF920F931F932F933F934F935F936F9377
:100A30007F938F939F93AF93BF93CF93DF93EF9366
:100A4000FF9380910C018F5F80930C0180910C01CA
:100A5000837080930C01811103C081E080933D017C
:100A6000E0910C01F0E0EE0FFF1FE35FFE4F81818C
:100A700087FD6CC180910C01E0910C01F0E0EE0F5C
:100A8000FF1FE25BFE4F20813181A0910C01B0E09D
:100A9000AA0FBB1FA25EBE4F6D917C91A0910C016D
:100AA000B0E0AA0FBB1FA35FBE4F4D915C911197A1
:100AB000460F571F11965C934E931196EC91E20FDF
:100AC000F32FF11DE491A82FB0E0A050BF4FEC939D
:100AD000E0914601F0914701209104013091050118
:100AE0008091350190913601820F931F90933601CA
:100AF00080933501C0903601EC0DF11DC4905091EA
:100B00000001E0914801F0914901209106013091E6
:100B100007018091370190913801820F931F9093C4
:100B200038018093370190913801E90FF11D9491BC
:100B300040910101E0914A01F0914B01609108015F
:100B4000709109012091390130913A01260F371F28
:100B500030933A012093390170913A01E70FF11D6A
:100B600074916091020120914C0130914D01E0910E
:100B70000A01F0910B01A0913B01B0913C01AE0F35
:100B8000BF1FB0933C01A0933B01E0913C01E20FF9
:100B9000F32FF11D3491E0910301F0913F01C091D9
:100BA0004201D091430100914401109145012C2D47
:100BB000250360011124CD2CDD0CDD08292F240331
:100BC000A0011124452F550F550BC40ED51E7603D9
:100BD000C0011124892F990F990BC80ED91E4E2FD1
:100BE000340390011124232F330F330BC20ED31E75
:100BF000D594C794D594C794CC1ADD0A0D2C000C5B
:100C0000EE08FF08DE01A01BB10B209140013091DE
:100C100041010E94A009272F382F492F552747FD52
:100C20005A952C0D3D1D4E1D5F1DAF2FB0E00E944B
:100C30004809672F782F892F992787FD9A95C60F26
:100C4000D71FD0934301C0934201C01BD10BFC9F1F
:100C5000C001FD9F900D1124892F990F990B080F4A
:100C6000191F109345010093440101580093A100FE
:100C7000E0910C01F0E0EE0FFF1FEA5EFE4F808175
:100C80009181E0910C01F0E0EE0FFF1FEA5EFE4F54
:100C900060817181E0910C01F0E0EE0FFF1FE35FD6
:100CA000FE4F20813181E0910C01F0E0EE0FFF1F3B
:100CB000EA5DFE4FA081B181E0910C01F0E046E0D9
:100CC000769567954A95E1F756E0369527955A95BA
:100CD000E1F7629FA001639F500D729F500D112498
:100CE000440F452F441F550B51954A9F90014B9F30
:100CF000300D5A9F300D1124820F931FEE0FFF1FEE
:100D0000EC5FFE4F91838083809133019091340199
:100D100001969093340180933301FF91EF91DF911D
:100D2000CF91BF91AF919F918F917F916F915F9183
:100D30004F913F912F911F910F91FF90EF90DF9076
:100D4000CF900F900FBE0F901F901895E0910C015F
:100D5000F0E0E050FF4F1082BBCE8091F200806146
:100D60008EBB80E88093F2009EB39093F200809354
:100D7000610091E0909361009091F2009F799EBB99
:100D80008093F2009EB39093F2009091F2009B7FCB
:100D90009EBB8093F2009EB39093F200809361001B
:100DA00010926100789484B5826084BD84B58160BE
:100DB00084BD85B5826085BD85B5816085BD809126
:100DC0006E00816080936E0010928100809181009E
:100DD0008260809381008091810081608093810096
:100DE000809180008160809380008091B100846058
:100DF0008093B1008091B00081608093B0008091B9
:100E00009100826080939100809191008160809335
:100E100091008091900081608093900080917A0091
:100E2000846080937A0080917A008D7F80937A002D
:100E300080917A008E7F80937A0080917A0080681A
:100E400080937A001092C100E9EBF0E02491EDE983
:100E5000F0E08491882399F090E0880F991FFC01BD
:100E6000EC57FF4FA591B491FC01E858FF4F8591D5
:100E700094918FB7F894EC91E22BEC938FBF81E0C3
:100E8000809315018091AD008F7B8093AD008091A0
:100E90001501811157C18091A0008C7081608093F1
:100EA000A0008091F00081FF0AC08091F0008D7F4A
:100EB0008EBB80E88093F0008EB38093F000809129
:100EC00015018295880F880F807C80937C00E0EB71
:100ED000F0E0E491E4E9F0E084919091A0009C605E
:100EE0009093A000882369F090E0880F991FFC017F
:100EF000EC57FF4F25913491FC01E858FF4F859145
:100F00009491F89480918100877E8860809381001D
:100F1000809180008C7F8093800080918100887F09
:100F200081608093810080E496E0909389008093B3
:100F3000880080916F00826080936F00789488ECC5
:100F400090E0909347018093460180E495E0FC0196
:100F50002591349130931701209316012EEC36E041
:100F600030934F0120934E01E0E4F8E04591549115
:100F700050931F0140931E0140EE5FEF50932701F5
:100F80004093260148EC52E05093490140934801B8
:100F9000FC014591549150931901409318013093ED
:100FA000510120935001E8ECF7E025913491309302
:100FB000210120932001109229011092280128EC90
:100FC00031E030934B0120934A01FC01259134918B
:100FD00030931B0120931A012BE436E03093530128
:100FE00020935201E0EFF7E02591349130932301F3
:100FF0002093220110922B0110922A0128EC33E059
:1010000030934D0120934C01FC0185919491909374
:101010001D0180931C0188EC95E09093550180930D
:101020005401E8E1F8E08591949190932501809333
:1010300024018CEF9FEF90932D0180932C01E09180
:101040005601F091570110828FEF81831382128233
:1010500050E2352EC8E1D0E004E210E06CE8862EC4
:10106000912C70E0A72E70E0B72E85B1832585B94D
:101070000E941909BE010E948C0960E2680F80E09D
:101080000E9475040E941909B8010E948C0960E34E
:10109000680F81E00E9475040E941909B8010E943E
:1010A0008C0964E2680F82E00E9475040E941909AD
:1010B000BE010E948C0960E3680F83E00E94750402
:1010C000E0905601F09057010E941909B4010E9466
:1010D0008C098C59F701818320818095829FC00102
:1010E0001124892F9927820F911D938382830E9457
:1010F00053042B013C0146EAC42ED12CE12CF12CE7
:101100000E9453046419750986099709683E734063
:1011100081059105A8F3F1E0CF1AD108E108F108A3
:1011200028EE420E23E0521E611C711CC114D10432
:10113000E104F10429F7A114B10409F496CF0E9447
:10114000000093CF813031F48091A0008C708093A7
:10115000A000B5CE8091A0008C7082608093A0002A
:1011600080911501823029F48091CE008093C800CF
:10117000A6CE843041F48091AD0080648093AD00B0
:101180008091CC00F3CF8091CD00F0CF8EE391E041
:10119000909357018093560108958F929F92AF923A
:1011A000BF92CF92DF92EF92FF92CF93DF93EC0149
:1011B000688179818A819B8161157105810591051D
:1011C00021F464E279ED8BE597E02DE133EF41E026
:1011D00050E00E94290949015A019B01AC01A7EA8C
:1011E000B1E40E9448096B017C01ACEEB4EFA501AB
:1011F00094010E945609DC01CB018C0D9D1DAE1D92
:10120000BF1DB7FF03C00197A109B0488883998328
:10121000AA83BB839F77DF91CF91FF90EF90DF9000
:10122000CF90BF90AF909F908F9008950E94CD086F
:1012300008958EE291E00E94CD080895B0E0A0E00C
:1012400080932E0190932F01A0933001B093310130
:101250000895052E97FB1EF400940E94400957FD47
:1012600007D00E945B0907FC03D04EF40C944009A0
:1012700050954095309521953F4F4F4F5F4F0895C2
:1012800090958095709561957F4F8F4F9F4F0895F2
:101290000E947D09A59F900DB49F900DA49F800D85
:1012A000911D11240895B7FF0C9448090E94480924
:1012B000821B930B0895A1E21A2EAA1BBB1BFD01F2
:1012C0000DC0AA1FBB1FEE1FFF1FA217B307E40725
:1012D000F50720F0A21BB30BE40BF50B661F771F7D
:1012E000881F991F1A9469F760957095809590955D
:1012F0009B01AC01BD01CF010895A29FB001B39F36
:10130000C001A39F700D811D1124911DB29F700D0E
:10131000811D1124911D089597FB072E16F400944A
:1013200007D077FD09D00E94A70907FC05D03EF43D
:10133000909581959F4F0895709561957F4F089581
:101340000E947D09B7FF0895821B930B0895AA1B85
:10135000BB1B51E107C0AA1FBB1FA617B70710F0A0
:10136000A61BB70B881F991F5A95A9F780959095D2
:10137000BC01CD010895EE0FFF1F0590F491E02D03
:061380000994F894FFCF70
:10138600FFFFFFFFE803C8002C0190010400800066
:10139600800080008001F401F401F401F4010A00E8
:1013A6000A000A000A001400000040007F00010045
:0213B600000035
:00000001FF
