:100000000C94AD2F0C94CA2F0C94CA2F0C94CA2FA9
:100010000C94CA2F0C94CA2F0C94CA2F0C94CA2F7C
:100020000C94CA2F0C94CA2F0C94CA2F0C94343001
:100030000C94CA2F0C94CA2F0C94CA2F0C94CA2F5C
:100040000C94EE2F0C94CA2F0C94CA2F0C94CA2F28
:100050000C94CA2F0C94CA2F0C94CA2F0C94CA2F3C
:100060000C94CA2F0C94CA2F0C9400000C9400001E
:100070000C9400000C9400008082828181839FA3F5
:10008000818183797FB2D2B2B1BDA55CABCE8BB892
:100090008D838968845F8C97698F78A26A1665362C
:1000A000031B0A1217363F141C26101D1C2B7067E9
:1000B0006FB9D4B487B4C9A0AAA8BAEEEDEBEFEA41
:1000C000ECEAECEDECE1C4A4A9B2A7A9B1CFEEE94A
:1000D000EBDBB1967C61615A454258776846464BE6
:1000E0004B343B5B4F5B727376615C5F473A2D220A
:1000F0002126282838473D333120212F3E596C7561
:10010000869CACA99C928E959994939FBCD1D5D492
:10011000DDE3E0E1E0DFDFDEDEDEDDDDDDDEE0E4ED
:10012000E3CEA88C83847C655A54463C33231E2638
:100130002F393727232724282C29252726282C2D1B
:100140003644515E64666D7D939D9A9FA6ACB4BBA8
:10015000C0C5C8C9C3B8ADA2959090949DA5A6A7E7
:10016000ABAEB3B3ADA4A0A8B5C3C4C0BBACA29D95
:10017000948D8986878682807A797A746B5B4F4CFE
:10018000443D3A383D413E3833302D2B2A29314108
:10019000505D6D7B858A8C909496A2AFB6C0CDD50C
:1001A000D7D6CEBFB1A69C9897969DA4A6A7AAA77E
:1001B0009E9594938C8684807D7A76706966626160
:1001C000676C717577797C808889827C766F6761CE
:1001D00062686D71767A7872696562574F50545DC6
:1001E00067727F889099A1A09C97908885898F9449
:1001F0009493938F88838180838D98A5ACB1BABA8C
:10020000B2A79D958C85817F7F7E7C7F807D7A766D
:10021000706E6E6F6F72777B7C7B766A605E5C5A05
:100220005D616267696A6C69676968666B70747B37
:1002300083909C9F9F9D9C9C9B9A9794918E8D8A66
:10024000888686868686898988898B8F92949394FE
:100250009594928F88827E7B7A7B7B7C808484815C
:100260007A736E6D70737678797977726B66635F87
:100270005C5B5A5B5E62686C7072757B828A8F927F
:100280009494939293949495979A9D9E9E9E9D9BF1
:10029000958E877F7A7877797B7D8183888A86823D
:1002A0007D76716E6B6A6D72777E828282838283C5
:1002B000858686878685827B7773706F6F70707195
:1002C000737372737372727376797E818284868699
:1002D00085827F7F808285888B8F92979998959170
:1002E0008E8B8783807E80808185888B89878581BE
:1002F0007B736D69696B6F757C82888C8D8C8A8548
:10030000817E7A7978787A7A777572707070707188
:100310007275787A7A79797A79787B7E8183868822
:10032000898988868584828180818385878B8E8F69
:10033000919190908F8C8986858383827F7C797759
:10034000767475787C7F828384858482807E7B78D6
:100350007573717070707071717373706D6B6A6AA0
:100360006B6D71767C83888B8D8D8D8D8C8B8B8D59
:100370008D8F9193949391908D8C8B8A89888685AB
:1003800084838281807F7D7B79767471706F6E6FDC
:100390007276797D7E8081807E7D7B7A78767575B8
:1003A00076797B7D7E80807D7A777472706F7073D2
:1003B000767B8085898C8E8E8E8E8D8D8C8C8B8AB3
:1003C0008B8D8F9192939494928E8A857F7A767397
:1003D000717173757678797977746F6C6A696A6C04
:1003E0006F757A7F84868887878582807D7A797821
:1003F000797B7D80828384848382807D7B7A7A7B13
:100400007D81838485858482818080828487898CB4
:100410008F909191908E8C8A8784817E7C7976747E
:100420007374757677777878787674727070717384
:10043000767A7D8286898B8A8986807C79757474C8
:1004400075787C7F828586868583817F7E7E7E7FB0
:100450008081828283838484858687888888898A4C
:100460008A8A8A898887858382807F7E7D7C7B7A61
:1004700078767472706F6F6F70737576787A7B7C34
:100480007E7F81818182828181807F7E7D7C7D7E75
:100490007F80818182828283838383838383838439
:1004A00085858586858585858687878888888988E6
:1004B00086858382807E7C7A79797877777676767E
:1004C00076747372717273747577797B7E7F8182B3
:1004D00082828181818182828385868889898988D7
:1004E0008784817E7C7A7A7A7B7E80828486868607
:1004F000858482807F7E7F808283858788888887C5
:100500008683807D7A77757473757678797B7B7B4B
:100510007B7A7978777778797B7C7E808283858512
:100520008585858483828181828384868788888784
:100530008684817E7C7B7A79797A7C7E7F818282D7
:100540008281807F7E7E7F8082848688898A898777
:1005500084817D7A777574747577787A7C7E7F7FF5
:100560007E7D7C7B7A7A7A7B7D7E8182848686869C
:10057000868584838282818181828283838484844C
:100580008382807F7D7C7B7B7A7B7B7C7D7E808190
:10059000828383838383838382828383848383822E
:1005A000807F7D7B7A787777777778787879797AB2
:1005B0007A7A7A7B7B7D7E8082848687888888872A
:1005C00087868584838484848585868584838281E7
:1005D000807F7E7E7D7D7C7C7C7C7C7C7C7D7E7F48
:1005E000808080818181818180807F7E7E7D7D7C15
:1005F0007C7C7D7D7D7D7D7C7C7B7A7A7A7A7A7B42
:100600007C7D7E7F808283848586868787878787B7
:100610008787868687878685848381807E7D7C7BAD
:100620007B7B7B7C7D7D7E7E7F7F7F7F7F7E7E7DF3
:100630007D7E7E7F808181818180807E80808080C0
:1006400080808086838081807F8082817E807F849D
:10065000807F807E81827D84807F8088807F757DA1
:100660007E938A7B717473B8718B7F3C9E929A855E
:100670008324A38884DD3272884CA9CB6056C001E4
:10068000D09365B18113B78871CD5A47AD4F8BCDEB
:100690004487916C84885D939080897A6D7F89808E
:1006A000878777827C728C8E6B8B80708D896D973B
:1006B000727D88717D95797E93607F927588926353
:1006C000878070939064937669A27F7A916770981F
:1006D000768D8D667A8B74928671827B7993827B1C
:1006E0007A7C7A9082807C6F8182929784518C6927
:1006F0008DC655797049BBC150A04644D186A18DA5
:100700003B53A089AF9D49697980A499826B5F664C
:1007100092BF7C83663E9B9B979E62558C7E9AA07F
:100720006768777A9999826875728C997F7F786407
:100730008596819378628088888C896A7B7C799B96
:1007400085797D74759585828671748B81848D71B0
:100750007F7786818E777B7B88689E8776953DAE96
:10076000699B948A51749659E8417F795EA1A08A69
:1007700059923CAD9C69B34D79837E88A57759A089
:1007800048A48C779183618E736FB17182787A7689
:100790009C788787588D8B89817E6F80858098753E
:1007A0007A7C7E7E8D7F738D7280818A80807C745E
:1007B0008D7B8A7D78807E86898474817B74967B2C
:1007C0007887816E9B5D94A645A57E5A93927BA601
:1007D00059619F718ABC52628065CA896F66688B55
:1007E000A099618C5F6BB6649E7F608F70907E86EF
:1007F0007E80747B8689887B787B7A907E8F787305
:10080000877D867B7B8785728A7989836F8E7B85DE
:100810008075936F7F8B74927876867C85857C7CDF
:10082000827C837E887E846E92757A9C698F787DC7
:10083000867D80867876877E7D977E787F5E9195AF
:100840008381716688998D8D5F6A8E80997B7966C8
:100850007E809699717D6284868893876879738695
:10086000A1718684558D8F7DA36570847696956D74
:100870007F6E75958A86786D7A848D867E7E728588
:100880007E8689757E7C808C8085787A7C838B835C
:1008900081777B807C8F847D7D717A9D845E9B6374
:1008A00075AD865A976B78AA53988556A8816F972D
:1008B0006872B36178AE507F9C7091816B767F9146
:1008C000A070726E73A48688716192759B8975772A
:1008D0007A6B9295789A5F6E84849C87727079792E
:1008E00093947D7476778395867C767384858D84E6
:1008F0007478788196857D75747B957A907D669203
:1009000071938678788A6A7C917283917781806D01
:100910008499668C8558A29272976458B66E7CB79B
:1009200044898C6D86A7558A885EA7807E768A70FA
:10093000838388847B768680768F7F7C8779738CAF
:100940007C7D966E7E817A8E86758279778B8C7FA0
:100950007C7D6C8D8E7A89786F907B7F8F717A8F9A
:100960006E888B6A9086728C71779B748382758394
:10097000977377737D9C837A6C7B8098818E606C93
:1009800095966F937D5A91799792638E6F6F989336
:100990006C92756B877A8F946E837B5C9E8B828959
:1009A000746197768E9B637C7D749E7F81885B8B60
:1009B000857E9378767C7E878C7B7F7382818D8425
:1009C000807A70808B89877C68888081927084703F
:1009D000808F7D838476729561B6657A79747BA702
:1009E0009C3EB41CC3AE56A24A6F89CD4CBA524C41
:1009F000BE55A7986E677D748AB77474765B85A8B8
:100A00008C78825B7CA8729B80508E877E9A7A61FC
:100A10008C777FA57675826689987E7A87697F92C2
:100A200072928869808273978D698D6B739F7D83C5
:100A30008B657B8D7D8F88717884827E8A75847DBD
:100A40007D7A968080875775AB837B8854839C77AB
:100A5000A67C37A57F7BB27D52786999B57C697C8D
:100A6000518DB97E826755939D99846F5A85957C87
:100A700097766A8D7B7F8D807C886F7C907B848568
:100A8000767B8883818073848084867D7981818868
:100A90007F8373877C828879827E7C85827F83795D
:100AA00082837B897C81728E7C7E877D856C946459
:100AB000978E688D5F878CB05D7C6279B0887D5839
:100AC0007879C3728371627C959C7792587E7D8A17
:100AD0009B757F69966596897C7F758877818D8502
:100AE000806E78838884976D6D8F7D8780797B8712
:100AF0007C90787580887788837885778B837786F4
:100B00007B8283847D817982887390836E82827FE9
:100B10008D757D84708F897C85805D878D829D5DDC
:100B20006F9271A5946259858C9E8975805181AFB1
:100B30007D976A726F78A987827E5F768F869D8B9C
:100B40005E806185AC75927554948B7DA1667483CB
:100B5000699E966E8765749E7F7E866A7989829388
:100B600079777B7D898783787C758A86897B79789C
:100B70008087887B7D7D7C8786807F78818480816B
:100B80008472847F81858B688B7B59BE8168A44188
:100B90007AAE8182943080CB56BD6847889780BA00
:100BA00053629C6183A75D86A16F7B9143A8956E7C
:100BB000848760918D6F937D69997F708C7B7B9B1F
:100BC000786C83738F9080718A668692758A876A43
:100BD0008E8165908B7795766E86798893727C810D
:100BE000768A8E70847F72937B7D7F818B7A84710D
:100BF000708D8E936A6E769A907C88597889AE7FD4
:100C000075785095A378A06358997E80AA6C6C96ED
:100C10005492A06D9C725F8E77929E57897476A0D5
:100C20007F7C836D7C9778877C75838581858174D3
:100C300081867E8980798179838581837781827BB2
:100C4000898276877A7F87807E827A8182807E839E
:100C50007F807C8773829760A3618E7C7B78908392
:100C60006DA962856B8BA070835A807DB678875B97
:100C700065968BA280715B817E9F957E6C68729A6F
:100C8000908B8F645A8D81989B666F7C74A19A6C4F
:100C9000747370A089818166749D7B918364807D6B
:100CA000878F837484737F888F7F7E717585878B30
:100CB000827D707D878D897777758187917E75704C
:100CC0008B858C925F728677B0874C8E668CAC7CFD
:100CD000716C6AA0A172825F62A990898D50709C2C
:100CE0007E908E5B868569988873946E65A27985FF
:100CF0009264847B779E78817F7088897E83787800
:100D000087808883777A847C89837E7E7D788886D5
:100D1000817E797E808A827B7B77818E83807A71E7
:100D200084858B7C806B936A9D85669F4D9B7894B0
:100D30007B92713AD64AC8784B768887B1981B8FD8
:100D40006AAEB96F50756C96CE568358619F9D8C74
:100D5000816E678A81898C856F7A758298886E7BAF
:100D6000737F949370856378A17C8883607E937B86
:100D700097766B8683848D7F6B8578878D80807A6C
:100D8000717E93789278757B7D8B907F727C7D826B
:100D90008D84747F767E947C877D658C788E8D645F
:100DA000879161A18B588F80858E6B8A7F748A8A28
:100DB000767389867B807C8088807F7D798195723F
:100DC000887A6C987B7F915F9489729171768A7C26
:100DD0008985767D807F86867B73847F8290777B12
:100DE0007C798C877B80777D858983807C76858400
:100DF0008288757A817C8A83807C7A8277957689ED
:100E0000777B897F8D73855F977FA772667A72A3E0
:100E1000868E636A7C8BA38374608C7091977E79D5
:100E2000726E8D868D9D6369758D8DA1727A6D61EF
:100E30009B9381836F75858F7C8E736E8783898B7F
:100E40007A73778083938174807483907D8D776DBE
:100E50008482878085777A7C898587797D7C7B8E83
:100E60008485786D8B7F8585797B88807B8F717099
:100E70009A7C7E8171868E876F8E5894918B7D626D
:100E8000738E92868A626C99849679638B798D864B
:100E9000847274947989827D7A8373839074947850
:100EA00063917A849B6B7488708F976D8C7B67914C
:100EB0007F7E9379768771888E7587797588867E2F
:100EC000897080838381897D778078878682748C1E
:100ED00067967988896E8A718C8E649558A2768E11
:100EE0008955996BAD77815E71A3839681587A8B12
:100EF000849E83618A61938A936F8C6A7B97718BDE
:100F00008F667B857A8D86757B80749A8371857AEE
:100F10007699767E8C6B859073887C75868D7A84C5
:100F2000717B8C828287727C848385837D7A837EC9
:100F30008A78837F807F8082807B8B777F85768DA8
:100F4000915E8A8462A78E59A8545BD27273A833CB
:100F500079C64BC48D0AB97D6BDF53669A4A91BA44
:100F6000519C932CAC8569B26D748959989A7B7B9E
:100F70007C6F828D8B777C777E90827F7D75818977
:100F80008380867474897F8A82797C827789848160
:100F90007F7B7A84818A7B7B7E7F7A89857A817C5C
:100FA0007B8B7A8388668A8082917C6197628FAB23
:100FB0004E988060AF7969936F6DB65E6CBA3AA94E
:100FC0009C38AA865CB08543BA6262C75D7B97672E
:100FD00080A8518F9C5095905E978F5F9B7361A9FD
:100FE0007F75926F6993818796627F85798B907602
:100FF000748576878C7B828073808C7787876989FC
:10100000886C9E7C6A916F809D6E818A61938F72DD
:10101000907566997D8F8D5A7B858D92786B7C7CDF
:101020008FA579538972A190787C62838A958970A3
:1010300084668583859374896C7090879C776A7DBC
:1010400072948F8771737A8495807B767786868396
:1010500084797584838A817B7D728688808C707D9B
:101060007A848983817978808387837F7A7983887A
:101070007F86757C7C8881877B758382857D8B6C80
:10108000936E818B787B79977C9175747C83907B50
:101090008E4D9C7C8BA06A70748085AB6D737E676F
:1010A00090958085855A8F78898F8279777D769F14
:1010B00078817575808D907C786F8C73948776833A
:1010C0006D8B8A817C81728385858978787F7E8724
:1010D00087807A777C887F89876A83837C8C8B7210
:1010E000807A7A91817A827A80877D856F91857CFA
:1010F0008A65799A788E855E7A9A75998550967404
:101100007AB265788B668E8B70957872906F7A9ACA
:101110007F84845E8A8485947372837F8D85797CD5
:1011200078828B7B827E7A838281837B7D867A84C0
:10113000867C817E7A85847F8274838480857B7EB1
:101140007C8185867E7B807D838681778877808B96
:10115000728D7A857A7E82798E6E887A838E7C779C
:101160008B6F8C837687749277857783838587638B
:10117000907C8E925E81778991946F73756CB07A52
:101180007C8E56868B8B83915F7E8A6CA18771875C
:10119000726F96847F8972748B82868B717781835C
:1011A0008B88767A7B798C8A83747A768890827D34
:1011B0007B758489827E7E74808B7C8586727C8E32
:1011C00071808F74946E73877E97836E7A78879719
:1011D0008E646B976FA36F867F6A987B8378858414
:1011E000787E8082887D8A687B8E838C7B6A868508
:1011F00083907274837C8F8377827B818A7D8082E7
:101200007F768978818A77857A7A86877F88737DE9
:1012100081818885777F81798C837C8177818386C2
:101220007B817B87708D86759170798A87709F5AD4
:101230007CA9688A885A8F9C609B6F60AB7F827C98
:10124000776BA1728E856C87817889858282806FA9
:1012500086878B8B64777C8F987E716F7F81A67772
:10126000797A648F908982786482898C897D77719C
:10127000828C828E7D6D7E7D8A8C7F757E7A87875B
:101280007C877A768586818879758A798390737769
:10129000916D8890678491609D8753AF6A75A06F48
:1012A000749267909A6387806A9B8A738B6A6F9D3A
:1012B0008978877369987F7F966C778B6F8D8D7037
:1012C000946E759280858772777F86898A73797C20
:1012D0007B8C8C7B7C797B8984877A7C777F8E7E04
:1012E000857B75857E868C777A7D80878A787E7906
:1012F0007B87877E866E858085867B7D768B7B93DC
:101300006D8879807C858A81826C847796787F79F4
:101310007387859B77738464968C7F87716A9092BC
:10132000779261898A728D7B7B7D976690767695C0
:101330007D817D7E6B9B7C7C89718581827C916CBB
:10134000878A70867E7F8287728D787C8E74828594
:101350007C837E7E7B86838082787E87827F847496
:101360007A887E8885717D7F8197876381777F9C6E
:101370009260806985AD7B747F5A78C07A7486519B
:1013800089A3749F6C529D87789E7466926F87972D
:101390006C8C7B70868684867B747B838C8D7B7261
:1013A0007680849384717C7B818F857B7E72809034
:1013B0007D8581727E887B8D7F787D7F7F8C867630
:1013C00080797E89878179788085858C727F718824
:1013D00096738B6E748A8F759C5671A16CA0806613
:1013E0007F8C6E9F7C6F8C81729A6D7F8F638A8EEB
:1013F000758F85698C8176937B718E717C997681EE
:10140000817380927388827389857C84806F8F7CDE
:1014100086817C7B7F857C8C787A848083867B7CCC
:10142000867588857C807C7F858380817B7D8782B3
:101430007E82767E8B7E807D77838D7F826F7F86B6
:101440008290797878788F966F83786F8E8A897F8B
:10145000726F8C7D9190717A737A98808D786D849B
:1014600073938D8083687A8584947E7478748A8F70
:101470008A7978737D908782806C7F878390797476
:101480007F7D83907E8075778789877B7978858556
:10149000897F747D7A88878378807A8581847D824C
:1014A000798D73868C629E737B93678C93677B9A2E
:1014B000679A82599E69899B6E728480928D6E7143
:1014C000807F8A9D725C986C93A2637C7E659897FE
:1014D00064987A5B9F85789C636E986F8B97707128
:1014E0008E61959B6690776D898C7697776A8E76FC
:1014F00080947E748D6C8094718D7F6F88827C8DDA
:101500007975877B8787797D817B87837A867F73EF
:10151000897E7B9073729877799B5D9183679F78C2
:10152000719B7672897685986788855AA4837396AD
:101530005C8A8E76937674858282897C77817D7DC4
:101540008E75858577837C7E897A837F7C887B8294
:101550008674877D7C8C787F857E80827E7E847D8C
:1015600081847B82827C827F7D897A82827784817A
:101570008081807D79898571996985817F83877E66
:101580006F92688993787F797B7F997481845F9467
:101590008F7F8470748F7A8A92697B8082858F6D49
:1015A0008A7878888682718F6A9876818971858336
:1015B000807F85758D768289788183817C7D818528
:1015C000827A837F7989827E827384857E887E7722
:1015D000847D85867F7B7F7C85867F7F7781838402
:1015E000837E768684817A807C84897C718B768008
:1015F000A069779562918F6D926C7A9B76719B74DE
:10160000759B68809072907B6C8E7A868B80747EDE
:1016100085788E8378817879947C8084757C897FC5
:10162000838674807F7A9085758579798F7F837DB5
:10163000787E8583847F777D868482817A7F8081AE
:10164000867F7C7F7F8184817A81857A8087788696
:1016500087708A717B978175837875A372827E66A5
:101660008A99757D8965997C798F707A9281729259
:101670006B849272897F7186887E85836D897F8372
:10168000837D7D80808584738D788283768B78815D
:101690008A797D827D858478877C7B82847F827E47
:1016A0007C837C808680807F7985817F847D818238
:1016B0007C837F7C84828281807C828479837C7B32
:1016C0008E78789470818E6C828E76858F5F967618
:1016D000789D747B85728095797E7F7686867E88FC
:1016E00079807D7D867E8E74827D7E818C7A7F81FD
:1016F0006F917C7E87748487768C7D7A837C8382ED
:101700007F7E867C827F8280827A81837D8A7A7ED8
:101710007D837C89817B807D8284817F807E8774CC
:101720008489719078817A7F857B9A5F85897D8DA8
:1017300072915F9B757F9060927E8D629B707B9DA6
:101740006296786E93856C927F67A07478956D85AC
:101750008D7675927381916D897D79898B75867B84
:1017600071937D80857782847B8483778489758378
:10177000807A83857D7C847B83867C857C7E7E8667
:101780007E847F7F837980817B88837B7D7B838B55
:101790008074856E938A758C68769E78847D718B53
:1017A000857E8F6D6F987D878B5F8B8A769572753E
:1017B0008A807E897781857E7E827B8283807F811D
:1017C0007988807D817E7E857D80837A8082817E1E
:1017D000808280827C807F7E857D7E827E7F838109
:1017E0007F7F807F84807C80817F82817E837D80FB
:1017F000807F86797A9070848B708C806D8C8578F0
:101800008B7C6E947A7F9064848A72908071888ACF
:101810006F8D866A917D7B8B777D80897E838073D7
:10182000868083837F797C808A85767F7C878385A9
:101830007B787D848A7F7D77867C888674857785B2
:1018400081817F817E80847D827E81877680837E98
:10185000858279827E828380818076868777897C83
:101860007589827D867779878389797D83758B8079
:101870007D8677877F76917B79857F74977A78905C
:10188000668991718A81708E81798D777989768365
:101890008C7882817981857E857F77897D7E857E42
:1018A0007D82827F7F84798481798A7B80847A803B
:1018B000847C83817B82817F81817A80817F828128
:1018C0007E7F827F837988827A828375927C768715
:1018D0006892858184726B9D8183896182888D7F06
:1018E0008D5D7E8E86877C747892738C836B8C92F0
:1018F000639A6A75A3727B847479A66986865E94FE
:10190000857B8E7A6D9277828B787F807E7D8E7DCF
:101910007F827581877B8B7D78808182867F7C81C9
:101920007A848481827C7A8282847E7F827B867CB8
:1019300080847A808A787C8B768982767F7E808CA0
:10194000867582767F8E8678737D808E8C79747BA7
:101950007D90887B7F6B86917E7F8072887D848A74
:10196000778084768484759679798577858C7B7E7B
:101970007C748D837F8871798B7F8583787C827F6F
:1019800086837A81798086818183777F8380867F51
:101990007E7C7E818382807E7A837C8D7784827058
:1019A0008E7B867E84777B8772937E73926F89832A
:1019B000837A7F7C789867917C7B8580857B847334
:1019C0008C7E7A9075798A7D838674828170938704
:1019D0006F8A777F8D7F7D8B688190778981728315
:1019E000847C8A8176897D79887E7C887E7F817CF3
:1019F0007E877E808378868180807E7E8381827FE1
:101A00007A818282837D7E7D7F82877F7F7E7A87D7
:101A100083778A7A7A8C767F936A8B8275847D8BC2
:101A20007C837D7F7F789477837D758B7492826EC3
:101A30008E71848C768E757C81827890787D8973A6
:101A40008A827B857E768A807B8B767E85788B8486
:101A500075877B7B8A7E827F7A837F81837F807C90
:101A6000817D85817F807B7F837F837F7D7D818377
:101A70008283738978818E7484807B7C906D898663
:101A800060A47A7A8B7374977D7497598A97768459
:101A9000866783906EA36F6A9770869475768E6F53
:101AA0008991669377748C80818480748D79838822
:101AB00076778B79838E71817D7B888B7B7E79793C
:101AC0008A887D8579778484808A79788577888605
:101AD0007D827C7A808781837F777E847F897F7413
:101AE00089788090777C876D8E896B907D6A9A81EA
:101AF0006D956F7C957383886987966C917C6A92EB
:101B00007E7991787987797E8E7A7F8A6A89857BDA
:101B10008E787B817E858879827F7888827C8479C3
:101B20007F8680817E7F7D8282817F7D807F8284AF
:101B30007E807E7C8381857F7B807D8384817E7DAA
:101B40007D8382857C817A818A758A78818181779B
:101B50008C7E73926E84887A877D7489867D877681
:101B60008086828283747E818B8085727D857E9063
:101B7000767A7F8380887B7C83798B7F7E7D827879
:101B800090767F8B7289817982837A8B7B77848050
:101B90008486787F817C897E7F7C808180847C7F45
:101BA000807E847F7E807E82817E80807F80817D3A
:101BB0007F837C8285798184778785788A727E8C21
:101BC0007789817484827A9080728972839178880F
:101BD00076768B7F8488787688798A867389757F14
:101BE0008A7D8381787F8580867F7A7F7D84867FEA
:101BF0007F7C7D838283817D7D8083847F807D7CEB
:101C0000838182817F7D80818182817D7E7F8283CD
:101C100080807D7E80828086787C857E82877A7BCC
:101C20008676888477867D7B7F8A7C86846F887AB7
:101C3000858685707F837D96737F7D7A818D7E77A3
:101C40008B6D8B81828083778383748D7E7E817D93
:101C50007E82817F88797E837C84827C817E7F8482
:101C6000807F837B7F847F847D807E807F847F8173
:101C70007D7F8180827E80807D83827F847B808166
:101C80007E84807C817F7E897A8082778A807E854F
:101C9000767E8B7886856F88807E8D767D87748B47
:101CA000857A85797D877C878175867D7B8D7B7E36
:101CB00086708A837D8A777D827E87847C7E7E7E25
:101CC00085837F807E7B838282827B7F827E85810B
:101CD0007F7F7D7F84827F7F7C80818281807E7F09
:101CE000808082807F807F808280817E7F808184EF
:101CF0007D7F817C847F7E837980877E7F817E82E9
:101D0000837F7E7F7D8385807C7F7F83847B837CD4
:101D10007A8A7F80857581857A89817B807D8085BF
:101D2000817E817B818380847F7A847E80857D81B2
:101D30007F7C818380837F7C80808381807E7E7EA8
:101D40008284807F7E7D818280817E7E808182818F
:101D50007F807D808281807F7F7E8381817F7E8284
:101D600081807F817C838281807E7E80857F7E8270
:101D70007A808580827C7E828083807E7C83808066
:101D800083807F807D81837F847B7E827F82837F4F
:101D90007D7F8082837E7E7F7F81837F7F7D7E8249
:101DA0008180837C7E818083817F7E7F818281812F
:101DB0007F7E7F8082817F7D7F8181827F7F7F7E2A
:101DC000818081817C808081827F7F7F8080847C14
:101DD00080837985817D857E7E847E7E877A7E8301
:101DE0007E83847982817D84827C80807E84817DF3
:101DF000827E7E887D7E817E8082827E827C8281E0
:101E00007E817F807F837E82807E817E7F818180D4
:101E1000807D7E828082807E7F808082807D8080C7
:101E20008182807F7F7F81808081807E817E8281B0
:101E30007F7E7F8083807F807E81847D827F7B86A2
:101E40007F7D847E7F827D83817D837F7D83817E94
:101E5000847D7F847D81827C82807F837F7F808080
:101E600081827E80808080818080807F807F818071
:101E7000818081807F80817F7F8080818080807F62
:101E80007F8180817F7F81808180807F807F808152
:101E90007F807F80808082817F80817F81807E8241
:101EA0007F7F837E80827F80827D81817E827F8032
:101EB0007F828080807D828080827E7D837F818220
:101EC0007D81807F82827F80807E81817F817F7F14
:101ED00081807F81807E807F81817F80817E818102
:101EE00080807F7F7F8180818080808080818080F2
:101EF0007F7F80808180807F80808080807F8080E5
:101F000080828080817F7F818080807F80807F81D0
:101F10007F80817F81818081817E80807F817F80C1
:101F2000817F80807F81807F80817F8180808180B0
:101F300080818180807F80808080808080808080A0
:101F40008080808080808080808080808080808091
:101F50008080808080808080808080808080808081
:101F60008080808080808080808080808080808071
:101F70008080808080808080808080808080808061
:101F80008080808080808080808080808080808051
:101F90008080808080808080808080808080808041
:101FA000808180817F80807F82817F80817F80802F
:101FB000817E827D847C8679877A86749468946C2D
:101FC00092728B7588817B8773926999679B659AFA
:101FD000669A69956D90728B7A82807D88768B7710
:101FE00089768A768A77867C847A837F827E837CF0
:101FF000847C847C857A877788778A768A778976E5
:1020000089798977887A847F7E817E847A887788C7
:10201000768C719070926F906E907090728C7488C4
:1020200079857D81807E847A89758F728E6F926CBE
:10203000946B956C946D90728E76877C82807F8491
:102040007B86768C748C748B758C7589778A77888F
:102050007C7C8C7D6BAC4AB35998728689689B6294
:10206000A458AB57A0688B837198649D639B689656
:102070006E868B64AA50B053A85E947780896E9A5E
:102080005FA55CA2678F7B7B8B71936C8F797F8858
:102090007194699967976C8E7B7F87709766A05D56
:1020A000A35DA16694748583788C718F718E74881A
:1020B0007A857E817A88895AAF5D8D9345D722C90A
:1020C000558C9259A76D7B956D7F9F48C340AB7926
:1020D00063B742AE726FA05F95787E85836CA94925
:1020E000B65B8A984BC33DB65F8C817A89778774DB
:1020F000965FAB53A0766FAD40C24DA36A8D758BD2
:10210000797C9456BB3EBE54908E59B548AF6192CF
:10211000797B8E6BA252B642BC4F9F737C9264A2B5
:102120005AA759A65D9A70848A6A9C619B6F8784BE
:102130006BA356AD54A661977084896BA54FB64AC0
:10214000AE61907B7D867B837C86778F6E8D7F7280
:102150009B5EA1668A8670946D8E77896E9B5DA763
:102160005D967976986394797D887B7D8E6A957388
:102170007A965FA5638D846E986C8D7B8278945F70
:10218000A9599B7B6EA15AA26D828B718C7B7E8438
:1021900082719F56AA63859750BD43B45D9277883C
:1021A000739271858D5DB14BAF6282A930D6458D3A
:1021B000A042BB6571A76079BC15FF15B49038DFEC
:1021C00032A584659B8058C041A1903FD930AA8A2E
:1021D00048CA3CAE6D7F7E945BAF578B9A4AC63F30
:1021E000A870847C8B6F8B8862AD4DA96D7C9B5CE5
:1021F000A564946F9268A1628D8C5EB34BA57477D1
:102200009373799863908A55BF489B8D4CC24A9CC2
:10221000826C92855DB54A9E8A54BF45A47B6B9CB7
:102220006D7D9E57A46F74A2569C7D69AC529E74BE
:102230007D86837398658F8364AE4BA97E65919587
:1022400047C44B8CA444B66B7295757B8E7B6AB386
:1022500046A67763B4559A75866FA351AC5F91809B
:10226000789063A753A47278907F738D7D69B24391
:10227000B86870B03FBD52997889758D7586856C48
:10228000A354B355988262AC569C7981789958A32F
:10229000726CB53BC2519A708C74898469AC509F42
:1022A000796F957876937C68AE49A97865B251A02C
:1022B0006F89709D59A7658D7F798E64A950AD6D2A
:1022C00072A953968B58AC706DAE5588A140C84F1B
:1022D00092887088866E8D7F74946F8F5BCD2A97FD
:1022E000B2419C8B777872AC6C4BD9595BC1578CDF
:1022F00069AE656BA5777D62C14B73BE615DB96CDC
:102300007775969236CF72549F8E735EB5726C81DC
:10231000B33F92996B7F6FC230A09E4C92926891AE
:102320006C958B40CB6361B2678E5EAA6A7E79A2A0
:102330006475AC5D8774B138B471817B7D9C5597B1
:1023400083885AA8864ABD637899717B965CA66D8E
:1023500069C720CF686C9D76729B67879455BB4B8D
:1023600099836E9665A45D93856896768187797763
:10237000A73EC15880A051AA706EA17361B8538F57
:1023800087719A58A671719879787E956884878D3F
:1023900055AE746E92768C6F85936B79A65887993B
:1023A0006393778685718A8D628D9E4BAB6B8C743F
:1023B00085867E70987A699E72846FA1677C93731C
:1023C000877882945C92984EA0904CBD4BA774681D
:1023D000AB62769F706BAC53A85A9B7D6F927A84E8
:1023E0006D9C756E9A78758C846F975FB34892C0B8
:1023F0000FC19B497EC5379E85789157A08A667B21
:10240000A35F93787AA146B7697B877D84837086C2
:102410009952A76A8F6B957971A44DAF7956B571B2
:1024200063A27B69A255B84A929D589476956590AF
:102430007B8D619F7A7680888665A36A838A71978F
:10244000609781758192678B91619A6E926A9F62A3
:10245000927B7D8E629C82609D8659A96D81896484
:10246000AC62789B717E80906D86818A6A907A8E4C
:102470006498835CAC67828C73878568A26979A84D
:1024800052958B6F83848476877C935AA07E71816A
:1024900093707E8F6C9F589A8170917A7E799B623F
:1024A0008A88797C89866D8E71AD3AAA8C61917B20
:1024B000887E767EA34DA07C798D6898708F737727
:1024C000A169748F9451A07599559593629864A9E8
:1024D000627C92825CAF6577A8539F747F8E66940E
:1024E000847870A7608980838474887C9259AA64F8
:1024F0008C8271937D747C9D628A83818569987FCB
:10250000717BA457977C779C54A4786F977B6AA4BF
:10251000638B856AA55D8D8B7087769273847F81CE
:10252000858066AA647C9B60A7578F9760839963B8
:10253000986E86915D9D7B6F927E797D926C83868D
:1025400084768187827478A25C95738F728979848E
:10255000837392738B787A8D85619B8661A1659870
:102560007669B05A888D7A73956C9566968265A265
:10257000699161A57858BB6E5F9E856F8A6DA4686E
:102580007B9C51B15F8F81728F885D9B8B4EBC6845
:102590006C95905D899761A15E928B678A89727F45
:1025A0009D50A1778D6885937874839B549F806B31
:1025B0008C7F857B759188609A767F935DA5679304
:1025C000747A8A8B6B8A89708B788C68A06B809107
:1025D00066947B73996C7F946A82936B8E6B9B7508
:1025E0006F9483747E8D77886E94797E7B8F707EF6
:1025F00094698D83728A85728A7C7E8E64967979DD
:1026000089856F8D85699B6E8A7F7B86826AA077BC
:1026100063AC6783827B916E83897F6F976E8B79C2
:10262000867F778F6F9863987582886D8C876D88A9
:102630008D649D6D7E9461A4687D8B87698A8D6EA3
:102640008E72946791769360958C5B9C728F747F89
:102650008C7B78898172966E867F87797C9264A163
:1026600061976F80A25382A17169AA6588759D7771
:1026700050C6696B8F8D6A8D8577837F8979895E76
:10268000B36377A0608C8978817B828F688B84703C
:1026900096797387847D827D749A688A7B76967D2D
:1026A00068957E778A7492698C8C6C7D91846E8932
:1026B000867B7F8281846D958657AE668585728D17
:1026C0007F719D637CA65D9171898577837C838C06
:1026D00074817C8584807C7E79A3558C857D906215
:1026E000927F7D799C54A178827B799278827C8DCF
:1026F000659B7B728D7E8378857E817A8B836899DA
:1027000074847A87768D8262A36B8A7883838172E0
:10271000907D6BA956A06C868D68879274769366BF
:102720009C6F8975828D7283779079759073838B96
:10273000747F8E65A16C7A9760A3677C947D689D99
:1027400072817F7B9964878981738B81748E7B838F
:102750007888867B74937B74976D85828777828077
:102760008B7976907C7A8B75808F6D898A6B956D6D
:102770008D85659D7D72848B7485749B638D80804F
:102780007D739B69848B727E9269906E8E9152A24A
:102790007F6C9373897A80867E7295797E7E808540
:1027A0007A8B64A2717D8577926F828D7A6AA36E2F
:1027B0007C887A8E6993728C6E9D6D759F6B828416
:1027C0007E7E88729A6085A257927E838B67917B0A
:1027D0008676906E9174877A837E7B9F51A1728CEE
:1027E0007B748F866A9084689F6E867E78926F89EC
:1027F000807E76917F6A928180768680866C967BD9
:102800006E9972887284888175808C7783728E7DD0
:102810008570966E7E95698B7C8187747B986296B5
:102820007F6E90807D7F7A8E79778A8471888B75B0
:10283000798A81817D749D668C7F7A8B8073937693
:10284000769C688A77878A727A907E70966B8A8285
:10285000817C7B86867974A15E8F867A7885897B78
:102860007584926D808C797D8685748B738E826879
:10287000A06697757786945F9A777A9363A35F8E45
:10288000887F728B807C81837E749A6F827C898E34
:1028900057A1806C8F7F7F7C7E8D8062A3747B8943
:1028A000758B768B71926F8F7A7A8B6E8D82806B3F
:1028B000A1678F718586788B75807F916C7F927709
:1028C000759175817F8091647FAB4D987C7D8D691A
:1028D0008D876A91856998699573847D818A7583EE
:1028E0007F7F867A7D8F6897796C9E6B8A83738CE5
:1028F000797D9468819A6D807E8B7C7B828A767CE0
:10290000966F7A8F7C8278828681768E728B7E7DBE
:10291000837B8A72986591807C8381778F767E91A4
:1029200059A8747191758A777E8D787697737888B7
:10293000838665997488787D906A917D7686876FA5
:10294000956E7E97619F658887777D8B7680946191
:1029500096738E75837E8A728293628C8C787A7F6E
:102960008D7D7680926B8591698C7C8C6F8F6F9852
:102970006D848B6A977B797E8E6B9C668D85709655
:102980006E828B7A7D8A748384837B77927D787C58
:102990008C82689A7D6F8D8080797C93796C9F673B
:1029A000888779827B897C7E79946D8C7B84729315
:1029B000777B8A7392728180847C8A6A9380738821
:1029C000837C7B8A80777F858F648993688A83780C
:1029D000877E7D935AA377709671877E837B8278FA
:1029E00093737D877F837294669C6D828B6E8C81DE
:1029F0007D8081779E588E8E72867A86807A8684D4
:102A0000767C976986847C82807D8282779B56A1C2
:102A1000767F827C8878877A8B6F9077896F8B83BB
:102A20007A8D62A176739077838276917472A16AAF
:102A30007E8A7B8C6D8B7F7B877C847593767D7F94
:102A40009068947780866DA06784858671916A927C
:102A50007F768A7C7F81817E896B938567898C767E
:102A60008572917C748A836C947D797E8484768966
:102A7000788972907C6F8A93658985749562987D58
:102A80006F9579739270868F6198748A7B778E8246
:102A900073828C747E88856F89867C807595757845
:102AA00098658C887E758C7A8F688C8F63967D8212
:102AB0007095758871878D6F897B867B87768B7E15
:102AC000768F798274917D7C7B848E679081768607
:102AD0008672877D808E5DA56F759C69857F897AFA
:102AE0007D74A46184877D8373956A8F75897E78F0
:102AF000808F6F897B7B98628A9067957580886FDD
:102B0000908172868D6B9372857B8A78807C868EAD
:102B10005F9B7A7B81877785798C7E6C957D8373CB
:102B20008B7C857A7A8F7B7A8C787F8773976B7EA4
:102B3000996C838872936E8B80758B837289818187
:102B40007A838B649B728E6B878F767296787E8980
:102B50006B9B698D807C7E867D827F76907F748280
:102B6000887C8080808A6C927E6D9876817E847B62
:102B7000827E8679769B707C7D96678B82788C6767
:102B8000A26B7A8B8A6894708A8A659A6F8B807739
:102B9000828A7585857483867F7B7E897B81769327
:102BA0006C8A8C678F7F82748B7B8C67978066942E
:102BB00080806E9379886F8B85718F7E7A7F8D721E
:102BC0008F6F8885798578838A787B87817E8180FD
:102BD0007B88817C7F857C8C689C6E7E9276798AEE
:102BE00080827B75A25D91827F77898081778589DC
:102BF00077837B89758D757D8C778384728E7D7AE2
:102C0000887387896B8D7D798D787A8586788471D4
:102C1000957A70937B788487738D6C9C70779174B0
:102C2000857C88748C758B76857D867D7B896F9796
:102C30007476966B8E816D927C7E896C8D8E5FA092
:102C40006C897C84856F8B85826C927F8170947592
:102C50007C8F6F926C8E82758883788785708F7673
:102C60008A7B7D84817E808572937A768F728A805A
:102C7000807B8084896E7F996E847597688D807C57
:102C8000807A9174749085689F678D8075926C844A
:102C900092688887728B7C81827789807B827D882D
:102CA00078886F8B897085857985807D8B67A07723
:102CB0006D8E88777E8281886C986F8189836D9014
:102CC0007E7B88748F7482887B759279817F808205
:102CD000807D847C847A8C75857C809068878982ED
:102CE00070907098678A8B66947E7D778D7A8770F6
:102CF0008E7F798A75857892727C8C7B827A8386C6
:102D00007B7B9070838972956E828C78807F857CC6
:102D10008771986C838C7C77828D728C699E6F82B0
:102D200086787F8B7A758F788B7086857B7F867CA3
:102D300075907B7988769079758C7E7A8A708D8390
:102D4000669F6F80818286767C8C7E719175857896
:102D5000916F81877C876F8F7B7B86846A9A777E71
:102D60007C8090747B8A7F7A857D7F82827A8A7369
:102D700086847E7D837B92668A8B72867F8875834C
:102D8000838A6B8F7C85748C7C749B6D847E858537
:102D9000747D9769878F679179887F70928275813A
:102DA000857F837C7B897E7D7F89748A7986816A31
:102DB0009F707F7F8A728B77877C77976D867F8AFB
:102DC0006C95757B8B7B886F8195717494797D840C
:102DD00074917187876F8A7A8A7486798A7F797EFF
:102DE0008A7E758D71966B89886C907F7B828477E3
:102DF0008F6F91777895737F808A778182837984CA
:102E0000867D77878C737C8A7C8B7284877C7F80BD
:102E10007E828772936C89857E778C7B857F7593A4
:102E200070898179808D7086808082768E7B7883B0
:102E30008C767A8A817B827C877E798D747D926F95
:102E40008A7D729B707C867F85816B9C70808A7284
:102E50008B7A8B718A7A8C72897E81788A83689C5E
:102E6000758279838877799474788F7C7D817A8E66
:102E7000768080827F847A7C936A9276827E877A5B
:102E8000807C86886994748B7688787E9072827E46
:102E90008A7C7A8094658C8E6A8D778B7F6E967B28
:102EA000768C7D7B847E847E7A8B768E6F8D77891F
:102EB000806F937A7F808276956B8F7581916C8518
:102EC000857E7B8D748183828272878F7178957500
:102ED0007E867B8972858B6F87847C82817A857DF3
:102EE000837E7E818085748F6E8F7F758782788DDB
:102EF000757C906E9667878C7A758C7C827D8185D7
:102F0000738A817D748E837484827D84778A7B7ECC
:102F10008580778D77848478877A88798A718E7AAC
:102F20008181778A817B7A926D917783807991769E
:102F300079868F6F8382857C7E847D827E88758092
:102F4000906D8D797F877B7F8579838B699B6A8B79
:102F5000827B7F837E7D87748C718F7E787C917A73
:102F6000728E7B857B808873848B737993777F7F68
:102F70007E8A74877E7F7E8C72818D74897884814D
:102F80007F7C8A72888471936F8780837A81818441
:102F90007883877782828A698C8A73818085856F3E
:102FA000917C769277768D7A87767F8E73867F8016
:102FB0007A8C7A7F7D897B827D808A718F7486820C
:102FC0007B808A73818C7783768E7D7B7E8D738107
:102FD0008E6F8484818373858C6F8883748E7E77F3
:102FE0008677946F838186797F8677877D83788DD6
:102FF0006D9B698688739270818C7778936E8A79DD
:10300000838A6C8B86798080827C897A7E818481B8
:103010007882868173936D8A807F81768A7E8170C3
:10302000947587797E877F7B82886F91748A797C9B
:103030008D7A778A7F7C827F847A84847981818388
:103040007B7F8A6D927B7C7F8385826E90836E947A
:103050006E8C7E7D837F798B7C7C84778F7A7C7F7E
:103060008E787B867F817C84837A7F906F8488775B
:1030700085817D837A898272898972868479857C4B
:1030800088797C848E688D7E81847584838279873B
:1030900074907189807C7E8782718C80807B818234
:1030A00080798B7A7793727E8A7788768883738526
:1030B0008C737B8B7C82739076847D847F76927414
:1030C000857A867E896E8B827B8670917B7E8085F9
:1030D00079868379828281817A86817A85866B94EA
:1030E0007D7985798F708485836F917C7E7B8487E1
:1030F000788378917187807A8A7B7C8977818D6FDC
:103100008A7C808A6E888679847F7C83837B8080BA
:10311000857E7B83857680906D887E857E778884AA
:103120007681887689788879827C887C79887C85A4
:103130007B7A8782748E74838678857A8388748597
:10314000847C82827E7B8585777D8880827095797C
:10315000778D7B817E808480729472887F79897C70
:10316000817B89768A79857A81858178808B73885D
:103170007E7C8680807C7E8B7D76858A6E8D7E804F
:103180007A86817E76888D649775867E817F857745
:10319000888275926E8C7E7D7E84817C817F837E29
:1031A000817F7F7F887B7990768087758978898019
:1031B00072888F6C84887A86719275818285748416
:1031C000867B817C87798976877A84827984827B01
:1031D00083817A867F80817C81837D847B7D897FEA
:1031E000728F7B817F7D88768189787890798277EC
:1031F00088817B837E8678887B7E8385748C7682CB
:10320000897091748189778187738E7B798A7A84BA
:103210007D7E867B818580788589748380857B7FB0
:103220007D8B6F8C7E758D798679847C8974887CA2
:103230007E887A7F8184778B73888377897883848B
:103240007885827786857A807D8B787C877C83758C
:10325000927180897D7C8081847D769369927B7B6D
:103260008480827E7E828577887A827F837C7F8558
:103270007B867F788A7B847B7F887E788B7E768B4B
:103280007C84748A807F768B80768F787F83847C41
:1032900082788F777B8E7385837D7D828185778130
:1032A000857D7F807F80857A80867884837A857922
:1032B000888174868A708A7D81807D89797D868502
:1032C000718C7B827E857B7F838181738F7D7C8106
:1032D000847C837F80827A897D7C828082807D7EEF
:1032E000897B7B877C827D82817D7D8D747D8D75E0
:1032F0008A75897B82808577848775857C8A728CC4
:1033000079837C8089767F897D7C85778C7B798BBE
:103310007983827A8977848480758C7E7F7F7F85AC
:103320007B837C877293777D867D817E847D8379A4
:103330008E738088817A81847D8477888079897C86
:103340007C88778980748A837986778C7B7A8A7A7D
:103350008080877683808577887B867C7F886D9068
:10336000817782857C85748C7C788D7B7D8184805F
:103370007E7C83827E7E8180827E7E867D7C8A7951
:103380007E8382817885827F7A897A80877D7A843C
:10339000837A85779070858A7281877E7C7E818C26
:1033A0006D8A7F7E817F827C837F81817B83847D28
:1033B000807E8387718787728F75857E7F867E7812
:1033C0008A7F788F74867C87797E83857C778F78F7
:1033D0007F8185788281837E798B7C7D817F8181ED
:1033E0007D7F867C82827A867B857F7D7E8B7684DC
:1033F000817A8978857A83818375897E7D818082CF
:1034000079887E7F7B8485797E887B81817C857DC0
:103410007F877785807D847A81857E7C847C847CAF
:103420008280818180807B897A81827F7D867E8196
:103430007D808A748284807C847E817E81837B808F
:10344000857F7D837C84817A857F80837A867E7E7A
:1034500083807B867E80807F847C857B837C867D69
:103460007B86817B82837C847A8A797D8A7C7E805C
:103470008280807D847D81827E8080827E827E7E4D
:10348000857B827E81827C8181807F8479867E8239
:103490007C82817D827E857985827D7D867D807F2F
:1034A00081847985807C8281807F7F82808080801A
:1034B00080827F7F7F847C82817D857C827F7F810B
:1034C000817C847D80847B827F837D8080837C80FF
:1034D000837D7F82807D817F837C80837E80827EEE
:1034E000818080808080817F80817F81817F7E83D9
:1034F0007D837E80827F80807F82817D847D8180CC
:10350000807F7F81817F7F837F807F827E81817FBB
:10351000817F81807F81807F817F7F817F81807FAC
:10352000827F80808080817F80817F8180807F8199
:103530007F817E81817E8180807F817F807F81808D
:103540007F80808080817F80807F817F81807F817C
:10355000808080807F817F8180808080808080806B
:103560008180808080808080808080818080808059
:103570008080808080808080808080808181818147
:1035800081818181818180828CA5C5D4DCDBE0E0F2
:10359000EEB241100112173890875FC4C14A2B2F39
:1035A0002E2C2629282A2322176FD28D7CB4B0A86E
:1035B000B8C5CED0CFCAC9B5646894939DB3B1AB3A
:1035C000B2C1D1D3D1C6B6A8AB987C7E7968686DFC
:1035D0006D563656562F2A394E6B83735C47455DC0
:1035E00096C0D6D7D9D9DAD8D8C09A603D444D5BB9
:1035F0005E72857B737D6A5D6E7A82969B8C8A8A09
:103600007C6D5C60666E6557423B3E6177785E3FDD
:10361000263F787D807DA5CFDBD7B87E50374873B5
:10362000A9C5BF9E714C30241B42816E5B567290BF
:10363000937A5135304D76A4BDD0D5D5CDC7B7A836
:10364000A19B97A0A8A3B0C0C1BAAE9F9AA5A9A8F4
:103650009E9691919086715B5D5C5D5A6375A1CB7E
:10366000D4D1BEAFA08B94A8AFB6BCB7B5C3C4BB12
:10367000B78F4E2D1A1921333A516F7F878C775EA1
:103680005F63697E8F8D8F9090897E5F4331292B98
:103690003A4852545458626D7070717685A0B6C223
:1036A000BDA6856143312D36393B3B526F8A9BA3C2
:1036B000A0978F8B919BB8D4D7D6C7A37F5E515864
:1036C00070889CA6AAA49F988F83766E6D708CAD2F
:1036D000B3B4B0B4B9B9B8B29D88766E6B6E695D9B
:1036E0005650525D7597B7CED3D5D7D8D9DAD6C153
:1036F0009377736863666E7371604433292523235F
:1037000025292C4E738A989DA8ADADABA79B9594A7
:103710008C86847E71564235363D45515C64696BBA
:103720007277786B5D6164676E777F888B86796866
:103730005A4E4948526282A8AFB4BCC1C2BEB9B5A4
:10374000B4BCCCCDC7BEB1A39B948E867E766E668C
:1037500064635F65738193A3A29B959094A9BDCD8B
:10376000CABEB49E877467605D5D60646A757B7D68
:103770007C7A7E808594A3AFC0C8C2BAB0A293847D
:10378000766A615344362C26252425242A436180F9
:1037900094A3AEB3B2ACA59E91867E78726A645F44
:1037A0005E5949403C41484D60717A8288909390BF
:1037B0008E8B88878A9DA7A6A4A09C9287746B6C29
:1037C0006F7274767E98B1C4CECFC8BBAD998D8828
:1037D000878A92938F91959899948B7866616065AA
:1037E000696C6E737A7F8895A4AFAFAEACA9A091D7
:1037F000775B433A3D4452626C7276797B7F817E7F
:103800007C7A78787A7D80828283898F9493918F75
:10381000806C564A46484C4E4E4E525861707B7FE3
:103820008B9596948E8375676262676C6D70706C11
:10383000666163615A5A5C626E7C8696A6ADB0B4CE
:10384000B3B0AFB0B2B1AEA9A39C8E8278747477D6
:103850007C8599A2A1A7A7A08F7F7B7672727882C0
:10386000919FAAADA8A29C98908885807876747460
:10387000716D6B6B707884939A9B948573615245DC
:1038800043484C566276858E908E8B898885827EE1
:1038900079757374787C7F8385858687898987822B
:1038A0007E7976716864605B5A5E63686D6D6C6D7D
:1038B0006E70717374716E6E6E6F767C8081807EB7
:1038C0007D7D7A797A7B7D7E8590A0AAABABA8A31B
:1038D000A3A8B1B8BBB9B2ABA49E9A958D878384D7
:1038E000888C8D8B85786A5C565A66748294A2A601
:1038F000A7A4A1978A837D78767574716D6A696BC8
:103900006D6E72767B7E7E7D736662605F5F6165E1
:103910006C747D879297989A99969187786D625882
:1039200055585C6268757E7E7A74716F70737778B3
:1039300079797874706F7175787C808487898982D1
:103940007D796F6B6F71717375787B7E80807F81FD
:10395000858A8E9091908F9092969FA8ADAFAEABD6
:10396000A9A8A6A5A4A29E9D9C9D9C9B98928A8195
:10397000786E655F5C5B5D61666C73787C7F80826E
:10398000828181807D7A7777746E68635F5D5E5E29
:1039900060606265696C707273726F6D6C6D748853
:1039A00097A2ACB1AEA9A19A8E7F73696563646773
:1039B0006C6F7172737372727273757778797978CC
:1039C000797B7E8083888C8F90908D8A888787878B
:1039D00086848383848586858483818080808081BA
:1039E00082858992A2AEB6BABBB6B2ADA7A09A94B0
:1039F000908D8C8C8B898683807E7D7D7C7B78749A
:103A00006E6960595B5E636970767B7D7E7B756DE8
:103A1000645B595A5E6267696B6C6C6B6A6764645D
:103A20006565676A6E7276797B7E82878D93989DD5
:103A3000A0A2A19E9B97938D8884817F7D7C7C7CB6
:103A40007D7E7E7E7E7D7B7773706E6E6E6F717411
:103A50007A838B949DA2A3A29F9B958F8B88847F52
:103A60007A7877777A7F838584848381807F7F816A
:103A7000858E98A3AEB6B9BCBBB5AFA79E958D8613
:103A80007E756F69635E5A59595A5D5F61626265FE
:103A9000696E74797F838586858482807F7B746973
:103AA0005C4F4A4A4E535A626A72767878777574D8
:103AB000737475777A7D8083868B90969B9EA0A287
:103AC000A2A19F9D99979592908E8D8D8C8B8986C2
:103AD000827C756E69635D5A5755565A5F69768365
:103AE0008E979DA2A8ABACABA8A39D968B82797252
:103AF0006D6A6A6D7074777A7C7D7D7E7F82879136
:103B00009EACB6BBBAB6B1AAA49E98928C837A70CA
:103B1000675F5A575554535455575A5E62666B6ED9
:103B2000707274777A7C7E7F7E7D7B797877757111
:103B30006D69676666686B6F74797D80838585863D
:103B40008687878788898C8F929597979695949387
:103B500093929292918F8D8A898786868584817EC1
:103B60007A7773716D6A686767696C6F7379818C36
:103B7000969EA3A5A5A3A09B948C8278726E6C6B75
:103B80006B6C6E7174787B7F83888D93979CA0A3F8
:103B9000A5A4A29F9D9996928E89827B736B655F87
:103BA0005A575554535456585A5C5F6265686A6D4B
:103BB00071737577797A7B7B7B7B7B7B7A7A7A7B77
:103BC0007B7B7B7B7C7C7D7D7E7E80818284858609
:103BD00087898C92979DA2A4A4A5A4A3A19F9B983A
:103BE00095918E8A8785817E7C79777574727271E2
:103BF0007070707274777A7D7F8182848586888AFE
:103C00008B8C8D8E8D8B898784807C7974706D6BA5
:103C10006B6B6C6E7175787E858B8F939494939299
:103C2000919090908F8E8D8B87837D77716B67627B
:103C30005E5A585655545657595B5D5F61636568C7
:103C40006C7074797E84888B8D8D8D8C8B8B8A8A39
:103C50008A8C8E8F908F8D8B888582807F808287E3
:103C60008E979EA2A5A6A7A6A6A5A4A3A19F9C9851
:103C700094908B868079746F6B67635F5C5A595A36
:103C80005D61676E777F868A8C8D8D8C8B8987844A
:103C900082807D7B7A79797A7B7C7D7D7D7C7B7966
:103CA000787777787A7C7F8182848586868685841A
:103CB00084838281807F7E7C7B7A7977767574734A
:103CC000716E6B68676666666768696B6D6F727642
:103CD000797E83878A8C8E8F8F8F8F8E8E8E8E8D3E
:103CE0008D8D8C8C8B8A89888888898B8D9194970F
:103CF0009A9B9C9D9D9D9D9D9B9A9895928F8B874D
:103D0000827D78726D6864605D5955535252545685
:103D10005B60676F7982898E92939392908D8A8689
:103D200083807D7B7A797878777778797A7B7C7DE8
:103D30007E7F808183848688898B8B8B8B8A898721
:103D40008582807D7B7977757574737372706E6C04
:103D50006A69676768696B6E72767A7E8184868726
:103D6000898A8C8D8F919395969798979695949232
:103D7000908E8C898684817F7E7E80818486888AED
:103D80008C8E90919394959695959492918E8A8627
:103D90008079726B65615D5A575452515253555830
:103DA0005C60656A6F757C82888D91929393929026
:103DB0008E8C8A878583817F7D7C7B7B7B7B7B7BF5
:103DC0007C7D7E8082848687898B8C8D8D8D8C8B8B
:103DD000898683817D7A7673716F6D6C6B6A6A6A8E
:103DE0006A6B6C6E707376797D808386878888882D
:103DF000898A8C8F9295999C9FA0A09F9E9B999653
:103E000093908E8C89878584838281807F7F7F7F5A
:103E10007F80808181828384858686868584817E79
:103E20007A75706B6764615F5D5B5A5A5A5C5E615C
:103E300065696D72767B7F828587898A8B8C8C8C95
:103E40008C8C8B8A8887858482817F7E7E7D7E7E36
:103E50007F80828486888A8B8C8C8D8D8D8C8C8CD7
:103E60008B8986837E79736E696663626364656736
:103E70006A6D7175797D82878B8F919393939291FF
:103E8000919191919292939494949494939291900D
:103E90008F8D8C8A88868482807E7D7C7C7C7C7CF5
:103EA0007C7C7B7B7A7A7978787777777775737093
:103EB0006C6965636261616163646667696B6E709A
:103EC0007275787C7F83888C90939698999998974F
:103ED00094928E8B8783807E7C7B7A797A7B7C7EC2
:103EE0008082838587898B8C8D8F90919191919021
:103EF0008E8C8A8783807C7874706C696665646454
:103F000066686A6E7175797D82878C9094979999AD
:103F1000999999989796959494939291908E8C8A6A
:103F20008784817F7D7B7A797878777777767675E5
:103F300075757575757575757575747372716F6E48
:103F40006D6C6B6A69686768686A6C6E7174777AA1
:103F50007D808285888B8E92969A9D9FA0A1A09F3E
:103F60009D9A9794918D8A8784817F7E7D7C7B7BCF
:103F70007B7A7A7B7B7C7E80828587898B8B8B8A20
:103F800088868482807E7C7A787775747474747481
:103F9000757575767777797A7C7F8285888B8E9038
:103FA00091929292929190908E8D8B8A8886848243
:103FB000807E7D7C7B7A7979787878787879797960
:103FC000797878777675747371706F6E6C6B6A69D7
:103FD000696969696A6C6E7174777A7D8083858797
:103FE0008A8C8E9093949697989999999998979688
:103FF0009493918F8D8B898785848381807F7E7D4B
:104000007D7C7B7A7A7A7B7B7C7D7E7F80808080E2
:10401000807F7E7C7B797776757575757677787815
:10402000797A7B7C7D7E8082838587898C8D8F9059
:1040300091919191908E8C8A888583807E7B79770F
:10404000767473727171717172737476787B7D7F1F
:10405000818283838382807D7B7774716E6C6A69D1
:104060006969696A6B6C6E7173777A7F83888C90EB
:104070009497999B9C9D9D9D9D9D9D9D9C9B999793
:104080009593908D8B88868382807F7E7D7D7C7BDF
:104090007A7978767574737373747577797B7C7DB0
:1040A0007E7E7D7D7C7A7979787879797A7B7B7C64
:1040B0007C7C7B7B7B7C7C7D7F808385898C9093E3
:1040C000959696969593908C8985817D7976747274
:1040D000706F6E6D6D6D6D6D6E6F717274757778DA
:1040E0007A7B7D7F808182838383838281807E7CD3
:1040F0007A797776767677787A7C7F8386898D90E1
:104100009294959697979797969594929190908F71
:104110008E8D8C8B8A8987868482817F7E7D7C7B55
:104120007A79787776757473727271717171717151
:10413000717171727373757678797B7C7E7F808103
:10414000818282828282828383848587888A8C8E20
:104150008F919191908F8D8A8784807C7975727010
:104160006F6E6D6D6E6F707273757678797B7C7C17
:104170007D7E7F7F80808181818080808080808043
:1041800081818182828384858687898B8D8F9091BE
:10419000929393939393929191908E8D8B8987852F
:1041A00083817F7E7C7B7A79787878777878787964
:1041B00079797A7A79797878777776767676767685
:1041C0007575747473737372737374757678797BA1
:1041D0007D7F828486888A8C8D8E8F90909090903F
:1041E000908F8F8E8E8C8B898784827F7C7A777577
:1041F0007371706F6E6E6F6F71727476787A7C7D8A
:104200007F81828283838383838383848484848580
:1042100085858686878787888888898A8A8B8C8D1A
:104220008D8E8E8E8E8E8D8C8A88878685848383F4
:104230008282817F7E7C797674716E6C6B6B6B6C25
:104240006D6F707274757778797B7C7C7D7E7E7FF4
:104250007E7E7E7E7D7D7C7C7C7B7B7B7C7C7C7D96
:104260007E7F808283858788898B8C8D8D8E8E8ED4
:104270008D8D8C8B8A89878684838281807F7E7DE9
:104280007D7C7B7A797877767675757576767777B3
:104290007879797A7B7C7D7E7F8182838587888926
:1042A0008A8B8C8C8C8C8B8B8A8A8A8A8A8A8B8B61
:1042B0008B8B8A8A898786848382817F7E7D7D7CC1
:1042C0007B7A797878787776757574747372727290
:1042D000727374757677787A7B7C7D7E7F8080813F
:1042E00081818181818181818181808080808181C2
:1042F000828383858687888989898989898988874E
:104300008685838381807F7F7E7E7E7E7E7D7D7DB0
:104310007D7D7D7D7E7E7E7F7F7F7F8080818180B1
:10432000807F7F7F7E7E7E7E7E7E7E7E7F7F8081A1
:10433000828383848485858585858585848484843A
:10434000848484848484838383828181807F7E7D4E
:104350007C7B7B7A7A797979797979797979797AC3
:104360007A7B7B7C7C7D7E7E7F7F80808181818269
:10437000828283828283838282828282828181811D
:104380008181818282828282828282828282828210
:104390008282828181818080807F7F7F7F7F7E7E1D
:1043A0007E7E7E7F7F7F7F7F7F7F7F80808080801B
:1043B00080808080808080808080808080808080FD
:1043C00080808080808080808080808080808080ED
:1043D00080808080808080808080808080808080DD
:1043E0008080808080827F7982857A7A89837380D9
:1043F0008F7A6F8B8E6E7499836187A06B63A195A2
:104400005279B3744BA0AE4B61C2863592C7544209
:10441000C3AA2770E1701FB1D22D47E59A1187F02A
:10442000541ACBCF1E4AF294098CF55717C7D329DB
:1044300044E5A9196FE97D1B98E15A2BB5CB43449C
:10444000C8B1365ECD963876C8813F8BBD714A972C
:10445000B064599FA06168A1926272A0886480973D
:104460007F6D868D7C7782887E7B8183817E807F55
:1044700083817C80847E7C82857D7C84847C7C8737
:1044800084777F8B7E73878F7372938A667D9F7A22
:104490005F91A06265AC8F4984BA6649B0A83C7050
:1044A000CD7137ABB83B67D07537ABB33D70CD69D5
:1044B00040BBA22F88CE4E49D0912399D34048DBF0
:1044C000901D9AD93E44DD941D99D83F44DB951D3B
:1044D00096DB433CD8A21984E95721C8C72057EC82
:1044E0008C1390E75828BCC83B4ECAA33D6DC289C7
:1044F0004783B27A598B9F78668998786A87977ACA
:1045000068899A7565909B6A679B955E71A68658C7
:1045100084A7735B95A26362A5965373B47F488F9B
:10452000B75E50B59F3E78C66C42ADA84374C06D6F
:104530004DAE9A4789B55760BD803FA3B34269CC61
:104540007434ADBC375FDA7C22A9CF394BDC931AC7
:104550008CE2542DC5C02957DE902289D86537A931
:10456000BC5256B29C5473A7866382967E7482872F
:10457000827C7A858B77748F8C6A799C815E89A323
:10458000685FA4985074B978439FB6485AC8892E7A
:1045900095CC484AD08F2999C84559CD7F37A6B3C5
:1045A0004071CB693EBBA52D7FD85935C9AE1C756E
:1045B000E9611FC2CC244CE9951287EB5F20B4D28D
:1045C0004042C7B03A60C5964673B888507FAD7D0B
:1045D0005A85A37963899C74688C97746A8F976CE9
:1045E000699C935B74AC7F4E91B05959B8923889ED
:1045F000C95445C89B2889D35044CC972A91CB49AC
:1046000054CF852FA4C03B5DD77D25ABCB334DE088
:10461000901692E54C27CCC22658E0902584D372A0
:104620003F96B76D5793A474618CA07461919F6A93
:10463000639C9A5E6CA78D547BAD7D528CAE6755A2
:10464000A6A24C6CBD7E3F98BC5051C5922C8ECE1C
:104650004F47C9962D90C75052C68B379ABC495EBA
:10466000CA8132A2C23F52D6901D90E14D2AC9C2E2
:104670002557E2912186D76E3A9DBB63569DA36A6A
:10468000699297726A8E997065959C6366A495523B
:1046900072B481488BB9624BAFA73E6CCA7833A520
:1046A000C03F59D1832BA0C64058D17F34A5BA4111
:1046B00067CC743AAAB63B68D3752CACC53550DDCF
:1046C00092188AE45A24BCCB3849CFA33470C985E8
:1046D0004586B17B5B87A27D63819E806182A27AE1
:1046E0005B8DA66B599EA45561B7903E80C7653C13
:1046F000B6B0326CD76D2CB9B92B6BDD6632BFAD5D
:10470000307CCF5C45C2993090CA4B4CCE902695F8
:10471000D5463AD5A71877EA6A19AFD83E3CCFB14B
:104720003066CE8E3E83BA7A568AA2796785997FA3
:1047300066829F7A5D8AA66E599CA55960B29344A1
:104740007DBF6D42AAB03F69CC7533ADB83568D630
:104750006E31B6B43072D6643BBEA63080D05842BB
:10476000C5A4267FDD5B29C4C12059EC841098E6DE
:104770005228C1C53853CB9C4276B7835A84A08057
:104780006B7D968968769D895B7BAD7C4C90B45C33
:104790004FB6A03A73CD6D35B2B73167DA6D29BA2D
:1047A000BC296BDE672EBEB22E7AD4603FC0A22F2A
:1047B00087D1553FCAA31F7FE45A21C5CA214EEBBA
:1047C000951186E86228B0C74D4FB9A2526EAB8EE4
:1047D00060799C8A6876988E6671A18F5677B07FD3
:1047E000458FBB5B49B8A33576D16735B7B32D701C
:1047F000DA6830BBB52C72D7663ABDA73380CC5C83
:1048000048BF9C3287CE553DC9A72276E6621EB8C6
:10481000D22E43DDA42074DD7B3395C168539EA462
:10482000676D96906F768C8E766F8C966E659A9C7F
:104830005A67B18F427FBF6A42ADAD3C6DCC6F38D5
:10484000B3B03673D1663BBAA8337FCD5C46BE9A0F
:104850003889C6574CC1993088D1563BC4AF256BB7
:10486000E17820A0D54B3AC1B43B62C68F4481B5F4
:1048700078598F9F75678C977969879B77618CA230
:104880006C5A9EA45462B88C3E89BF5C4CB99A396C
:1048900086C6574DC2923490C54D55C8883799BCCD
:1048A0004A5EC583389EBD455ACC892A97D04A3A7C
:1048B000CBAF2369DF7E2498D25A3FB2B15162B0A8
:1048C000965777A587637F9A84687C9A87617BA4D3
:1048D000825386B16A4EA5A94765C380389CBC4601
:1048E0005BC98134A4BA3F65CE763AACAF3F72C69D
:1048F0006D46B0A3407CC46545B4A9376FD3712A17
:10490000A7CC3E43D1A8236EDB7E2E95C7654BA373
:10491000AB5F65A19663739A8D6A75948D6D709780
:1049200092616FA88C4D7FB86C47A6AC4567C6797D
:1049300038A5B63F69CD703AAFAF3C73C96C42B28F
:10494000A63F79C56846B4A33B78CB683AB3B63482
:104950005FD8852393D55637B7B8445AC098477760
:10496000B5815886A37965889A7B68869B7A628927
:10497000A1715A98A65B5AB3983E7AC66B3DADB208
:10498000396ACF7039B0B1386FCF693DB7A8377C7D
:10499000CA5E47BC9D3785C75B45BEA33279D469E3
:1049A0002FAFC33A4FD29B297BD1763B99BB62573D
:1049B000A39F626E9C906876968C6A75968C6774DD
:1049C0009C8C5A77AD814A8BB85F4CB1A43D72C9BB
:1049D0006D3BAFAF3A71CD683FB7A5367FCB5E4731
:1049E000BE9B3587C8584BC1993286CD5A3EBFAD64
:1049F0002D69DA7B279DD04F3EBEB03F65C28D4A00
:104A000080B17C5D8A9E786B88967A6C85967A6593
:104A1000899F725B99A35A5EB3953E7BC66A3DAE91
:104A2000B13869CF7337AEB13B6FCC6C3FB5A839A5
:104A30007BC96145BAA3357DCC623CBAAE316ED735
:104A40007229A8CB4146CDA62C70D2803790C16A7E
:104A50004F9DA766679A956C72938F6F7291916B59
:104A60006E9A935D6EAC894981BB6B41A8B4425C80
:104A7000CA872E97C8494ECB8F2F96C64A57C987EB
:104A8000369EBC4661C98035A3BD405DCF832C9E58
:104A9000C94447CF9F237CDD6928ACCA484AC3A5D7
:104AA000406FBE894F83AC79618A9B7A6C86957C16
:104AB0006A859A79608DA46958A2A34E63BE8A372D
:104AC0008AC65943BCA53379CE623FBAA43780C8A1
:104AD0005D49BE9A378AC6564BC298308ACD564138
:104AE000C3A62C73DA6E2AAAC94147CBA53271CD71
:104AF000803D92BA6A579BA1696D969270738F8FB1
:104B0000736F90956A699E955570B482418EBE5AB6
:104B100045B9A53473CF6B37B2B1396FCC6E40B3A2
:104B2000A73B7CC86249BB9D3682CA5C43BEA62EA9
:104B300075D7692CB1C6384DD39B297CD573379E68
:104B4000BE5C56AB9E5D71A18A697C9385737A8D3C
:104B50008A7274938E6375A4845184B3694AA9AB35
:104B60004362C8823398C44A4EC7923190C75251AB
:104B7000C48D3898BC4D5DC682389DBC465CCB86E2
:104B80002C97CC4941CCA62473DD7028A7CC4C4887
:104B9000BEA8466CBA8B5481A77E6685977D7082CD
:104BA00091816E7E967F6485A0725B99A25961B3F4
:104BB000913F7FC36840ADAF3C67CC7738A7B64222
:104BC00068C77641A9AB4375C36C45B0A83D73CCAB
:104BD0006D36B1B8375ED6832595D45139BFB73914
:104BE0005DCA923F81BC785591A5716990947472A9
:104BF0008991786D8A96706796996069A98F4C7AC9
:104C0000BA7142A0B64858C58E308EC9534BC29770
:104C1000378BC25757BE8B4195B74F61C2803A9EC2
:104C2000BB4658CB8D2B8FD15239C2B22D65D8845B
:104C30002B91CB6446A7AF5A64A99461789C866C8B
:104C40007D91877077928B68759D885B7EAA77507F
:104C500095AE5956B59A3B79C76A3BADB43E65CD22
:104C60007A35A6B74368C8763EA9AD4071C86E3F95
:104C7000B0AE386ED17030ADBF3855D68E258CD5DC
:104C80005D36B5BA455BC197467CB67E598AA17838
:104C90006B87957D6F82937F6A839978648D9D6A17
:104CA000629E99586CB1894584BD6345B0A93D6D3C
:104CB000C97539A7B54368C7763EA9AE4273C46DBE
:104CC00044B0A53E78C7683EB3AD366DD3742EA50B
:104CD000C5434CCAA13075CF793999BD6355A4A19C
:104CE000626C9C926C75928D7074918E6C73978CC3
:104CF0006378A0835C82A7755594A95F5AAE9945E5
:104D000076BE7342A3B14763C47F3C9FB54967C277
:104D10007A43A4AD486FC27144ABAA4171C7723BDC
:104D2000A8B7415ECC872E91CC5941B7B04162C142
:104D300091457FB77B578BA377688A98796C879664
:104D4000786A899972689397686A9C925E71A7895C
:104D5000537FB0714F9BAA5362BA874091B855599F
:104D6000BB8C4091B8555CBA884395B4545FBA8700
:104D70004194B95456BD923984C66341AFB1425F84
:104D8000C4913D7FBE784D92AE6E5F969B6E6D92E4
:104D900093717190907072938D69759987637C9F00
:104DA0007F5E85A4745B95A26063A9924D7CB5700B
:104DB0004DA3A54C6EB9774A9FA75170B67750A006
:104DC000A25175B5754E9FA74F69BC824092BA5BE0
:104DD00050B2A44469BF894484B8745393A76E65E4
:104DE00094967071908E73748F8C707892866C7DAF
:104DF00095806984977A67899A7265939A6369A3A3
:104E00008F547AAF764F97AB5960B18E4A84B46BAA
:104E100055A49D5473B07D5294A66066A98E5481AA
:104E2000AB7359979F666A9C9067779587707D8B67
:104E3000837A808282817F7D81847F7D818380806F
:104E400080808080808080808080807B848182835D
:104E50007389857C7C827F92688978A16168BE793C
:104E60003DC48244B2767289905EAE5487BB2EB840
:104E7000963E81B63F8AC4537199A028D05F57FFF0
:104E8000039EA9509966A28446CC6860998D84429D
:104E9000C5797658AD875A9A8956A3962EEB2FBFBF
:104EA0006360E909D86659C36665BD5F4DC6697C14
:104EB0006A9C9A39BD854A8CAD6A5B98A2567CADD6
:104EC000647A8E7A81A24285DC4D3FBAAC396DCFCF
:104ED000526EA78356AA727E8863AB6B7F6CA586E1
:104EE00048C7616BAF62808C7498639775839753E2
:104EF000AF6D739B7A64A46584A06A689D8A51CC67
:104F000032AC8659B851967B8B60BA4C84B35487C7
:104F10008C7874A255A1867077878B87559C9652A2
:104F2000AC70798781807E78928740D85570B05870
:104F30009D629F6B7A9E677F976D8384718B926869
:104F40007C9F618F81779367927E8374858E777063
:104F50009A7C6C946F927D778284857784827A853F
:104F60008C6B888A71887C8A768A7883837B837647
:104F70008F81689584816C8C8F6B848A767E8D7C22
:104F8000758A965A977E7B837D8977867F7F827C20
:104F9000857F7B85857091806F8F7F7B84778A8703
:104FA000737E8F7B748F7F797F8C797A8A807A7F0A
:104FB0008980738B88767D8E77817F847D7B8C7AE8
:104FC0007C848081817A887E7E8080827F7F8081E0
:104FD000808080808080808080817F8180868076D4
:104FE0008A817785837A81818080847D7F81847DB9
:104FF0007D83837F7F7F84817F8380807F808083A8
:10500000807D7F81837C83837D7F80817D84817CA3
:1050100080837D8080837D857B81857F7B818A7B8A
:105020007A8384807F8081837C80838080817D817E
:105030007C80897C807D837D8385807C7F84807A71
:1050400088817C7D86817C8480837B85807A868054
:105050007F83817F7B84837A83837F81837C837F4B
:1050600080837C857C847D8183837D857A85817C3A
:10507000867885808A727D86817F83837D7F7C8D23
:105080007F758A897776868984787F7F7F8B7C7D20
:1050900083808576818A738F7A838377838684760B
:1050A000887D7B867F769381707D8D86708E7A86F3
:1050B0007289867C886D927A838570868E72817BF8
:1050C000977872838A7C7F945F8E89737D8D8575D6
:1050D0007F84788F7A73927D76808B7B768B8469E0
:1050E00095867C71928459A884725DA38F6C8072BE
:1050F0008F867F78787F957283837D7B887B8B7B9F
:105100007C8F6B86837D8F787B8469929F6D6C9991
:1051100073768B888877757F7A9E76778D894E999E
:10512000A2678F727F7C92768183778E7D737C9865
:105130006E7D9D637D8099785F8AA373619C857580
:105140008381858483559F9E705D9A9C61817D805B
:105150007CA85385987B7578977F69808994777F41
:105160006C9088718A69A486617A8B8A7883807A48
:10517000A9556BAB97459F7C896D72AF725D929814
:105180007176739F728A67A47B51989E86449AB603
:10519000377C9F98518A8B807F777594867D729437
:1051A000588BBB468F866C88975F9C8458938F770B
:1051B0008A6688908653BC6E6E7C84A95086819CDA
:1051C00063709C6E9792507F956EA6785792A15708
:1051D00077A890595AB08F6D5CEB4F686CBB727AB0
:1051E0007C3CFF3869A889715E9493857067A877C5
:1051F000776DA27371997F7163BC64898471887FB4
:1052000062A297598D8B7354B198775978899F9979
:1052100050857A958B6167ABA35167999F5D8B88A9
:105220006694887A63A869907F6481938E86734EB2
:10523000A99E637881939742A3728D8370B0535D6A
:1052400098CA555CA466B25476A973994294867F35
:105250008F7D6E809375926388908E6270B45C953A
:105260009A32A79A6C7F76788D908078649F64A13B
:105270009744839995547FA875737772B6635ECD12
:105280006257938F888061929C5980927F8975774D
:105290008590637697AD6149A78E73836B9298660C
:1052A00058A2A8617F68A3739762A87B2DEB613A2F
:1052B000DE676E77A7637F898A9427B9B56B1BB5C4
:1052C000BA38AB9216E18B46A27A59D43C63EB38DC
:1052D0007A7BBF547D868F8455A164AD86587AA3AE
:1052E0004EA89050979D9C1E7BCE895F894C8FD293
:1052F000516BA25480B9618D8341B48B698A5FABD5
:1053000076679D64938E7068A7726C8E97598AA693
:105310005D9072A24F83B767678D88738B7C7393A0
:1053200068AD5A68A38B934998857C7D7B9E7751A5
:1053300090C83A61D0763F8FE74538B4BA29A87C47
:1053400064AC57868A8653C1706C8A86679C897064
:1053500080707FA36B70C52DA286699C7586894E6F
:10536000A192667F97638B8A8A687C9C699273702E
:105370007BA86981807788867F6993985C8683772C
:10538000B64A63AC857C6B838A817C886C85986621
:10539000789A8D625FB681738F706CA28645B590E6
:1053A0005A8083B04E8A81787B9E72708B83945F23
:1053B000779A95588192787B8885845DA37A729AD2
:1053C000717F865DB0767D737DA74B8F908B69670B
:1053D0009C8F8369729E81767672AB7D626DB18A95
:1053E0006D5593A7855F80837C95689C6181868BD2
:1053F00081708D6997737F99629C64956E73A77CA9
:105400007F558BA18E597B7C94905998777F886CBF
:105410008F88787D7D86848964898B768186856D89
:105420008D7C7D7D83937B678989857C7581768979
:10543000907389836B8978A16873997D67937C6E7B
:10544000B55F70947A8E78728B729D687D937B7550
:10545000837394905D927B7F769F70689586886D4C
:10546000817894855E997B788D7F7D718E886C982C
:105470007276936B90895E95856E8F836D809A713D
:105480007D7B81818877898071838E905398985C29
:105490008693718A7A7B7A8D8B6E7B8D7F846E94F6
:1054A0006D7FAD578072A383668A856995934E8F11
:1054B000A28051929078856E8871978E5D7F9394CB
:1054C00063789E7F627DA2766D8F7C7A81848B73F8
:1054D000808176947A6E987D7281896C98846C7CD8
:1054E0008B887B76808D81738186778D8476778EAD
:1054F000778A7F78867885837F7C808080808875B6
:105500008185738A7F808B77788580857C7C847C9D
:105510007B86807F7C7F84817C7F84807D7C868489
:10552000837188856E8A8483807A837B81897C7B82
:105530007C838B7280867B7F83837B81847586846A
:105540007D817C817B8483837A81807C83897B7B62
:10555000847C84817D7D8080847F7C847F837C814A
:10556000807D7F857D7D857B7C8B767D8E7A7B843F
:10557000817C8875858573818A81787A84857C842D
:1055800081777F8B7D78857F817F837D7D847C851E
:105590007C7F837F817F7C8978808B7581847C8010
:1055A000847D807F7D83847C7F7D80857B7D8580FD
:1055B0007C7F81857C7D81837C817D80857D7D80F4
:1055C0008084817D7C817F83847C7F7F857B8183D8
:1055D000807885867681847C857D7A8588757D88CE
:1055E000837A7C897C817B86807783837F817F7FC0
:1055F000847F7C867B7D887C807D81817B857C81AE
:105600007F837F81807B837F7F847F7F807D847F9A
:10561000807F817C84837F807C81857F7D80817F8A
:1056200080837D807A86857B7B887F7C817F867C7A
:105630007C857C81847D7D80857B84837B84807B6D
:1056400085807F7F8181807D7D867D7C847F7C8558
:105650007F7D847B83807D83837D7D837D80817C52
:105660008480807F7F847C838080817C8084817D36
:105670007F80847F7B857D7F847C817F80847F7B2E
:105680008383807D7D8381817D7C8381807D80811A
:105690007D80817F80817D80837F80817F7F7F830C
:1056A000837A81867B7F8081817B83817F808080FC
:1056B0007F857D7C80857F7C8081837D7F837F7DEE
:1056C000847D7F83807D8081807F7F817F817F81DA
:1056D0007F7D847F7D847F7D817F817F80817F80CE
:1056E00080807C83807C84807C847F7C84807D7CC3
:1056F00084817D80817F80847D7F8180807F7D80AB
:10570000847F7D7F81837D7D8181807D7F84807F9B
:105710007F81807F8081807D8083807F7F83807C8C
:1057200083807F807F817F7D867F7C818080808079
:105730007F808080808180807D808181817C81816B
:105740007C83817D808081807F80837D8081817F5B
:1057500080817D81808080807F7D83817F7F807F4D
:1057600080817F81817D8081817F7F8081817F7C3D
:1057700081817F7F7F7F83807F808081807D80812A
:105780007F7D83837C80817F7F8081807F7D81801E
:1057900081807D8080817D7F84807C7F8181807F0E
:1057A000817F7F8081807D818081807F8080837FF9
:1057B0007F807F817F80817D8180807F7F837F7DEF
:1057C0008181807F8080807F7F8181807C818080DB
:1057D0007F817F81817D808180807F81817D8080CC
:1057E00080807F81807D8081807F807F817F807FBE
:1057F0008081808080807F808080817F7F817F80AA
:1058000080808080807F80817F7F818080807F8199
:105810007F7F808181807F7F807F837F7F8080808A
:1058200080817F80817D80837F8080807F81837F76
:105830007F8081807D818080817D8080808080816B
:105840007F80817F8080807F7F81807F808081805A
:105850008080807F827F946A52B263AE9189A7195B
:105860007F5E5ADA88BDB340871E35A78CDCAFBB9C
:10587000801068286CBA9AFFA46762333D5AA7B5B6
:10588000C0C77B5C443D617FAFBCC98D6851395F47
:10589000759EBFB0AD795144507A81AEC2A28F6778
:1058A0003C576080B3A0B59675533E785F9EB99320
:1058B000B96F685A427F80ABA79BA25C6063508738
:1058C000949CB5868B6F506A5D95949EB777846182
:1058D000597065A298A097797C586E697BA38DA8B2
:1058E000887574637065939A8CA77D727164766C09
:1058F00093A1919E6D747656857694A9869D5A746F
:1059000079569374AA9F7A99507A7166977AAB9672
:105910007B805A7D6E749B869F917774607F747BC9
:105920009988A0826F7A627E768B9485A46F757059
:10593000688B6B9C90869B63826072936CA3848F50
:10594000915C8063778D7BA6808A8C5B78657E9581
:105950007EA7867C835B7667899F80A57C7B775852
:105960007A70989890986B8166637A7CA88C9785FA
:10597000697D5C767A85AE889177687C597F868F61
:10598000AD848B6A60825E8A9192AC738365618616
:10599000659A8D92A86779626F8472A28A969168DF
:1059A00072607E8483988D96796E6E6A85819492FA
:1059B0008491726E6A728F8196907E8D677270701C
:1059C0009E82968B778D5A797675A77F9A7F708B9A
:1059D0005A7C7787A27D9576727F6881798F9B80CC
:1059E0008573787A708180928F85806D7F787582DB
:1059F000809B8581826885727D8779A47F817D65A2
:105A00008D6A838C7DA2788375658D6D888A879C6D
:105A1000757C6F6D85778E898A9574726E768480B9
:105A2000918A898774726B80888490828C7D70766D
:105A30006A8B848B9277907270776E9681908B745C
:105A40008D6B7878739A838C8575866B787B7C995F
:105A5000858980728371777F849683877A74807258
:105A60007E7E8A948283727D7A75877C938A818117
:105A70006883787C887C98807F7E698679828A7C3E
:105A8000957E797A6E887C848B7D907B797A708B19
:105A90007F8488808C767A78778A808B81828776FB
:105AA0007B728587818D7A867F787C718C858589EC
:105AB000778A78777E748E84888673877877807803
:105AC000938484857185777B817A9584817F7285C3
:105AD0007480818192808376758378847F898D7CC0
