:100000000C9478000C9495000C9495000C94950039
:100010000C9495000C9495000C9495000C9495000C
:100020000C9495000C9495000C946E010C94950022
:100030000C9495000C9495000C9495000C949500EC
:100040000C9428010C9495000C9495000C94950048
:100050000C9495000C9495000C9495000C949500CC
:100060000C9495000C9495000C9400000C940000E6
:100070000C9400000C94000007634236B79BD8A78D
:100080001A39685618AEBAAB558C1D3CB7CC5763BD
:10009000BD6DEDFD753EF6177231BF000000803F6B
:1000A00000000000250028002B002E0000000000AA
:1000B000240027002A002D0004040404040404047E
:1000C00002020202020203030303030305050505FE
:1000D0000505050301020408102040800102040800
:1000E00010200102040810200208010410402040E2
:1000F00011241FBECFEFD8E0DEBFCDBF12E0A0E0DD
:10010000B1E0ECEAF0E102C005900D92A630B10733
:10011000D9F722E0A6E0B2E001C01D92A532B207F5
:10012000E1F70E94BD010C9454080C940000CF929A
:10013000DF92EF92FF92C0900F02D0901002E090F9
:100140001102F090120220E030E04AE755E4C701C6
:10015000B6010E943A071816ECF580E48093070276
:100160006091070270E090E080E00E9485069B01AC
:10017000AC01C701B6010E94A3059B01AC0160E080
:1001800070EA80EF95E40E94A3050E944F067093E9
:100190000902609308027093870060938600609163
:1001A00008027091090290E080E00E94850620E03C
:1001B00030E04FE753E40E94A30560930A02709376
:1001C0000B0280930C0290930D02FF90EF90DF9052
:1001D000CF90089520E030E04AEF54E4C701B60123
:1001E0000E943A07181614F480E2B8CF20E030E0FD
:1001F0004AE754E4C701B6010E943A07181614F4FE
:1002000080E1ACCF20E030E04AEF53E4C701B60113
:100210000E943A07181614F488E0A0CF20E030E0DE
:100220004AE753E4C701B6010E943A07181614F4CE
:1002300084E094CF20E030E04AEF52E4C701B601F9
:100240000E943A07181614F482E088CF81E086CF26
:100250001F920F920FB60F9211242F933F938F93FB
:100260009F93AF93BF938091210290912202A0911E
:100270002302B09124023091200220E4230F2D3775
:1002800028F023EC230F0196A11DB11D209320021D
:100290008093210290932202A0932302B093240220
:1002A00080911C0290911D02A0911E02B0911F022C
:1002B0000196A11DB11D80931C0290931D02A09375
:1002C0001E02B0931F02BF91AF919F918F913F91FA
:1002D0002F910F900FBE0F901F9018951F920F92A5
:1002E0000FB60F9211242F933F934F935F936F9309
:1002F0007F938F939F93AF93BF93EF93FF938091DF
:100300000E02811110920E0280911302882321F0B7
:10031000109213020E949700E0910602F0E0EB5F5A
:10032000FE4F608170E090E080E00E94870620919F
:100330000A0230910B0240910C0250910D020E9472
:10034000B5070E9456066093A10080910602909125
:100350000702890F80930602FF91EF91BF91AF9141
:100360009F918F917F916F915F914F913F912F91CD
:100370000F900FBE0F901F901895CF93DF93CDB7BE
:10038000DEB728970FB6F894DEBF0FBECDBF8091C1
:10039000F20080618EBB80E88093F2009EB3909360
:1003A000F2008093610091E0909361009091F200DF
:1003B0009F799EBB8093F2009EB39093F200909140
:1003C000F2009B7F9EBB8093F2009EB39093F2005D
:1003D0008093610010926100789484B5826084BD3E
:1003E00084B5816084BD85B5826085BD85B5816039
:1003F00085BD80916E00816080936E0010928100B7
:100400008091810082608093810080918100816071
:100410008093810080918000816080938000809132
:10042000B10084608093B1008091B00081608093BE
:10043000B000809191008260809391008091910042
:100440008160809391008091900081608093900002
:1004500080917A00846080937A0080917A008D7F09
:1004600080937A0080917A008E7F80937A008091C9
:100470007A00806880937A001092C100E1EEF0E08B
:100480002491E5ECF0E08491882399F090E0880FC6
:10049000991FFC01E455FF4FA591B491FC01E05672
:1004A000FF4F859194918FB7F894EC91E22BEC93E8
:1004B0008FBF81E0809300018091AD008F7B80939E
:1004C000AD00809100018111A6C18091A0008C70C7
:1004D00081608093A0008091F00081FF0AC080912C
:1004E000F0008D7F8EBB80E88093F0008EB3809308
:1004F000F000809100018295880F880F807C8093A6
:100500007C00E8EDF0E0E491ECEBF0E08491909178
:10051000A0009C609093A000882369F090E0880F71
:10052000991FFC01E455FF4F25913491FC01E056E1
:10053000FF4F8591949181E080930E0240E050E05E
:1005400060E87FE340930A0250930B0260930C0231
:1005500070930D0210920902109208028093070214
:100560001092060292E8909380009AE190938100A5
:1005700090E290936F001092850010928400809317
:10058000130280E090E0A8ECB2E480930F02909315
:100590001002A0931102B093120280910E028111F9
:1005A0000E94970011E00E947B044B015C01409087
:1005B00018025090190260901A0270901B02C30139
:1005C000B201905820E030E040EA51E40E94B507C3
:1005D0000E941D066B017C0180911402909115020E
:1005E000A0911602B091170289839A83AB83BC83D2
:1005F000BC01CD01905820E030E040EA51E40E9477
:10060000B5070E941D0620E030E040E85FE30E944D
:1006100037059B01AC0160E070E080E89FE30E9439
:10062000A3056D837E838F83988720E030E040E8C8
:100630005FE3C701B6010E9437059B01AC0160E092
:1006400070E080E89FE30E94A30520E030E040ECEA
:100650005FE30E94B5076B017C01A301920160E09A
:1006600070E0CB010E94360520E030E0A9010E9435
:1006700037059B01AC01C701B6010E9437056B012C
:100680007C0120E030E040EC5FEB6D817E818F816A
:1006900098850E94B5079B01AC01C701B6010E9475
:1006A00037056B017C01C501B40128EE33E040E061
:1006B00050E00E94D3040E9487062FE632E143E80F
:1006C0005AE30E94B50720E030E040E05FE30E947B
:1006D00036052DEC3CEC4CEC5DE30E94B5079B012C
:1006E000AC01C701B6010E9437052AE037ED43EAA5
:1006F0005BE30E94B507A30192010E9437056B01DD
:100700007C01C0921802D0921902E0921A02F09273
:100710001B02905820E030E040EA51E40E94B50707
:100720000E941D064B015C0129813A814B815C814D
:1007300060E070E0CB010E94360520E030E040E848
:100740005FE30E9436052B013C0120E030E0A90167
:100750006D817E818F8198850E94B5079B01AC01D8
:10076000C301B2010E9437052B013C0120E030E0BB
:1007700040E85FE3C501B4010E9437059B01AC016D
:1007800060E070E080E89FE30E94A30520E030E095
:1007900040EC5FE30E94B5079B01AC01C301B201CD
:1007A0000E9437052AE037ED43EA5BE30E94B50774
:1007B00029813A814B815C810E9437056093140244
:1007C00070931502809316029093170210931302F0
:1007D00020E030E04CED53E4C701B6010E94B507BC
:1007E00020E030E04AE754E40E94370560930F02AE
:1007F00070931002809311029093120280910E0266
:1008000081110E949700A0E0B0E0AB2B09F4CBCEA1
:100810000E940000C8CE813031F48091A0008C701D
:100820008093A00066CE8091A0008C70826080933F
:10083000A00080910001823029F48091CE00809345
:10084000C80057CE843041F48091AD00806480931D
:10085000AD008091CC00F3CF8091CD00F0CF8F928E
:100860009F92AF92BF92CF92DF92EF92FF92CF937F
:10087000DF93EC01688179818A819B816115710523
:100880008105910521F464E279ED8BE597E02DE196
:1008900033EF41E050E00E94D30449015A019B012B
:1008A000AC01A7EAB1E40E94F2046B017C01ACEE5A
:1008B000B4EFA50194010E940005C60ED71EE81EE4
:1008C000F91EF7FE06C081E0C81AD108E10880E8E9
:1008D000F80AC882D982EA82FB82C701B6019F77F3
:1008E000DF91CF91FF90EF90DF90CF90BF90AF90CE
:1008F0009F908F9008958F929F92AF92BF92CF92C8
:10090000DF92EF92FF92609101017091020180915C
:10091000030190910401611571058105910521F490
:1009200064E279ED8BE597E02DE133EF41E050E0B3
:100930000E94D30449015A019B01AC01A7EAB1E42A
:100940000E94F2046B017C01ACEEB4EFA5019401AE
:100950000E940005C60ED71EE81EF91EF7FE06C04F
:1009600081E0C81AD108E10880E8F80AC0920101C4
:10097000D0920201E0920301F0920401C701B60196
:100980009F77FF90EF90DF90CF90BF90AF909F90B8
:100990008F90089560930101709302018093030189
:1009A000909304010895052E97FB1EF400940E9475
:1009B000EA0457FD07D00E94050507FC03D04EF45A
:1009C0000C94EA0450954095309521953F4F4F4F38
:1009D0005F4F089590958095709561957F4F8F4FEB
:1009E0009F4F08950E942705A59F900DB49F900DDD
:1009F000A49F800D911D11240895B7FF0C94F2045B
:100A00000E94F204821B930B0895A1E21A2EAA1BE6
:100A1000BB1BFD010DC0AA1FBB1FEE1FFF1FA217AE
:100A2000B307E407F50720F0A21BB30BE40BF50BAB
:100A3000661F771F881F991F1A9469F76095709534
:100A4000809590959B01AC01BD01CF010895A29FB7
:100A5000B001B39FC001A39F700D811D1124911D92
:100A6000B29F700D811D1124911D08955058BB2710
:100A7000AA270E944E050C9400070E94F20638F047
:100A80000E94F90620F039F49F3F19F426F40C94E3
:100A9000C8060EF4E095E7FB0C94C206E92F0E940D
:100AA000110758F3BA17620773078407950720F0F8
:100AB00079F4A6F50C9433070EF4E0950B2EBA2FBB
:100AC000A02D0B01B90190010C01CA01A001112454
:100AD000FF27591B99F0593F50F4503E68F11A1600
:100AE000F040A22F232F342F4427585FF3CF469591
:100AF00037952795A795F0405395C9F77EF41F16B3
:100B0000BA0B620B730B840BBAF09150A1F0FF0F7C
:100B1000BB1F661F771F881FC2F70EC0BA0F621F68
:100B2000731F841F48F4879577956795B795F79558
:100B30009E3F08F0B0CF9395880F08F09927EE0FED
:100B40009795879508950E94B7050C9400070E9419
:100B5000F90658F00E94F20640F029F45F3F29F0B0
:100B60000C94C20651110C9434070C94C8060E94D0
:100B7000110768F39923B1F3552391F3951B550B96
:100B8000BB27AA2762177307840738F09F5F5F4F60
:100B9000220F331F441FAA1FA9F335D00E2E3AF09F
:100BA000E0E832D091505040E695001CCAF72BD0B7
:100BB000FE2F29D0660F771F881FBB1F2617370708
:100BC0004807AB07B0E809F0BB0B802DBF01FF273A
:100BD00093585F4F3AF09E3F510578F00C94C2064F
:100BE0000C9434075F3FE4F3983ED4F386957795F1
:100BF0006795B795F7959F5FC9F7880F911D9695F3
:100C0000879597F90895E1E0660F771F881FBB1F4E
:100C1000621773078407BA0720F0621B730B840BFB
:100C2000BA0BEE1F88F7E095089529F416F00C949E
:100C3000C2060C9433070C94C8060E941907A8F347
:100C40009638A0F707F80F92E8942BE33AEA48EBBE
:100C50005FE70E94CB070F920F920F924DB75EB7DE
:100C60000F920E948107E8E7F0E00E94CB064F91C7
:100C70005F91EF91FF91E595EE1FFF1F49F0FE5741
:100C8000E0684427EE0F441FFA95E1F74195550BB4
:100C90000E944B070F9007FE0C943F0708950E9497
:100CA00056066894B1110C94340708950E941907F0
:100CB00088F09F5798F0B92F9927B751B0F0E1F01D
:100CC000660F771F881F991F1AF0BA95C9F714C0CD
:100CD000B13091F00E943307B1E008950C943307CE
:100CE000672F782F8827B85F39F0B93FCCF3869506
:100CF00077956795B395D9F73EF490958095709563
:100D000061957F4F8F4F9F4F0895E89409C097FBDF
:100D10003EF490958095709561957F4F8F4F9F4FD2
:100D20009923A9F0F92F96E9BB279395F695879516
:100D300077956795B795F111F8CFFAF4BB0F11F4D9
:100D400060FF1BC06F5F7F4F8F4F9F4F16C0882380
:100D500011F096E911C0772321F09EE8872F762FB6
:100D600005C0662371F096E8862F70E060E02AF0F7
:100D70009A95660F771F881FDAF7880F96958795E3
:100D800097F9089597F99F6780E870E060E008950B
:100D90009FEF80EC0895DF93CF931F930F93FF9203
:100DA000EF92DF927B018C01689406C0DA2EEF018E
:100DB0000E94C807FE01E894A591259135914591BF
:100DC0005591A6F3EF010E944E05FE019701A8017F
:100DD000DA9469F7DF90EF90FF900F911F91CF9118
:100DE000DF91089500240A941616170618060906BE
:100DF000089500240A941216130614060506089591
:100E0000092E0394000C11F4882352F0BB0F40F418
:100E1000BF2B11F460FF04C06F5F7F4F8F4F9F4F58
:100E2000089557FD9058440F551F59F05F3F71F0DA
:100E30004795880F97FB991F61F09F3F79F0879541
:100E40000895121613061406551FF2CF4695F1DFCA
:100E500008C0161617061806991FF1CF869571055A
:100E6000610508940895E894BB2766277727CB018E
:100E700097F908950E94220808F48FEF08959B01C6
:100E8000AC0160E070E080E89FE30C94A3050C9453
:100E9000C2060C9446080E941907D8F39923C9F397
:100EA000940F511DA3F39150504094F059F08823B2
:100EB00032F0660F771F881F91505040C1F79E3F58
:100EC00051052CF7880F911D9695879597F90895F0
:100ED0005F3FACF0983E9CF0BB2786957795679571
:100EE000B79508F4B1609395C1F7BB0F58F711F4AB
:100EF00060FFE8CF6F5F7F4F8F4F9F4FE3CF0C9422
:100F00003407FA01DC01AA0FBB1F9B01AC01BF57DC
:100F100028F4222733274427507820C0B75190F473
:100F2000AB2F0024469537952795011CA395D2F346
:100F3000002071F0220F331F441FB395DAF30ED057
:100F40000C94360561307105A0E88A07B94630F483
:100F50009B01AC016627772788279078309621F08F
:100F6000208331834283538308950E94C8070C94E1
:100F700000070E94F20638F00E94F90620F095233F
:100F800011F00C94C2060C94C80611240C9434077A
:100F90000E94110770F3959FC1F3950F50E0551F04
:100FA000629FF001729FBB27F00DB11D639FAA27BE
:100FB000F00DB11DAA1F649F6627B00DA11D661F0D
:100FC000829F2227B00DA11D621F739FB00DA11D2E
:100FD000621F839FA00D611D221F749F3327A00DE8
:100FE000611D231F849F600D211D822F762F6A2F84
:100FF00011249F5750409AF0F1F088234AF0EE0FE9
:10100000FF1FBB1F661F771F881F91505040A9F715
:101010009E3F510580F00C94C2060C9434075F3F4C
:10102000E4F3983ED4F3869577956795B795F79551
:10103000E7959F5FC1F7FE2B880F911D96958795C9
:1010400097F90895990F0008550FAA0BE0E8FEEFF5
:1010500016161706E807F907C0F012161306E4077C
:10106000F50798F0621B730B840B950B39F40A2675
:1010700061F0232B242B252B21F408950A2609F453
:10108000A140A6958FEF811D811D08959F3F31F0EE
:10109000915020F4879577956795B795880F911DA6
:0C10A0009695879597F90895F894FFCF76
:1010AC000101000000808386898C8F9295989C9F0B
:1010BC00A2A5A8ABAEB0B3B6B9BCBFC1C4C7C9CCAE
:1010CC00CED1D3D5D8DADCDEE0E2E4E6E8EAECED2A
:1010DC00EFF0F2F3F5F6F7F8F9FAFBFCFCFDFEFE87
:1010EC00FFFFFFFFFFFFFFFFFFFFFFFEFEFDFCFC0E
:1010FC00FBFAF9F8F7F6F5F3F2F0EFEDECEAE8E6C7
:10110C00E4E2E0DEDCDAD8D5D3D1CECCC9C7C4C199
:10111C00BFBCB9B6B3B0AEABA8A5A29F9C98959234
:10112C008F8C898683807C797673706D6A67636037
:10113C005D5A5754514F4C494643403E3B38363329
:10114C00312E2C2A272523211F1D1B19171513128D
:10115C00100F0D0C0A090807060504030302010110
:10116C000000000000000000000000010102030369
:10117C000405060708090A0C0D0F10121315171990
:10118C001B1D1F212325272A2C2E313336383B3E9D
:10119C00404346494C4F5154575A5D6063676A6DE2
:0611AC00707376797C00EF
:00000001FF
