:100000000C9464000C9481000C9481000C94810089
:100010000C9481000C9481000C9481000C943E019E
:100020000C9481000C9481000C9481000C9481004C
:100030000C9481000C94F1020C9481000C948100CA
:100040000C94F8000C9481000C9481000C948100B5
:100050000C9481000C9481000C9481000C9481001C
:100060000C9481000C9481000C9400000C9400000E
:100070000C9400000C9400000000000025002800F3
:100080002B002E0000000000240027002A002D0075
:10009000040404040404040402020202020203032E
:1000A000030303030505050505050503010204080F
:1000B00010204080010204081020010204081020D2
:1000C000020801041040204011241FBECFEFD8E0E9
:1000D000DEBFCDBF11E0A0E0B1E0EEE2FCE002C087
:1000E00005900D92AE37B107D9F721E0AEE7B1E048
:1000F00001C01D92A13EB207E1F70E9401030C94DA
:1001000015060C9400003FB7F8948091DD019091A2
:10011000DE01A091DF01B091E00126B5A89B05C0EA
:100120002F3F19F00196A11DB11D3FBFBA2FA92F76
:10013000982F8827BC01CD01620F711D811D911D73
:10014000660F771F881F991F08958F929F92AF9215
:10015000BF92CF92DF92EF92FF926B017C010E94DF
:1001600083004B015C01C114D104E104F104B9F036
:100170000E948300681979098A099B09683E7340C7
:100180008105910580F321E0C21AD108E108F10848
:1001900088EE880E83E0981EA11CB11CE4CFFF906E
:1001A000EF90DF90CF90BF90AF909F908F90089589
:1001B000FC01272F30E0972F548155FF02C040E803
:1001C000470F54FF05C027FD9095990F40E8490F50
:1001D00056FF0CC08281938144E0969587954A959D
:1001E000E1F741E88217930708F44FE7842F089559
:1001F0001F920F920FB60F9211242F933F938F935C
:100200009F93AF93BF938091D9019091DA01A09110
:10021000DB01B091DC013091D80120E4230F2D37B0
:1002200028F023EC230F0196A11DB11D2093D801C6
:100230008093D9019093DA01A093DB01B093DC01A4
:100240008091DD019091DE01A091DF01B091E0018C
:100250000196A11DB11D8093DD019093DE01A09355
:10026000DF01B093E001BF91AF919F918F913F91DA
:100270002F910F900FBE0F901F9018951F920F9205
:100280000FB60F9211246F927F928F929F92AF922E
:10029000BF92CF92DF92EF92FF920F931F932F9313
:1002A0003F934F935F936F937F938F939F93AF93FE
:1002B000BF93EF93FF93CF93DF9300D01F92CDB7FF
:1002C000DEB78091B30083588093B3002091000182
:1002D00030910101C901817099279195819591090A
:1002E0008827947B36952795822793279093010141
:1002F00080930001992E10928F015EE0852E07E019
:1003000010918F01133008F084C066246A94610E46
:10031000111102C032E0632E812F90E07C01EE0CBF
:10032000FF1CF701E757FE4F60817181889E9001A5
:10033000899E300D1124A9014F565E4F6A01DA01E2
:10034000AD90BC901197A60EB71E089FF001099FB3
:10035000F00D1124E554FE4F848187FF18C06A25F3
:100360007B2576FF0BC0F701ED57FE4F12962C91BF
:10037000492D42039001112431832083F701E7576F
:10038000FE4FB182A0821F5F10938F01B9CF82FF11
:1003900030C012967C90C72CD12C109FC001112424
:1003A00085549E4F0E94D800282F082E000C330B36
:1003B000E62DF0E0EE0FFF1FE757FE4F4081518121
:1003C000F701ED57FE4F57FF0CC088279927821B76
:1003D000930B8C9D90018D9D300D9C9D300D1124B3
:1003E000CBCF272D382F3203C00111249183808376
:1003F000C5CF81FDC3CF109FC001112485549E4FEE
:100400000E94D800F701ED57FE4FD60112962C91AD
:10041000E9CF109282011092810110928001109216
:100420007F018091D201209183013091840180FF6E
:1004300067C03093800120937F01409185015091E6
:10044000860181FF62C020917F0130918001240FDD
:10045000351F3093800120937F0182FF61C080911E
:100460007F01909180012091870130918801820F56
:10047000931F9093800180937F01809182019091DE
:10048000800196959695890F805880937E01809182
:10049000900191E0980F909390018F3108F45FC024
:1004A0008091070190910801A091090189839A83A5
:1004B000AB83AE014F5F5F4F6A01E1E9F1E09E015E
:1004C0002C5F3F4F11E045E555E5D6018D916D015B
:1004D00090E085549E4FDC018C9180FF72C0848532
:1004E00095856185662309F45CC063817481860FFC
:1004F000971F8635B5E59B0730F59587848726C01D
:10050000309382012093810198CF20918101309115
:100510008201240F351F30938201209381019DCFEA
:100520008091D30187FDA9CF8091810190918201B3
:100530002091870130918801820F931F909382014F
:10054000809381019ACF5587448711868585828360
:100550003E962C153D0509F0B8CF109290010F90F2
:100560000F900F90DF91CF91FF91EF91BF91AF91DD
:100570009F918F917F916F915F914F913F912F91BB
:100580001F910F91FF90EF90DF90CF90BF90AF90B1
:100590009F908F907F906F900F900FBE0F901F9045
:1005A0001895628573856817790784F6E580F6806B
:1005B0008E199F09861797070CF09FCF7587648760
:1005C000C5CF118784859585181619060CF0BECF06
:1005D00067817085861B970B97FF8FCF15861486D2
:1005E000B5CF1F920F920FB60F9211248F93809167
:1005F0007E018093A1008F910F900FBE0F901F90EE
:1006000018958091F20080618EBB80E88093F200A3
:100610009EB39093F2008093610091E0909361000B
:100620009091F2009F799EBB8093F2009EB39093CD
:10063000F2009091F2009B7F9EBB8093F2009EB3EC
:100640009093F2008093610010926100789484B5D9
:10065000826084BD84B5816084BD85B5826085BDBE
:1006600085B5816085BD80916E00816080936E004C
:10067000109281008091810082608093810080913E
:1006800081008160809381008091800081608093EF
:1006900080008091B10084608093B1008091B000AF
:1006A00081608093B000809191008260809391007E
:1006B0008091910081608093910080919000816091
:1006C0008093900080917A00846080937A0080917A
:1006D0007A008D7F80937A0080917A008E7F80935C
:1006E0007A0080917A00806880937A001092C1002D
:1006F000E9EBF0E02491EDE9F0E08491882399F0B2
:1007000090E0880F991FFC01EC57FF4FA591B49121
:10071000FC01E858FF4F859194918FB7F894EC91C4
:10072000E22BEC938FBF81E0809302018091AD00BA
:100730008F7B8093AD008091020181116BC180910C
:10074000A0008C7081608093A0008091F00081FFF8
:100750000AC08091F0008D7F8EBB80E88093F0000E
:100760008EB38093F000809102018295880F880FEC
:10077000807C80937C00E0EBF0E0E491E4E9F0E041
:1007800084919091A0009C609093A000882369F0D0
:1007900090E0880F991FFC01EC57FF4F2591349191
:1007A000FC01E858FF4F8591949181E88093800087
:1007B00089E0809381001092B00082E08093B100C4
:1007C0009DE79093B3008093700081E080936F0069
:1007D00080EF8093C1018093C8018093CF0101E92C
:1007E00011E0CBEBD1E06BEB862E61E0962E31E091
:1007F0007EE0772EE0EBAE2EE5E0BE2EF5E5EF2EA7
:10080000FE2CF8013187E1E0F1E0C23CDF0731F076
:10081000E0E061E0C93CD60709F4E2E07E9EF00129
:100820001124EF56FE4F31872E81822F90E0A4E0F5
:1008300095958795AA95E1F78A9D60018B9DD00CCF
:100840009A9DD00C1124D386C2864D81A42FB0E08E
:1008500084E0B595A7958A95E1F7AA0FBB1FA65D21
:10086000BE4F6D917C91C7010E94ED057483638337
:10087000CA9CC001CB9C900DDA9C900D1124B7014D
:10088000681B790BCB014F70A42FB0E0AA0FBB1FE0
:10089000A65FBE4F6D917C910E94ED0576836583C6
:1008A0002F70A22FB0E0AA0FBB1FA65FBE4F6D91A5
:1008B0007C91C6010E94ED0570876783F80115865B
:1008C0001486025F1F4F27968016910609F099CF74
:1008D0008091BF012FEF34E530939C0120939B0161
:1008E000F0929501E092940145E05BEE5093970100
:1008F0004093960130939901209398018E70806106
:100900008093BF018091CD013093B8012093B7014E
:10091000F092B101E092B0015093B3014093B20163
:100920003093B5012093B4018E7080618093CD0126
:1009300040E2542E5AE0652E712C812C6DE7962EE4
:10094000A12CB12C04EF11E070E0E72E70E0F72E3F
:1009500085B1852585B90E947A05EC010E947A054A
:100960006C01CE01B3010E940106EC01DD27CC0F22
:10097000DD1FCC0FDD1FC65BDE4F6881798190E003
:1009800080E0CB0177276627A50194010E94BC0572
:10099000F894309392012093910178946A817B813D
:1009A00090E080E0CB0177276627A50194010E94A3
:1009B000BC05F8943093AE012093AD0178948091FA
:1009C000BF0181608093BF018091CD0181608093E0
:1009D000CD01C601B8010E9401060A96BC0190E053
:1009E00080E00E94A5008091BF018E7F8093BF01AF
:1009F0008091CD018E7F8093CD0162E370E080E035
:100A000090E00E94A500E114F10409F4A1CF0E9436
:100A100000009ECF813031F48091A0008C708093D3
:100A2000A000A1CE8091A0008C7082608093A00075
:100A300080910201823029F48091CE008093C80019
:100A400092CE843041F48091AD0080648093AD00FB
:100A50008091CC00F3CF8091CD00F0CF8F929F9208
:100A6000AF92BF92CF92DF92EF92FF92CF93DF933C
:100A7000EC01688179818A819B816115710581050D
:100A8000910521F464E279ED8BE597E02DE133EFF8
:100A900041E050E00E948A0549015A019B01AC01E6
:100AA000A7EAB1E40E94A9056B017C01ACEEB4EFAA
:100AB000A50194010E94B705DC01CB018C0D9D1DA1
:100AC000AE1DBF1DB7FF03C00197A109B0488883C1
:100AD0009983AA83BB839F77DF91CF91FF90EF909B
:100AE000DF90CF90BF90AF909F908F9008950E941D
:100AF0002E05089583E091E00E942E050895B0E050
:100B0000A0E08093030190930401A0930501B093AA
:100B100006010895052E97FB1EF400940E94A1057E
:100B200057FD07D00E94BC0507FC03D04EF40C947F
:100B3000A10550954095309521953F4F4F4F5F4F00
:100B4000089590958095709561957F4F8F4F9F4F39
:100B500008950E94DE05A59F900DB49F900DA49F5F
:100B6000800D911D11240895B7FF0C94A9050E94D2
:100B7000A905821B930B0895A1E21A2EAA1BBB1B89
:100B8000FD010DC0AA1FBB1FEE1FFF1FA217B30759
:100B9000E407F50720F0A21BB30BE40BF50B661F6F
:100BA000771F881F991F1A9469F760957095809533
:100BB00090959B01AC01BD01CF010895A29FB001AA
:100BC000B39FC001A39F700D811D1124911DB29F81
:100BD000700D811D1124911D0895AA1BBB1B51E1AD
:100BE00007C0AA1FBB1FA617B70710F0A61BB70B9D
:100BF000881F991F5A95A9F780959095BC01CD0142
:100C0000089597FB072E16F4009407D077FD09D0BE
:100C10000E94ED0507FC05D03EF4909581959F4F0D
:0E0C20000895709561957F4F0895F894FFCF69
:100C2E00E1AC0101000000040B12060018003000B8
:100C3E0048007200A800CC00F0002C01EE02DC058A
:100C4E006009B80B2823983AC05D0200040010001A
:100C5E00180026003A00440050006400FA00F40127
:100C6E002003E803B80B8813401FAD033805B90203
:100C7E00B904B9023805B902C5050203B904020365
:100C8E0038050203C5055403B9045403380554034B
:0E0C9E00C505AD03B904AD03C5050000000097
:00000001FF
