:100000000C9464000C9481000C9481000C94810089
:100010000C9481000C9481000C9481000C9481005C
:100020000C9481000C9481000C9481000C94C90004
:100030000C9481000C9481000C9481000C9481003C
:100040000C9483000C9481000C9481000C9481002A
:100050000C9481000C9481000C9481000C9481001C
:100060000C9481000C9481000C9400000C9400000E
:100070000C9400000C9400000000000025002800F3
:100080002B002E0000000000240027002A002D0075
:10009000040404040404040402020202020203032E
:1000A000030303030505050505050503010204080F
:1000B00010204080010204081020010204081020D2
:1000C000020801041040204011241FBECFEFD8E0E9
:1000D000DEBFCDBF11E0A0E0B1E0E8EAF4E002C08D
:1000E00005900D92A230B107D9F721E0A2E0B1E06E
:1000F00001C01D92A031B207E1F70E9435010C94B6
:1001000052020C9400001F920F920FB60F9211240E
:100110002F933F938F939F93AF93BF9380910C0145
:1001200090910D01A0910E01B0910F0130910B0142
:1001300020E4230F2D3728F023EC230F0196A11D77
:10014000B11D20930B0180930C0190930D01A0939E
:100150000E01B0930F018091070190910801A091C9
:100160000901B0910A010196A11DB11D80930701FB
:1001700090930801A0930901B0930A01BF91AF9138
:100180009F918F913F912F910F900FBE0F901F90D5
:1001900018951F920F920FB60F9211240F931F9371
:1001A0002F933F934F935F936F937F938F939F937F
:1001B000AF93BF93409103015091040160910501F9
:1001C00070910601DB01CA0122E0880F991FAA1F66
:1001D000BB1F2A95D1F78A019B010F2EFAE03595B6
:1001E000279517950795FA95D1F7F02D8027849FCD
:1001F000802D11248A019B0199E03595279517954B
:1002000007959A95D1F7402B841B8093020181308A
:1002100021F485B190E2892785B9809103019091FD
:100220000401A0910501B09106010196A11DB11D27
:100230008093030190930401A0930501B0930601FC
:10024000809102018093A100BF91AF919F918F9106
:100250007F916F915F914F913F912F911F910F91DE
:100260000F900FBE0F901F9018958091F200806143
:100270008EBB80E88093F2009EB39093F20080934F
:10028000610091E0909361009091F2009F799EBB94
:100290008093F2009EB39093F2009091F2009B7FC6
:1002A0009EBB8093F2009EB39093F2008093610016
:1002B00010926100789484B5826084BD84B58160B9
:1002C00084BD85B5826085BD85B5816085BD809121
:1002D0006E00816080936E00109281008091810099
:1002E0008260809381008091810081608093810091
:1002F000809180008160809380008091B100846053
:100300008093B1008091B00081608093B0008091B3
:100310009100826080939100809191008160809330
:1003200091008091900081608093900080917A008C
:10033000846080937A0080917A008D7F80937A0028
:1003400080917A008E7F80937A0080917A00806815
:1003500080937A001092C100E9EBF0E02491EDE97E
:10036000F0E08491882399F090E0880F991FFC01B8
:10037000EC57FF4FA591B491FC01E858FF4F8591D0
:1003800094918FB7F894EC91E22BEC938FBF81E0BE
:10039000809300018091AD008F7B8093AD008091B0
:1003A000000181115BC08091A0008C7081608093FE
:1003B000A0008091F00081FF0AC08091F0008D7F45
:1003C0008EBB80E88093F0008EB38093F000809124
:1003D00000018295880F880F807C80937C00E0EB81
:1003E000F0E0E491E4E9F0E084919091A0009C6059
:1003F0009093A000882369F090E0880F991FFC017A
:10040000EC57FF4F25913491FC01E858FF4F85913F
:100410009491F89480918100877E88608093810018
:10042000809180008C7F8093800080918100887F04
:1004300081608093810080EA9FE09093890080939F
:10044000880080916F00826080936F007894C0E094
:10045000D0E02097F1F30E940000FBCF813031F40F
:100460008091A0008C708093A000B1CF8091A000FB
:100470008C7082608093A00080910001823029F40A
:100480008091CE008093C800A2CF843041F4809147
:10049000AD0080648093AD008091CC00F3CF80915B
:0804A000CD00F0CFF894FFCF6E
:0204A800010051
:00000001FF
