:100000000C9464000C9481000C9481000C94810089
:100010000C9481000C9481000C9481000C9481005C
:100020000C9481000C9481000C9481000C94EB00E2
:100030000C9481000C9481000C9481000C9481003C
:100040000C94A5000C9481000C9481000C94810008
:100050000C9481000C9481000C9481000C9481001C
:100060000C9481000C9481000C9400000C9400000E
:100070000C9400000C9400000000000025002800F3
:100080002B002E0000000000240027002A002D0075
:10009000040404040404040402020202020203032E
:1000A000030303030505050505050503010204080F
:1000B00010204080010204081020010204081020D2
:1000C000020801041040204011241FBECFEFD8E0E9
:1000D000DEBFCDBF14E0A0E0B1E0EEECF9E002C07D
:1000E00005900D92A630B107D9F724E0A6E0B4E060
:1000F00001C01D92A931B207E1F70E94AC010C9436
:10010000E5040C9400003FB7F89480911504909199
:100110001604A0911704B091180426B5A89B05C039
:100120002F3F19F00196A11DB11D3FBFBA2FA92F76
:10013000982F8827BC01CD01620F711D811D911D73
:10014000660F771F881F991F08951F920F920FB691
:100150000F9211242F933F938F939F93AF93BF934D
:100160008091110490911204A0911304B091140491
:100170003091100420E4230F2D3728F023EC230FB7
:100180000196A11DB11D209310048093110490933A
:100190001204A0931304B093140480911504909159
:1001A0001604A0911704B09118040196A11DB11D69
:1001B0008093150490931604A0931704B093180429
:1001C000BF91AF919F918F913F912F910F900FBE53
:1001D0000F901F9018951F920F920FB60F92112437
:1001E000CF92DF92EF92FF922F933F934F935F93C3
:1001F0006F937F938F939F93AF93BF93EF93FF93EF
:1002000060910A04062E000C770B880B990B0E9454
:1002100058046B017C0120E030E040E852E40E9489
:10022000E00418160CF46CC020E030E040E852EC1A
:10023000C701B6010E941B0487FD69C0C701B60152
:100240000E9420046093A10080910D0490910E04FF
:10025000009709F063C0E0910804F0910904EB5F96
:10026000FC4F808180930A0480910F04882331F031
:1002700010920F04109209041092080420910604B1
:100280003091070480910B0490910C0428173907D2
:1002900068F08091080490910904019690930904F4
:1002A00080930804109207041092060480910804B9
:1002B000909109048F3F910529F020F010920F04CE
:1002C00010920A048091060490910704019690937D
:1002D000070480930604FF91EF91BF91AF919F9126
:1002E0008F917F916F915F914F913F912F91FF90EF
:1002F000EF90DF90CF900F900FBE0F901F9018954A
:10030000C12CD12C90E8E92E92E4F92E97CFC12C84
:10031000D12C80E8E82E82ECF82E90CF8130910528
:1003200039F4E0910804F0910904EB5FFD4F99CF97
:100330008230910539F4E0910804F0910904EB5FF3
:10034000FE4F8FCF039709F08FCFE0910804F09113
:100350000904EB5FFE4F85CF8091F20080618EBB78
:1003600080E88093F2009EB39093F2008093610046
:1003700091E0909361009091F2009F799EBB8093F1
:10038000F2009EB39093F2009091F2009B7F9EBB8F
:100390008093F2009EB39093F200809361001092DC
:1003A0006100789484B5826084BD84B5816084BD29
:1003B00085B5826085BD85B5816085BD80916E0003
:1003C000816080936E001092810080918100826034
:1003D0008093810080918100816080938100809171
:1003E00080008160809380008091B1008460809360
:1003F000B1008091B00081608093B0008091910045
:10040000826080939100809191008160809391003F
:100410008091900081608093900080917A00846048
:1004200080937A0080917A008D7F80937A0080910A
:100430007A008E7F80937A0080917A008068809322
:100440007A001092C100E9EBF0E02491EDE9F0E0D0
:100450008491882399F090E0880F991FFC01EC5754
:10046000FF4FA591B491FC01E858FF4F85919491FD
:100470008FB7F894EC91E22BEC938FBF81E08093DF
:1004800000018091AD008F7B8093AD0080910001D1
:100490008111A6C08091A0008C7081608093A00023
:1004A0008091F00081FF0AC08091F0008D7F8EBBAB
:1004B00080E88093F0008EB38093F000809100017B
:1004C0008295880F880F807C80937C00E0EBF0E0C1
:1004D000E491E4E9F0E084919091A0009C60909315
:1004E000A000882369F090E0880F991FFC01EC5769
:1004F000FF4F25913491FC01E858FF4F859194916D
:10050000F89480918100877E88608093810080913B
:1005100080008C7F8093800080918100887F816043
:10052000809381008AE691E090938900809388000F
:1005300080916F00826080936F00789400E211E0F8
:100540009CE4492E512C612C712CC0E0D0E085B187
:10055000802785B910930F040E94600324E030E0E7
:1005600040E050E00E94B80370930E0460930D04C5
:100570000E946003A30192010E94B8036C5F7F4F49
:100580008F4F9F4F70930C0460930B040E94830065
:100590004B015C018DE7C82ED12CE12CF12C0E947F
:1005A0008300681979098A099B09683E73408105AF
:1005B0009105A8F321E0C21AD108E108F10888EEFC
:1005C000880E83E0981EA11CB11CC114D104E10463
:1005D000F10429F7209709F4BACF0E940000B7CFA1
:1005E000813031F48091A0008C708093A00066CFA0
:1005F0008091A0008C7082608093A00080910001A7
:10060000823029F48091CE008093C80057CF843087
:1006100041F48091AD0080648093AD008091CC0066
:10062000F3CF8091CD00F0CF8F929F92AF92BF9287
:10063000CF92DF92EF92FF92CF93DF93EC0168812C
:1006400079818A819B81611571058105910521F46C
:1006500064E279ED8BE597E02DE133EF41E050E086
:100660000E94B80349015A019B01AC01A7EAB1E419
:100670000E94D7036B017C01ACEEB4EFA50194019D
:100680000E94E503C60ED71EE81EF91EF7FE06C03F
:1006900081E0C81AD108E10880E8F80AC882D98246
:1006A000EA82FB82C701B6019F77DF91CF91FF906D
:1006B000EF90DF90CF90BF90AF909F908F90089574
:1006C0008F929F92AF92BF92CF92DF92EF92FF9262
:1006D00060910101709102018091030190910401E8
:1006E000611571058105910521F464E279ED8BE5D1
:1006F00097E02DE133EF41E050E00E94B80349015B
:100700005A019B01AC01A7EAB1E40E94D7036B0137
:100710007C01ACEEB4EFA50194010E94E503C60E86
:10072000D71EE81EF91EF7FE06C081E0C81AD108E0
:10073000E10880E8F80AC0920101D0920201E0923B
:100740000301F0920401C701B6019F77FF90EF907B
:10075000DF90CF90BF90AF909F908F90089560935F
:1007600001017093020180930301909304010895A5
:10077000052E97FB1EF400940E94CF0357FD07D06F
:100780000E94EA0307FC03D04EF40C94CF0350956B
:100790004095309521953F4F4F4F5F4F089590956D
:1007A0008095709561957F4F8F4F9F4F08950E9460
:1007B0000C04A59F900DB49F900DA49F800D911DDA
:1007C00011240895B7FF0C94D7030E94D703821B0E
:1007D000930B0895A1E21A2EAA1BBB1BFD010DC0AD
:1007E000AA1FBB1FEE1FFF1FA217B307E407F507E1
:1007F00020F0A21BB30BE40BF50B661F771F881FBD
:10080000991F1A9469F760957095809590959B0152
:10081000AC01BD01CF010895A29FB001B39FC001FB
:10082000A39F700D811D1124911DB29F700D811D1C
:100830001124911D08950E94930408F481E0089505
:100840000E9427046894B1110C94DA0408950E9460
:10085000BF0488F09F5798F0B92F9927B751B0F08F
:10086000E1F0660F771F881F991F1AF0BA95C9F734
:1008700014C0B13091F00E94D904B1E008950C94F5
:10088000D904672F782F8827B85F39F0B93FCCF3A8
:10089000869577956795B395D9F73EF490958095B1
:1008A000709561957F4F8F4F9F4F0895E89409C0D1
:1008B00097FB3EF490958095709561957F4F8F4F93
:1008C0009F4F9923A9F0F92F96E9BB279395F695A9
:1008D000879577956795B795F111F8CFFAF4BB0F27
:1008E00011F460FF1BC06F5F7F4F8F4F9F4F16C08B
:1008F000882311F096E911C0772321F09EE8872F15
:10090000762F05C0662371F096E8862F70E060E0D0
:100910002AF09A95660F771F881FDAF7880F969549
:10092000879597F90895990F0008550FAA0BE0E8ED
:10093000FEEF16161706E807F907C0F012161306A1
:10094000E407F50798F0621B730B840B950B39F4E1
:100950000A2661F0232B242B252B21F408950A2647
:1009600009F4A140A6958FEF811D811D089557FDC3
:100970009058440F551F59F05F3F71F04795880F0D
:1009800097FB991F61F09F3F79F0879508951216A4
:1009900013061406551FF2CF4695F1DF08C0161650
:1009A00017061806991FF1CF869571056105089401
:1009B0000895E894BB2766277727CB0197F9089518
:0E09C0000E94930408F48FEF0895F894FFCF7F
:1009CE0001010000007F80E1D963263D9998908552
:1009DE00497A9041BC57AAA46F7A977258AE4D8C43
:1009EE005C7A8D9C7C797B7E85848B77787F8D82FB
:1009FE007A817F84798B768283818482867E8082DF
:100A0E007E7A84817F837E807F7E7D7F7D807D80E8
:100A1E00807F7F7E7F8080807F7F7F7F7F807F7FD4
:100A2E007E7F7F807F807E7F807F7F7F7F7F7F7FC7
:100A3E007F7F7F7F7F7F7F7F7F7F807F7F7F7F7FB7
:100A4E007F7F7F7F7F7F7F7F7F7F7F7F7F7F7F7FA8
:100A5E007F7F80807E7E807F7E7F7E7F7F7E7F7E9B
:100A6E007F7F7F7F7F7E7F7F7F7E7F7F7F7F7F7F8A
:100A7E007F7F7F7F7E7E7E7F7F7F7E7F7F7F7E7F7D
:100A8E007F7E7F7F7F7F7F7F7E7E7E7E7E7E7E7F70
:100A9E007F7E7F7E7E7F7E7F7E7E7E7E7E7E7E7F63
:100AAE007F7E7F7F7F7F7E7E7F7F7F7E7F7E7F7F4D
:100ABE007F7F7F7E7E7F7F7E7F7F7F7F7E7F7F7F3C
:100ACE007F7F7F7F7F7FD741D43866877A33C9DCBB
:100ADE002EAF50985F7B74B89B3B7A64A18FAD6547
:100AEE009B61497062B0608C4D866D849570956186
:100AFE00A16297629B95709D67856AA761A66C81BE
:100B0E007C88927C8881965E82698D9280816396C4
:100B1E00798D638E748372768F7F8F739078896DE3
:100B2E0081838B817190779175878186887C828293
:100B3E008B79887984807F7E7A827E8A78887A83A0
:100B4E007B82807F8076847D837A837D837A7E80AC
:100B5E007E8179817B84817F837B807D827B837B99
:100B6E00808381807E7D7C83797C81827E7C7E7F8A
:100B7E00827D7E807E807E7E7E7E7D807E7E7E7E7F
:100B8E007E7E7D807E7E7E7E7E7E7E7E80807E8070
:100B9E007E7F7E807D7F80807E7E807E7E80808058
:100BAE0080807E807E7E80807E7E80807E7E7F7E48
:100BBE00807E7E8080807E7E7E80807E7E7E808037
:100BCE007E80807E7E7F502A05A5F2F1E980493035
:100BDE00167F45377197B7D1D9DFE4E9D7A1755B99
:100BEE004C4131251F1F30537892A6B7C6CED2D1B5
:100BFE00C7B2916F584E494543485058616D7C8934
:100C0E0096A3ABAEACA8A0907D726E6C68686A6D50
:100C1E006E70757C81878E91918F8C8984807D7AA0
:100C2E0077767777777676787C7E818487898987E1
:100C3E0084838281807E7E7C7B7978787A7B7C7ED1
:100C4E00808182828383838282828181807E7D7D88
:100C5E007C7C7C7C7D7E7E80808081818181818098
:100C6E008080807E7E7E7E7E7E7E7E7E807F7E808B
:100C7E00808080808080807E7E7E7E7E7E7E7E8076
:100C8E008080808080808080808080807E7E7E7E5E
:100C9E007E7E7E7E7E7E8080808080808080808052
:100CAE008080807E7E7E7E7E7E7E7E7E7E7E7E7E50
:100CBE0080808080808080808080807E7E7E7E7E30
:060CCE007E7E7E7E7E00AA
:00000001FF
