:100000000C94A9330C94C6330C94C6330C94C633A9
:100010000C94C6330C94C6330C94C6330C94C3347E
:100020000C94C6330C94C6330C94C6330C94C6336C
:100030000C94C6330C9477360C94C6330C94C633A8
:100040000C947D340C94C6330C94C6330C94C63394
:100050000C94C6330C94C6330C94C6330C94C6333C
:100060000C94C6330C94C6330C9400000C9400001E
:100070000C9400000C9400000000000025002800F3
:100080002B002E0000000000240027002A002D0075
:10009000040404040404040402020202020203032E
:1000A000030303030505050505050503010204080F
:1000B00010204080010204081020010204081020D2
:1000C0000208010410402040000000000000000071
:1000D000000000000000000000000000000000F12F
:1000E0000F7D0760094108F9C12C200C4008793EBA
:1000F0002A80074108C8003FF10FB40440080908EE
:10010000F8311C4004410879C12C40050908C80099
:100110003FF10FF8EE60088108F8311CA004410897
:1001200079C12C80052108C800EFF11F8F0A8008D3
:100130004108F887210005410879C12CC005410814
:10014000C800DFF11F7707A0084108F8C12C60053F
:10015000410879C12C00064108C800BFF11F4706BD
:10016000C0084108F8311CC005410879C12C40067F
:100170004108C8009FF11FB404E0084108F8311C91
:100180002006410879C12C80064108C8007FF11F74
:10019000B40400094108F887218006410879C12C80
:1001A00040050908C8006FF11FB60420094108F88E
:1001B0008721E006410879C12C80052108C8005F2D
:1001C000F11FB80440094108F8C12C4007410879E3
:1001D000C12CC0054108C8004FF11FB60460094199
:1001E00008F8C12CA007410879C12C00064108C8B5
:1001F000003FF11FB40480094108F8311C00084198
:100200000879C12C40064108C8002FF11FB204A094
:10021000094108F8311C6008410879C12C80064169
:1002200008C8001FF11FB40440080908F88721C05E
:10023000084108793E2A40050908C8001FF11FF847
:10024000EE60088108F8872120094108793E2A805C
:10025000052108C800EFF11F8F0A80084108F8C186
:100260002C80094108793E2AC0054108C800DFF109
:100270001F7707A0084108F8C12CE0094008793E23
:100280002A00064108C800BFF11F4706C008410800
:10029000F8311C400A4008793E2A40064108C8004F
:1002A0009FF11FB404E0084108F8311CA00A40087F
:1002B000793E2A80064108C8007FF11FB404000976
:1002C0004108F88721000B4008795A02000000001D
:1002D00000006FF11FB60420094108F88721600B68
:1002E0004008795A020000000000005FF11FB804C6
:1002F00040094108F8C12CC00B4008795A0200009F
:10030000000000004FF11FB60460094108F8C12C3D
:10031000200C4008795A020000000000003FF11F45
:10032000B40480094108F8311C800C4008795A0255
:100330000000000000002FF11FB204A0094108F8DE
:10034000311CE00C4008795A020000000000001F38
:10035000F11F5A0240080908F8311C40044108798D
:10036000C12C40050908C8001FF11FACBD40088121
:1003700008F8311CA004410879C12C80052108C867
:1003800000EFF11FEF0E40084108F88721000541FA
:100390000879C12CC0054108C800DFF11FDA0B4005
:1003A000084008F8C12C6005410879C12C000641BD
:1003B00008C800BFF11FACBD40088008F8311CC060
:1003C00005410879C12C40064108C8009FF11F0F64
:1003D0004340088008F8311C2006410879C12C8070
:1003E000064108C8007FF11F680940080908F9871D
:1003F0002180064108795A020000000000007FF1C8
:100400001F2EFD60088108F98721E0064108795A0E
:1004100002000000000000DFF11F680980084108A9
:10042000F9C12C40074108795A0200000000000081
:10043000DFF11F6809A0084108F9C12CA007410895
:10044000795A02000000000000BFF11F6809C008CF
:100450004108F9311C00084108795A0200000000E7
:1004600000009FF11F6809E0084108F9311C60088D
:100470004108795A020000000000007FF11FB40417
:1004800040080908F98721C0084108793E2A40053B
:100490000908C8007FF11F2EFD60088108F9872137
:1004A00020094108793E2A80052108C800DFF11F94
:1004B000B40480084108F9C12C80094108793E2A1A
:1004C000C0054108C800DFF11FB4040000000000AF
:1004D000C12CE0094008793E2A00064108C800DF27
:1004E000F11FB4040000000000311C400A400879EC
:1004F0003E2A40064108C800DFF11FB40400000096
:100500000000311CA00A4008793E2A80064108C834
:1005100000DFF11FB40440080908F98721000B40EF
:1005200008795A02000000000000DFF11F2EFD6074
:10053000088108F98721600B4008795A0200000001
:10054000000000DFF11FB40480084108F9C12CC08D
:100550000B4008795A02000000000000DFF11FB4D0
:10056000040000000000C12C200C4008795A020051
:100570000000000000DFF11FB404000000000031A3
:100580001C800C4008795A02000000000000DFF1D6
:100590001FB4040000000000311CE00C4008795A30
:1005A00002000000000000DFF11FB4044008090849
:1005B000F8311C4004410879C12C40050908C800E5
:1005C000DFF11FF8EE60088108F8311CA004410833
:1005D00079C12C80052108C800DFF11F8F0A80082F
:1005E0004108F887210005410879C12CC005410860
:1005F000C800DFF11F7707A0084108F8C12C60058B
:10060000410879C12C00064108C800BFF11F470608
:10061000C0084108F8311CC005410879C12C4006CA
:100620004108C8009FF11FB404E0084108F8311CDC
:100630002006410879C12C80064108C8007FF11FBF
:10064000B40400094108F8872180064108795A025C
:100650000000000000006FF11FB60420094108F8F7
:100660008721E0064108795A020000000000005F7F
:10067000F11FB80440094108F8C12C40074108792E
:100680005A020000000000004FF11FB6046009414B
:1006900008F8C12CA0074108795A020000000000A8
:1006A000003FF11FB40480094108F8311C000841E3
:1006B00008795A020000000000002FF11FB204A0C8
:1006C000094108F8311C60084108795A020000000D
:1006D0000000001FF11FB004C0094108F88721C0C5
:1006E000084108793C3240050908C8000FF11FB2E3
:1006F00004E0094108F8872120094108793C32804B
:10070000052108C8000EF11FB404000A4108F8C111
:100710002C80094108793C32C0054108C8000DF120
:100720001FB604200A4108F8C12CE0094008793CB2
:100730003200064108C8000CF11FB804400A410805
:10074000F8311C400A4008793C3240064108C80094
:100750000BF11FB604600A4108F8311CA00A4008DA
:10076000793C3280064108C8000AF11FB4044008F1
:100770000908F98721000B4008793E2A400509083D
:10078000C8000AF11F2EFD60088108F98721600B5F
:100790004008793E2A80052108C800FEF11FB404F4
:1007A00080084108F9C12CC00B4008793E2AC005D9
:1007B0004108C800DFF11FB404A0084108F9C12CAA
:1007C000200C4008793E2A00064108C800BFF11FEE
:1007D000B404C0084108F9311C800C4008793E2A55
:1007E00040064108C8009FF11FB404E0084108F921
:1007F000311CE00C4008793E2A80064108C8007F81
:10080000F11F5A0240080908F8311C4004410879D8
:100810003E2AC0064108C8007FF11FACBD400881D8
:1008200008F8311CA004410879892A00074108C84A
:1008300000DFF11FEF0E40084108F8872100054155
:100840000879D42A40074108C800DFF11FDA0B40BD
:10085000084008F8C12C6005410879892A800741C1
:1008600008C800BFF11FACBD40088008F8311CC0AB
:10087000054108793E2AC0074108C8009FF11F0FB3
:100880004340088008F8311C2006410879F329000C
:10089000084108C8007FF11FACBD40088008F887F8
:1008A000218006410879A82940084108C8006FF155
:1008B0001F0F4340088008F88721E006410879F3BC
:1008C0002980084108C8005FF11FACBD40088008BE
:1008D000F8C12C40074108793E2AC0084108C800E9
:1008E0004FF11F0F4340088008F8C12CA0074108B2
:1008F00079892A00094108C8003FF11FACBD4008B2
:100900008008F8311C0008410879D42A40094108C0
:10091000C8002FF11F0F4340088008F8311C600801
:10092000410879892A80094108C8001FF11F610820
:1009300040080908F98721C008410879311C4005A1
:100940000908C8001FF11F2EFD60088108F98721E2
:100950002009410879311C80052108C800EFF11FEA
:10096000610880084108F9C12C8009410879311CCF
:10097000C0054108C800DFF11F6108A0084108F95F
:10098000C12CE009400879872140050908C800BF4B
:10099000F11F6108C0084108F9311C400A4008797C
:1009A000872180052108C8009FF11F6108E00841E8
:1009B00008F9311CA00A4008798721C0054108C800
:1009C000007FF11F680900094108F98721000B40E9
:1009D0000879A22540050908C8006FF11F680920A1
:1009E000094108F98721600B400879A2258005217B
:1009F00008C8005FF11F6C0940094108F9C12CC00B
:100A00000B400879A225C0054108C8004FF11F70AE
:100A10000960094108F9C12C200C4008793E2A40A0
:100A2000050908C8003FF11F6C0980094108F93128
:100A30001C800C4008793E2A80052108C8002FF14F
:100A40001F6809A0094108F9311CE00C4008793EF3
:100A50002AC0054108C8001FF11FBB034008090850
:100A6000F8311C4004410879C12C40050908C80030
:100A70001FF11FF8EE60088108F8311CA00441083E
:100A800079C12C80052108C800EFF11F8F0A80086A
:100A90004108F8A2250005410879C12CC00541088C
:100AA000C800DFF11F7707A0084108F8C12C6005D6
:100AB000410879C12C00064108C800BFF11F470654
:100AC000C0084108F8311CC005410879C12C400616
:100AD0004108C8009FF11FBB03E0084108F8311C22
:100AE0002006410879C12C80064108C8007FF11F0B
:100AF000BB0300094108F8A2258006410879C12CF2
:100B000040050908C8006FF11FBC0320094108F81F
:100B1000A225E006410879C12C80052108C8005FA4
:100B2000F11FBD0340094108F8C12C400741087975
:100B3000C12CC0054108C8004FF11FBC036009412A
:100B400008F8C12CA007410879C12C00064108C84B
:100B5000003FF11FBB0380094108F8311C00084128
:100B60000879C12C40064108C8002FF11FBA03A024
:100B7000094108F8311C6008410879C12C80064100
:100B800008C8001FF11FBB0340080908F8A225C0D0
:100B9000084108793E2A40050908C8001FF11FF8DE
:100BA000EE60088108F8A22520094108793E2A80D4
:100BB000052108C800EFF11F8F0A80084108F8C11D
:100BC0002C80094108793E2AC0054108C800DFF1A0
:100BD0001F7707A0084108F8C12CE0094008793EBA
:100BE0002A00064108C800BFF11F4706C008410897
:100BF000F8311C400A4008793E2A40064108C800E6
:100C00009FF11FBB03E0084108F8311CA00A40080F
:100C1000793E2A80064108C8007FF11FBB03000906
:100C20004108F8A225000B4008795A020000000094
:100C300000006FF11FBC0320094108F8A225600BDA
:100C40004008795A020000000000005FF11FBD0358
:100C500040094108F8C12CC00B4008795A02000035
:100C6000000000004FF11FBC0360094108F8C12CCF
:100C7000200C4008795A020000000000003FF11FDC
:100C8000BB0380094108F8311C800C4008795A02E6
:100C90000000000000002FF11FBA03A0094108F86E
:100CA000311CE00C4008795A020000000000001FCF
:100CB000F11F5A0240080908F8311C400441087924
:100CC000C12C40050908C8001FF11FACBD400881B8
:100CD00008F8311CA004410879C12C80052108C8FE
:100CE00000EFF11FEF0E40084108F8A22500054172
:100CF0000879C12CC0054108C800DFF11FDA0B409C
:100D0000084008F8C12C6005410879C12C00064153
:100D100008C800BFF11FACBD40088008F8311CC0F6
:100D200005410879C12C40064108C8009FF11F0FFA
:100D30004340088008F8311C2006410879C12C8006
:100D4000064108C8007FF11F770740080908F9A28B
:100D50002580064108795A020000000000007FF15A
:100D60001F2EFD60088108F9A225E0064108795A86
:100D700002000000000000DFF11F77078008410833
:100D8000F9C12C40074108795A0200000000000018
:100D9000DFF11F7707A0084108F9C12CA00741081F
:100DA000795A02000000000000BFF11F7707C00859
:100DB0004108F9311C00084108795A02000000007E
:100DC00000009FF11F7707E0084108F9311C600817
:100DD0004108795A020000000000007FF11FBB03A8
:100DE00040080908F9A225C0084108793E2A4005B3
:100DF0000908C8007FF11F2EFD60088108F9A225AF
:100E000020094108793E2A80052108C800DFF11F2A
:100E1000BB0380084108F9C12C80094108793E2AAA
:100E2000C0054108C800DFF11FBB0300000000003F
:100E3000C12CE0094008793E2A00064108C800DFBD
:100E4000F11FBB030000000000311C400A4008797C
:100E50003E2A40064108C800DFF11FBB0300000026
:100E60000000311CA00A4008793E2A80064108C8CB
:100E700000DFF11FBB0340080908F9A225000B4061
:100E800008795A02000000000000DFF11F2EFD600B
:100E9000088108F9A225600B4008795A0200000079
:100EA000000000DFF11FBB0380084108F9C12CC01E
:100EB0000B4008795A02000000000000DFF11FBB60
:100EC000030000000000C12C200C4008795A0200E9
:100ED0000000000000DFF11FBB0300000000003134
:100EE0001C800C4008795A02000000000000DFF16D
:100EF0001FBB030000000000311CE00C4008795AC1
:100F000002000000000000DFF11FBB0340080908D9
:100F1000F8311C4004410879C12C40050908C8007B
:100F2000DFF11FF8EE60088108F8311CA0044108C9
:100F300079C12C80052108C800DFF11F8F0A8008C5
:100F40004108F8A2250005410879C12CC0054108D7
:100F5000C800DFF11F7707A0084108F8C12C600521
:100F6000410879C12C00064108C800BFF11F47069F
:100F7000C0084108F8311CC005410879C12C400661
:100F80004108C8009FF11FBB03E0084108F8311C6D
:100F90002006410879C12C80064108C8007FF11F56
:100FA000BB0300094108F8A22580064108795A02CE
:100FB0000000000000006FF11FBC0320094108F889
:100FC000A225E0064108795A020000000000005FF7
:100FD000F11FBD0340094108F8C12C4007410879C1
:100FE0005A020000000000004FF11FBC03600941DD
:100FF00008F8C12CA0074108795A0200000000003F
:10100000003FF11FBB0380094108F8311C00084173
:1010100008795A020000000000002FF11FBA03A057
:10102000094108F8311C60084108795A02000000A3
:101030000000001FF11FB903C0094108F8A225C034
:10104000084108793C3240050908C8000FF11FBA71
:1010500003E0094108F8A22520094108793C3280C3
:10106000052108C8000EF11FBB03000A4108F8C1A2
:101070002C80094108793C32C0054108C8000DF1B7
:101080001FBC03200A4108F8C12CE0094008793C44
:101090003200064108C8000CF11FBD03400A410898
:1010A000F8311C400A4008793C3240064108C8002B
:1010B0000BF11FBC03600A4108F8311CA00A40086C
:1010C000793C3280064108C8000AF11FBB03400882
:1010D0000908F9A225000B40087963384005090882
:1010E000C8000AF11F2EFD60088108F9A225600BD7
:1010F000400879633880052108C800FEF11FBB0352
:1011000080084108F9C12CC00B4008796338C0053C
:101110004108C800DFF11FBB03A0084108F9C12C3A
:10112000200C400879633800064108C800BFF11F51
:10113000BB03C0084108F9311C800C4008796338B2
:1011400040064108C8009FF11FBB03E0084108F9B1
:10115000311CE00C400879633880064108C8007FE4
:10116000F11F5A0240080908F8311C40044108796F
:101170006338C0064108C8007FF11FACBD4008813C
:1011800008F8311CA004410879C83800074108C894
:1011900000DFF11FEF0E40084108F8A225000541CD
:1011A00008792D3940074108C800DFF11FDA0B40EC
:1011B000084008F8C12C6005410879C8388007410B
:1011C00008C800BFF11FACBD40088008F8311CC042
:1011D000054108796338C0074108C8009FF11F0F17
:1011E0004340088008F8311C2006410879FE37008A
:1011F000084108C8007FF11FACBD40088008F8A274
:10120000258006410879993740084108C8006FF1E8
:101210001F0F4340088008F8A225E006410879FE28
:101220003780084108C8005FF11FACBD4008800846
:10123000F8C12C40074108796338C0084108C8004C
:101240004FF11F0F4340088008F8C12CA007410848
:1012500079C83800094108C8003FF11FACBD4008FB
:101260008008F8311C00084108792D3940094108EF
:10127000C8002FF11F0F4340088008F8311C600898
:10128000410879C83880094108C8001FF11F0C07C0
:1012900040080908F9A225C008410879A22540059F
:1012A0000908C8001FF11F2EFD60088108F9A2255A
:1012B0002009410879A22580052108C800EFF11F07
:1012C0000C0780084108F9C12C8009410879A22542
:1012D000C0054108C800DFF11F0C07A0084108F94C
:1012E000C12CE009400879A22500064108C800BFCA
:1012F000F11F0C07C0084108F9311C400A40087969
:10130000A22540064108C8009FF11F0C07E00841D4
:1013100008F9311CA00A400879A22580064108C8B6
:10132000007FF11F770700094108F9A225000B4053
:1013300008798227C0064108C8006FF11F7707208F
:10134000094108F9A225600B40087962290007418C
:1013500008C8005FF11F7A0740094108F9C12CC095
:101360000B4008793E2A40074108C8004FF11F7D15
:101370000760094108F9C12C200C4008793E2A80F9
:10138000074108C8003FF11F7A0780094108F93179
:101390001C800C400879892AC0074108C8002FF139
:1013A0001F7707A0094108F9311CE00C400879D4E7
:1013B0002A00084108C8001FF11F3004400809082E
:1013C000F81E194004410879DF2740050908C800C4
:1013D0001FF11FF8EE60088108F81E19A0044108EB
:1013E00079DF2780052108C800EFF11F8F0A8008E8
:1013F0004108F8A2250005410879DF27C00541080A
:10140000C800DFF11F7707A0084108F83E2A6005F1
:10141000410879BF2900064108C800BFF11F4706EF
:10142000C0084108F81E19C0054108793E2A400647
:101430004108C8009FF11F3004E0084108F81E1958
:1014400020064108793E2A80064108C8007FF11F26
:10145000300400094108F8A22580064108793E2A97
:1014600040050908C8006FF11F310420094108F840
:10147000A225E0064108793E2A80052108C8005FC0
:10148000F11F320440094108F83E2A40074108791B
:101490003E2AC0054108C8004FF11F3104600941D0
:1014A00008F83E2AA0074108793E2A00064108C8EC
:1014B000003FF11F300480094108F81E190008415F
:1014C00008793E2A40064108C8002FF11F2F04A0CA
:1014D000094108F81E1960084108793E2A80064132
:1014E00008C8001FF11F300440080908F8A225C0F1
:1014F00008410879A22540050908C8001FF11FF816
:10150000EE60088108F8A2252009410879A225800B
:10151000052108C800EFF11F8F0A80084108F83E36
:101520002A8009410879A225C0054108C800DFF1D9
:101530001F7707A0084108F83E2AE009400879A271
:101540002500064108C800BFF11F4706C008410832
:10155000F81E19400A400879A22540064108C80033
:101560009FF11F3004E0084108F81E19A00A400846
:1015700079A22580064108C8007FF11F30040009C8
:101580004108F8A225000B4008795A02000000002B
:1015900000006FF11F310420094108F8A225600BFB
:1015A0004008795A020000000000005FF11F320479
:1015B00040094108F83E2AC00B4008795A02000051
:1015C000000000004FF11F310460094108F83E2A75
:1015D000200C4008795A020000000000003FF11F73
:1015E000300480094108F81E19800C4008795A021D
:1015F0000000000000002FF11F2F04A0094108F88F
:101600001E19E00C4008795A020000000000001F7B
:10161000F11F5A0240080908F81E194004410879D0
:101620003E2A40050908C8001FF11FACBD400881D3
:1016300008F81E19A0044108793E2A80052108C82F
:1016400000EFF11FEF0E40084108F8A22500054108
:1016500008793E2AC0054108C800DFF11FDA0B40B7
:10166000084008F83E2A60054108793E2A000641F4
:1016700008C800BFF11FACBD40088008F81E19C0A3
:10168000054108793E2A40064108C8009FF11F0F16
:101690004340088008F81E1920064108793E2A8038
:1016A000064108C8007FF11F610840080908F9A237
:1016B0002580064108795A020000000000007FF1F1
:1016C0001F2EFD60088108F9A225E0064108795A1D
:1016D00002000000000000DFF11F610880084108DF
:1016E000F93E2A40074108795A0200000000000034
:1016F000DFF11F6108A0084108F93E2AA007410850
:10170000795A02000000000000BFF11F6108C00804
:101710004108F91E1900084108795A02000000002A
:1017200000009FF11F6108E0084108F91E196008D8
:101730004108795A020000000000007FF11F3004C8
:1017400040080908F9A225C008410879A2254005EA
:101750000908C8007FF11F2EFD60088108F9A22545
:101760002009410879A22580052108C800DFF11F62
:10177000300480084108F93E2A8009410879A225F1
:10178000C0054108C800DFF11F3004000000000060
:101790003E2AE009400879A22500064108C800DF7A
:1017A000F11F300400000000001E19400A400879B3
:1017B000A22540064108C800DFF11F3004000000E8
:1017C00000001E19A00A400879A22580064108C819
:1017D00000DFF11F300440080908F9A225000B4082
:1017E00008795A02000000000000DFF11F2EFD60A2
:1017F000088108F9A225600B4008795A0200000010
:10180000000000DFF11F300480084108F93E2AC0C3
:101810000B4008795A02000000000000DFF11F3081
:101820000400000000003E2A200C4008795A020003
:101830000000000000DFF11F300400000000001E67
:1018400019800C4008795A02000000000000DFF106
:101850001F300400000000001E19E00C4008795AF7
:1018600002000000000000DFF11F860340080908A5
:10187000F81E1940044108793E2A40050908C800AD
:10188000DFF11FF8EE60088108F81E19A004410876
:10189000793E2A80052108C800DFF11F8F0A8008E1
:1018A0004108F8872100054108793E2AC005410812
:1018B000C800DFF11F7707A0084108F83E2A60053D
:1018C0004108793E2A00064108C800BFF11F4706BB
:1018D000C0084108F81E19C0054108793E2A400693
:1018E0004108C8009FF11F8603E0084108F81E194F
:1018F00020064108793E2A80064108C8007FF11F72
:10190000860300094108F8872180064108795A02B8
:101910000000000000006FF11F870320094108F854
:101920008721E0064108795A020000000000005FAC
:10193000F11F880340094108F83E2A400741087911
:101940005A020000000000004FF11F8703600941A8
:1019500008F83E2AA0074108795A0200000000005A
:10196000003FF11F860380094108F81E1900084155
:1019700008795A020000000000002FF11F8503A023
:10198000094108F81E1960084108795A0200000050
:101990000000001FF11F8403C0094108F88721C01F
:1019A00008410879C12C40050908C8000FF11F85BE
:1019B00003E0094108F887212009410879C12C80FA
:1019C000052108C8000EF11F8603000A4108F83EF1
:1019D0002A8009410879C12CC0054108C8000DF1D1
:1019E0001F8703200A4108F83E2AE009400879C110
:1019F0002C00064108C8000CF11F8803400A41086A
:101A0000F81E19400A400879C12C40064108C80058
:101A10000BF11F8703600A4108F81E19A00A40084D
:101A200079C12C80064108C8000AF11F86034008CE
:101A30000908F98721000B4008793C324005090864
:101A4000C8000AF11F2EFD60088108F98721600B8C
:101A50004008793C3280052108C800FEF11F86034A
:101A600080084108F93E2AC00B4008793C32C00585
:101A70004108C800DFF11F8603A0084108F93E2A8B
:101A8000200C4008793C3200064108C800BFF11F15
:101A90008603C0084108F91E19800C4008793C32C1
:101AA00040064108C8009FF11F8603E0084108F97D
:101AB0001E19E00C4008793C3280064108C8007FBE
:101AC000F11F5A0240080908F81E1940044108791C
:101AD0003C32C0064108C8007FF11FACBD40088100
:101AE00008F81E19A004410879963200074108C879
:101AF00000DFF11FEF0E40084108F8872100054183
:101B00000879F03240074108C800DFF11FDA0B40C6
:101B1000084008F83E2A600541087996328007415E
:101B200008C800BFF11FACBD40088008F81E19C0EE
:101B3000054108793C32C0074108C8009FF11F0FDA
:101B40004340088008F81E192006410879E2310058
:101B5000084108C8007FF11FACBD40088008F88725
:101B6000218006410879883140084108C8006FF19A
:101B70001F0F4340088008F88721E006410879E2FA
:101B80003180084108C8005FF11FACBD40088008E3
:101B9000F83E2A40074108793C32C0084108C80095
:101BA0004FF11F0F4340088008F83E2AA007410864
:101BB00079963200094108C8003FF11FACBD4008CA
:101BC0008008F81E190008410879F03240094108E0
:101BD000C8002FF11F0F4340088008F81E19600845
:101BE000410879963280094108C8001FF11F470655
:101BF00040080908F98721C0084108798721400574
:101C00000908C8001FF11F2EFD60088108F987210F
:101C10002009410879872180052108C800EFF11FBC
:101C2000470680084108F93E2A8009410879872142
:101C3000C0054108C800DFF11F4706A0084108F9A8
:101C40003E2AE009400879872100064108C800BF04
:101C5000F11F4706C0084108F91E19400A400879DB
:101C6000872140064108C8009FF11F4706E0084150
:101C700008F91E19A00A400879872180064108C882
:101C8000007FF11F0C0700094108F98721000B4074
:101C900008796723C0064108C8006FF11F0C0720B0
:101CA000094108F98721600B400879472500074161
:101CB00008C8005FF11F0F0740094108F93E2AC01C
:101CC0000B400879A22540074108C8004FF11F12B8
:101CD0000760094108F93E2A200C400879A22580B6
:101CE000074108C8003FF11F0F0780094108F91E8E
:101CF00019800C400879E525C0074108C8002FF17C
:101D00001F0C07A0094108F91E19E00C40087928AA
:101D10002600084108C8001FF11FBB03400809083E
:101D2000F860164004410879872140050908C80079
:101D30001FF11FF8EE60088108F86016A004410842
:101D400079872180052108C800EFF11F8F0A8008DC
:101D50004108F8872100054108798721C00541081D
:101D6000C800DFF11F7707A0084108F8A225600529
:101D7000410879272200064108C800BFF11F470625
:101D8000C0084108F86016C005410879C72240061E
:101D90004108C8009FF11FBB03E0084108F8601626
:101DA0002006410879672380064108C8007FF11F9B
:101DB000BB0300094108F887218006410879072400
:101DC000C0064108C8006FF11FBC0320094108F894
:101DD0008721E006410879A72400074108C8005F71
:101DE000F11FBD0340094108F8A2254007410879C9
:101DF000472540074108C8004FF11FBC0360094157
:101E000008F8A225A007410879A22580074108C843
:101E1000003FF11FBB0380094108F860160008412C
:101E20000879A225C0074108C8002FF11FBA03A0F6
:101E3000094108F860166008410879E52500084165
:101E400008C8001FF11FBB0340080908F88721C01C
:101E500008410879282640084108C8001FF11FF8EA
:101E6000EE60088108F887212009410879E525807E
:101E7000084108C800EFF11F8F0A80084108F8A246
:101E8000258009410879A225C0084108C800DFF172
:101E90001F7707A0084108F8A225E0094008795FEC
:101EA0002500094108C800BFF11F4706C0084108C6
:101EB000F86016400A4008791C2540094108C8000E
:101EC0009FF11FBB03E0084108F86016A00A400814
:101ED000795F2580094108C8007FF11FBB03000915
:101EE0004108F88721000B400879A225C009410864
:101EF000C8006FF11FBC0320094108F88721600B5F
:101F0000400879E525000A4108C8005FF11FBD03BC
:101F100040094108F8A225C00B4008792826400A4C
:101F20004108C8004FF11FBC0360094108F8A22511
:101F3000200C400879E525800A4108C8003FF11FC0
:101F4000BB0380094108F86016800C400879A2257F
:101F5000C00A4108C8002FF11FBA03A0094108F8C0
:101F60006016E00C4008795F25000B4108C8001F8F
:101F7000F11F5A0240080908F86016400441087928
:101F80001C25400B4108C8001FF11FACBD40088153
:101F900008F86016A0044108795F25800B4108C845
:101FA00000EFF11FEF0E40084108F8DF1D0005416A
:101FB0000879A225C00B4108C800DFF11FDA0B40E9
:101FC000084008F8A2256005410879E525000C4184
:101FD00008C800BFF11FACBD40088008F86016C0FB
:101FE000054108792826400C4108C8009FF11F0FC1
:101FF0004340088008F860162006410879E52580EE
:102000000C4108C8007FF11F770740080908F9DF75
:102010001D8006410879A225C00C4108C8007FF147
:102020001F2EFD60088108F9DF1DE0064108795F79
:1020300025000D4108C800DFF11F7707800841081F
:10204000F9A22540074108791C25400D4108C80028
:10205000DFF11F7707A0084108F9A225A007410872
:10206000795F25800D4108C800BFF11F7707C008C0
:102070004108F960160008410879A225C00D410801
:10208000C8009FF11F7707E0084108F96016600853
:10209000410879E525000E4108C8007FF11FBB0308
:1020A00040080908F9DF1DC0084108792826400EBC
:1020B0004108C8007FF11F2EFD60088108F9DF1D6F
:1020C0002009410879E525800E4108C800DFF11F8D
:1020D000BB0380084108F9A2258009410879A2259F
:1020E000C00E4108C800DFF11FBB03000000000064
:1020F000A225E0094008795F25000F4108C800DFEC
:10210000F11FBB0300000000006016400A40087980
:102110001C25C00E4108C800DFF11FBB03000000F2
:1021200000006016A00A4008795F25800E4108C8AB
:1021300000DFF11FBB0340080908F9DF1D000B4059
:102140000879A225400E4108C800DFF11F2EFD606E
:10215000088108F9DF1D600B400879E525000E4174
:1021600008C800DFF11FBB0380084108F9A225C0A1
:102170000B4008792826C00D4108C800DFF11FBBBD
:10218000030000000000A225200C400879E525800E
:102190000D4108C800DFF11FBB0300000000006014
:1021A00016800C400879A225400D4108C800DFF1D7
:1021B0001FBB0300000000006016E00C4008795FC0
:1021C00025000D4108C800DFF11F2303400809085E
:1021D000F81F154004410879872140050908C80007
:1021E000DFF11FF8EE60088108F81F15A004410810
:1021F00079872180052108C800DFF11F8F0A800838
:102200004108F8DF1D00054108798721C005410814
:10221000C800DFF11F7707A0084108F8A225600574
:10222000410879672300064108C800BFF11F47062F
:10223000C0084108F81F15C0054108794725400628
:102240004108C8009FF11F2303E0084108F81F154B
:102250002006410879A22580064108C8007FF11FA9
:10226000230300094108F8DF1D8006410879A225F3
:10227000C0064108C8006FF11F240320094108F877
:10228000DF1DE006410879E52500074108C8005F29
:10229000F11F250340094108F8A2254007410879AC
:1022A000282640074108C8004FF11F240360094158
:1022B00008F8A225A007410879E52580074108C84C
:1022C000003FF11F230380094108F81F1500084152
:1022D0000879A225C0074108C8002FF11F2203A0DA
:1022E000094108F81F1560084108795F2500084179
:1022F00008C8001FF11F470640080908F9DF1DC084
:10230000084108791C2540084108C8001FF11F2E0C
:10231000FD60088108F9DF1D20094108795F2580EB
:10232000084108C800EFF11F470680084108F9A2DC
:10233000258009410879A225C0084108C800DFF1BD
:102340001F4706A0084108F9A225E009400879E5E1
:102350002500094108C800BFF11F4706C008410811
:10236000F91F15400A400879282640094108C8008D
:102370009FF11F4706E0084108F91F15A00A400811
:1023800079E52580094108C8007FF11F470600094B
:102390004108F9DF1D000B4008793E2A4005090875
:1023A000C8006FF11F490620094108F9DF1D600BC5
:1023B0004008793E2A80052108C8005FF11F4B06BE
:1023C00040094108F9A225C00B4008793E2AC00502
:1023D0004108C8004FF11F490660094108F9A225CC
:1023E000200C400879A22540050908C8003FF11FCC
:1023F000470680094108F91F15800C400879A2257D
:1024000080052108C8002FF11F4506A0094108F9E1
:102410001F15E00C400879A225C0054108C8001F1F
:10242000F11F860340080908F81F15400441087988
:10243000862340050908C8001FF11FACBD60088154
:1024400008F81F15A004410879862380052108C8D3
:1024500000EFF11FEF0E80084108F8311C00054124
:1024600008798623C0054108C800DFF11FDA0BA0F8
:10247000084108F886236005410879862300064153
:1024800008C800BFF11FACBDC0088108F81F15C007
:1024900005410879862340064108C8009FF11F8640
:1024A00003E0084108F81F152006410879862380BB
:1024B000064108C8007FF11F860300094108F83172
:1024C0001C80064108798623C0064108C8006FF1C8
:1024D0001F870320094108F8311CE006410879C52F
:1024E0002300074108C8005FF11F88034009410825
:1024F000F886234007410879042440074108C800B2
:102500004FF11F870360094108F88623A00741089F
:1025100079C52380074108C8003FF11F8603800961
:102520004108F81F1500084108798623C0074108B3
:10253000C8002FF11F8503A0094108F81F15600886
:10254000410879472300084108C8001FF11F0C0704
:1025500040080908F9311CC00841087908234008DF
:102560004108C8001FF11F2EFD60088108F9311CC9
:102570002009410879472380084108C800EFF11F6E
:102580000C0780084108F9862380094108798623D1
:10259000C0084108C800DFF11F0C07A0084108F976
:1025A0008623E009400879C52300094108C800BF17
:1025B000F11F0C07C0084108F91F15400A400879AF
:1025C000042440094108C8009FF11F0C07E008419E
:1025D00008F91F15A00A400879C52380094108C8D9
:1025E000007FF11F2C0500094108F9311C000B4048
:1025F0000879A22540050908C8006FF11F8603204D
:10260000094108F9311C600B400879A22580052199
:1026100008C8005FF11F860340094108F98623C0FE
:102620000B400879A225C0054108C8004FF11F875B
:102630000360094108F98623200C4008793E2A40AE
:10264000050908C8003FF11F880380094108F91FE8
:1026500015800C4008793E2A80052108C8002FF11A
:102660001F8703A0094108F91F15E00C4008793EB7
:102670002AC0054108C8001FF11FB404400809081A
:10268000F8311C4004410879C12C40050908C800F4
:102690001FF11FF8EE60088108F8311CA004410802
:1026A00079C12C80052108C800EFF11F8F0A80082E
:1026B0004108F887210005410879C12CC00541086F
:1026C000C800DFF11F7707A0084108F8C12C60059A
:1026D000410879C12C00064108C800BFF11F470618
:1026E000C0084108F8311CC005410879C12C4006DA
:1026F0004108C8009FF11FB404E0084108F8311CEC
:102700002006410879C12C80064108C8007FF11FCE
:10271000B40400094108F887218006410879C12CDA
:1027200040050908C8006FF11FB60420094108F8E8
:102730008721E006410879C12C80052108C8005F87
:10274000F11FB80440094108F8C12C40074108793D
:10275000C12CC0054108C8004FF11FB604600941F3
:1027600008F8C12CA007410879C12C00064108C80F
:10277000003FF11FB40480094108F8311C000841F2
:102780000879C12C40064108C8002FF11FB204A0EF
:10279000094108F8311C6008410879C12C800641C4
:1027A00008C8001FF11FB40440080908F88721C0B9
:1027B000084108793E2A40050908C8001FF11FF8A2
:1027C000EE60088108F8872120094108793E2A80B7
:1027D000052108C800EFF11F8F0A80084108F8C1E1
:1027E0002C80094108793E2AC0054108C800DFF164
:1027F0001F7707A0084108F8C12CE0094008793E7E
:102800002A00064108C800BFF11F4706C00841085A
:10281000F8311C400A4008793E2A40064108C800A9
:102820009FF11FB404E0084108F8311CA00A4008D9
:10283000793E2A80064108C8007FF11FB4040009D0
:102840004108F88721000B4008795A020000000077
:1028500000006FF11FB60420094108F88721600BC2
:102860004008795A020000000000005FF11FB80420
:1028700040094108F8C12CC00B4008795A020000F9
:10288000000000004FF11FB60460094108F8C12C98
:10289000200C4008795A020000000000003FF11FA0
:1028A000B40480094108F8311C800C4008795A02B0
:1028B0000000000000002FF11FB204A0094108F839
:1028C000311CE00C4008795A020000000000001F93
:1028D000F11F5A0240080908F8311C4004410879E8
:1028E000C12C40050908C8001FF11FACBD4008817C
:1028F00008F8311CA004410879C12C80052108C8C2
:1029000000EFF11FEF0E40084108F8872100054154
:102910000879C12CC0054108C800DFF11FDA0B405F
:10292000084008F8C12C6005410879C12C00064117
:1029300008C800BFF11FACBD40088008F8311CC0BA
:1029400005410879C12C40064108C8009FF11F0FBE
:102950004340088008F8311C2006410879C12C80CA
:10296000064108C8007FF11F680940080908F98777
:102970002180064108795A020000000000007FF122
:102980001F2EFD60088108F98721E0064108795A69
:1029900002000000000000DFF11F68098008410804
:1029A000F9C12C40074108795A02000000000000DC
:1029B000DFF11F6809A0084108F9C12CA0074108F0
:1029C000795A02000000000000BFF11F6809C0082A
:1029D0004108F9311C00084108795A020000000042
:1029E00000009FF11F6809E0084108F9311C6008E8
:1029F0004108795A020000000000007FF11FB40472
:102A000040080908F98721C0084108793E2A400595
:102A10000908C8007FF11F2EFD60088108F9872191
:102A200020094108793E2A80052108C800DFF11FEE
:102A3000B40480084108F9C12C80094108793E2A74
:102A4000C0054108C800DFF11FB404000000000009
:102A5000C12CE0094008793E2A00064108C800DF81
:102A6000F11FB4040000000000311C400A40087946
:102A70003E2A40064108C800DFF11FB404000000F0
:102A80000000311CA00A4008793E2A80064108C88F
:102A900000DFF11FB40440080908F98721000B404A
:102AA00008795A02000000000000DFF11F2EFD60CF
:102AB000088108F98721600B4008795A020000005C
:102AC000000000DFF11FB40480084108F9C12CC0E8
:102AD0000B4008795A02000000000000DFF11FB42B
:102AE000040000000000C12C200C4008795A0200AC
:102AF0000000000000DFF11FB404000000000031FE
:102B00001C800C4008795A02000000000000DFF130
:102B10001FB4040000000000311CE00C4008795A8A
:102B200002000000000000DFF11FB40440080908A3
:102B3000F8311C4004410879C12C40050908C8003F
:102B4000DFF11FF8EE60088108F8311CA00441088D
:102B500079C12C80052108C800DFF11F8F0A800889
:102B60004108F887210005410879C12CC0054108BA
:102B7000C800DFF11F7707A0084108F8C12C6005E5
:102B8000410879C12C00064108C800BFF11F470663
:102B9000C0084108F8311CC005410879C12C400625
:102BA0004108C8009FF11FB404E0084108F8311C37
:102BB0002006410879C12C80064108C8007FF11F1A
:102BC000B40400094108F8872180064108795A02B7
:102BD0000000000000006FF11FB60420094108F852
:102BE0008721E0064108795A020000000000005FDA
:102BF000F11FB80440094108F8C12C400741087989
:102C00005A020000000000004FF11FB604600941A5
:102C100008F8C12CA0074108795A02000000000002
:102C2000003FF11FB40480094108F8311C0008413D
:102C300008795A020000000000002FF11FB204A022
:102C4000094108F8311C60084108795A0200000067
:102C50000000001FF11FB004C0094108F88721C01F
:102C6000084108793C3240050908C8000FF11FB23D
:102C700004E0094108F8872120094108793C3280A5
:102C8000052108C8000EF11FB404000A4108F8C16C
:102C90002C80094108793C32C0054108C8000DF17B
:102CA0001FB604200A4108F8C12CE0094008793C0D
:102CB0003200064108C8000CF11FB804400A410860
:102CC000F8311C400A4008793C3240064108C800EF
:102CD0000BF11FB604600A4108F8311CA00A400835
:102CE000793C3280064108C8000AF11FB40440084C
:102CF0000908F98721000B4008793E2A4005090898
:102D0000C8000AF11F2EFD60088108F98721600BB9
:102D10004008793E2A80052108C800FEF11FB4044E
:102D200080084108F9C12CC00B4008793E2AC00533
:102D30004108C800DFF11FB404A0084108F9C12C04
:102D4000200C4008793E2A00064108C800BFF11F48
:102D5000B404C0084108F9311C800C4008793E2AAF
:102D600040064108C8009FF11FB404E0084108F97B
:102D7000311CE00C4008793E2A80064108C8007FDB
:102D8000F11F5A0240080908F8311C400441087933
:102D90003E2AC0064108C8007FF11FACBD40088133
:102DA00008F8311CA004410879892A00074108C8A5
:102DB00000DFF11FEF0E40084108F88721000541B0
:102DC0000879D42A40074108C800DFF11FDA0B4018
:102DD000084008F8C12C6005410879892A8007411C
:102DE00008C800BFF11FACBD40088008F8311CC006
:102DF000054108793E2AC0074108C8009FF11F0F0E
:102E00004340088008F8311C2006410879F3290066
:102E1000084108C8007FF11FACBD40088008F88752
:102E2000218006410879A82940084108C8006FF1AF
:102E30001F0F4340088008F88721E006410879F316
:102E40002980084108C8005FF11FACBD4008800818
:102E5000F8C12C40074108793E2AC0084108C80043
:102E60004FF11F0F4340088008F8C12CA00741080C
:102E700079892A00094108C8003FF11FACBD40080C
:102E80008008F8311C0008410879D42A400941081B
:102E9000C8002FF11F0F4340088008F8311C60085C
:102EA000410879892A80094108C8001FF11F61087B
:102EB00040080908F98721C008410879311C4005FC
:102EC0000908C8001FF11F2EFD60088108F987213D
:102ED0002009410879311C80052108C800EFF11F45
:102EE000610880084108F9C12C8009410879311C2A
:102EF000C0054108C800DFF11F6108A0084108F9BA
:102F0000C12CE009400879872140050908C800BFA5
:102F1000F11F6108C0084108F9311C400A400879D6
:102F2000872180052108C8009FF11F6108E0084142
:102F300008F9311CA00A4008798721C0054108C85A
:102F4000007FF11F680900094108F98721000B4043
:102F50000879A22540050908C8006FF11F680920FB
:102F6000094108F98721600B400879A225800521D5
:102F700008C8005FF11F6C0940094108F9C12CC065
:102F80000B400879A225C0054108C8004FF11F7009
:102F90000960094108F9C12C200C4008793E2A40FB
:102FA000050908C8003FF11F6C0980094108F93183
:102FB0001C800C4008793E2A80052108C8002FF1AA
:102FC0001F6809A0094108F9311CE00C4008793E4E
:102FD0002AC0054108C8001FF11FBB0340080908AB
:102FE000F8311C4004410879C12C40050908C8008B
:102FF0001FF11FF8EE60088108F8311CA004410899
:1030000079C12C80052108C800EFF11F8F0A8008C4
:103010004108F8A2250005410879C12CC0054108E6
:10302000C800DFF11F7707A0084108F8C12C600530
:10303000410879C12C00064108C800BFF11F4706AE
:10304000C0084108F8311CC005410879C12C400670
:103050004108C8009FF11FBB03E0084108F8311C7C
:103060002006410879C12C80064108C8007FF11F65
:10307000BB0300094108F8A2258006410879C12C4C
:1030800040050908C8006FF11FBC0320094108F87A
:10309000A225E006410879C12C80052108C8005FFF
:1030A000F11FBD0340094108F8C12C4007410879D0
:1030B000C12CC0054108C8004FF11FBC0360094185
:1030C00008F8C12CA007410879C12C00064108C8A6
:1030D000003FF11FBB0380094108F8311C00084183
:1030E0000879C12C40064108C8002FF11FBA03A07F
:1030F000094108F8311C6008410879C12C8006415B
:1031000008C8001FF11FBB0340080908F8A225C02A
:10311000084108793E2A40050908C8001FF11FF838
:10312000EE60088108F8A22520094108793E2A802E
:10313000052108C800EFF11F8F0A80084108F8C177
:103140002C80094108793E2AC0054108C800DFF1FA
:103150001F7707A0084108F8C12CE0094008793E14
:103160002A00064108C800BFF11F4706C0084108F1
:10317000F8311C400A4008793E2A40064108C80040
:103180009FF11FBB03E0084108F8311CA00A40086A
:10319000793E2A80064108C8007FF11FBB03000961
:1031A0004108F8A225000B4008795A0200000000EF
:1031B00000006FF11FBC0320094108F8A225600B35
:1031C0004008795A020000000000005FF11FBD03B3
:1031D00040094108F8C12CC00B4008795A02000090
:1031E000000000004FF11FBC0360094108F8C12C2A
:1031F000200C4008795A020000000000003FF11F37
:10320000BB0380094108F8311C800C4008795A0240
:103210000000000000002FF11FBA03A0094108F8C8
:10322000311CE00C4008795A020000000000001F29
:10323000F11F5A0240080908F8311C40044108797E
:10324000C12C40050908C8001FF11FACBD40088112
:1032500008F8311CA004410879C12C80052108C858
:1032600000EFF11FEF0E40084108F8A225000541CC
:103270000879C12CC0054108C800DFF11FDA0B40F6
:10328000084008F8C12C6005410879C12C000641AE
:1032900008C800BFF11FACBD40088008F8311CC051
:1032A00005410879C12C40064108C8009FF11F0F55
:1032B0004340088008F8311C2006410879C12C8061
:1032C000064108C8007FF11F770740080908F9A2E6
:1032D0002580064108795A020000000000007FF1B5
:1032E0001F2EFD60088108F9A225E0064108795AE1
:1032F00002000000000000DFF11F7707800841088E
:10330000F9C12C40074108795A0200000000000072
:10331000DFF11F7707A0084108F9C12CA007410879
:10332000795A02000000000000BFF11F7707C008B3
:103330004108F9311C00084108795A0200000000D8
:1033400000009FF11F7707E0084108F9311C600871
:103350004108795A020000000000007FF11FBB0302
:1033600040080908F9A225C0084108793E2A40050D
:103370000908C8007FF11F2EFD60088108F9A22509
:1033800020094108793E2A80052108C800DFF11F85
:10339000BB0380084108F9C12C80094108793E2A05
:1033A000C0054108C800DFF11FBB0300000000009A
:1033B000C12CE0094008793E2A00064108C800DF18
:1033C000F11FBB030000000000311C400A400879D7
:1033D0003E2A40064108C800DFF11FBB0300000081
:1033E0000000311CA00A4008793E2A80064108C826
:1033F00000DFF11FBB0340080908F9A225000B40BC
:1034000008795A02000000000000DFF11F2EFD6065
:10341000088108F9A225600B4008795A02000000D3
:10342000000000DFF11FBB0380084108F9C12CC078
:103430000B4008795A02000000000000DFF11FBBBA
:10344000030000000000C12C200C4008795A020043
:103450000000000000DFF11FBB030000000000318E
:103460001C800C4008795A02000000000000DFF1C7
:103470001FBB030000000000311CE00C4008795A1B
:1034800002000000000000DFF11FBB034008090834
:10349000F8311C4004410879C12C40050908C800D6
:1034A000DFF11FF8EE60088108F8311CA004410824
:1034B00079C12C80052108C800DFF11F8F0A800820
:1034C0004108F8A2250005410879C12CC005410832
:1034D000C800DFF11F7707A0084108F8C12C60057C
:1034E000410879C12C00064108C800BFF11F4706FA
:1034F000C0084108F8311CC005410879C12C4006BC
:103500004108C8009FF11FBB03E0084108F8311CC7
:103510002006410879C12C80064108C8007FF11FB0
:10352000BB0300094108F8A22580064108795A0228
:103530000000000000006FF11FBC0320094108F8E3
:10354000A225E0064108795A020000000000005F51
:10355000F11FBD0340094108F8C12C40074108791B
:103560005A020000000000004FF11FBC0360094137
:1035700008F8C12CA0074108795A02000000000099
:10358000003FF11FBB0380094108F8311C000841CE
:1035900008795A020000000000002FF11FBA03A0B2
:1035A000094108F8311C60084108795A02000000FE
:1035B0000000001FF11FB903C0094108F8A225C08F
:1035C000084108793C3240050908C8000FF11FBACC
:1035D00003E0094108F8A22520094108793C32801E
:1035E000052108C8000EF11FBB03000A4108F8C1FD
:1035F0002C80094108793C32C0054108C8000DF112
:103600001FBC03200A4108F8C12CE0094008793C9E
:103610003200064108C8000CF11FBD03400A4108F2
:10362000F8311C400A4008793C3240064108C80085
:103630000BF11FBC03600A4108F8311CA00A4008C6
:10364000793C3280064108C8000AF11FBB034008DC
:103650000908F9A225000B400879633840050908DC
:10366000C8000AF11F2EFD60088108F9A225600B31
:10367000400879633880052108C800FEF11FBB03AC
:1036800080084108F9C12CC00B4008796338C00597
:103690004108C800DFF11FBB03A0084108F9C12C95
:1036A000200C400879633800064108C800BFF11FAC
:1036B000BB03C0084108F9311C800C40087963380D
:1036C00040064108C8009FF11FBB03E0084108F90C
:1036D000311CE00C400879633880064108C8007F3F
:1036E000F11F5A0240080908F8311C4004410879CA
:1036F0006338C0064108C8007FF11FACBD40088197
:1037000008F8311CA004410879C83800074108C8EE
:1037100000DFF11FEF0E40084108F8A22500054127
:1037200008792D3940074108C800DFF11FDA0B4046
:10373000084008F8C12C6005410879C83880074165
:1037400008C800BFF11FACBD40088008F8311CC09C
:10375000054108796338C0074108C8009FF11F0F71
:103760004340088008F8311C2006410879FE3700E4
:10377000084108C8007FF11FACBD40088008F8A2CE
:10378000258006410879993740084108C8006FF143
:103790001F0F4340088008F8A225E006410879FE83
:1037A0003780084108C8005FF11FACBD40088008A1
:1037B000F8C12C40074108796338C0084108C800A7
:1037C0004FF11F0F4340088008F8C12CA0074108A3
:1037D00079C83800094108C8003FF11FACBD400856
:1037E0008008F8311C00084108792D39400941084A
:1037F000C8002FF11F0F4340088008F8311C6008F3
:10380000410879C83880094108C8001FF11F0C071A
:1038100040080908F9A225C008410879A2254005F9
:103820000908C8001FF11F2EFD60088108F9A225B4
:103830002009410879A22580052108C800EFF11F61
:103840000C0780084108F9C12C8009410879A2259C
:10385000C0054108C800DFF11F0C07A0084108F9A6
:10386000C12CE009400879A22500064108C800BF24
:10387000F11F0C07C0084108F9311C400A400879C3
:10388000A22540064108C8009FF11F0C07E008412F
:1038900008F9311CA00A400879A22580064108C811
:1038A000007FF11F770700094108F9A225000B40AE
:1038B00008798227C0064108C8006FF11F770720EA
:1038C000094108F9A225600B4008796229000741E7
:1038D00008C8005FF11F7A0740094108F9C12CC0F0
:1038E0000B4008793E2A40074108C8004FF11F7D70
:1038F0000760094108F9C12C200C4008793E2A8054
:10390000074108C8003FF11F7A0780094108F931D3
:103910001C800C400879892AC0074108C8002FF193
:103920001F7707A0094108F9311CE00C400879D441
:103930002A00084108C8001FF11F30044008090888
:10394000F81E194004410879DF2740050908C8001E
:103950001FF11FF8EE60088108F81E19A004410845
:1039600079DF2780052108C800EFF11F8F0A800842
:103970004108F8A2250005410879DF27C005410864
:10398000C800DFF11F7707A0084108F83E2A60054C
:10399000410879BF2900064108C800BFF11F47064A
:1039A000C0084108F81E19C0054108793E2A4006A2
:1039B0004108C8009FF11F3004E0084108F81E19B3
:1039C00020064108793E2A80064108C8007FF11F81
:1039D000300400094108F8A22580064108793E2AF2
:1039E00040050908C8006FF11F310420094108F89B
:1039F000A225E0064108793E2A80052108C8005F1B
:103A0000F11F320440094108F83E2A400741087975
:103A10003E2AC0054108C8004FF11F31046009412A
:103A200008F83E2AA0074108793E2A00064108C846
:103A3000003FF11F300480094108F81E19000841B9
:103A400008793E2A40064108C8002FF11F2F04A024
:103A5000094108F81E1960084108793E2A8006418C
:103A600008C8001FF11F300440080908F8A225C04B
:103A700008410879A22540050908C8001FF11FF870
:103A8000EE60088108F8A2252009410879A2258066
:103A9000052108C800EFF11F8F0A80084108F83E91
:103AA0002A8009410879A225C0054108C800DFF134
:103AB0001F7707A0084108F83E2AE009400879A2CC
:103AC0002500064108C800BFF11F4706C00841088D
:103AD000F81E19400A400879A22540064108C8008E
:103AE0009FF11F3004E0084108F81E19A00A4008A1
:103AF00079A22580064108C8007FF11F3004000923
:103B00004108F8A225000B4008795A020000000085
:103B100000006FF11F310420094108F8A225600B55
:103B20004008795A020000000000005FF11F3204D3
:103B300040094108F83E2AC00B4008795A020000AB
:103B4000000000004FF11F310460094108F83E2ACF
:103B5000200C4008795A020000000000003FF11FCD
:103B6000300480094108F81E19800C4008795A0277
:103B70000000000000002FF11F2F04A0094108F8E9
:103B80001E19E00C4008795A020000000000001FD6
:103B9000F11F5A0240080908F81E1940044108792B
:103BA0003E2A40050908C8001FF11FACBD4008812E
:103BB00008F81E19A0044108793E2A80052108C88A
:103BC00000EFF11FEF0E40084108F8A22500054163
:103BD00008793E2AC0054108C800DFF11FDA0B4012
:103BE000084008F83E2A60054108793E2A0006414F
:103BF00008C800BFF11FACBD40088008F81E19C0FE
:103C0000054108793E2A40064108C8009FF11F0F70
:103C10004340088008F81E1920064108793E2A8092
:103C2000064108C8007FF11F610840080908F9A291
:103C30002580064108795A020000000000007FF14B
:103C40001F2EFD60088108F9A225E0064108795A77
:103C500002000000000000DFF11F61088008410839
:103C6000F93E2A40074108795A020000000000008E
:103C7000DFF11F6108A0084108F93E2AA0074108AA
:103C8000795A02000000000000BFF11F6108C0085F
:103C90004108F91E1900084108795A020000000085
:103CA00000009FF11F6108E0084108F91E19600833
:103CB0004108795A020000000000007FF11F300423
:103CC00040080908F9A225C008410879A225400545
:103CD0000908C8007FF11F2EFD60088108F9A225A0
:103CE0002009410879A22580052108C800DFF11FBD
:103CF000300480084108F93E2A8009410879A2254C
:103D0000C0054108C800DFF11F30040000000000BA
:103D10003E2AE009400879A22500064108C800DFD4
:103D2000F11F300400000000001E19400A4008790D
:103D3000A22540064108C800DFF11F300400000042
:103D400000001E19A00A400879A22580064108C873
:103D500000DFF11F300440080908F9A225000B40DC
:103D600008795A02000000000000DFF11F2EFD60FC
:103D7000088108F9A225600B4008795A020000006A
:103D8000000000DFF11F300480084108F93E2AC01E
:103D90000B4008795A02000000000000DFF11F30DC
:103DA0000400000000003E2A200C4008795A02005E
:103DB0000000000000DFF11F300400000000001EC2
:103DC00019800C4008795A02000000000000DFF161
:103DD0001F300400000000001E19E00C4008795A52
:103DE00002000000000000DFF11F86034008090800
:103DF000F81E1940044108793E2A40050908C80008
:103E0000DFF11FF8EE60088108F81E19A0044108D0
:103E1000793E2A80052108C800DFF11F8F0A80083B
:103E20004108F8872100054108793E2AC00541086C
:103E3000C800DFF11F7707A0084108F83E2A600597
:103E40004108793E2A00064108C800BFF11F470615
:103E5000C0084108F81E19C0054108793E2A4006ED
:103E60004108C8009FF11F8603E0084108F81E19A9
:103E700020064108793E2A80064108C8007FF11FCC
:103E8000860300094108F8872180064108795A0213
:103E90000000000000006FF11F870320094108F8AF
:103EA0008721E0064108795A020000000000005F07
:103EB000F11F880340094108F83E2A40074108796C
:103EC0005A020000000000004FF11F870360094103
:103ED00008F83E2AA0074108795A020000000000B5
:103EE000003FF11F860380094108F81E19000841B0
:103EF00008795A020000000000002FF11F8503A07E
:103F0000094108F81E1960084108795A02000000AA
:103F10000000001FF11F8403C0094108F88721C079
:103F200008410879C12C40050908C8000FF11F8518
:103F300003E0094108F887212009410879C12C8054
:103F4000052108C8000EF11F8603000A4108F83E4B
:103F50002A8009410879C12CC0054108C8000DF12B
:103F60001F8703200A4108F83E2AE009400879C16A
:103F70002C00064108C8000CF11F8803400A4108C4
:103F8000F81E19400A400879C12C40064108C800B3
:103F90000BF11F8703600A4108F81E19A00A4008A8
:103FA00079C12C80064108C8000AF11F8603400829
:103FB0000908F98721000B4008793C3240050908BF
:103FC000C8000AF11F2EFD60088108F98721600BE7
:103FD0004008793C3280052108C800FEF11F8603A5
:103FE00080084108F93E2AC00B4008793C32C005E0
:103FF0004108C800DFF11F8603A0084108F93E2AE6
:10400000200C4008793C3200064108C800BFF11F6F
:104010008603C0084108F91E19800C4008793C321B
:1040200040064108C8009FF11F8603E0084108F9D7
:104030001E19E00C4008793C3280064108C8007F18
:10404000F11F5A0240080908F81E19400441087976
:104050003C32C0064108C8007FF11FACBD4008815A
:1040600008F81E19A004410879963200074108C8D3
:1040700000DFF11FEF0E40084108F88721000541DD
:104080000879F03240074108C800DFF11FDA0B4021
:10409000084008F83E2A60054108799632800741B9
:1040A00008C800BFF11FACBD40088008F81E19C049
:1040B000054108793C32C0074108C8009FF11F0F35
:1040C0004340088008F81E192006410879E23100B3
:1040D000084108C8007FF11FACBD40088008F88780
:1040E000218006410879883140084108C8006FF1F5
:1040F0001F0F4340088008F88721E006410879E255
:104100003180084108C8005FF11FACBD400880083D
:10411000F83E2A40074108793C32C0084108C800EF
:104120004FF11F0F4340088008F83E2AA0074108BE
:1041300079963200094108C8003FF11FACBD400824
:104140008008F81E190008410879F032400941083A
:10415000C8002FF11F0F4340088008F81E1960089F
:10416000410879963280094108C8001FF11F4706AF
:1041700040080908F98721C00841087987214005CE
:104180000908C8001FF11F2EFD60088108F987216A
:104190002009410879872180052108C800EFF11F17
:1041A000470680084108F93E2A800941087987219D
:1041B000C0054108C800DFF11F4706A0084108F903
:1041C0003E2AE009400879872100064108C800BF5F
:1041D000F11F4706C0084108F91E19400A40087936
:1041E000872140064108C8009FF11F4706E00841AB
:1041F00008F91E19A00A400879872180064108C8DD
:10420000007FF11F0C0700094108F98721000B40CE
:1042100008796723C0064108C8006FF11F0C07200A
:10422000094108F98721600B4008794725000741BB
:1042300008C8005FF11F0F0740094108F93E2AC076
:104240000B400879A22540074108C8004FF11F1212
:104250000760094108F93E2A200C400879A2258010
:10426000074108C8003FF11F0F0780094108F91EE8
:1042700019800C400879E525C0074108C8002FF1D6
:104280001F0C07A0094108F91E19E00C4008792805
:104290002600084108C8001FF11FBB034008090899
:1042A000F860164004410879872140050908C800D4
:1042B0001FF11FF8EE60088108F86016A00441089D
:1042C00079872180052108C800EFF11F8F0A800837
:1042D0004108F8872100054108798721C005410878
:1042E000C800DFF11F7707A0084108F8A225600584
:1042F000410879272200064108C800BFF11F470680
:10430000C0084108F86016C005410879C722400678
:104310004108C8009FF11FBB03E0084108F8601680
:104320002006410879672380064108C8007FF11FF5
:10433000BB0300094108F88721800641087907245A
:10434000C0064108C8006FF11FBC0320094108F8EE
:104350008721E006410879A72400074108C8005FCB
:10436000F11FBD0340094108F8A225400741087923
:10437000472540074108C8004FF11FBC03600941B1
:1043800008F8A225A007410879A22580074108C89E
:10439000003FF11FBB0380094108F8601600084187
:1043A0000879A225C0074108C8002FF11FBA03A051
:1043B000094108F860166008410879E525000841C0
:1043C00008C8001FF11FBB0340080908F88721C077
:1043D00008410879282640084108C8001FF11FF845
:1043E000EE60088108F887212009410879E52580D9
:1043F000084108C800EFF11F8F0A80084108F8A2A1
:10440000258009410879A225C0084108C800DFF1CC
:104410001F7707A0084108F8A225E0094008795F46
:104420002500094108C800BFF11F4706C008410820
:10443000F86016400A4008791C2540094108C80068
:104440009FF11FBB03E0084108F86016A00A40086E
:10445000795F2580094108C8007FF11FBB0300096F
:104460004108F88721000B400879A225C0094108BE
:10447000C8006FF11FBC0320094108F88721600BB9
:10448000400879E525000A4108C8005FF11FBD0317
:1044900040094108F8A225C00B4008792826400AA7
:1044A0004108C8004FF11FBC0360094108F8A2256C
:1044B000200C400879E525800A4108C8003FF11F1B
:1044C000BB0380094108F86016800C400879A225DA
:1044D000C00A4108C8002FF11FBA03A0094108F81B
:1044E0006016E00C4008795F25000B4108C8001FEA
:1044F000F11F5A0240080908F86016400441087983
:104500001C25400B4108C8001FF11FACBD400881AD
:1045100008F86016A0044108795F25800B4108C89F
:1045200000EFF11FEF0E40084108F8DF1D000541C4
:104530000879A225C00B4108C800DFF11FDA0B4043
:10454000084008F8A2256005410879E525000C41DE
:1045500008C800BFF11FACBD40088008F86016C055
:10456000054108792826400C4108C8009FF11F0F1B
:104570004340088008F860162006410879E5258048
:104580000C4108C8007FF11F770740080908F9DFD0
:104590001D8006410879A225C00C4108C8007FF1A2
:1045A0001F2EFD60088108F9DF1DE0064108795FD4
:1045B00025000D4108C800DFF11F7707800841087A
:1045C000F9A22540074108791C25400D4108C80083
:1045D000DFF11F7707A0084108F9A225A0074108CD
:1045E000795F25800D4108C800BFF11F7707C0081B
:1045F0004108F960160008410879A225C00D41085C
:10460000C8009FF11F7707E0084108F960166008AD
:10461000410879E525000E4108C8007FF11FBB0362
:1046200040080908F9DF1DC0084108792826400E16
:104630004108C8007FF11F2EFD60088108F9DF1DC9
:104640002009410879E525800E4108C800DFF11FE7
:10465000BB0380084108F9A2258009410879A225F9
:10466000C00E4108C800DFF11FBB030000000000BE
:10467000A225E0094008795F25000F4108C800DF46
:10468000F11FBB0300000000006016400A400879DB
:104690001C25C00E4108C800DFF11FBB030000004D
:1046A00000006016A00A4008795F25800E4108C806
:1046B00000DFF11FBB0340080908F9DF1D000B40B4
:1046C0000879A225400E4108C800DFF11F2EFD60C9
:1046D000088108F9DF1D600B400879E525000E41CF
:1046E00008C800DFF11FBB0380084108F9A225C0FC
:1046F0000B4008792826C00D4108C800DFF11FBB18
:10470000030000000000A225200C400879E5258068
:104710000D4108C800DFF11FBB030000000000606E
:1047200016800C400879A225400D4108C800DFF131
:104730001FBB0300000000006016E00C4008795F1A
:1047400025000D4108C800DFF11F230340080908B8
:10475000F81F154004410879872140050908C80061
:10476000DFF11FF8EE60088108F81F15A00441086A
:1047700079872180052108C800DFF11F8F0A800892
:104780004108F8DF1D00054108798721C00541086F
:10479000C800DFF11F7707A0084108F8A2256005CF
:1047A000410879672300064108C800BFF11F47068A
:1047B000C0084108F81F15C0054108794725400683
:1047C0004108C8009FF11F2303E0084108F81F15A6
:1047D0002006410879A22580064108C8007FF11F04
:1047E000230300094108F8DF1D8006410879A2254E
:1047F000C0064108C8006FF11F240320094108F8D2
:10480000DF1DE006410879E52500074108C8005F83
:10481000F11F250340094108F8A225400741087906
:10482000282640074108C8004FF11F2403600941B2
:1048300008F8A225A007410879E52580074108C8A6
:10484000003FF11F230380094108F81F15000841AC
:104850000879A225C0074108C8002FF11F2203A034
:10486000094108F81F1560084108795F25000841D3
:1048700008C8001FF11F470640080908F9DF1DC0DE
:10488000084108791C2540084108C8001FF11F2E67
:10489000FD60088108F9DF1D20094108795F258046
:1048A000084108C800EFF11F470680084108F9A237
:1048B000258009410879A225C0084108C800DFF118
:1048C0001F4706A0084108F9A225E009400879E53C
:1048D0002500094108C800BFF11F4706C00841086C
:1048E000F91F15400A400879282640094108C800E8
:1048F0009FF11F4706E0084108F91F15A00A40086C
:1049000079E52580094108C8007FF11F47060009A5
:104910004108F9DF1D000B4008793E2A40050908CF
:10492000C8006FF11F490620094108F9DF1D600B1F
:104930004008793E2A80052108C8005FF11F4B0618
:1049400040094108F9A225C00B4008793E2AC0055C
:104950004108C8004FF11F490660094108F9A22526
:10496000200C400879A22540050908C8003FF11F26
:10497000470680094108F91F15800C400879A225D7
:1049800080052108C8002FF11F4506A0094108F93C
:104990001F15E00C400879A225C0054108C8001F7A
:1049A000F11F860340080908F81F154004410879E3
:1049B000862340050908C8001FF11FACBD600881AF
:1049C00008F81F15A004410879862380052108C82E
:1049D00000EFF11FEF0E80084108F8311C0005417F
:1049E00008798623C0054108C800DFF11FDA0BA053
:1049F000084108F8862360054108798623000641AE
:104A000008C800BFF11FACBDC0088108F81F15C061
:104A100005410879862340064108C8009FF11F869A
:104A200003E0084108F81F15200641087986238015
:104A3000064108C8007FF11F860300094108F831CC
:104A40001C80064108798623C0064108C8006FF122
:104A50001F870320094108F8311CE006410879C589
:104A60002300074108C8005FF11F8803400941087F
:104A7000F886234007410879042440074108C8000C
:104A80004FF11F870360094108F88623A0074108FA
:104A900079C52380074108C8003FF11F86038009BC
:104AA0004108F81F1500084108798623C00741080E
:104AB000C8002FF11F8503A0094108F81F156008E1
:104AC000410879472300084108C8001FF11F0C075F
:104AD00040080908F9311CC008410879082340083A
:104AE0004108C8001FF11F2EFD60088108F9311C24
:104AF0002009410879472380084108C800EFF11FC9
:104B00000C0780084108F98623800941087986232B
:104B1000C0084108C800DFF11F0C07A0084108F9D0
:104B20008623E009400879C52300094108C800BF71
:104B3000F11F0C07C0084108F91F15400A40087909
:104B4000042440094108C8009FF11F0C07E00841F8
:104B500008F91F15A00A400879C52380094108C833
:104B6000007FF11F2C0500094108F9311C000B40A2
:104B70000879A22540050908C8006FF11F860320A7
:104B8000094108F9311C600B400879A225800521F4
:104B900008C8005FF11F860340094108F98623C059
:104BA0000B400879A225C0054108C8004FF11F87B6
:104BB0000360094108F98623200C4008793E2A4009
:104BC000050908C8003FF11F880380094108F91F43
:104BD00015800C4008793E2A80052108C8002FF175
:104BE0001F8703A0094108F91F15E00C4008793E12
:104BF0002AC0054108C8001FF11F98054008090890
:104C0000F860164004410879C12C40050908C80025
:104C10001FF11FF8EE60088108F86016A004410833
:104C200079C12C80052108C800EFF11F8F0A800888
:104C30004108F8311C0005410879C12CC005410824
:104C4000C800DFF11F7707A0084108F8A22560051A
:104C5000410879C12C00064108C800BFF11F470672
:104C6000C0084108F86016C005410879C12C40060B
:104C70004108C8009FF11F9805E0084108F8601638
:104C80002006410879C12C80064108C8007FF11F29
:104C9000980500094108F8311C8006410879C12CAB
:104CA000C0064108C8006FF11F9A0520094108F8A5
:104CB000311CE006410879112D00074108C8005F4A
:104CC000F11F9C0540094108F8A2254007410879D9
:104CD000612D40074108C8004FF11F9A0560094146
:104CE00008F8A225A007410879112D80074108C8BE
:104CF000003FF11F980580094108F860160008413F
:104D00000879C12CC0074108C8002FF11F9605A0E3
:104D1000094108F860166008410879712C000841C3
:104D200008C8001FF11F980540080908F8311CC089
:104D300008410879212C40084108C8001FF11FF8DC
:104D4000EE60088108F8311C2009410879712C8037
:104D5000084108C800EFF11F8F0A80084108F8A237
:104D6000258009410879C12CC0084108C800DFF13D
:104D70001F7707A0084108F8A225E009400879112B
:104D80002D00094108C800BFF11F4706C0084108AF
:104D9000F86016400A400879612D40094108C800B2
:104DA0009FF11F9805E0084108F86016A00A400826
:104DB00079112D80094108C8007FF11F980500096D
:104DC0004108F8311C000B400879C12CC00941088A
:104DD000C8006FF11F9A0520094108F8311C600BCB
:104DE000400879712C000A4108C8005FF11F9C053A
:104DF00040094108F8A225C00B400879212C400A3F
:104E00004108C8004FF11F9A0560094108F8A22522
:104E1000200C400879712C800A4108C8003FF11F1E
:104E2000980580094108F86016800C400879C12C6B
:104E3000C00A4108C8002FF11F9605A0094108F8D3
:104E40006016E00C400879112D000B4108C8001FC6
:104E5000F11F5A0240080908F86016400441087919
:104E6000601640050908C8001FF11FACBD4008814D
:104E700008F86016A004410879601680052108C86A
:104E800000EFF11FEF0E40084108F8311C0005410A
:104E900008796016C0054108C800DFF11FDA0B4031
:104EA000084008F8A225600541087960160006410F
:104EB00008C800BFF11FACBD40088008F86016C0EC
:104EC00005410879601640064108C8009FF11F0F90
:104ED0004340088008F86016200641087960168073
:104EE000064108C8007FF11F300B40080908F9315E
:104EF0001C80064108796016C0064108C8007FF191
:104F00001F2EFD60088108F9311CE00641087988F0
:104F10001600074108C800DFF11F300B8008410868
:104F2000F9A2254007410879B01640074108C8009A
:104F3000DFF11F300BA0084108F9A225A0074108A6
:104F400079881680074108C800BFF11F300BC008E0
:104F50004108F9601600084108796016C007410849
:104F6000C8009FF11F300BE0084108F96016600887
:104F7000410879381600084108C8007FF11F9805DC
:104F800040080908F9311CC008410879101640088A
:104F90004108C8007FF11F2EFD60088108F9311C0F
:104FA0002009410879381680084108C800DFF11F40
:104FB000980580084108F9A2258009410879601602
:104FC000C0084108C800DFF11F980500000000007C
:104FD000A225E009400879881600094108C800DFC9
:104FE000F11F980500000000006016400A40087993
:104FF000B01640094108C800DFF11F980500000005
:1050000000006016A00A400879881680094108C887
:1050100000DFF11F980540080908F9311C000B401A
:1050200008796016C0094108C800DFF11F2EFD6035
:10503000088108F9311C600B4008793816000A41D4
:1050400008C800DFF11F980580084108F9A225C0B3
:105050000B4008791016400A4108C800DFF11F987C
:10506000050000000000A225200C400879381680B9
:105070000A4108C800DFF11F980500000000006029
:1050800016800C4008796016C00A4108C800DFF19C
:105090001F980500000000006016E00C40087988A9
:1050A00016000B4108C800DFF11F860340080908FD
:1050B000F81F1540044108791F1540050908C8006C
:1050C000DFF11FF8EE60088108F81F15A004410801
:1050D000791F1580052108C800DFF11F8F0A80089D
:1050E0004108F8311C00054108791F15C005410829
:1050F000C800DFF11F7707A0084108F8A225600566
:105100004108791F1500064108C800BFF11F470676
:10511000C0084108F81F15C0054108791F15400651
:105120004108C8009FF11F8603E0084108F81F15D9
:1051300020064108791F1580064108C8007FF11F2D
:10514000860300094108F8311C80064108791F15C3
:10515000C0064108C8006FF11F870320094108F805
:10516000311CE006410879451500074108C8005F79
:10517000F11F880340094108F8A22540074108793A
:105180006B1540074108C8004FF11F8703600941B4
:1051900008F8A225A007410879451580074108C8ED
:1051A000003FF11F860380094108F81F15000841E0
:1051B00008791F15C0074108C8002FF11F8503A0FB
:1051C000094108F81F156008410879F914000841E1
:1051D00008C8001FF11F8403C0094108F8311CC032
:1051E00008410879D31440084108C8000FF11F8511
:1051F00003E0094108F8311C2009410879F91480BD
:10520000084108C8000EF11F8603000A4108F8A2F1
:105210002580094108791F15C0084108C8000DF113
:105220001F8703200A4108F8A225E00940087945B4
:105230001500094108C8000CF11F8803400A410805
:10524000F81F15400A4008796B1540094108C8004D
:105250000BF11F8703600A4108F81F15A00A4008D8
:1052600079451580094108C8000AF11F86034008E6
:105270000908F9311C000B4008791F15C0094108C5
:10528000C8000AF11F2EFD60088108F9311C600B6F
:10529000400879F914000A4108C800FEF11F86038E
:1052A00080084108F9A225C00B400879D314400AB0
:1052B0004108C800DFF11F8603A0084108F9A225B4
:1052C000200C400879F914800A4108C800BFF11F7A
:1052D0008603C0084108F91F15800C4008791F1586
:1052E000C00A4108C8009FF11F8603E0084108F981
:1052F0001F15E00C4008794515000B4108C8007FD8
:10530000F11F5A0240080908F81F154004410879A6
:10531000A22540050908C8007FF11FACBD400881E7
:1053200008F81F15A004410879A22580052108C8A6
:1053300000DFF11FEF0E40084108F8311C00054165
:105340000879A225C0054108C800DFF11FDA0B402B
:10535000084008F886236005410879822700064145
:1053600008C800BFF11FACBD40088008F81F15C079
:1053700005410879622940064108C8009FF11F0FC6
:105380004340088008F81F1520064108793E2A800E
:10539000064108C8007FF11FACBD40088008F83105
:1053A0001C80064108793E2AC0064108C8006FF1FA
:1053B0001F0F4340088008F8311CE0064108798936
:1053C0002A00074108C8005FF11FACBD40088008F3
:1053D000F886234007410879D42A40074108C800CD
:1053E0004FF11F0F4340088008F88623A0074108AB
:1053F00079892A80074108C8003FF11FACBD4008E9
:105400008008F81F1500084108793E2AC0074108A6
:10541000C8002FF11F0F4340088008F81F156008CF
:10542000410879F32900084108C8001FF11F470609
:1054300040080908F9311CC008410879A82940082A
:105440004108C8001FF11F2EFD60088108F9311CBA
:105450002009410879F32980084108C800EFF11FAD
:10546000470680084108F9862380094108793E2AC9
:10547000C0084108C800DFF11F4706A0084108F92D
:105480008623E009400879892A00094108C800BF3D
:10549000F11F4706C0084108F91F15400A40087966
:1054A000D42A40094108C8009FF11F4706E008417F
:1054B00008F91F15A00A400879892A80094108C8FF
:1054C000007FF11F0C0700094108F9311C000B4057
:1054D0000879C12C40050908C8006FF11F0C07208E
:1054E000094108F9311C600B400879C12C80052165
:1054F00008C8005FF11F0F0740094108F98623C063
:105500000B400879C12CC0054108C8004FF11F129B
:105510000760094108F98623200C4008793E2A409B
:10552000050908C8003FF11F0F0780094108F91F4E
:1055300015800C4008793E2A80052108C8002FF10B
:105540001F0C07A0094108F91F15E00C4008793E1F
:105550002AC0054108C8001FF11F5A024008090867
:10556000F8D1124004410879872140050908C80094
:105570001FF11FF8EE60088108F88B96A00441081F
:1055800079872180052108C800EFF11F8F0A800864
:105590004108F8C77000054108798721C005410816
:1055A000C800DFF11F7707A0084108F8835960059C
:1055B000410879872200064108C800BFF11F47064D
:1055C000C0084108F8454BC00541087987234006CB
:1055D0004108C8009FF11F5A02E0084108F80F4334
:1055E0002006410879872480064108C8007FF11F02
:1055F0005A0200094108F863388006410879872576
:10560000C0064108C8006FF11F5B0220094108F87D
:10561000C12CE006410879A22500074108C8005FB7
:10562000F11F5C0240094108F8A2254007410879B2
:10563000A22540074108C8004FF11F5B02600941E5
:1056400008F88721A007410879E52580074108C8A7
:10565000003FF11F5A0280094108F8311C0008413F
:1056600008792826C0074108C8002FF11F5902A059
:10567000094108F860166008410879E525000841ED
:1056800008C8001FF11F5802C0094108F8D112C014
:1056900008410879A22540084108C8000FF11F59A8
:1056A00002E0094108F88B9620094108795F2580BE
:1056B000084108C8000EF11F5A02000A4108F8C745
:1056C0007080094108791C25C0084108C8000DF107
:1056D0001F5B02200A4108F88359E0094108795FFD
:1056E0002500094108C8000CF11F5C02400A41086E
:1056F000F8454B400A410879A22540094108C800F5
:105700000BF11F5B02600A4108F80F43A00A410831
:1057100079E52580094108C8000AF11F5A02800A6C
:105720004108F86338000B4108792826C009410870
:10573000C80009F11F5902A00A4108F8C12C600BEA
:10574000410879E525000A4108C80008F11F580200
:10575000C00A4108F8A225C00B410879A225400AD9
:105760004108C80007F11F5902E00A4108F88721E3
:10577000200C4108795F25800A4108C80006F11F06
:105780005A02000B4108F8311C800C4108791C2595
:10579000C00A4108C80005F11F5B02200B4108F850
:1057A0006016E00C4108795F25000B4108C8000431
:1057B000F11F5C02400B4108F8D112400D410879FD
:1057C000A225400B4108C80004F11F5B02600B4199
:1057D00008F88B96A00D410879E525800B4108C893
:1057E0000004F11F5A02800B4108F88B96000E410D
:1057F00008792826C00B4108C80004F11F5902A0EF
:105800000B4108F8C770600E410879E525000C418E
:1058100008C80004F11F5802C00B4108F8C770C047
:105820000E410879A225400C4108C80004F11F5917
:1058300002E00B4108F88359200F4108795F258069
:105840000C4108C80004F11F5A02000C4108F883FB
:1058500059C00E4108791C25C00C4108C80004F14C
:105860001F5B02200C4108F8454B600E4108795F30
:1058700025000D4108C80004F11F5C02400C4108DE
:10588000F8454B000E410879A225400D4108C8009B
:1058900004F11F5B02600C4108F80F43A00D4108A2
:1058A00079E525800D4108C80004F11F5A02800CDB
:1058B0004108F80F43400D4108792826C00D4108E2
:1058C000C80004F11F5902A00C4108F86338E00C2D
:1058D000410879E525000E4108C80004F11F58026F
:1058E000C00C4108F86338800C410879A225400EAD
:1058F0004108C80004F11F5902E00C4108F8C12C0E
:10590000200C4108795F25800E4108C80004F11F72
:105910005A02000D4108F8C12CC00B4108791C2522
:10592000C00E4108C80004F11F5B02200D4108F8B9
:10593000A225600B4108795F25000F4108C80004CB
:10594000F11F5C02400D4108F8A225000B410879C7
:10595000A225C00E4108C80004F11F5B02600D4182
:1059600008F88721A00A410879E525800E4108C87A
:105970000004F11F5A02800D4108F88721400A41B6
:1059800008792826400E4108C80004F11F5902A0DA
:105990000D4108F8311CE009410879E525000E4168
:1059A00008C80004F11F5802C00D4108F8311C80DE
:1059B00009410879A225C00D4108C80004F11F590A
:1059C00002E00D4108F8601620094108795F258042
:1059D0000D4108C80004F11F5A02000E4108F8608A
:1059E00016C0084108791C25400D4108C80004F183
:1059F0001F5B02200E4108F8D11260084108795F50
:105A000025000D4108C80004F11F5C02400E41084A
:105A1000F8D1120008410879A225C00C4108C8003D
:105A200004F11F5B02600E4108F88B96A007410845
:105A300079E525800C4108C80004F11F5A02800E48
:105A40004108F88B9640074108792826400C410808
:105A5000C80004F11F5902A00E4108F88B96E00619
:105A6000410879E525000C4108C80004F11F5802DF
:105A7000C00E4108F88B968006410879A225C00B1C
:105A80004108C80004F11F5902E00E4108F8C77030
:105A900020064108795F25800B4108C80004F11FEA
:105AA000610840080908F8C770C0054108791C253D
:105AB000400B4108C80004F11FACBD60088108F824
:105AC000C77060054108795F25000B4108C800FEDA
:105AD000F11FEF0E80084108F8C7700005410879F2
