:100000000C94B4000C94D1000C94D1000C94D10049
:100010000C94D1000C94D1000C94D1000C94D1001C
:100020000C94D1000C94D1000C94D1000C94D1000C
:100030000C94D1000C94D1000C94D1000C94D100FC
:100040000C94D3000C94D1000C94D1000C94D100EA
:100050000C94D1000C94D1000C94D1000C94D100DC
:100060000C94D1000C94D1000C9400000C9400006E
:100070000C9400000C94000007634236B79BD8A78D
:100080001A39685618AEBAAB558C1D3CB7CC5763BD
:10009000BD6DEDFD753EF6177231BF000000803F6B
:1000A00005A84CCDB2D44EB93836A9020C50B9913E
:1000B0008688083CA6AAAA2ABE000000803F080045
:1000C0000000BE922449123EABAAAA2ABECDCCCCD7
:1000D0004C3E00000080BEABAAAAAA3E0000000071
:1000E000BF000000803F0000000000084178D3BB43
:1000F0004387D1133D190E3CC3BD4282AD2B3E68F0
:10010000EC8276BED98FE1A93E4C80EFFFBE01C4E0
:10011000FF7F3F00000000000000000025002800D5
:100120002B002E0000000000240027002A002D00D4
:10013000040404040404040402020202020203038D
:10014000030303030505050505050503010204086E
:100150001020408001020408102001020408102031
:10016000020801041040204011241FBECFEFD8E048
:10017000DEBFCDBF11E0A0E0B1E0ECE2FCE202C0E6
:1001800005900D92A63FB107D9F723E0A6EFB1E0A5
:1001900001C01D92AC3FB207E1F70E9419010C9417
:1001A00014160C9400001F920F920FB60F92112498
:1001B0002F933F938F939F93AF93BF938091F803B7
:1001C0009091F903A091FA03B091FB033091F703EA
:1001D00020E4230F2D3728F023EC230F0196A11DD7
:1001E000B11D2093F7038093F8039093F903A09334
:1001F000FA03B093FB038091F3039091F403A09171
:10020000F503B091F6030196A11DB11D8093F30390
:100210009093F403A093F503B093F603BF91AF91CD
:100220009F918F913F912F910F900FBE0F901F9034
:100230001895CF93DF93CDB7DEB761970FB6F894DB
:10024000DEBF0FBECDBF8091F20080618EBB80E823
:100250008093F2009EB39093F2008093610091E04E
:10026000909361009091F2009F799EBB8093F20081
:100270009EB39093F2009091F2009B7F9EBB80937F
:10028000F2009EB39093F20080936100109261009F
:10029000789484B5826084BD84B5816084BD85B561
:1002A000826085BD85B5816085BD80916E0081606D
:1002B00080936E0010928100809181008260809313
:1002C0008100809181008160809381008091800015
:1002D0008160809380008091B10084608093B10040
:1002E0008091B00081608093B00080919100826025
:1002F0008093910080919100816080939100809122
:10030000900081608093900080917A008460809357
:100310007A0080917A008D7F80937A0080917A00B4
:100320008E7F80937A0080917A00806880937A0033
:100330001092C100E9E5F1E02491EDE3F1E0849150
:10034000882399F090E0880F991FFC01EC5DFE4F27
:10035000A591B491FC01E85EFE4F859194918FB711
:10036000F894EC91E22BEC938FBF81E08093000135
:100370008091AD008F7B8093AD0080910001811151
:100380000C94F7108091A0008C7081608093A00085
:100390008091F00081FF0AC08091F0008D7F8EBBBC
:1003A00080E88093F0008EB38093F000809100018C
:1003B0008295880F880F807C80937C00E0E5F1E0D7
:1003C000E491E4E3F1E084919091A0009C6090932B
:1003D000A000882369F090E0880F991FFC01EC5D74
:1003E000FE4F25913491FC01E85EFE4F859194917A
:1003F000F8940EEC12E01B861A86CA84DB84B601E0
:100400000D2C000C880B990B0E940C1320E030E09F
:1004100040E05FE30E94F6112BED3FE049EC50E431
:100420000E94981320E030E040E85BE30E949813BC
:100430000E94551420E030E040E053E40E949813FD
:100440000E94D412D8016D938D01F6013196FB877D
:10045000EA87E115F14089F60EE412E04BEE5FEF1A
:100460005B874A87CA84DB84B6010D2C000C880B9D
:10047000990B0E940C1320E030E040E451E40E940C
:1004800062129B01AC0160E070E080E090E40E94A9
:10049000051420E030E04CED53E40E94981320E076
:1004A00030E040E857E40E94981320E034E244E74B
:1004B00057E40E94621220E030E040E05FE30E94D7
:1004C000F6110E94DB12D8016D937D938D01F60128
:1004D0003196FB87EA877B9729F689E08093810034
:1004E0008091F1039091F2038C3D954009F50E94B3
:1004F000821160E170E00E94E5158093F0030E9494
:10050000821160E071E00E94E5158093EF030E9484
:1005100082116CE070E00E94E5158093EE0310926A
:10052000F2031092F10385B1F0E2CF2E8C2585B94C
:100530008091F1039091F20301969093F2038093DE
:10054000F103B09BFECFB09A6091E6037091E70390
:100550008091DE039091DF03680F791F7093E703AA
:100560006093E6034091E8035091E9032090E00393
:100570003090E103420D531D5093E9034093E8038B
:100580002091EA033091EB034090E2035090E303A3
:100590005901A40CB51CB092EB03A092EA03E091C0
:1005A000EC03F091ED038091E4039091E5038E0F4D
:1005B0009F1F9093ED038093EC030091D60310915D
:1005C000D703E091CE03F091CF030E0F1F1F1093BE
:1005D000D7030093D6038090D8039090D903E0917D
:1005E000D003F091D1038E0E9F1E9092D90380927A
:1005F000D803A091DA03B091DB03E091D203F0912C
:10060000D303AE0FBF1FB093DB03A093DA03E090D8
:10061000DC03F090DD03E091D403F091D5033F01BA
:100620006E0C7F1C7092DD036092DC03672F7727CE
:1006300062537D4FFB01D080E090C602F090C7026C
:100640006D2D97016203F001639FF00D11240E0FD1
:100650001F1F012F112702531D4F6091C202F80185
:1006600070817603B0011124452F552742535D4F09
:10067000FA01F0800091C8021091C9022F2D2003C9
:10068000A001219F500D1124480D591D452F5527BC
:100690008A0102531D4F4091C302F8015081540357
:1006A000A0011124640F751F2B2D332722533D4FBA
:1006B000F90110814091CA025091CB0214039001BC
:1006C000159F300D1124A20FB31FAB2FBB27A253D0
:1006D000BD4F2091C4023C91320390011124620F5E
:1006E000731F892F9927DC01A253BD4F4C91209194
:1006F000CC023091CD024203C001439F900D1124E2
:10070000F301E80FF91FEF2FFF27E253FD4F209170
:10071000C5023081320390011124620F731F660FEE
:10072000672F661F770B60586093A100B09BFECFC8
:10073000B09A6091E6037091E7038091DE03909197
:10074000DF03680F791F7093E7036093E60340911E
:10075000E8035091E903420D531D5093E903409380
:10076000E8032091EA033091EB035901A40CB51C76
:10077000B092EB03A092EA03E091EC03F091ED0359
:100780008091E4039091E5038E0F9F1F9093ED03FA
:100790008093EC030091D6031091D703E091CE0330
:1007A000F091CF030E0F1F1F1093D7030093D603B2
:1007B0008090D8039090D903E091D003F091D103B9
:1007C0008E0E9F1E9092D9038092D803A091DA03D7
:1007D000B091DB03E091D203F091D303AE0FBF1FC2
:1007E000B093DB03A093DA03E090DC03F090DD0329
:1007F000E091D403F091D5033F016E0C7F1C709201
:10080000DD036092DC03672F772762537D4FFB0186
:10081000D080E090C602F090C7026D2D9701620370
:10082000F001639FF00D11240E0F1F1F012F1127E0
:1008300002531D4F6091C202F80170817603B0012E
:100840001124452F552742535D4FFA01F080009146
:10085000C8021091C9022F2D2003A001219F500D25
:100860001124480D591D452F55278A0102531D4F4C
:100870004091C302F80150815403A0011124640F78
:10088000751F2B2D332722533D4FF90110814091C5
:10089000CA025091CB0214039001159F300D112410
:1008A000A20FB31FAB2FBB27A253BD4F2091C40291
:1008B0003C91320390011124620F731F892F9927F5
:1008C000DC01A253BD4F4C912091CC023091CD025E
:1008D0004203C001439F900D1124F301E80FF91F5B
:1008E000EF2FFF27E253FD4F2091C50230813203E5
:1008F00090011124620F731F660F672F661F770B1D
:1009000060586093A1002091BE02DD24DA94222376
:1009100051F081E03091BA029091F003391301C097
:1009200080E0D82ED1943091BF02332341F09091D2
:10093000BB028091F003981302C0DD24D394909100
:10094000C002992341F04091BC028091F00348130A
:1009500002C0B2E0DB2E8091C102882341F05091A9
:10096000BD024091F003541711F40C941D11FFEFD8
:10097000DF1246C0DD24D394332331F031E021115E
:1009800001C030E0D32ED194992311F40C9430118E
:10099000882311F40C941D11CC24CA94DC1030C0AF
:1009A00041E02091B2023091B3028091B402909163
:1009B000B5022817390708F040E0E42FF0E0EE0F09
:1009C000FF1FEE54FD4F8091B6029091B702208137
:1009D0003181D42E2817390710F472E0D72EED2D6F
:1009E000F0E0EE0FFF1FEE54FD4F8091B8029091A2
:1009F000B902208131812817390710F40C941D1198
:100A0000B09BFECFB09A6091E6037091E7038091AE
:100A1000DE039091DF03680F791F7093E703609303
:100A2000E6034091E8035091E903420D531D5093B2
:100A3000E9034093E8032091EA033091EB03590165
:100A4000A40CB51CB092EB03A092EA03E091EC0376
:100A5000F091ED038091E4039091E5038E0F9F1FC9
:100A60009093ED038093EC030091D6031091D7038C
:100A7000E091CE03F091CF030E0F1F1F1093D70309
:100A80000093D6038090D8039090D903E091D003CF
:100A9000F091D1038E0E9F1E9092D9038092D803BD
:100AA000A091DA03B091DB03E091D203F091D3037C
:100AB000AE0FBF1FB093DB03A093DA03E090DC031B
:100AC000F090DD03E091D403F091D5033F016E0C6B
:100AD0007F1C7092DD036092DC03672F77276253DF
:100AE0007D4FFB01C080E090C602F090C7026C2DE4
:100AF00097016203F001639FF00D11240E0F1F1F79
:100B0000012F112702531D4F6091C202F80170811D
:100B10007603B0011124452F552742535D4FFA014A
:100B2000F0800091C8021091C9022F2D2003A0016E
:100B3000219F500D1124480D591D452F55278A011D
:100B400002531D4F4091C302F80150815403A0018C
:100B50001124640F751F2B2D332722533D4FF901AC
:100B600010814091CA025091CB0214039001159F4D
:100B7000300D1124A20FB31FAB2FBB27A253BD4FC3
:100B80002091C4023C91320390011124620F731F23
:100B9000892F9927DC01A253BD4F4C912091CC02A3
:100BA0003091CD024203C001439F900D1124F30107
:100BB000E80FF91FEF2FFF27E253FD4F2091C502E9
:100BC0003081320390011124620F731F660F672F6B
:100BD000661F770B60586093A100F090F003FFEF61
:100BE000FF1609F4ADC0CD2CD12CF601EE0FFF1F7E
:100BF000DF01AA52BC4F1D921C924091EE0350E0BF
:100C0000960122553D4F440F551FCA0183529E4FF6
:100C1000DC018C91D9018C93DA01AB53BE4F0D905E
:100C2000BC91A02DAF0DB11DAA0FBB1FA25BBD4F84
:100C30002D913C91DF01AA5BBD4F2D933C93BF01E9
:100C4000625C7D4FCA0183559E4FDC018D919C9162
:100C5000DB018D939C93BF016A5C7D4FCA018B566B
:100C60009E4FDC018D919C91DB018D939C93BF0184
:100C7000625D7D4FCA0183589E4FDC018C91DB0180
:100C80001C9211968C93BF016A5D7D4FCA018B59EE
:100C90009E4FDC018D919C91DB018D939C93D6013D
:100CA000A254BD4F61E06C93DF01AA51BC4F1D926D
:100CB0001C928F01025E1D4FDA01A35BBE4F0D90A7
:100CC000BC91A02D0E94E611672F782F892F9927BC
:100CD00087FD9A95D8016D937C93DA01AB5CBE4F8A
:100CE0002D913C91DF01AA5EBD4F2D933C93BF0136
:100CF000625F7D4FCA01835E9E4FDC018D919C91A6
:100D0000821B930BDB018D939C93DF01AA5FBD4F88
:100D10002FEF3FEF2D933C939F0122503E4F4B5FAF
:100D20005E4FDA018D919C91D9018D939C93960130
:100D300026543D4FD901FC92EE54FD4F1182108292
:100D4000B09BFECFB09A6091E6037091E70380916B
:100D5000DE039091DF03680F791F7093E7036093C0
:100D6000E6034091E8035091E903420D531D50936F
:100D7000E9034093E8032091EA033091EB03590122
:100D8000A40CB51CB092EB03A092EA03E091EC0333
:100D9000F091ED038091E4039091E5038E0F9F1F86
:100DA0009093ED038093EC030091D6031091D70349
:100DB000E091CE03F091CF030E0F1F1F1093D703C6
:100DC0000093D6038090D8039090D903E091D0038C
:100DD000F091D1038E0E9F1E9092D9038092D8037A
:100DE000A091DA03B091DB03E091D203F091D30339
:100DF000AE0FBF1FB093DB03A093DA03E090DC03D8
:100E0000F090DD03E091D403F091D5033F016E0C27
:100E10007F1C7092DD036092DC03672F772762539B
:100E20007D4FFB01D080E090C602F090C7026D2D8F
:100E300097016203F001639FF00D11240E0F1F1F35
:100E4000012F112702531D4F6091C202F8017081DA
:100E50007603B0011124452F552742535D4FFA0107
:100E6000F0800091C8021091C9022F2D2003A0012B
:100E7000219F500D1124480D591D452F55278A01DA
:100E800002531D4F4091C302F80150815403A00149
:100E90001124640F751F2B2D332722533D4FF90169
:100EA00010814091CA025091CB0214039001159F0A
:100EB000300D1124A20FB31FAB2FBB27A253BD4F80
:100EC0002091C4023C91320390011124620F731FE0
:100ED000892F9927DC01A253BD4F4C912091CC0260
:100EE0003091CD024203C001439F900D1124F301C4
:100EF000E80FF91FEF2FFF27E253FD4F2091C502A6
:100F00003081320390011124620F731F660F672F27
:100F1000661F770B60586093A1008091EF038F3FAD
:100F2000E1F09091BA02891303C094E09093BE025D
:100F30009091BB02891303C094E09093BF029091FB
:100F4000BC02891303C094E09093C0029091BD024B
:100F5000891303C084E08093C102B09BFECFB09A96
:100F60006091E6037091E7038091DE039091DF03C7
:100F7000680F791F7093E7036093E6034091E803DD
:100F80005091E903420D531D5093E9034093E80348
:100F90002091EA033091EB035901A40CB51CB092E7
:100FA000EB03A092EA03E091EC03F091ED03809152
:100FB000E4039091E5038E0F9F1F9093ED038093C0
:100FC000EC030091D6031091D703E091CE03F0918A
:100FD000CF030E0F1F1F1093D7030093D6038090EB
:100FE000D8039090D903E091D003F091D1038E0EF5
:100FF0009F1E9092D9038092D803A091DA03B091FA
:10100000DB03E091D203F091D303AE0FBF1FB09387
:10101000DB03A093DA03E090DC03F090DD03E091C2
:10102000D403F091D5033F016E0C7F1C7092DD0359
:101030006092DC03672F772762537D4FFB01D080DE
:10104000E090C602F090C7026D2D97016203F00197
:10105000639FF00D11240E0F1F1F012F1127025344
:101060001D4F6091C202F80170817603B001112416
:10107000452F552742535D4FFA01F0800091C80279
:101080001091C9022F2D2003A001219F500D112482
:10109000480D591D452F55278A0102531D4F409178
:1010A000C302F80150815403A0011124640F751F7D
:1010B0002B2D332722533D4FF90110814091CA0255
:1010C0005091CB0214039001159F300D1124A20FF3
:1010D000B31FAB2FBB27A253BD4F2091C4023C913D
:1010E000320390011124620F731F892F9927DC01AD
:1010F000A253BD4F4C912091CC023091CD024203BE
:10110000C001439F900D1124F301E80FF91FEF2F49
:10111000FF27E253FD4F2091C50230813203900139
:101120001124620F731F660F672F661F770B6058BD
:101130006093A1004091060250910702A091FE0128
:10114000B091FF019A010E94E611481B590B509380
:101150000702409306024091080250910902A091B3
:101160000002B09101029A010E94E611481B590B3E
:10117000509309024093080240910A0250910B02D9
:10118000A0910202B09103029A010E94E611481B4D
:10119000590B50930B0240930A0240910C0250915C
:1011A0000D02A0910402B09105029A010E94E6117D
:1011B000481B590B50930D0240930C02B09BFECF7D
:1011C000B09A6091E6037091E7038091DE039091FD
:1011D000DF03680F791F7093E7036093E603409184
:1011E000E8035091E903420D531D5093E9034093E6
:1011F000E8032091EA033091EB035901A40CB51CDC
:10120000B092EB03A092EA03E091EC03F091ED03BE
:101210008091E4039091E5038E0F9F1F9093ED035F
:101220008093EC030091D6031091D703E091CE0395
:10123000F091CF030E0F1F1F1093D7030093D60317
:101240008090D8039090D903E091D003F091D1031E
:101250008E0E9F1E9092D9038092D803A091DA033C
:10126000B091DB03E091D203F091D303AE0FBF1F27
:10127000B093DB03A093DA03E090DC03F090DD038E
:10128000E091D403F091D5033F016E0C7F1C709266
:10129000DD036092DC03672F772762537D4FFB01EC
:1012A000D080E090C602F090C7026D2D97016203D6
:1012B000F001639FF00D11240E0F1F1F012F112746
:1012C00002531D4F6091C202F80170817603B00194
:1012D0001124452F552742535D4FFA01F0800091AC
:1012E000C8021091C9022F2D2003A001219F500D8B
:1012F0001124480D591D452F55278A0102531D4FB2
:101300004091C302F80150815403A0011124640FDD
:10131000751F2B2D332722533D4FF901108140912A
:10132000CA025091CB0214039001159F300D112475
:10133000A20FB31FAB2FBB27A253BD4F2091C402F6
:101340003C91320390011124620F731F892F99275A
:10135000DC01A253BD4F4C912091CC023091CD02C3
:101360004203C001439F900D1124F301E80FF91FC0
:10137000EF2FFF27E253FD4F2091C502308132034A
:1013800090011124620F731F660F672F661F770B82
:1013900060586093A1002EEB32E03D872C87F2EB82
:1013A0006F2EF2E07F2EE6EFF1E0912C812C0C8580
:1013B0001D85D8018C91843081F4808191819401C4
:1013C0002A5D3D4FD9012D913C912817390708F42A
:1013D00038C711821082D8011C92AC85BD858C91D2
:1013E0008230E1F4808191819401225D3D4FD901E9
:1013F0004D915C9194012A5C3D4FD9012D913C9116
:10140000BA01620F731F6817790708F41FC7518369
:10141000408353E0C52EAC85BD85CC922C853D859F
:101420002F5F3F4F3D872C87D8018C918130E1F4AD
:1014300080819181A401425C5D4FDA012D913C9144
:10144000AC01409550952417350708F404C7CC2407
:10145000CA94DC2CD182C0822C853D852150310973
:1014600042E0C42ED901CC92D3018D919D913D01D2
:10147000AD01425051090196DA018D939C93B09BC6
:10148000FECFB09A4091E6035091E7038091DE03CE
:101490009091DF03480F591F5093E7034093E603F1
:1014A0002091E8033091E9038091E0039091E103FA
:1014B000280F391F3093E9032093E8036091EA0372
:1014C0007091EB038091E2039091E303860F971FE5
:1014D0009093EB038093EA036091EC037091ED032A
:1014E000A090E403B090E503A60EB71EB092ED0302
:1014F000A092EC03E090D603F090D7036091CE0366
:101500007091CF03E60EF71EF092D703E092D60358
:101510000091D8031091D9036091D0037091D10349
:10152000060F171F1093D9030093D803C090DA0356
:10153000D090DB036091D2037091D303D601A60F44
:10154000B71FBB87AA87B093DB03A093DA03C090D1
:10155000DC03D090DD036091D4037091D503DB01EF
:10156000AC0DBD1DBF87AE87B093DD03A093DC0338
:10157000452F552742535D4FDA017C91C090C6023A
:10158000D090C702A6017403D001759FB00D11243D
:10159000AD014E0D5F1D452F552742535D4FF09015
:1015A000C202DA014C915F2D450360011124D98AF2
:1015B000C88A232F332722533D4FD901DC90E09076
:1015C000C802F090C9026D2DA70164039001659FC8
:1015D000300D1124020F131F012F112702531D4F2D
:1015E0002091C302D8013C91320390011124488913
:1015F0005989420F531F892F992782539D4FDC0130
:101600001C912091CA023091CB021203C001139F9A
:10161000900D11246A857B85680F791F672F7727C6
:1016200062537D4F2091C402DB013C913203900153
:101630001124420F531F2B2D332722533D4FD90125
:101640001C912091CC023091CD021203B001139F66
:10165000700D1124CE84DF846C0D7D1D672F7727DC
:1016600062537D4F2091C502DB013C913203900112
:101670001124420F531F440F452F441F550B405850
:101680004093A1003296B2E08B0E911C28E08216A6
:10169000910409F08CCE3091F70139831A822091A0
:1016A000AE02C980DA802C9DC0012D9D900D1124C1
:1016B0009093C20280914602909147029093CF038B
:1016C0008093CE032091060230910702A0910E0272
:1016D000B0910F020E94F915209116023091170265
:1016E000820F931F9093C7028093C60280911E02BF
:1016F00090911F029093DF038093DE03B09BFECF97
:10170000B09A6091E6037091E7038091DE039091B7
:10171000DF03680F791F7093E7036093E60340913E
:10172000E8035091E903420D531D5093E9034093A0
:10173000E8032091EA033091EB034901840C951CE6
:101740009092EB038092EA038091EC039091ED0379
:101750002090E4033090E503820D931D9093ED03F8
:101760008093EC03E090D603F090D703E091CE0392
:10177000F091CF03EE0EFF1EF092D703E092D60356
:101780000091D8031091D903E091D003F091D103D7
:101790000E0F1F1F1093D9030093D803A091DA03F3
:1017A000B091DB03E091D203F091D303AE0FBF1FE2
:1017B000B093DB03A093DA03C090DC03D090DD0389
:1017C000E091D403F091D5033F016C0C7D1C709225
:1017D000DD036092DC03672F772762537D4FFB01A7
:1017E000B080C090C602D090C7026B2D96016203F4
:1017F000F001639FF00D1124BF016E0D7F1D672F57
:10180000772762537D4FF090C202FB0160812F2D3C
:10181000620350011124452F552742535D4FFA01B1
:10182000D080E090C802F090C9026D2D970162034C
:10183000A001639F500D1124040F151F012F1127C4
:1018400002531D4F4091C302F80150815403A0017F
:101850001124B501640F751F292D332722533D4FE5
:10186000F90110814091CA025091CB0214039001FA
:10187000159F300D1124A20FB31FAB2FBB27A2530E
:10188000BD4F2091C4023C91320390011124620F9C
:10189000731F892F9927DC01A253BD4F4C912091D2
:1018A000CC023091CD024203C001439F900D112420
:1018B000F301E80FF91FEF2FFF27E253FD4F2091AF
:1018C000C5023081320390011124620F731F660F2D
:1018D000672F661F770B60586093A100F091F901A4
:1018E000FB831C822091AF02CB80DC802C9DC00149
:1018F0002D9D900D11249093C302809148029091E8
:1019000049029093D1038093D00320910802309133
:101910000902A0911002B09111020E94F9152091C4
:10192000180230911902820F931F9093C90280937D
:10193000C80280912002909121029093E10380934C
:10194000E003B09BFECFB09A6091E6037091E7038D
:101950008091DE039091DF03680F791F7093E70396
:101960006093E6034091E8035091E903A090E003FF
:10197000B090E1034A0D5B1D5093E9034093E803E7
:101980002091EA033091EB03420E531E5092EB0379
:101990004092EA038091EC039091ED03820D931D38
:1019A0009093ED038093EC03E090D603F090D7037F
:1019B000E091CE03F091CF03EE0EFF1EF092D7031D
:1019C000E092D6030091D8031091D903E091D0039F
:1019D000F091D1030E0F1F1F1093D9030093D8036A
:1019E000A091DA03B091DB03E091D203F091D3032D
:1019F000AE0FBF1FB093DB03A093DA03C090DC03EC
:101A0000D090DD03E091D403F091D5033F016C0C3D
:101A10007D1C7092DD036092DC03672F7727625391
:101A20007D4FFB019080C090C602D090C702692D07
:101A300096016203F001639FF00D1124BF016E0D4A
:101A40007F1D672F772762537D4FF090C202FB0105
:101A500060812F2D620340011124452F55274253E9
:101A60005D4FFA01D080E090C802F090C9026D2D60
:101A700097016203A001639F500D1124040F151FED
:101A8000012F112702531D4F4091C302F8015081CD
:101A90005403A0011124B401640F751F252D3327B1
:101AA00022533D4FF90110814091CA025091CB025F
:101AB00014039001159F300D1124A20FB31FAB2FFB
:101AC000BB27A253BD4F2091C4023C913203900129
:101AD0001124620F731F892F9927DC01A253BD4F78
:101AE0004C912091CC023091CD024203C001439F22
:101AF000900D1124F301E80FF91FEF2FFF27E25398
:101B0000FD4F2091C5023081320390011124620FF4
:101B1000731F660F672F661F770B60586093A100D5
:101B2000F091FB01FD831E822091B002CD80DE800A
:101B30002C9DC0012D9D900D11249093C402809185
:101B40004A0290914B029093D3038093D203209149
:101B50000A0230910B02A0911202B09113020E946E
:101B6000F91520911A0230911B02820F931F909356
:101B7000CB028093CA02809122029091230290931B
:101B8000E3038093E203B09BFECFB09A6091E6033B
:101B90007091E7038091DE039091DF03680F791F56
:101BA0007093E7036093E6034091E8035091E903E3
:101BB0004A0D5B1D5093E9034093E8032091EA032B
:101BC0003091EB03E091E203F091E30339016E0EF3
:101BD0007F1E7092EB036092EA038091EC03909178
:101BE000ED03820D931D9093ED038093EC03E09041
:101BF000D603F090D703A091CE03B091CF03EA0EA5
:101C0000FB1EF092D703E092D6030091D803109107
:101C1000D903A091D003B091D1030A0F1B1F1093D9
:101C2000D9030093D8034090DA035090DB03A091CE
:101C3000D203B091D3034A0E5B1E5092DB03409255
:101C4000DA03C090DC03D090DD03A091D403B091FF
:101C5000D5031D012C0C3D1C3092DD032092DC03CA
:101C6000672F772762537D4FDB019C90C090C6029F
:101C7000D090C702692D96016203D001639FB00D19
:101C80001124BD016E0D7F1D672F772762537D4F95
:101C9000F090C202DB016C912F2D620340011124F0
:101CA000452F552742535D4FDA01DC90E090C80282
:101CB000F090C9026D2D97016203A001639F500D42
:101CC0001124040F151F012F112702531D4F40919E
:101CD000C302D8015C915403A0011124B401640F24
:101CE000751F272D332722533D4FD9011C91409159
:101CF000CA025091CB0214039001159F300D11249C
:101D0000420E531E452D552742535D4F2091C4026C
:101D1000DA013C91320390011124620F731F892F65
:101D2000992782539D4FDC014C912091CC02309138
:101D3000CD024203C001439F900D1124D101A80F91
:101D4000B91FAB2FBB27A253BD4F2091C5023C91B9
:101D5000320390011124620F731F660F672F661FF5
:101D6000770B60586093A100B091FD01BF83188686
:101D70002091B102CF80D8842C9DC0012D9D900D63
:101D800011249093C50280914C0290914D02909342
:101D9000D5038093D40320910C0230910D02A091C1
:101DA0001402B09115020E94F91520911C02309185
:101DB0001D02820F931F9093CD028093CC028091DD
:101DC0002402909125029093E5038093E403B09B55
:101DD000FECFB09A6091E6037091E7038091DE0335
:101DE0009091DF03680F791F7093E7036093E60318
:101DF0004091E8035091E9034A0D5B1D5093E903BC
:101E00004093E8032091EA033091EB0339016E0E11
:101E10007F1E7092EB036092EA03A091EC03B091F5
:101E2000ED038091E4039091E5038A0F9B1F90934B
:101E3000ED038093EC03E090D603F090D703A091DC
:101E4000CE03B091CF03EA0EFB1EF092D703E092CF
:101E5000D6030091D8031091D903A091D003B0917B
:101E6000D1030A0F1B1F1093D9030093D80340908E
:101E7000DA035090DB03A091D203B091D3034A0E52
:101E80005B1E5092DB034092DA03C090DC03D090DB
:101E9000DD03A091D403B091D5031D012C0C3D1C92
:101EA0003092DD032092DC03672F772762537D4F4A
:101EB000DB019C90C090C602D090C702692D9601AC
:101EC0006203D001639FB00D1124BD016E0D7F1D13
:101ED000672F772762537D4FF090C202DB016C9130
:101EE0002F2D620340011124452F552742535D4F8A
:101EF000DA01DC90E090C802F090C9026D2D9701E4
:101F00006203A001639F500D1124040F151F012FC0
:101F1000112702531D4F4091C302D8015C91540315
:101F2000A0011124B401640F751F272D33272253FC
:101F30003D4FD9011C914091CA025091CB0214032C
:101F40009001159F300D1124420E531E452D55272B
:101F500042535D4F2091C402DA013C91320390015B
:101F60001124620F731F892F992782539D4FDC0123
:101F70004C912091CC023091CD024203C001439F8D
:101F8000900D1124D101A80FB91FAB2FBB27A2536D
:101F9000BD4F2091C5023C91320390011124620F84
:101FA000731F660F672F661F770B60586093A10041
:101FB0008091B2029091B30201969093B302809304
:101FC000B2028091B4029091B50201969093B5024D
:101FD0008093B4028091B6029091B70201969093DB
:101FE000B7028093B6028091B8029091B90201962F
:101FF0009093B9028093B802B09BFECFB09A209123
:10200000E6033091E7038091DE039091DF03280F10
:10201000391F3093E7032093E6038091E803909102
:10202000E903A80EB91EB092E903A092E8038091DB
:10203000EA039091EB036F01C80ED91ED092EB0317
:10204000C092EA034091EC035091ED038091E403C8
:102050009091E503840F951F9093ED038093EC031B
:102060008090D6039090D7034091CE035091CF0338
:10207000840E951E9092D7038092D603A091D80328
:10208000B091D9034091D0035091D103A40FB51F53
:10209000B093D903A093D8036091DA037091DB0366
:1020A0004091D2035091D303640F751F7093DB03EB
:1020B0006093DA030091DC031091DD034091D403B7
:1020C0005091D503400F511F5093DD034093DC0323
:1020D000232F332722533D4FF901F0800091C60290
:1020E0001091C7022F2D2003F001219FF00D112424
:1020F000E80DF91DEF2FFF278F0102531D4F20918F
:10210000C202F80130813203400111242B2D332704
:1021100022533D4FF901F0800091C8021091C9028D
:102120002F2D2003F001219FF00D1124AE0FBF1FB2
:10213000AB2FBB27A253BD4F2091C3023C9132036A
:1021400090011124820E931EED2DFF27E253FD4FC7
:10215000E0810091CA021091CB023E2F3003D001E2
:10216000319FB00D1124FD01E60FF71FEF2FFF2760
:10217000E253FD4F2091C4023081320390011124BB
:10218000B401620F731F7B876A87892F9927FC012F
:10219000E253FD4F60812091CC023091CD02620369
:1021A000F001639FF00D1124E40FF51FEF2FFF27BF
:1021B000E253FD4F3091C502208123039001112489
:1021C0008A859B85820F931F880F892F881F990B03
:1021D0009B878A8780588093A100A0E0B0E0AB2B5A
:1021E00011F40C9470020E9400000C947002813073
:1021F00039F48091A0008C708093A0000C94D601DB
:102200008091A0008C7082608093A000809100017A
:10221000823031F48091CE008093C8000C94D601B6
:10222000843041F48091AD0080648093AD00809152
:10223000CC00F2CF8091CD00EFCF53E0D52E0C949F
:102240000005821B930B91838083C7C8821B930B6D
:1022500091838083E3C8820F931F9183808304C995
:10226000882359F382E0D82E0C9400058F929F9218
:10227000AF92BF92CF92DF92EF92FF92CF93DF9314
:10228000EC01688179818A819B81611571058105E5
:10229000910521F464E279ED8BE597E02DE133EFD0
:1022A00041E050E00E94921149015A019B01AC01AA
:1022B000A7EAB1E40E94B1116B017C01ACEEB4EF6E
:1022C000A50194010E94BF11DC01CB018C0D9D1D65
:1022D000AE1DBF1DB7FF03C00197A109B048888399
:1022E0009983AA83BB839F77DF91CF91FF90EF9073
:1022F000DF90CF90BF90AF909F908F9008950E94F5
:102300003611089581E091E00E9436110895B0E001
:10231000A0E08093010190930201A0930301B09388
:1023200004010895052E97FB1EF400940E94A91144
:1023300057FD07D00E94C41107FC03D04EF40C9443
:10234000A91150954095309521953F4F4F4F5F4FC4
:10235000089590958095709561957F4F8F4F9F4F11
:1023600008950E94E611A59F900DB49F900DA49F23
:10237000800D911D11240895B7FF0C94B1110E9496
:10238000B111821B930B0895A1E21A2EAA1BBB1B4D
:10239000FD010DC0AA1FBB1FEE1FFF1FA217B30731
:1023A000E407F50720F0A21BB30BE40BF50B661F47
:1023B000771F881F991F1A9469F76095709580950B
:1023C00090959B01AC01BD01CF010895A29FB00182
:1023D000B39FC001A39F700D811D1124911DB29F59
:1023E000700D811D1124911D08955058BB27AA27F7
:1023F0000E940D120C945E130E94501338F00E943C
:10240000571320F039F49F3F19F426F40C944D1320
:102410000EF4E095E7FB0C944713E92F0E946F132D
:1024200058F3BA17620773078407950720F079F409
:10243000A6F50C9491130EF4E0950B2EBA2FA02D57
:102440000B01B90190010C01CA01A0011124FF2761
:10245000591B99F0593F50F4503E68F11A16F0405C
:10246000A22F232F342F4427585FF3CF469537955B
:102470002795A795F0405395C9F77EF41F16BA0B20
:10248000620B730B840BBAF09150A1F0FF0FBB1FCE
:10249000661F771F881FC2F70EC0BA0F621F731F17
:1024A000841F48F4879577956795B795F7959E3F74
:1024B00008F0B0CF9395880F08F09927EE0F979505
:1024C000879508950E9476120C945E130E9457130C
:1024D00058F00E94501340F029F45F3F29F00C940B
:1024E000471351110C9492130C944D130E946F13C7
:1024F00068F39923B1F3552391F3951B550BBB2733
:10250000AA2762177307840738F09F5F5F4F220F77
:10251000331F441FAA1FA9F335D00E2E3AF0E0E86E
:1025200032D091505040E695001CCAF72BD0FE2FB8
:1025300029D0660F771F881FBB1F2617370748074C
:10254000AB07B0E809F0BB0B802DBF01FF27935804
:102550005F4F3AF09E3F510578F00C9447130C946E
:1025600092135F3FE4F3983ED4F386957795679591
:10257000B795F7959F5FC9F7880F911D9695879539
:1025800097F90895E1E0660F771F881FBB1F621758
:1025900073078407BA0720F0621B730B840BBA0B16
:1025A000EE1F88F7E09508950E94DB126894B11140
:1025B0000C94921308950E94771388F09F5798F017
:1025C000B92F9927B751B0F0E1F0660F771F881F38
:1025D000991F1AF0BA95C9F714C0B13091F00E9452
:1025E0009113B1E008950C949113672F782F8827E9
:1025F000B85F39F0B93FCCF3869577956795B39579
:10260000D9F73EF490958095709561957F4F8F4FE7
:102610009F4F0895E89409C097FB3EF490958095EC
:10262000709561957F4F8F4F9F4F9923A9F0F92F98
:1026300096E9BB279395F695879577956795B79516
:10264000F111F8CFFAF4BB0F11F460FF1BC06F5FFC
:102650007F4F8F4F9F4F16C0882311F096E911C00E
:10266000772321F09EE8872F762F05C0662371F02F
:1026700096E8862F70E060E02AF09A95660F771F43
:10268000881FDAF7880F9695879597F9089597F937
:102690009F6780E870E060E008959FEF80EC089508
:1026A00000240A9416161706180609060895002431
:1026B0000A9412161306140605060895092E0394AB
:1026C000000C11F4882352F0BB0F40F4BF2B11F41F
:1026D00060FF04C06F5F7F4F8F4F9F4F089557FD7E
:1026E0009058440F551F59F05F3F71F04795880F80
:1026F00097FB991F61F09F3F79F087950895121617
:1027000013061406551FF2CF4695F1DF08C01616C2
:1027100017061806991FF1CF869571056105089473
:102720000895E894BB2766277727CB0197F908958A
:102730000E94AB130C945E130E94501338F00E9459
:10274000571320F0952311F00C9447130C944D135C
:1027500011240C9492130E946F1370F3959FC1F390
:10276000950F50E0551F629FF001729FBB27F00D3F
:10277000B11D639FAA27F00DB11DAA1F649F662794
:10278000B00DA11D661F829F2227B00DA11D621FE3
:10279000739FB00DA11D621F839FA00D611D221F9D
:1027A000749F3327A00D611D231F849F600D211D81
:1027B000822F762F6A2F11249F5750409AF0F1F004
:1027C00088234AF0EE0FFF1FBB1F661F771F881F6D
:1027D00091505040A9F79E3F510580F00C9447134B
:1027E0000C9492135F3FE4F3983ED4F3869577956B
:1027F0006795B795F795E7959F5FC1F7FE2B880F13
:10280000911D9695879597F90895FA01EE0FFF1F90
:10281000309621053105A1F16115710561F480380B
:10282000BFE39B0749F168949038810561F08038D7
:10283000BFEF9B0741F099234AF5FF3FE1053105C2
:10284000210519F1E8940894E795D901AA2329F400
:10285000AB2FBE2FF85FD0F310C0FF5F70F4A695CA
:10286000E0F7F73950F019F0FF3A38F49F779F936B
:102870000DD00F9007FC9058089546F00C944D131E
:1028800060E070E080E89FE308954FE79F775F93F3
:102890004F933F932F930E9447152F913F914F9154
:1028A0005F910E9498130C9465149F930E94C0142A
:1028B0000F9007FCEE5F0C94E91429F416F00C94C9
:1028C00047130C9491130C944D130E947713A8F3A3
:1028D0009638A0F707F80F92E8942BE33AEA48EB12
:1028E0005FE70E94AE130F920F920F924DB75EB743
:1028F0000F920E948F15E8E7F0E00E9497144F9125
:102900005F91EF91FF91E595EE1FFF1F49F0FE5794
:10291000E0684427EE0F441FFA95E1F74195550B07
:102920000E9409150F9007FE0C94FD140895DF9383
:10293000CF931F930F93FF92EF92DF927B018C0155
:10294000689406C0DA2EEF010E94AB13FE01E894F2
:10295000A5912591359145915591A6F3EF010E94DE
:102960000D12FE019701A801DA9469F7DF90EF904C
:10297000FF900F911F91CF91DF9108950C944D130B
:102980000E947713D8F3E894E0E0BB279F57F0F05C
:102990002AED3FE049EC06C0EE0FBB0F661F771F24
:1029A000881F28F0B23A62077307840728F0B25AEA
:1029B000620B730B840BE3959A9572F7803830F4B1
:1029C0009A95BB0F661F771F881FD2F790480C940B
:1029D000C515EF93E0FF07C0A2EA2AED3FE049ECFE
:1029E0005FEB0E940D120E945E130F90039401FC96
:1029F0009058E0EAF0E00C94D1159B01AC0160E046
:102A000070E080E89FE30C9462120C9447130C94DE
:102A1000C3150E947713D8F39923C9F3940F511D5E
:102A2000A3F39150504094F059F0882332F0660F90
:102A3000771F881F91505040C1F79E3F51052CF7DA
:102A4000880F911D9695879597F908955F3FACF093
:102A5000983E9CF0BB27869577956795B79508F4C7
:102A6000B1609395C1F7BB0F58F711F460FFE8CF41
:102A70006F5F7F4F8F4F9F4FE3CF0C94921316F0F1
:102A80000C94C3150C944D1368940C9447130E9436
:102A90007713A8F39923C1F3AEF3DF93CF931F937A
:102AA0000F93FF92C92FDD2788232AF02197660F05
:102AB000771F881FDAF720E030E040E85FEB9FE304
:102AC000883920F0803E38F021968F770E94F611E9
:102AD000EEEBF0E004C00E94F611EBEEF0E00E9495
:102AE00097148B01BE01EC01FB2E6F577109759590
:102AF000771F880B990B0E940C1328E132E741E302
:102B00005FE30E94AB13AF2D9801AE01FF900F91D0
:102B10001F91CF91DF910E940D120C945E13FA0168
:102B2000DC01AA0FBB1F9B01AC01BF5728F4222771
:102B300033274427507820C0B75190F4AB2F00249E
:102B4000469537952795011CA395D2F3002071F087
:102B5000220F331F441FB395DAF30ED00C94F511F6
:102B600061307105A0E88A07B94630F49B01AC01D9
:102B70006627772788279078309621F02083318345
:102B80004283538308959F3F31F0915020F48795FD
:102B900077956795B795880F911D9695879597F9C5
:102BA00008959F938F937F936F93FF93EF939B0170
:102BB000AC010E949813EF91FF910E9497142F91FE
:102BC0003F914F915F910C94981397FB072E16F449
:102BD000009407D077FD09D00E94001607FC05D0AD
:102BE0003EF4909581959F4F0895709561957F4F24
:102BF00008950E94E611B7FF0895821B930B089574
:102C0000AA1BBB1B51E107C0AA1FBB1FA617B70712
:102C100010F0A61BB70B881F991F5A95A9F780952E
:0C2C20009095BC01CD010895F894FFCF01
:102C2C000101000000400080008000800020008036
:102C3C000080008000800080004000400080000088
:102C4C000200020004000200000004000800010061
:102C5C000180010001400000008000800080000025
:102C6C0002000300028000800000018000000100CF
:102C7C000200039001C80060001002F40000018003
:102C8C00004000A000400080002000200010002028
:102C9C000020002000200020004000400000000028
:102CAC0000000000000000000000000000F000F038
:102CBC0000C000C000080020001000100008001028
:102CCC000010000800100010004000200000100050
:102CDC002000200020001000020002002080008054
:102CEC0000000100010C000C000C000C0018001876
:102CFC000000000C0018000C000C00180020002034
:102D0C0000200020002000200020002000200020B7
:062D1C0000200020000071
:00000001FF
