:100000000C9464000C9481000C9481000C94810089
:100010000C9481000C9481000C9481000C9481005C
:100020000C9481000C9481000C9481000C94EB00E2
:100030000C9481000C9481000C9481000C9481003C
:100040000C94A5000C9481000C9481000C94810008
:100050000C9481000C9481000C9481000C9481001C
:100060000C9481000C9481000C9400000C9400000E
:100070000C9400000C9400000000000025002800F3
:100080002B002E0000000000240027002A002D0075
:10009000040404040404040402020202020203032E
:1000A000030303030505050505050503010204080F
:1000B00010204080010204081020010204081020D2
:1000C000020801041040204011241FBECFEFD8E0E9
:1000D000DEBFCDBF11E0A0E0B1E0ECEBF7E002C085
:1000E00005900D92A630B107D9F722E0A6E0B1E065
:1000F00001C01D92A931B207E1F70E945D010C9485
:10010000DC030C9400003FB7F894809115029091A5
:100110001602A0911702B091180226B5A89B05C03F
:100120002F3F19F00196A11DB11D3FBFBA2FA92F76
:10013000982F8827BC01CD01620F711D811D911D73
:10014000660F771F881F991F08951F920F920FB691
:100150000F9211242F933F938F939F93AF93BF934D
:100160008091110290911202A0911302B091140299
:100170003091100220E4230F2D3728F023EC230FB9
:100180000196A11DB11D209310028093110290933E
:100190001202A0931302B093140280911502909161
:1001A0001602A0911702B09118020196A11DB11D6F
:1001B0008093150290931602A0931702B093180231
:1001C000BF91AF919F918F913F912F910F900FBE53
:1001D0000F901F9018951F920F920FB60F92112437
:1001E0002F933F934F935F936F937F938F939F933F
:1001F000EF93FF9380910B01880F98E328EC322F47
:1002000085361CF48C3924F4392F381B832FF7CF13
:1002100080588093A10080910B018195E0910A01A3
:1002200091E09E0F90930A01F0E0E05FFE4F808323
:1002300080910F01981710F010920A01E0910A01C5
:10024000F0E0E05FFE4F2081022E000C330B409166
:10025000080150910901BA0100900D0102C0759585
:1002600067950A94E2F770930C0160930B018091FB
:1002700006019091070195958795F901F595E79508
:100280008E0F9F1F461B570B840F951F90930901DC
:10029000809308013093070120930601FF91EF91AD
:1002A0009F918F917F916F915F914F913F912F918E
:1002B0000F900FBE0F901F9018958091F2008061F3
:1002C0008EBB80E88093F2009EB39093F2008093FF
:1002D000610091E0909361009091F2009F799EBB44
:1002E0008093F2009EB39093F2009091F2009B7F76
:1002F0009EBB8093F2009EB39093F20080936100C6
:1003000010926100789484B5826084BD84B5816068
:1003100084BD85B5826085BD85B5816085BD8091D0
:100320006E00816080936E00109281008091810048
:100330008260809381008091810081608093810040
:10034000809180008160809380008091B100846002
:100350008093B1008091B00081608093B000809163
:1003600091008260809391008091910081608093E0
:1003700091008091900081608093900080917A003C
:10038000846080937A0080917A008D7F80937A00D8
:1003900080917A008E7F80937A0080917A008068C5
:1003A00080937A001092C100E9EBF0E02491EDE92E
:1003B000F0E08491882399F090E0880F991FFC0168
:1003C000EC57FF4FA591B491FC01E858FF4F859180
:1003D00094918FB7F894EC91E22BEC938FBF81E06E
:1003E000809300018091AD008F7B8093AD00809160
:1003F00000018111B6C08091A0008C708160809353
:10040000A0008091F00081FF0AC08091F0008D7FF4
:100410008EBB80E88093F0008EB38093F0008091D3
:1004200000018295880F880F807C80937C00E0EB30
:10043000F0E0E491E4E9F0E084919091A0009C6008
:100440009093A000882369F090E0880F991FFC0129
:10045000EC57FF4F25913491FC01E858FF4F8591EF
:100460009491F89480918100877E886080938100C8
:10047000809180008C7F8093800080918100887FB4
:100480008160809381008BEA95E09093890080934E
:10049000880080916F00826080936F00789490E272
:1004A000392E22E0422E512C612C712C00E010E0FC
:1004B00085B1832585B9C0E1D1E00E9421032EEFEB
:1004C00030E040E050E00E9479036F5771098109E4
:1004D0009109699322E0C031D20779F70E94210384
:1004E00020EF30E040E050E00E947903605F7F4FF2
:1004F0008F4F9F4F60930F010E942103A301920130
:100500000E94790370930E0160930D010E94830095
:100510006B017C018AEF882E912CA12CB12C0E94BA
:1005200083006C197D098E099F09683E734081051F
:100530009105A8F381E0881A9108A108B10828EE76
:10054000C20E23E0D21EE11CF11C81149104A1040F
:10055000B10429F70115110509F4AACF0E94000082
:10056000A7CF813031F48091A0008C708093A000DF
:1005700056CF8091A0008C7082608093A000809103
:100580000001823029F48091CE008093C80047CFCB
:10059000843041F48091AD0080648093AD008091FF
:1005A000CC00F3CF8091CD00F0CF8F929F92AF928D
:1005B000BF92CF92DF92EF92FF92CF93DF93EC0145
:1005C000688179818A819B81611571058105910519
:1005D00021F464E279ED8BE597E02DE133EF41E022
:1005E00050E00E94790349015A019B01AC01A7EA3E
:1005F000B1E40E9498036B017C01ACEEB4EFA5015D
:1006000094010E94A603C60ED71EE81EF91EF7FE2F
:1006100006C081E0C81AD108E10880E8F80AC8825B
:10062000D982EA82FB82C701B6019F77DF91CF9121
:10063000FF90EF90DF90CF90BF90AF909F908F9002
:1006400008958F929F92AF92BF92CF92DF92EF92D6
:10065000FF926091010170910201809103019091DC
:100660000401611571058105910521F464E279EDBC
:100670008BE597E02DE133EF41E050E00E947903F4
:1006800049015A019B01AC01A7EAB1E40E94980319
:100690006B017C01ACEEB4EFA50194010E94A603AE
:1006A000C60ED71EE81EF91EF7FE06C081E0C81A66
:1006B000D108E10880E8F80AC0920101D092020155
:1006C000E0920301F0920401C701B6019F77FF9009
:1006D000EF90DF90CF90BF90AF909F908F90089554
:1006E00060930101709302018093030190930401D0
:1006F0000895052E97FB1EF400940E94900357FD69
:1007000007D00E94AB0307FC03D04EF40C94900377
:1007100050954095309521953F4F4F4F5F4F08952D
:1007200090958095709561957F4F8F4F9F4F08955D
:100730000E94CD03A59F900DB49F900DA49F800DA6
:10074000911D11240895B7FF0C9498030E949803FB
:10075000821B930B0895A1E21A2EAA1BBB1BFD015D
:100760000DC0AA1FBB1FEE1FFF1FA217B307E40790
:10077000F50720F0A21BB30BE40BF50B661F771FE8
:10078000881F991F1A9469F76095709580959095C8
:100790009B01AC01BD01CF010895A29FB001B39FA1
:1007A000C001A39F700D811D1124911DB29F700D7A
:0C07B000811D1124911D0895F894FFCFC5
:0607BC0001010000000035
:00000001FF
